:020000040800F2
:10000000C83000109D0100080F140008A30200086A
:100010000D140008E30B00082D2D0008000000005F
:100020000000000000000000000000004929000856
:100030008510000800000000EF010008012A0008F8
:10004000B7010008B7010008B7010008B7010008B0
:10005000B7010008B7010008B701000887100008C1
:10006000B7010008B7010008B7010008B701000890
:10007000B7010008B7010008B7010008B701000880
:10008000B7010008B7010008B7010008B701000870
:10009000B7010008B7010008B7010008B701000860
:1000A000B7010008B7010008B7010008B701000850
:1000B000B7010008B7010008ED2A0008B7010008E1
:1000C000B7010008B7010008B7010008B701000830
:1000D000B7010008C52B0008B7010008B7010008E8
:1000E000B7010008B7010008B7010008B701000810
:1000F000B7010008B7010008B7010008B701000800
:10010000B7010008051B0008B7010008B701000887
:10011000B7010008B7010008B7010008B7010008DF
:10012000B7010008B7010008B7010008B10D0008C9
:10013000B7010008B7010008B7010008B7010008BF
:10014000B7010008B7010008B7010008B7010008AF
:10015000B7010008B7010008C50D0008B701000885
:10016000B7010008B7010008B7010008B70100088F
:10017000B7010008B7010008B7010008B70100087F
:10018000B7010008B7010008DFF80CD000F086FCCA
:1001900000480047D90B0008C830001006488047C7
:1001A00006480047FEE7FEE7FEE7FEE7FEE7FEE75C
:1001B000FEE7FEE7FEE7FEE7912A00088901000856
:1001C000EFF3108072B6704780F310887047434A8F
:1001D0001368012B04D04FF001031360404A1060F4
:1001E000404A116040484FF0805101607047EFF382
:1001F000108272B63948016851B34FF000010160B6
:100200003748016891B1EFF309811EF0100F08BF64
:1002100021ED108B21E9F00F4FF000041EF0100FBC
:1002200008BF012441F8044D006801602D490968A8
:10023000096808C9B1E8F00F002B18BFB1EC108BAA
:1002400081F309884EF0100E002B18BF2EF0100E0F
:1002500082F310884EF0040E704722490860EFF3D5
:10026000148222F0040282F314881D494FF000002A
:1002700008601A494FF0010008601C484FF47F01E4
:10028000D0F8002041EA0201016017484FF0805188
:10029000016017480068006880F3088861B662B69C
:1002A00070471EF0040F0CBFEFF30880EFF30980D6
:1002B00020E9F00F40F804ED40F804ED1EF0040FC3
:1002C0000CBF80F3088880F3098800B52BF0DCFFB1
:1002D0005DF804EB4EF0040E70470000380100207A
:1002E000340100200405001004ED00E020ED00E0E2
:1002F00008ED00E02DE9F05F0546002092469B46A0
:1003000088460646814640241BE02846414647462B
:10031000224600F0A4FA53465A46C01A914110D31F
:1003200011461846224600F08BFA2D1A67EB010899
:100330004F4622460120002100F082FA17EB000907
:100340004E41201EA4F10104DFDC484631462A4616
:100350004346BDE8F09F40EA01039B0703D009E054
:1003600008C9121F08C0042AFAD203E011F8013BA1
:1003700000F8013B521EF9D27047D2B201E000F8FA
:10038000012B491EFBD270470022F6E710B5134639
:100390000A4604461946FFF7F0FF204610BD421EEC
:1003A00012F8013F002BFBD111F8013B02F8013B91
:1003B000002BF9D1704710B5044604E00B7800F823
:1003C000013B03B1491C521EF8D2204610BD421C0D
:1003D00010F8011B0029FBD1801A704710B50022CC
:1003E00000E0521C835C8C5CA34201D1002BF8D14D
:1003F000D8B2E1B2401A10BD30B504460020034621
:1004000000E05B1C934203D2E05CCD5C401BF8D063
:1004100030BD034611F8012B00F8012B002AF9D159
:100420001846704730B505460020034600E05B1CC7
:10043000934205D2EC5CC85C201A01D1002CF6D1A5
:1004400030BD70B5064602F097FC046805460A22E6
:100450000021304600F025FA2C6070BD2DE9FE4FDA
:10046000804681EA0300C00F0C46009021F0004155
:1004700023F00045B8EB0200A94105D240462146D1
:1004800090461C460B46024623F00040104347D0DE
:10049000270DC7F30A00C3F30A510290401A0190D6
:1004A00040286BDAC3F3130040F4801B0098924697
:1004B00020B10023D2EB030A63EB0B0B01985946E2
:1004C000C0F14002504600F0BBF906460D465046CA
:1004D0005946019A00F0D3F910EB0800614100245D
:1004E00087EA115284EAE7731A4340D0009A62B354
:1004F000019A012A4FEA075215DC001B61EB020149
:100500004FF0004202EA0752CDE90042001C41F5DB
:10051000801132462B4600F042FA03B0BDE8F08F5E
:1005200040462146F9E7001B61EB0201001C41F542
:10053000801300185B412018A2F5001747EB030158
:1005400040EAD570B6196D4111E06D084FEA3606E4
:1005500045EAC0754FEA0752001B61EB0201001C1F
:1005600041F5801149084FEA3000001951413246E7
:100570002B4603B0BDE8F04F00F002BA009801220C
:1005800040000023D0EB020263EBE07300982146A9
:100590004FEAE074B8EB000061EB0401E9E783F097
:1005A00000435BE781F0004158E72DE9FE4F81EA07
:1005B000030404F0004421F0004100944FF0000BCC
:1005C00023F0004350EA01045ED052EA03045BD0FA
:1005D000C3F30A54C1F30A552C44A4F2F334019432
:1005E000A0FB0254C1F3130141F48011C3F31303C0
:1005F00043F4801301FB024400FB034E840A970A74
:1006000044EA815447EA8357A4FB076802958D0AA0
:1006100005FB07854FEA932C04FB0C542705029D2C
:100620004FEA065847EA1637B5EB08056EEB070C9C
:10063000870E920E47EA811742EA8312A7FB020156
:10064000B6EB0B0164EB00042B0D43EA0C335E1890
:1006500044EB1C50DA465146E7FB0201C5F3130494
:100660004FEA0B3343EA14534FEA0432019C43EA46
:100670000603A4F10C040294009CCDE900B400F040
:100680008EF903B0BDE8F08F00200146F9E72DE9AF
:10069000F04D81EA030404F0004B21F000451446BC
:1006A0004FF0000A23F0004150EA050220D054EA3E
:1006B00001021DD0C5F30A570246C5F31303C1F367
:1006C0001300C1F30A5640F4801543F48013A7EBDE
:1006D0000608101BD64608F2FD3873EB050002D35E
:1006E00008F1010801E092185B41B8F1000F03DA4C
:1006F00000200146BDE8F08D00204FF48011064631
:1007000084460EE0171B73EB050705D3121B63EB42
:10071000050306434CEA010C49084FEA30009218E1
:100720005B4150EA0107EDD152EA030012D082EAA0
:10073000040083EA0501084305D0101BAB4106D233
:100740000122002306E000224FF0004302E06FF098
:10075000010253101AEB06004CEB085110EB0A0093
:1007600041EB0B01BDE8F04D00F00AB90EB540F2C7
:10077000334102910021CDE900110A460B4600F0F9
:100780000EF903B000BD0EB540F2334202920022D2
:10079000CDE90022134600F002F903B000BD70B5A8
:1007A000C1F30A5201F000450024C1F3130140F2E5
:1007B000FF3341F480119A4201DA002070BD40F20B
:1007C00033439A42A2F2334203DC524200F047F82C
:1007D00000E090402C43F1D0404270BD01F0004356
:1007E00030B421F0004150EA010206D00A0DA2F512
:1007F0006072C1F31301002A02DC30BC0020704794
:10080000440F44EAC104C100E01830BC00EBC25000
:1008100000F07FB830B50B460146002020220124AD
:1008200009E021FA02F59D4205D303FA02F5491BBE
:1008300004FA02F52844151EA2F10102F1DC30BDD4
:10084000202A04DB203A00FA02F100207047914090
:10085000C2F1200320FA03F3194390407047202A85
:1008600004DB203A21FA02F00021704721FA02F35A
:10087000D040C2F120029140084319467047202A17
:1008800006DBCB17203A41FA02F043EAE07306E0B8
:1008900041FA02F3D040C2F12002914008431946C8
:1008A00070472DE9F04791460F46804604460026E2
:1008B00014F8015B2DB100F003F90068405DC0073A
:1008C000F6D12B2D02D02D2D18D0641E4A46394664
:1008D000204600F0F9F827B13968A14201D1C7F8E4
:1008E000008071054FF002040BD54042002803DD63
:1008F00002F042FA0460A007BDE8F08746F4806683
:10090000E4E70028F8DA02F037FA04606FF00040FC
:10091000F2E70029A8BF7047401C490008BF20F03B
:100920000100704710B4B0FA80FC00FA0CF050EAF5
:10093000010404BF10BC704749B1CCF1200421FA76
:1009400004F411FA0CF118BF012121430843A3EB71
:100950000C01CB1D4FEA00614FEA102042BF00207E
:1009600010BC704700EBC35010440029A4BF10BC5A
:100970007047401C490008BF20F0010010BC7047C0
:1009800010B5141E73F1000408DA401C41F1000197
:1009900092185B411A4301D120F0010010BD2DE9EE
:1009A000F04D92469B4611B1B1FA81F202E0B0FAE5
:1009B00080F220329046FFF743FF04460F4640EA9C
:1009C0000A0041EA0B0153465A46084313D0114628
:1009D00053EA010019D0C8F140025046FFF73FFF2B
:1009E00005460E46504659464246FFF729FF084342
:1009F00005D0012004E020463946BDE8F08D0020F6
:100A0000054346EAE0762C4337430A986305E40A37
:100A1000A0EB08000022FD0A44EA47540A3002D540
:100A200000200146E9E7010510196941DDE90845A3
:100A300000196941BDE8F04DA2E7C1F30A52C1F3C4
:100A4000130140F2FF3341F480119A4202DA002090
:100A50000146704740F233439A42A2F2334202DC2D
:100A60005242FFF7FCBEFFF7EBBE000030B5041E9C
:100A700071F1000404DB4FF00044404264EB0101DB
:100A8000141E73F1000405DB1C464FF00043524274
:100A900063EB0403994208BF904230BD064C074DFA
:100AA00006E0E06840F0010394E80700984710343E
:100AB000AC42F6D3FFF76CFB04940408449404089A
:100AC00000487047A07604082DE9F05F8246007860
:100AD000002715468B460AF10104B946302801D09B
:100AE0009DB113E014F8010B0127782803D0582892
:100AF00001D045B10AE00DB1102D07D10027102516
:100B000014F8010B02E0082500E00A250026B04693
:100B10000EE005FB080005FB06F1012701EB10467E
:100B20001FFA80F8B6F5803F00D3B94614F8010BE0
:100B3000294600F018F80028EBDABBF1000F05D0C9
:100B40000FB1641E00E05446CBF80040B9F1000F2D
:100B500006D002F011F902210160C81EBDE8F09F25
:100B600048EA0640FAE73A2800D2303820F020025E
:100B7000412A01D3A2F13700884201D34FF0FF3060
:100B8000704770B58C1810F8015B15F0070301D1A0
:100B900010F8013B2A1106D110F8012B03E010F8E0
:100BA000016B01F8016B5B1EF9D12B0705D4002303
:100BB000521E0DD401F8013BFAE710F8013BCB1AA5
:100BC000921C03E013F8015B01F8015B521EF9D59A
:100BD000A142D8D3002070BD10B52DF021FF002018
:100BE00010BDFEE710B54FF080440021204601F013
:100BF00094FF606A014A0021517010BD400000203E
:100C000010B5074C207808B931F05EFB4FF08040FA
:100C100000214162012101F080FF0120607010BDC0
:100C20004000002070B5374905460024086810F0E0
:100C3000450FFBD0410702D50324042003E0C00781
:100C400004D00124204600F0F7FE59E000F030FF08
:100C5000A8422BD140F2FF5000F0EEFE002000F041
:100C600049FF294908424BD0002801DA1C2070BDF9
:100C7000410001D5092070BD810001D50A2070BD59
:100C8000C10001D50B2070BD010101D50C2070BD44
:100C9000410101D50D2070BDC10101D50E2070BDEF
:100CA000010201D50F2070BD410201D5102070BD99
:100CB000810201D5112070BDC10201D5122070BD85
:100CC000010301D5132070BD410301D5142070BD6F
:100CD000810301D5152070BDC10301D5162070BD5B
:100CE000010401D5172070BD410401D5182070BD45
:100CF000810401D5192070BD000701D51A2070BDEF
:100D0000204670BD342C014008E0FFFD10B50B48B3
:100D10000024016811F0450FFBD0480702D50324D9
:100D2000042003E0C80705D00124204600F084FE1B
:100D3000204610BD40F2FF50F8E70000342C01407F
:100D400070B50C46194906460025086810F0450F95
:100D5000FBD0410702D50324042003E0C00705D0DF
:100D60000124204600F068FE204670BD00F0A0FE81
:100D7000B04212D140F2FF5000F05EFE002000F0C1
:100D8000B9FE10F4604F03D0810404D5132070BD68
:100D9000000C208007E0410401D5102070BD000444
:100DA00001D50F2070BD284670BD0000342C0140D5
:100DB00010B52BF095FB01F099FBBDE810402BF02E
:100DC000A7BB000070B52BF08BFB094D094C2946E1
:100DD000204600F0EDF838B12946204600F022F810
:100DE0000021204600F034F8BDE870402BF090BBA5
:100DF00000800028B8640240074A904201D20748A8
:100E000001E005481038064A8B0001EA020101D5CD
:100E1000C16070478160704710640240006002400A
:100E20007D0F7D0F074A904201D2074801E0054837
:100E30001038064A8B0001EA020101D5C1607047F3
:100E40008160704710640240006002407D0F7D0F9A
:100E50000029016802D041F0010101E021F0010107
:100E6000016070472DE9F043016821F00101016044
:100E70000021016041608160C16001612121416107
:100E80003C493C4A3D251039904202D18D60BDE875
:100E9000F083384A4FF474661832904201D18E6064
:100EA000F5E7344A4FF474173032904201D18F6025
:100EB000EDE7304A4FF0746C4832904202D1C1F8ED
:100EC00008C0E4E72B4B2C4A6033984201D1CA603A
:100ED000DDE7284C294B7834A04201D1CB60D6E71E
:100EE000DFF89080264C08F19008404501D1CC6095
:100EF000CDE7DFF880804FF03D5908F1A808404564
:100F000002D1C1F80C90C2E71E49DFF87880083999
:100F1000404501D10D60BAE71A4D1835A84201D1FC
:100F20000E60B4E7174D3035A84201D10F60AEE72F
:100F3000144D4835A84202D1C1F800C0A7E7114DB1
:100F400010496035091FA84201D10A609FE70D4A88
:100F50007832904201D10B6099E70A4A9032904270
:100F600001D10C6093E7074AA83290428FD1C1F8B3
:100F700000908CE7106002403D000020400F0020F0
:100F800000003D20106402400029016802D041F0B9
:100F9000200101E021F0200101607047014600209E
:100FA0000968C90700D001207047406880B27047C7
:100FB00030B5104A0024904201D20F4B01E00D4B96
:100FC000103B0E4A114205D01E2202EAD1250268CA
:100FD0002A4002E0406900F08002880001D558688C
:100FE00000E01868064B1840084201D002B1012405
:100FF000204630BD10640240006002403C0F3C0FB0
:101000007D0F7D0F0B0607D5436912B143F08003B6
:1010100001E023F080034361802908D0002A0268A0
:1010200001F01E0101D00A4300E08A4302607047CC
:1010300030B50368124ACC6813400A682243D1E9EC
:1010400005452C432243CC6922430C6A22434C6A57
:1010500022438C6A22434C6B22438C6B22431A43FB
:101060000260426922F00703D1E90B2422431A43AC
:1010700042610A6942604A6882608968C16030BD25
:101080003F801CF0704710B52BF02AFA022000F0C8
:1010900005F8BDE810402BF03BBA0000014908609C
:1010A00070470000143C01402DE9FC5F0025484CCE
:1010B00000954FF4806801954027C4F81080C4E97A
:1010C00002750E464FF0080B1021C4E900B1A94685
:1010D000204600F049FD1020FFF7A4FD00284CD168
:1010E0003C48BA464F460089000420603720C4E9D6
:1010F000010AC4E90398204600F036FD3720FFF7C7
:1011000091FD002839D1411E04F11400C0E9001BF3
:10111000302181600221C0E903170121416100F003
:10112000A3FC3320C4F808A0C4E90070C4E9037824
:10113000204600F019FD3320FFF774FD04001CD198
:10114000254F4FF4001AE94640F22A68386810EA41
:10115000080F0AD1504600F0B1FC0028F6D000F08C
:10116000FDFC49F825006D1CF0E7082000F0A6FC06
:1011700028B1082000F060FC0420BDE8FC9F02209C
:1011800000F09CFC20B1022000F056FC0220F4E7A5
:10119000202000F093FC20B1202000F04DFC062020
:1011A000EBE74FF40075284600F088FC20B1284694
:1011B00000F042FC0720E0E740F2FF5000F03CFC6A
:1011C000009800BA7060019800BA30602046D4E7F9
:1011D0008806001014000020342C0140F0B50023D4
:1011E000012403270D6804FA03F21540954242D109
:1011F000D0F800C05E0007FA06F52CEA050CC0F82E
:1012000000C091F804C0D0F800E00CFA06FC4CEAEB
:101210000E0CC0F800C091F804C0BCF1010F02D060
:10122000BCF1020F1FD1D0F808C02CEA050CC0F8A1
:1012300008C091F805C0D0F808E00CFA06FC4CEAAA
:101240000E0CC0F808C0D0F804C02CEA020CC0F89C
:1012500004C0426891F806C00CFA03FC1FFA8CFC2B
:1012600042EA0C024260C268AA43C260CA79C568F9
:10127000B2402A43C2605B1C102BB3D3F0BD4B07B6
:10128000DB0E9A40C90810B500EB8100016A0F24FB
:101290009C40A1430162016A1143016210BD0246F4
:1012A000002012690A4200D0012070470246002047
:1012B000938A128B43EA024323F07F42914300D189
:1012C000012070470029018802D041F0010101E0AE
:1012D00021F00101018070470D4910B5884202D10B
:1012E00001214C050AE00B49884202D101218C05FD
:1012F00004E0094988420AD10121CC05204600F0CA
:10130000EDF82046BDE81040002100F0E7B810BD20
:101310000054004000580040005C00400029018853
:1013200002D041F4807101E021F4807101807047A6
:101330000029018802D041F4007101E021F400711C
:10134000018070477FB5044680880D4620F03F0637
:10135000684600F0E7F827490298B0FBF1F189B23E
:101360000E43A680228822F001022280224B2A68A6
:101370009A421BD85200B0FBF2F080B2042800D28F
:101380000420491C2184A083208840F00100208093
:1013900021884FF6F5300140A8886A891043084338
:1013A0002080A8892989084320817FBDEB88A3F587
:1013B0003F46FF3E0BD002EBC20303EB0212B0FB31
:1013C000F2F080B240F48040020506D007E002EB64
:1013D0004202B0FBF2F080B2F6E740F001004FF4B9
:1013E000967251434FF47A72B1FBF2F140F400402F
:1013F000C7E7000040420F00A086010012B141F093
:10140000010101E001F0FE0101827047FEE7704733
:1014100030B50F22C47801780123FCB1144C246844
:1014200001F1E02104F4E064C4F5E064C4F30724AE
:10143000C4F10405E2404478AC408578154025436A
:101440002A0181F80024007800F01F018B40400938
:10145000800000F1E020C0F8003130BD01F01F0035
:1014600083404809800000F1E020C0F8803130BDA1
:101470000CED00E002490843024908607047000093
:101480000000FA050CED00E0014908627047000019
:1014900000000E42044A0029116801D0014300E017
:1014A000814311607047000030380240044A00292F
:1014B000116801D0014300E08143116070470000D2
:1014C00034380240044A0029116801D0014300E089
:1014D000814311607047000040380240044A0029EF
:1014E000116801D0014300E08143116070470000A2
:1014F00020380240044A0029116801D0014300E06D
:10150000814311607047000044380240044A0029BA
:10151000116801D0014300E0814311607047000071
:101520002438024070B5204A1168204C11F00C019B
:1015300004D01F4E042903D0082903D004601BE007
:10154000066019E01849091F0B68C3F380550B6842
:1015500003F03F0315B1B6FBF3F301E0B4FBF3F383
:101560000C680968C4F388146343C1F30141491C42
:101570004900B3FBF1F1016011680F2303EA111177
:101580000C4B5C5C0168E14041601468072505EA8A
:1015900094241C5D21FA04F48460126805EA523236
:1015A0009A5CD140C16070BD083802400024F4004C
:1015B00040787D01000000100246002051090129F9
:1015C0000BD002290CD00849096802F01F02012340
:1015D00093400B4200D00120704703497439F3E770
:1015E0000149091FF0E70000743802400549002254
:1015F0000A700A70012802D0042801D10520087061
:1016000070470000703802400149086070470000D0
:101610003C0E4742C0F30121032907D1074A116854
:1016200021F4F81306490140194311600349683158
:101630000A68C0F30B0002430A6070470838024092
:10164000FFFCFF0F05490028086802D040F00400A5
:1016500001E020F004000860704700000008065018
:10166000014800687047000008080650010901EBB6
:10167000810100F00F0000EB4100C0B27047002173
:1016800003E0491C0A38C9B2C0B20A28F9D20907D6
:1016900040EA11607047000008B5002000900C4837
:1016A0000168490612D44FF0FF31016083130168CD
:1016B000009A01F04001521C00929A4201D0002988
:1016C000F5D00068400601D4002008BD012008BD07
:1016D0000C2800400248016821F080010160704739
:1016E0000C28004010B50C460E4909680E4A1140FE
:1016F0000A0CE270C1F30423637001F03F03A3708E
:10170000C1F34231217000280BD11046FFF7AEFF24
:10171000E0706078FFF7AAFF6070A078FFF7A6FF7F
:10172000A07010BD042800403FFFFF0010B50C461C
:101730000F4909680F4A1140C1F305422270C1F3F5
:101740000623637001F07F03A370402303EA114175
:10175000E17000280BD11046FFF788FF20706078F9
:10176000FFF784FF6070A078FFF780FFA07010BDC6
:10177000002800407F7F7F0070B5124D0446002690
:10178000CA20286053202860FFF786FFA8B10D48C3
:101790001C38016821F04001016001682268114392
:1017A00001600848A168143801600168A28841EA14
:1017B00002410160FFF78EFF0126FF2028603046BE
:1017C00070BD00002428004008B5034901EB8000EB
:1017D0000090006808BD00005028004070B50C461D
:1017E000010060784FF000062AD0FFF73FFFA07895
:1017F000FFF73CFFA078E17840EA01456078217866
:10180000000240EA41300543194CCA2020605320B1
:101810002060FFF741FF78B1164805401448203892
:101820000560FFF757FF12481C380068800602D495
:1018300000F072F800B10126FF202060304670BD34
:10184000C10603D520F010000A306070E078FFF781
:1018500016FF05046078FFF712FF45EA0025A0781F
:10186000FFF70DFF0543207845EA4035CCE700003F
:10187000242800403FFFFF002DE9F041244F0C4693
:1018800002004FF0000620783A6831464FEA426283
:1018900004D0002A15DAFFF7E9FE13E0002A00DB86
:1018A000E170FFF7ECFE05046078FFF7E8FE45EA1B
:1018B0000025A078FFF7E3FE0543E07845EA004500
:1018C0000AE0E170A078217840EA01456078E1788B
:1018D000000240EA014005430D4CCA201C34206040
:1018E00053202060FFF7D8FE68B10A480540084839
:1018F00008380560FFF7EEFE3868800602D400F075
:101900000BF800B10126FF2020603046BDE8F081D1
:10191000082800407F7F7F0018B500201049009004
:10192000CA200860532008600D481838026822F069
:10193000A00202604FF400340268009B02F0200213
:101940005B1C0093A34201D0002AF5D000688006FA
:1019500001D5012000E00020FF220A6018BD000030
:101960002428004008B5034A02EB80000090016083
:1019700008BD0000502800402DE9FC4700258046A6
:1019800000952846019500F0B5F8800102D50E209B
:10199000BDE8FC87264F6946388980B2FFF784FB93
:1019A0000028F5D13720234C402601994FF0060A34
:1019B0004FF48069B8F1010F1FD0C90335D53989BB
:1019C000C4F810900904C4E90010C4E90265204677
:1019D00000F0CAF83720FFF725F90028D8D1C4E96C
:1019E000005AC4F8109000BFC4E90265114800F025
:1019F000BBF80620FFF716F9CAE7490315D5398960
:101A0000C4F810900904C4E90010C4E9026509484B
:101A100000F0AAF83720FFF705F90028B8D1022016
:101A2000C4F81090C4E9000ADEE72520B0E7000002
:101A3000140000208806001001490860704700006B
:101A4000382C01400149086070470000382C0140E3
:101A50000149C1F8A0007047008025420149086093
:101A6000704700008C85254210B50A4A0168116054
:101A7000121D41681160121D116821F0F703D0E9B1
:101A800002142143D0E90440044321431943116067
:101A900010BD0000242C014010B50121CC022046CD
:101AA000FFF734FD2046BDE810400021FFF72EBDB2
:101AB00001480068C0B27047102C0140034A01463B
:101AC000002012680A4200D001207047342C0140E7
:101AD000034A0146002012680A4200D001207047E4
:101AE000342C01400248006800F0030070470000F9
:101AF000002C014008B5024908440090006808BD68
:101B0000142C014010B52AF0EBFC00F003FDBDE8F9
:101B100010402AF0FDBC0000044A0029116801D0E1
:101B2000014300E081431160704700003C2C0140FC
:101B300030B5094B1A6847F6FF618A43017D846816
:101B4000C568214344682C4321430468006921434C
:101B500001431143196030BD042C01400148006865
:101B600070470000802C014010B5084A01681160E0
:101B7000121D1168CB0AD0E901142143D0E90340BA
:101B80000443DB0221431943116010BD082C0140BE
:101B90000149086070470000002C014008B5012091
:101BA0008DF8000010210548FFF779FB10B10020E7
:101BB0008DF800009DF8000008BD00000000024004
:101BC0002DE9F0410146194800264068032813D04A
:101BD00018B1012801D0022825D1B1F5805F0BD0C2
:101BE0004FF400670025124CB9420ED10120FFF7D7
:101BF000C3FE060003D016E02720BDE8F08125755E
:101C000025606560C4E9025709E00020FFF7B4FED3
:101C1000060008D1257525606560A560E56004486B
:101C20002561FFF785FF3046E7E70000140000203C
:101C3000700600102DE9F0439849DFF86492D1F85E
:101C400004C080F856C00989A0F85410D9F80010D3
:101C50000A0E94090470C2F38304447002F0030274
:101C600082700A0CC2700A0A02714171D9F80470BC
:101C7000390E0901C180C288C7F3074142EA111237
:101C8000C28001F00F010172C7F30722D10941722E
:101C9000C2F380118172C2F34011C172C2F300110C
:101CA0000173002141734B469D6801232E0EC5F33D
:101CB0000744C5F30728BCF1000F06D0BCF1010FA3
:101CC00003D0BCF1020F3BD052E09207120D02612B
:101CD000FAB2076947EA82020261026942EA961291
:101CE0000261C6F3C202027506F00702427562097C
:101CF0008275C4F38202C275A207520F0276047E77
:101D0000424644EAD21404760469077EBF1C03FAF3
:101D100007F6641CA4FB06784FEAE67C01FB068606
:101D200004FB0C6690F808C003FA0CF4A7FB04C887
:101D3000046506FB048407FB0144C0E912C417E0F4
:101D4000BA06920A0261026942EA06220261026947
:101D50002243026104694246641C41F10006F60414
:101D600046EA5436E404C0E912464FF400740465B0
:101D7000C2F3801444769206520E00F81A2FEAB28B
:101D8000057845EAD21500F8015B02F07F0200F801
:101D9000012BD9F80C40220ED50900F8015BC2F3E3
:101DA000411500F8015BC2F3820500F8015B920760
:101DB000120F02700578C4F3074245EA921500F845
:101DC000015BC2F340150570417002F001028270A0
:101DD000C4F30722D509C570C2F380150571C2F39B
:101DE00040154571C2F300158571C2F38105C571B7
:101DF00002F003020272C4F3460242728372284C5C
:101E000010342268150E0573150C2D02C581C68984
:101E1000C2F307252E43C681120602616268066975
:101E2000150E46EA054505610669C2F3074546EA0F
:101E3000052505610669C2F307252E430661027573
:101E4000A268150E4575150C2D0685618669C2F3CD
:101E5000072546EA054585618569D2B245EA022231
:101E60008261E268856945EA12658561057FC2F392
:101E7000074445EA141505772407240DC483C58B50
:101E8000C2F307242543C583C2F3460280F820200D
:101E900080F821300846BDE8F083000014000020DF
:101EA000E805001008B500200090FFF777FE012834
:101EB00003D1684600F02EFC08B1FF2008BD009851
:101EC000C0F3432008BD10B5FFF7ECFF042803D092
:101ED000FF2803D0012010BD002010BD022010BD3E
:101EE0002DE9F04393B000250095402102A801950B
:101EF000FEF74AFA4E4802AE05700561C5604D49CD
:101F00000D600089694680B2FFF7CEF8002856D1EF
:101F1000019911F0407F52D0474C4FF040081021FA
:101F2000E4E8028140464FF4806984E82102424897
:101F3000083CFFF719FE1020FEF774FE00283ED182
:101F4000471E3D48602114300760C0E9018102212D
:101F5000C0E9031501214161FFF786FD3748206084
:101F60000620C4E90108C4E903593348FFF7FCFD22
:101F70000620FEF757FE002821D12E4D4FF40049D0
:101F8000083540F22A68286810EA080F0FD1484641
:101F9000FFF794FD0028F6D05FF00004FFF7DEFDA8
:101FA00046F82400641C082CF8D32036EBE7082000
:101FB000FFF784FD30B10820FFF73EFD042013B089
:101FC000BDE8F0830220FFF779FD20B10220FFF782
:101FD00033FD0220F3E72020FFF770FD20B1202021
:101FE000FFF72AFD0620EAE74FF400742046FFF7CA
:101FF00065FD20B12046FFF71FFD0720DFE74FF406
:10200000001403E0FFF7AAFD01C67F1E2046FFF77C
:1020100055FD08B1002FF5D140F2FF50FFF70CFD40
:102020009DF81500800701D50020C8E72720C6E7E6
:10203000140000202C2C01408806001001FFFF80B6
:1020400038B500248DF8004000F0FEF8FFF724FDBD
:1020500000F05AF98DF800009DF8000058BB00F020
:102060002FF88DF800009DF8000020BB1348047580
:10207000046044608460C4600461FFF759FD0F4848
:102080005838FFF7D7FD8DF800009DF8000048B9DB
:102090000A4800215838B0F85400000400F024FB2E
:1020A0008DF800009DF8000028B94FF40060FFF79C
:1020B00087FD8DF800009DF8000038BD7006001007
:1020C0002DE9F84F01200025ADF80000FFF70AFDCB
:1020D000A8B3DFF8E090D9F80400042868D0364CA3
:1020E0004FF0C00A00260220C4F808A0C4E900602E
:1020F0004FF48068C4E903682046FFF735FDFEF71A
:1021000005FE05001DD1FFF7F5FCA4F1900738602E
:102110000420FFF7EFFC78600820FFF7EBFCB860C5
:102120000C20FFF7E7FCF860D9F804004F4650B1E7
:10213000012808D0062806D0022804D013E0FFE7C3
:102140002520BDE8F88F0320E4E80260402084E801
:1021500041011948083CFFF707FD69460320FEF7D7
:10216000EFFD0500EDD17868042821D0BDF800000E
:10217000B860000420600920C4E9010AC4E90368CA
:102180000D48FFF7F1FCFEF7C1FD0500D9D1FFF7BF
:10219000B1FC094CA03C20600420FFF7ABFC606060
:1021A0000820FFF7A7FCA0600C20FFF7A3FCE0606D
:1021B0002846C6E7140000208806001070B5204E9F
:1021C0000C46054690B04FF0FA513046FEF714FE2B
:1021D00000213046FEF73CFE3046FEF743FE4FF04E
:1021E000006000901748CDE901054020CDE90304C7
:1021F00000203115CDE90501890007918900CDE95D
:1022000008104FF440300A9004200B9003200C90EB
:1022100048020D9080100E9069463046FEF708FF88
:10222000012210213046FEF7EDFE20213046FEF758
:10223000ABFE01213046FEF70BFE10B070BD000072
:1022400058640240802C01402DE9FC4101210D2001
:10225000FFF720F9294E0C2208213046FFF70FF82E
:102260000C2209213046FFF70AF80C220A213046D9
:10227000FFF705F80C220B213046FFF700F80C227F
:1022800011463046FEF7FBFF1D4F0C220221384657
:10229000FEF7F5FF4FF47060009002208DF8050006
:1022A0008DF8040000248DF8064001258DF80750B4
:1022B00069463046FEF792FF042000906946384692
:1022C000FEF78CFF280300908DF8074069463046E2
:1022D000FEF784FF102000908DF804408DF8075021
:1022E00069460848FEF77AFF0121C802FFF702F9A4
:1022F00001218805FFF7CEF8BDE8FC810008024007
:10230000000C0240000002402DE9FC5F00258DF822
:10231000005072487621A9460175056045608560C8
:10232000C560A8460561FFF703FC0320FFF730FCFA
:102330000120FFF78DFB694C4FF4806B1834204669
:1023400025606560A560C4E9035BFFF70DFC4FF4F1
:10235000803A0027564601E0761E10D08020FFF715
:10236000ADFB0028F8D056B140F2FF50FFF764FBF8
:102370008DF800709DF80000002854D101E003277B
:10238000F6E74FF4D570206008204027C4E9010724
:102390005248C4E9035B5E461830FFF7E5FB504B3B
:1023A000002051461A684FF0370B02E04C4A126881
:1023B000491E12F0450F06D009B1510706D54FF05E
:1023C000030A042007E00029F0D1F8E7510605D5FB
:1023D0004FF0000A4020FFF72FFB50468DF8000019
:1023E0009DF8000000B3A760C4E9005B3B48C4E966
:1023F00003561830FFF7B8FB3720FEF713FC8DF8B3
:102400000000A760C4E9005B3448C4E90356DA461B
:102410001830FFF7A9FB3720FEF704FC8DF8000009
:102420009DF8000088B355E02E4801214FF0804808
:102430004160E6E7A760C4E9005A2848C4E90356AA
:102440001830FFF791FB3720FEF7ECFB8DF800000A
:102450009DF8000078BB244948EA0100206029204B
:10246000C4E901071D48C4E903561830FFF77CFB97
:1024700000201B490190086810F0450FFBD0400771
:1024800004D503200190042002E011E040F2FF5047
:10249000FFF7D2FA01988DF800009DF8000050B9BE
:1024A0000020FFF727FBC10F09F1010904D005E067
:1024B0004FF6FF7BBEE70DE0D945BBD3D94503D32B
:1024C0001B208DF8000005E010F0804F02D0054879
:1024D000022141609DF80000BDE8FC9F70060010DD
:1024E000342C0140140000200000108007480068D0
:1024F00010F0C05F08D006490120486103484FF042
:10250000C2515830FEF778BC7047000000640240AA
:102510001400002070B54FF480752846FFF7D8FAF4
:102520001F4C38B1002020702846FFF78BFA01209D
:1025300020612EE00220FFF7CBFA20B10220FFF746
:1025400081FA022024E00820FFF7C2FA20B1082017
:10255000FFF778FA04201BE02020FFF7B9FA20B13A
:102560002020FFF76FFA062012E01020FFF7B0FAE4
:1025700020B11020FFF766FA052009E04FF400753E
:102580002846FFF7A5FA20B12846FFF75BFA072097
:10259000207000214CF23A30FFF7BEFA207870BD6F
:1025A000140000202DE9F05F4C49054600200A9FE9
:1025B000164608700861C860494A106049684FF4BF
:1025C000007B022903D1760A5F4646EAC356454C92
:1025D00010218046E4E8027140214FF4806984E8CC
:1025E00002034048083CFFF7BFFA1020FEF71AFB31
:1025F000002840D13B484FF0FF3A14309021C0F8FA
:1026000000A0C0E901710221C0E903180121474679
:102610004161FFF729FA1120E4E80260402084E8D4
:1026200081023048FFF7A0FA1120FEF7FBFA0600FE
:1026300021D12B4F4FF40049083740F22A683868FF
:1026400010EA080F0FD14846FFF738FA0028F6D0F5
:102650005FF00004FFF782FA45F82400641C082CA0
:10266000F8D32035EBE70820FFF728FA28B1082037
:10267000FFF7E2F90420BDE8F09F0220FFF71EFA01
:1026800020B10220FFF7D8F90220F4E72020FFF75D
:1026900015FA20B12020FFF7CFF90620EBE75C46C2
:1026A0005846FFF70BFA20B12046FFF7C5F907207F
:1026B000E1E754464FF4001704E000BFFFF74EFA7D
:1026C00001C5641E3846FFF7F9F908B1002CF5D1B1
:1026D00040F2FF50FFF7B0F93046CCE7140000207D
:1026E0002C2C014088060010094910B5086007200D
:1026F0004860402088600020C8604FF48060086116
:102700000846FFF731FABDE810400720FEF78ABA05
:102710008806001070B504001AD00E480E490089D2
:10272000000408600D204860402088600020C860D8
:102730004FF4806008610846FFF716FA0D20FEF797
:1027400071FA050003D1FFF7D5F92060284670BD66
:10275000262070BD1400002088060010084810B51F
:1027600000210C22C0E900124022C0E9022111011F
:102770000161FFF7F9F9BDE810400C20FEF752BAED
:10278000880600102DE9F0410026751E2846154CDC
:1027900000E0401E616929B9216919B9217809B998
:1027A0000028F6D1002767610F4800E06D1E016820
:1027B000C90401D5002DF9D1E068012803D1FFF744
:1027C000CDFF0646E760354300D1042640F2FF50B6
:1027D000FFF732F9207810B12078BDE8F08130465B
:1027E000FBE7000014000020342C01402DE9F05FCD
:1027F0003F4CDDE90A764FF00008154699468246BF
:1028000084F80080C4F810800121E1603949C1F8E2
:102810000080012140F22A30FFF77EF906FB07F124
:102820005046FFF7CBFC0120FFF718F9606802283B
:1028300003D107026D0A45EAC9552F4C10204FF00D
:10284000400980C4C2464FF4806B84E8010E201F0B
:10285000241FFFF789F91020FEF7E4F9002844D17E
:102860002348C846211D0089D9460004206037202E
:10287000C4F810B081E801052046FFF775F937204C
:10288000FEF7D0F9002830D1C4F808801720C4E939
:102890000060C4E903A9C346D0462046FFF764F9A7
:1028A0001720FEF7BFF900281FD11920C4F808B07F
:1028B000C4E900504546C4E903892046FFF754F9AE
:1028C0001920FEF7AFF900280FD104F11401401EC2
:1028D0007E43C1E900069020C1E902050120C1E95B
:1028E00004500846FFF7C0F82846BDE8F09F0000F6
:1028F000140000202C2C01408806001000290188BB
:1029000002D041F0400101E021F040010180704718
:1029100030B502884C8802F441530A88CD8822439E
:102920008C882C4322430C8922434C8922438C8976
:102930002243CC8922431A430280828B22F4006214
:102940008283098A018230BD704700000CB50020E7
:102950002749019000900A6842F480320A604FF4DF
:10296000A0430A6802F400320092019A521C0192BC
:10297000009A12B9019A9A42F3D10A68920334D5A7
:10298000012000901A484030026842F080520260F4
:102990001848026842F44042026015480830026854
:1029A0000260026842F400420260026842F4A052EF
:1029B0000260031F104A1A600A6842F080720A60BF
:1029C0000A689201FCD50D4A40F205711160016858
:1029D00021F003010160016841F00201016001681A
:1029E000C1F381010229FAD10CBD00900CBD000099
:1029F000003802400070004019544007003C02407B
:102A000010B529F06DFD2BF0C1FABDE8104029F09A
:102A10007FBD000070B51A4C20681A4A10F00C01F6
:102A2000194804D0194D042903D0082903D00260A5
:102A30001BE0056019E01249091F0B68C3F38056BB
:102A40000B6803F03F0316B1B5FBF3F201E0B2FBF4
:102A5000F3F20B680968C3F388135A43C1F30141C9
:102A6000491C4900B2FBF1F101602168064AC1F33B
:102A70000311121D515C0268CA40026070BD000063
:102A8000083802400024F4000000002040787D0156
:102A9000124810B5016841F47001016010480168E6
:102AA00041F0010101600E4A002108321160026804
:102AB0000C4B1A400260031D0B4A1A60026822F494
:102AC0008022026006480C300160FFF73FFF034997
:102AD0004FF000608039086010BD000088ED00E014
:102AE00000380240FFFFF6FE1030002410B5084CFD
:102AF0000121204600F01BF8002807D02FF0DAFB58
:102B00002046BDE81040012100F004B810BD0000CF
:102B100000080040C943018270470029018802D0A3
:102B200041F0010101E021F00101018070470246FE
:102B30000020138A92890B4202EA010202D0002A85
:102B400000D001207047000030B50288164B174CAA
:102B500098420DD0A0420BD0B0F1804F08D0144D58
:102B6000A84205D0134DA84202D0134DA84203D16C
:102B700022F070054A882A43104DA84206D0104D15
:102B8000A84203D022F440750A892A4302804A6889
:102B9000C2620A880285984201D0A04201D1897A96
:102BA00001860121818230BD000001400004014006
:102BB0000004004000080040000C004000100040ED
:102BC0000014004070B529F08BFC0E4C40F22555E6
:102BD0002946204600F034F838B126F0B7FE0A49FD
:102BE00008702946204600F014F80821204600F01D
:102BF00020F818B10821204600F008F8BDE8704020
:102C000029F086BC0010014010000010C94301806B
:102C100070470A0A01219140C94301807047002989
:102C2000818902D041F4005101E021F400518181F9
:102C300070470246002012880A4200D001207047E7
:102C400030B501F01F0201240025C1F3421304FA3C
:102C500002F2012B0FD0022B0FD0838A4FEA1121F1
:102C60000088134204FA01F400EA040001D000B124
:102C70000125284630BD8389F0E7038AEEE700008E
:102C80007FB50446008A0D4620F44051E888084389
:102C90002082A08941F20C618843A9882A891143C6
:102CA0006A8902431143A181A08A20F44071A88956
:102CB0000843A0826846FEF735FC1A48844202D0D9
:102CC0001948844201D1039800E00298A1890904BF
:102CD00000EBC00101EB0010296801D5490000E0BC
:102CE0008900B0FBF1F26420B2FBF0F109010B099D
:102CF0006FF018056B4302EB8302A3891D044FF0AC
:102D0000320306D503EBC202B2FBF0F000F007007D
:102D100005E003EB0212B2FBF0F000F00F000843F5
:102D200020817FBD0010014000140140FEE700003B
:102D30000FB4054B10B503A9044A029802F010FF26
:102D400010BC5DF814FB0000E9160108D401002056
:102D50000FB4084B10B504A902AA039802F000FFB3
:102D6000044602A9002003F00AFB204610BC5DF8CF
:102D700014FB00007F63000800487047E005001066
:102D8000002807D00E4910F0FF0F04D051FA80F050
:102D90000078401C704710F47F4F04D0C0F3072028
:102DA000085C0930704710F47F0F04D0C0F307406F
:102DB000085C1130704701EB1060007819307047E3
:102DC0007F2E040802E008C8121F08C1002AFAD1A9
:102DD00070477047002001E001C1121F002AFBD19B
:102DE000704700002DE9FF5F82B00021DDE904306B
:102DF000020DDDF840B0034318D044F61050A2F2A3
:102E0000FF3242431514119801281FD0A5EB0B0087
:102E1000401C5FEA000A4FF000064E4FDFF8389181
:102E2000B046504615D5CAF1000413E011980124AC
:102E30004AA3012801D16FEA0B010298119AC0E957
:102E40000031C0E9024206B0BDE8F09FCBF10000BE
:102E5000DFE704460021404A491842EB0450CDE91F
:102E6000001012E0E00707D032463B464046494694
:102E7000FDF79BFB8046894632463B461046194685
:102E8000FDF793FB06460F466410002CEAD1DDE9FE
:102E90000401DDE90023BAF1000F06DAFDF785FB36
:102EA00042464B46FDF781FB05E0FDF7F0FB42464D
:102EB0004B46FDF7ECFB04460E460022284BFDF77F
:102EC000D5FD03D84FF0FF30014607E00022254B27
:102ED00020463146FDF7C2FAFDF7AFFD102409E0A8
:102EE000002C0ADB0A220023FDF704FA039B303290
:102EF0001A55641E50EA0102F2D1641C039AC4F10F
:102F000011031444119A012A03D0012208430DD160
:102F10000AE0084304D000204FF0110B119072E733
:102F2000A3EB0B056D1E0DE05B4504DD4FF00002C9
:102F300005F1010504E003DA4FF00002A5F10105F7
:102F4000002AECD002981199C0E90231C0E900458D
:102F500079E70000000014400000F03F300000005E
:102F60000000F0430000E03F03480168814201D0C7
:102F70000120704700207047EC04001010B5482174
:102F8000094801F01EF925F077FA084C00230422C5
:102F900060603221064825F05BF8A06003F0C4FCB5
:102FA0000020207010BD00002004012050050010FA
:102FB000E16900082DE9F04100251C4688460646D7
:102FC000152A3BD2DFE802F00B1B1D2E3744535C61
:102FD0005E676A79878999A6ABB0B5BACD003046ED
:102FE0001AF09FF8054640461AF09BF8014605EB9B
:102FF000D570401001EBD171A0EB6100A1E02580FC
:103000000EE030461AF08DF8074640461AF089F86F
:1030100007EBD771491000EBD070A1EB60008BE09B
:1030200065800BE030461AF07CF8074640461AF0FF
:1030300078F8381A80E0258097E060802088318811
:10304000084420806088718808446080BDE8F08171
:1030500030461AF066F8054640461AF062F805EB6D
:10306000D571491000EBD070A1EB60007CE03046D8
:103070001AF057F8054640461AF053F8281A73E03C
:1030800025805FE030461AF04CF8054640461AF0BD
:1030900048F8281A55E02580084618E030461AF00E
:1030A00040F8054640461AF03CF805EBD57149104A
:1030B00000EBD070A1EB600007E030461AF031F869
:1030C000054640461AF02DF8281A2080404619F08F
:1030D000F6FF4042B1E7258018E030461AF021F8AB
:1030E000054640461AF01DF8014605EBD570401024
:1030F00001EBD171A0EB610007E030461AF011F846
:10310000054640461AF00DF8281A2080304619F07E
:10311000D6FF92E708461AF004F840420CE0084651
:1031200019F0FFFF40420CE0084619F0FAFF404258
:103130001AE0304619F0F5FF208071E7304619F0AB
:10314000F0FF2080304619F0BAFF0546404619F0DE
:10315000B6FF05EBD571491000EBD070A1EB600014
:103160006BE7304619F0DDFF2080304619F0A7FFED
:103170000546404619F0A3FF281A5EE770B5B1F97D
:103180000030B2F90040A34200DC23460380B1F9CD
:103190000250B2F90240A54200DD2C464480B1F94C
:1031A0000460B2F90450AE4200DA35468580B1F9C8
:1031B0000610B2F90620914200DB1146C1800120C1
:1031C000AB4201DC8C4200DD002070BDF8B50D463D
:1031D00004461646B4F90010B5F9002000209142CB
:1031E00012DBB4F90220B5F902309A420CDBB4F9D3
:1031F0000420B5F904309A4206DCB4F90620B5F98A
:1032000006309A4200DC0120002E33D0ADF80010C9
:103210006088ADF8020032466946284600F047F85B
:10322000002827D0A088ADF800006088ADF8020023
:1032300032466946284600F03AF800281AD020881D
:10324000ADF80000E088ADF8020032466946284635
:1032500000F02DF800280DD0A088ADF80000E0881F
:10326000ADF8020032466946284600F020F80028F2
:1032700000D00120F8BDB0F90020B1F904309A4225
:1032800013DCB0F90420B1F900309A420DDBB0F93B
:103290000220B1F906309A4207DCB0F90600B1F914
:1032A0000210884201DB01207047002070472DE9A1
:1032B000FC4114460E46B1F90020B0F90010054655
:1032C0008A423ADBB5F90400824236DCB6F9027074
:1032D000B5F90220974230DBB5F906309F422CDC6D
:1032E000002C75DD401A9A1A401C521C00B212B212
:1032F00000EBD07002EBD27240105210904200DB13
:103300001046844200DD0446ADF8001028880022F3
:103310002044ADF804006888ADF8020068883146A2
:103320002044ADF806006846FFF7C1FF40B1BDF884
:1033300004002044ADF804003FE00020BDE8FC811B
:10334000E8880022001BADF80200E888ADF806000E
:1033500031466846FFF7ABFF28B1BDF804002044B2
:10336000ADF8040011E0A8880022001BADF80000B1
:10337000A888ADF8040031466846FFF798FF50B1C1
:10338000BDF80000001BADF80000BDF80200001BF6
:10339000ADF8020016E06888ADF8020068880022E7
:1033A0002044ADF8060031466846FFF780FF70B153
:1033B000BDF80000001BADF80000BDF80600204479
:1033C000ADF806003146684623F06CFBB6E7FFE730
:1033D0000120B3E710B5B1F90040B2F900309C42CA
:1033E00000DA23460380B1F90240B2F902309C4270
:1033F00000DA23464380B1F90440B2F904309C421C
:1034000000DD23468380B1F90610B2F9062091420F
:1034100000DC1146C18010BD30B5034680881C8891
:103420005D88001BDC88401C198000B2641B641C92
:10343000014624B25A80184619F091FE2146BDE893
:103440003040184619F086BE2DE9FF4F87B01D4663
:10345000DDE91476DDF858908B46022E50D3002F0C
:103460004ED001F001FC80461BF0D0FE00F11004AC
:10347000D0F808A0D8F82410404601B188475A4631
:1034800004A80799FFF77AFE002839D0BDF810008C
:103490002188401A01B2ADF81010BDF81200628800
:1034A000801AADF81200BDF814002288801A00B20C
:1034B000ADF81400BDF816206388D21AADF81620B6
:1034C00095B198F80820D2070ED1401A401C01B2DD
:1034D000002007E02A5C802A01D9FF2200E00022B8
:1034E0002A54401C8842F5DBD8F8140058B1CDE9C5
:1034F0000065029704AA51462046099B0DF012FC74
:103500000BB0BDE8F08FB9F1000F0AD001A800960A
:1035100080E8A00204AA51462046099B0DF028F934
:10352000EEE7CDE90065029704AA51462046099BC3
:103530000DF02CFAE4E72DE9FF4F87B01D46DDE9D9
:103540001476DDF858A09146022E52D3002F50D0A9
:10355000014605A8089AFFF711FE002849D001F09E
:1035600083FB80461BF052FE00F11004D0F808B037
:10357000D8F82410404601B18847BDF814002188CE
:10358000401A01B2ADF81410BDF816006288801A16
:10359000ADF81600BDF818002288801A00B2ADF808
:1035A0001800BDF81A206388D21AADF81A2095B118
:1035B00098F80820D2070ED1401A401C01B2002012
:1035C00007E02A5C802A01D9FF2200E000222A5469
:1035D000401C8842F5DBD8F8140068B1CDF80090A3
:1035E0000397CDE9016505AA59462046089B25F0B9
:1035F000EBFB0BB0BDE8F08FBAF1000F0BD002A8C7
:1036000005AA80E8A004CDE9009659462046089B0B
:1036100025F08EF9EDE7CDF800900397CDE901652F
:1036200005AA59462046089B25F032FAE1E700003A
:103630002DE9FC5F054624F01FFF554C0190E8681A
:1036400060600021284624F05DFE6068016CA9B12D
:1036500023F0B2FC23F028FC60684E4AD0F87811C1
:1036600011427DD0A3461BF060FE002867D0DBF836
:1036700004005D464169002961D108E04549D0F860
:103680007821C9430A40C0F87821BDE8FC9F1BF0AF
:10369000BDFD044623F08AFDA0690028FCD16868BE
:1036A000B0F90000400000F099FE8246A168206851
:1036B0008946814200D16068804668681BF0BAFD87
:1036C00006460024AB462DE00A1992F85A213ABB6F
:1036D00001EBC40131F95A2FB1F9025016FB052351
:1036E00089885F00891A491C09B2490000910FE0DE
:1036F00008EB07015046009A00F032FF09EB070083
:103700005146009A00F02CFF6D1C07EB46072DB2C6
:10371000DBF8040000EBC400B0F96000A842E7DA6F
:10372000641CA4B2DBF80410D1F87821C2F309427A
:10373000A242C9D8BAF1000001D000F0D3FEDBF8F4
:1037400004004FF480715C465A3000F0FFFF60685F
:10375000202100F5AD7000F0F9FF60680D4A00E02F
:103760000FE0D0F87811D2431140C0F878110198D9
:1037700024F07CFE63689D691DB1014618462268ED
:10378000A84700F009FEBDE8FC5F00F005B80000A6
:10379000100500100000FF0310B5044C206800283D
:1037A00003D020F0BBF80020206010BD740500108D
:1037B0004821014800F005BD080401201C210148F2
:1037C00000F0FFBC2C0401202DE9FF5F0446DDE979
:1037D0000E0613B9B0F5807F7ED0B6F900504FF0D9
:1037E000FF376D42454307EB25252DB22580B6F9FD
:1037F00002C0CCF1000C0CFB00FC07EB2C273FB205
:103800006780B6F900C0A1EB0C0141434FF0020CF8
:103810000CEB212109B2A180B6F90280A2EB0802CB
:1038200042430CEB222000B2E080002B7ED04FF010
:103830000A0A93FBFAF5684200EB800003EB4007AD
:1038400005F1010928B201F0ADFF00900FFA89F0EF
:1038500001F0A8FF83465A3528B201F0A3FF804645
:1038600009F15A0000B201F09DFF0146009AC7F12C
:103870000A0000FB02F300FB08F00BFB073301FB1F
:10388000070193FBFAF291FBFAF04FEA601AB4F9E0
:103890000010B4F902000AFB01FCCDF80CC0551170
:1038A000378805FB10C207EBA2220FFA82F905FB4D
:1038B00001F2BB46029277880AFB002107EBA121A7
:1038C0000BB2B4F90410BE460AFB01FC05FB10C2A2
:1038D0000BEBA22216B200E02FE005FB01F7CDE9C9
:1038E000007CB4F90680DDF80CC00AFB007005FB13
:1038F00018C1DDF804C0009F05FB18C5029A0AFB39
:10390000087C0AFB08220BEBA1210EEBAC270EEB87
:10391000A02009B20EEBA2220BEBA5250FFA87FC23
:1039200000B212B22DB24F46494500E00EE000DA77
:103930000F46B54216DAA84615E000202080491E41
:103940006080A180521EE280BDE8FF9F32882A4439
:10395000228072883A44628032881144A180718842
:1039600008444FE0B046474504DA4F46494506DA79
:103970000F4604E0B54201DA2F4600E037462780C3
:103980004F46494500DD0F46B54201DDA84600E03F
:10399000B046474503DD4D46494505DC01E0B542EB
:1039A00001DD294600E03146A1809A4201DA154640
:1039B00000E01D46844501DA614600E001468D4283
:1039C00005DA9A4201DA114606E0194604E0844518
:1039D00001DA614600E0014661809A4201DD11464C
:1039E00000E01946844501DD654600E00546A94230
:1039F00005DD9A4201DD104604E0184602E08445E8
:103A000000DD6046E0809FE72DE9FE4F0446D0F8D8
:103A100000B0B0F90800E589081AB4F90A10511A83
:103A2000D4E90932B5F5807F3CD0A589002DA56B7E
:103A300005FB00F005FB01F54FEA60104FEA651148
:103A40003ED0256BE66A05FB00F706FB117746437F
:103A500005FB016003EBA72902EBA02080460612BC
:103A6000B4F904004FEA2927B84248DD002F46DBAD
:103A7000B4F90610B14242DD002E40DB94F8341058
:103A80004A073FD58A0704F114031DD400FB0670D2
:103A900045004FF0020A0BEB05015246184600F0B4
:103AA0000BFE22E0256BE66A05FB00F706FB1177AB
:103AB000464305FB016003EBA70902EBA000CDE73D
:103AC00003EB00095018C9E700FB067000EB400546
:103AD0004FF0030A0BEB05010222184600F0ECFD43
:103AE000E81C584410F8010CA07594F83400C00785
:103AF0001ED01948A18A008880B2814218D10020C6
:103B0000BDE8FE8F32B204F118002369CDE901024D
:103B1000002539B2AA468B461DF078FA0090BDF810
:103B20000000A082DDE9010259461DF007FADBE73B
:103B3000E07C78B1A4F83C90A4F83E80A4F84070F2
:103B4000A4F84260656484F848A02046BDE8FE4FB2
:103B500000F004B80120D3E7AC3104082DE9F04FA0
:103B6000044690F83C10D0F8009090F83E0087B0E2
:103B70004FF0FF36702907DAB4F940203546012AA4
:103B800000D5002580310DE0902916DDB4F94020E4
:103B9000B4F904300125521C9A4200DB0025A1F241
:103BA0007F114942C9B28846702809DAB4F9421037
:103BB000012900D50026803010E00025FF21F2E722
:103BC00090280DDDB4F94210B4F906200126491CF5
:103BD000914200DB0026A0F27F104042C7B201E014
:103BE0000026FF2760690090A07D05900020834695
:103BF0008246049094F83400400744D594F8481065
:103C0000606C11FB05014944022201A800F060FD2F
:103C1000A08894F8481010FB01F0616C022206FBAA
:103C20000011494403A800F053FDA18894F848000E
:103C300011FB00F1626C06FB012210FB05901118CC
:103C4000022202A800F044FD94F83400800761D5F8
:103C500094F84800626C10FB052300EB09010B444B
:103C600013F8013C0493A38813FB00F306FB032223
:103C7000114411F801BC10FB0500111801EB0900FB
:103C800010F8010C45E0B4F84000B4F94220284493
:103C900001B204F11800814623691DF0B7F90190C3
:103CA000B4F84200B4F94010304402B254F8103F66
:103CB00048461DF0ABF90390608E2368304402B291
:103CC000208E284401B248461DF0A0F9029094F8D5
:103CD0002400103C80071DD5B4F9422034F8400F71
:103CE000284401B248461DF029F904906088B4F9CF
:103CF0000010304402B248461DF020F98346608827
:103D0000304402B234F84009284401B248461DF05C
:103D100015F9824694F8340042464546800735D569
:103D2000059810FB08F30499C8F1FF0011FB00315E
:103D3000C1F307211BFB08F61AFB0060C0F3072044
:103D400011FB07F3C7F1FF0610FB06331B0AA3752F
:103D5000022907D8022803D8002007B0BDE8F08F59
:103D6000002702E0022800D8FF270598022800D883
:103D700000220498022800D8FF22BBF1020F00D8CD
:103D80000025BAF1020F03D8FF2501E0FF20A0753E
:103D9000EAB1FF2A04D0DDE900011AF0F7F900903A
:103DA000BDB1FF2D17D0DDE902102A461AF0EEF959
:103DB000049097B1FF2F05D001463A4600981AF0BB
:103DC000E5F90090BDF80000A0820120C5E7019848
:103DD000E5E70298ECE70398EAE7BDF81000F3E79F
:103DE0002DE9F0470446B0F908000A270002606296
:103DF000B4F90A000002A062B4F90C1091FBF7F5C7
:103E0000684200EB800001EB4006684205F10108C2
:103E100000B201F0C7FC8246E84300B201F0C2FCE8
:103E20008146C5F15A0000B201F0BCFC0546C8F15C
:103E30005A0000B201F0B6FCC6F10A0101FB0AF318
:103E4000024609FB0630694390FBF7F002FB0611BE
:103E500091FBF7F14011E06248112063A07C1DF056
:103E6000E1F994F8341060F3000184F83410A07C78
:103E70001DF0C8F994F8341060F3410184F834104F
:103E8000A07C042824D0052822D0062820D021F0A8
:103E9000040100BF84F8341021682162A16921F077
:103EA000E00160F30401A08860F39421E08860F3EE
:103EB0005F51A161E0894FF4001101EB5001B1FBAA
:103EC000F0F0A063FF20A075208AA082BDE8F087F3
:103ED00041F00401DEE700002DE9F047444E894639
:103EE0008046318821B14348434C056800200EE0EC
:103EF0000020BDE8F08700BF00EBC00205EB8202A6
:103F0000136AA34201DD5B1E1362401C80B288422B
:103F1000F2D300241BE000BF04EBC40005EB8007D4
:103F200078681EF0AFFB10B1012809D00DE0796868
:103F300041450AD139891FFA89F081420ED004E047
:103F400041467868FCF74AFA40B1641CA4B2308854
:103F50008442E1D32C46012032881AE004EBC400ED
:103F600005EB80046169206A08444FF47A7120628D
:103F7000884200DD2162002CECD036E000EBC0016D
:103F800005EB8101266A0B6AB34200DA0C46401C3D
:103F900080B29042F2D3606810B120461DF025FD3A
:103FA00024F06AFA064600254A46414620466561E5
:103FB0001DF07AFD18B12562606978B115E02046E0
:103FC0001DF013FD2021204600F0C0FB24212046D7
:103FD00000F0BCFB4FF00040206289E7304624F03F
:103FE00045FA606108B901206061204681E7000060
:103FF000600100205C0500100100008010B5142154
:104000000C4800F0DEF81DF003FD40B10A490160E4
:104010000A4941600A4981600A49C16010BD1AF02D
:10402000E1FF0028FAD10022134607A01AF0F6FF9C
:10403000FEE7000038040120B9130208291702081E
:104040002D190208851302084F7574206F66206DC4
:10405000656D6F7279000000002108461EF08EBB6E
:104060007FB50D46040003D11BF0D2F8040025D023
:104070002E4EF5B10020ADF80000ADF8020020464C
:104080001BF0D8F8401EADF8040020461BF032F9B2
:10409000401EADF806006A46294602A8FFF76EF8F2
:1040A00000280BD0226912B102A9204690470025B2
:1040B00011E0D4F878013040C4F878017FBD00BF2A
:1040C00004EBC501002202A85A31FFF77FF800284F
:1040D000F4D16D1CADB2D4F87801C0F30940A84208
:1040E000EED8D4F87801C0F30941202903D204EBBB
:1040F000C10002A907E03040C4F87801C0F30940CC
:1041000004EBC00069465A3018F098FFD4F87801E3
:104110004FF4800101EBB0604FEAB010C4F87801B1
:104120000321206B24F0EEF87FBD0000FFFF00FCB0
:1041300070B50C461E461546114600F0F2F8AEB1B9
:1041400000222946204625F078FC29462046626850
:1041500025F06DFC616819B12A46204625F06DFCFA
:104160006560A068002800D1A56070BD2946204682
:10417000A26825F062FC00222946204625F057FC63
:10418000A16819B12A46204625F051FCA560606857
:104190000028EAD1656070BD002100B14168084681
:1041A0007047002802D00068091D40587047002859
:1041B00001D0006840587047002100B1816808466E
:1041C000704700224260C91C21F003018260016037
:1041D000704770B50446006808301FF04BFB0500BF
:1041E00013D001460022204625F027FC2946204610
:1041F000626825F01CFC616819B12A46204625F04A
:104200001CFC6560A06800B9A560284670BD2DE95A
:10421000F0410D4607002BD055B3FFF7BDFFA84274
:1042200004D13846FFF7D5FF04461EE03868083051
:104230001FF020FB04001BD029463846FFF7B7FFCC
:10424000064601462246384625F0F1FB3246214615
:10425000384625F0F2FB22462946384625F0EDFB8C
:104260002A462146384625F0E2FB2046BDE8F0818B
:104270000020FBE770B50446006808301FF0FAFA2A
:10428000050013D001460022204625F0D0FB294628
:104290002046A26825F0D1FBA16819B12A46204624
:1042A00025F0C5FBA560606800B96560284670BD53
:1042B00028B1416809B9806808B100207047012021
:1042C00070472DE9F04116460D460746B14226D00B
:1042D0001EB11146FFF76BFF01E0FFF76DFF0446CB
:1042E000A5421CD02946384600F01BF82A46214634
:1042F000384625F09CFB22462946384625F09DFB92
:104300002A463146384625F098FB3246294638463B
:1043100025F08DFB06B9BD60002C00D17D60BDE8A5
:10432000F08170B50A460446FFF736FF002390423D
:104330000AD111462046FFF734FF6060011E01D00C
:10434000002224E0A36070BD2046FFF735FF9042B5
:10435000114620460CD1FFF72AFFA060011E05D0B0
:104360002046BDE87040002225F061BB636070BD4F
:10437000FFF71DFF064611462046FFF712FF0546D0
:1043800002463146204625F052FB32462946204659
:10439000BDE8704025F051BB70B500200D490546C1
:1043A00001EBC002401CC0B295710228F8D30A4E3E
:1043B000002400BF56F8340038B11FF0AFFA06EB06
:1043C000C40046F8345085718580641CE4B2102C1A
:1043D000F0D370BD980100205004012070B5002872
:1043E0001DD0012110280AD82F4B002203EBC20454
:1043F000A479E4070ED0521CD2B2022AF6D32B4C79
:104400004FF0FF33002200BF04EBC205AE79F60780
:1044100006D017E003EBC200817153F8320070BD83
:10442000AD8885420ED305D104EBC200817154F8EA
:10443000320070BD002B04DB04EBC306B688B54226
:1044400000D253B2521CD2B2102ADDD3002B05DBAE
:1044500004EBC300817154F8330070BD5FF00005B8
:1044600004EBC5029279D20709D06D1CEDB2102D74
:10447000F6D3002213460EA01AF0D0FDFEE704EB9F
:10448000C5029171908054F83520014610461FF006
:10449000B1FA44F835000028DFD100221346104855
:1044A0001AF0BCFDFEE70000980100205004012036
:1044B0004E6F2066726565206275666665722E2095
:1044C000496E637265617365204C565F4D454D5F63
:1044D0004255465F4D41585F4E554D2E000000003D
:1044E0003079040810B500210C4B0A4653F83140CE
:1044F000844209D0491CC9B20229F7D3084B0021D4
:1045000053F83140844203D103EBC100827110BDE6
:10451000491CC9B21029F3D310BD00009801002036
:1045200050040120002803D00449884201D1002012
:10453000704750F8040C40087047000090010020BC
:10454000064905484BF6FC724860016821F00101FC
:1045500062F35F0101607047FC3F0010880100209A
:1045600030B500F0030401F003050346A54243D132
:104570004EE00C781C704C785C708C789C70CC7819
:10458000DC700C791C714C795C718C799C71CC79E4
:10459000DC710C7A1C724C7A5C728C7A9C72CC7ACC
:1045A000DC720C7B1C734C7B5C738C7B9C73CC7BB4
:1045B000DC730C7C1C744C7C5C748C7C9C74CC7C9C
:1045C000DC740C7D1C754C7D5C758C7D9C75CC7D84
:1045D000DC750C7E1C764C7E5C768C7E9C76CC7E6C
:1045E000DC760C7F1C774C7F5C778C7F9C77CC7F54
:1045F000DC772031203A2033202ABAD805E000BFEA
:1046000011F8014B03F8014B521E002AF8D130BDBE
:104610004CB3C4F1040405E011F8015B521E03F829
:10462000015B641EFCB1002AF6D11CE010C9203ADF
:1046300010C310C910C351F8084B43F8084B51F888
:10464000044C43F8044C51F8104B43F8104B51F80C
:104650000C4C43F80C4C51F8084C43F8084C51F8FA
:10466000044C43F8044C202AE0D802E010C9121F81
:1046700010C3042AFAD804E011F8014B03F8014BE7
:10468000521E002AF8D130BD10B5034605E000BF28
:1046900011F8014B03F8014B521E002AF8D110BD4E
:1046A00010B5034605E000BF11F8014B03F8014BBC
:1046B000521E002AF8D110BD10B5034605E000BF18
:1046C00011F8014B03F8014B521E002AF8D110BD1E
:1046D00010B5034605E000BF11F8014B03F8014B8C
:1046E000521E002AF8D110BD10F0030309D0C3F107
:1046F000040303E0521E00F8011B5B1E0BB1002AED
:10470000F8D101EB012303EB014303EB01630EE05E
:1047100008C0203A08C040F8083B40F8043C40F884
:10472000103B40F80C3C40F8083C40F8043C202A80
:10473000EED801E008C0121F042AFBD803E000BF36
:1047400000F8011B521E002AFAD1704710F0030333
:104750004FF0000219D0C3F1040303E0491E00F832
:10476000012B5B1E8BB10029F8D1704704C02039A2
:1047700004C040F8082B40F8042C40F8102B40F8F7
:104780000C2C40F8082C40F8042C2029EED801E02D
:1047900004C0091F0429FBD803E000BF00F8012B67
:1047A000491E0029FAD1704710F003024FF0FF03B1
:1047B0000AD0C2F1040203E0491E00F8013B521E78
:1047C00012B10029F8D170474FF0FF320EE004C05B
:1047D000203904C040F8082B40F8042C40F8102B76
:1047E00040F80C2C40F8082C40F8042C2029EED876
:1047F00001E004C0091F0429FBD802E000F8013BD6
:10480000491E0029FAD1704770B50D4606460024AE
:104810002146304620F0B3F838B18168641C65F356
:10482000CB21E4B28160402CF2D3402421463046B3
:1048300020F0A5F8002807D08168641C65F3CB211F
:10484000E4B28160FF2CF1D370BD00002DE9F04788
:1048500086B014468A461646170A05464FF00008E9
:1048600023E05146284620F08AF8814651462846E2
:1048700020F014F806EB002084B202AA2146484634
:1048800000F094FB012807D0380610D5BAF1000FCC
:1048900007D04FF0000A08E0BDF8080006B0BDE8F8
:1048A000F08728461FF0B8FF0546002DD9D124F423
:1048B000FE40292804D02A2802D0CDF8008002E04A
:1048C000024800680090BDF80000E7E7A83104083E
:1048D0002DE9F8431546894617464FEA1228064641
:1048E000A5E04946304620F04AF8044680680105B4
:1048F00070D481066ED0400505D425F4FE424946A9
:1049000030462EF0D7F825F4FE40302859D024DC6C
:10491000112869D010DC052850D006DC01285DD0B4
:10492000022845D004286CD148E0062846D0072844
:1049300044D0102865D157E0162858D006DC12283C
:1049400052D0132850D015285BD150E017284ED0F4
:1049500018284CD0202854D14CE060284AD010DCD4
:10496000402838D006DC31282ED0322842D03328D7
:1049700047D12CE042283DD0502832D0542840D195
:1049800038E048F28102811A904214D009DC722882
:1049900030D091282ED000F5FF40B0F5803F30D1C7
:1049A00009E0012929D0022924D01F2929D121E099
:1049B0002089400423E0A068800020E020890004D2
:1049C0001DE0A06880021AE0A068400217E0A0681D
:1049D000000214E015E0A068C00110E02089C004C6
:1049E0000DE0A06840010AE0A068C00307E0A068ED
:1049F000800304E0A068400301E0A06840000028B4
:104A000018DB494630461FF049FF07EB002085B20E
:104A10006A462946204600F019FB012814D05FEAB7
:104A2000086007D5B9F1000F12D04FF00009002E31
:104A30007FF457AF25F4FE40222819D00CDC032860
:104A400012D007280CD115E0BDF90000BDE8F883AD
:104A500030461FF0E1FE42E7312803D0C02805D0E0
:104A60000020F3E70F20F1E70220EFE70620EDE753
:104A7000FF20EBE74FF48070E8E72DE9F843144698
:104A8000894617464FEA122806463BE0494630461B
:104A90001FF075FF0546806801051DD481061BD0F7
:104AA000400505D424F4FE42494630462EF002F873
:104AB00024F4FE402C2809D00C38B0F5004002D078
:104AC000A12809D12DE02889800403E0A868C1024B
:104AD00024D40003002817DB494630461FF0DEFED1
:104AE00007EB002084B26A462146284600F0FEFA11
:104AF000012819D05FEA086006D5B9F1000F16D079
:104B00004FF00009002EC1D124F4FE402C2812D011
:104B10006D2810D0AD38B0F5004F0CD0FF20BDE8A7
:104B2000F883A868C000D5E79DF80000F7E7304695
:104B30001FF072FEA8E70020F1E700002DE9F8431E
:104B40001446894617464FEA122806463BE0494676
:104B500030461FF014FF0546806801051DD481060C
:104B60001BD0400505D424F4FE42494630462DF0C2
:104B7000A1FF24F4FE406E2809D07F2804D08E388F
:104B8000B0F5004F09D105E0A868000103E0A8686E
:104B9000800100E0A868002817DB494630461FF076
:104BA0007DFE07EB002084B26A462146284600F0CD
:104BB000EDFA012816D05FEA086006D5B9F1000FBA
:104BC00012D04FF00009002EC1D124F4FE407E28FF
:104BD0000ED0BE280FD08E38B0F5004F08D0002080
:104BE000BDE8F8830098FBE730461FF015FEACE700
:104BF00023F0D2FBF4E70148F2E700000467040861
:104C00002DE9F0411F4614460D4606461FF0B7FE3B
:104C10003A46214600F0DEFB002322462946304674
:104C20002DF0C4FD24F4FE4229463046BDE8F04193
:104C300020F0ECBB2DE9F0411F4614460D46064618
:104C40001FF09DFE3A46214600F0E4FB0023224679
:104C5000294630462DF0AAFD24F4FE42294630466E
:104C6000BDE8F04120F0D2BB014840687047000029
:104C700010050010704730B504020020831803FBB4
:104C800003F5A54200D818465208F7D102090007DB
:104C90000A80000E488030BD2DE9F04188460500AD
:104CA00016464FF0FF3706D0286820B128460EF090
:104CB00033FA040002D53846BDE8F0812968A01C0B
:104CC000014402223046FFF7EBFC214628460EF055
:104CD000B8FC00EA182000F07F00EDE72DE9F04174
:104CE0008846044616461AF081F968B14FF0FF373E
:104CF0003CB1206828B1414620460EF00DFA05006F
:104D000008D53846BDE8F0812246002309A01AF0F4
:104D100085F9FEE72168A81C014402223046FFF70E
:104D2000BFFC294620460EF08CFC00EA182000F05B
:104D30007F00E7E7496E76616C6964207374796C73
:104D40006500000070B505461AF050F920B12868DA
:104D5000002812D0002408E02A46002307A01AF0F9
:104D60005DF9FEE70EF0CAF90444214628460EF02C
:104D70006DFCFF28F6D1A41CA0B270BD496E76610F
:104D80006C6964207374796C650000002DE9F04152
:104D90008846044616461AF029F968B14FF0FF37E5
:104DA0003CB1206828B1414620460EF0B5F9050017
:104DB00008D53846BDE8F0812246002309A01AF044
:104DC0002DF9FEE72168A81C014401223046FFF7B7
:104DD00067FC294620460EF034FC00EA182000F05B
:104DE0007F00E7E7496E76616C6964207374796CC3
:104DF000650000002DE9F0418846050016464FF099
:104E0000FF3706D0286820B128460EF085F9040047
:104E100002D53846BDE8F0812968A01C014404226F
:104E20003046FFF73DFC214628460EF00AFC00EA1A
:104E3000182000F07F00EDE770B50E4605461AF029
:104E4000E1F818B330461AF0D1F828B3002D48D055
:104E50003146284600F002FAA868810622D0800672
:104E6000010E091D28681EF0C5FD04461AF0BAF8A7
:104E7000E0B1002C35D0A96800200A0600D5012039
:104E80004A0600D5401C01F03F011DE02A460023E0
:104E900014A01AF0C3F8FEE73246002316A01AF059
:104EA000BDF8FEE704201EF0E5FCDEE72246002305
:104EB00015A01AF0B3F8FEE704EB810252F8042CB7
:104EC00044F82120491EC9B28142F5D844F8206037
:104ED000A8684FF0806101EBB0104FEAB0602C6021
:104EE000A86070BD496E76616C6964207374796CDA
:104EF00065206C6973740000496E76616C6964208A
:104F00007374796C650000004F7574206F66206DB6
:104F1000656D6F727900000070B504461AF072F882
:104F200038B1207A00060AD52046BDE8704000F06E
:104F300079B92246002314A01AF070F8FEE7082081
:104F40001EF098FC05461AF04DF8A8B1D5B12846D8
:104F500022F0A6F929462046FFF76EFFA06840F030
:104F60008000A060400605D52068D0E900120260EC
:104F700020684160284670BD2A46002307A01AF029
:104F80004DF8FEE7002070BD496E76616C696420C3
:104F90007374796C65206C69737400004F757420AC
:104FA0006F66206D656D6F72790000002DE9F84322
:104FB0001746894605461AF025F8002150B1BDB3C1
:104FC0002868002832D04C1E4FEA1928ADF800108E
:104FD000002623E02A46002317A01AF01FF8FEE758
:104FE000F1B2284622F00CFA6A464946FFF754FE11
:104FF000404503D1BDF80000388016E0A9680A06D4
:1050000004D5002802DB0EB9C905F3D5A04203DDA3
:105010000446BDF800003880761C36B2287A00F0CD
:105020003F00B042DCDC002C03DB0120BDE8F8834C
:10503000FFE70020FAE70000496E76616C696420A2
:105040007374796C65206C69737400002DE9F84302
:1050500017468946054619F0D5FF002150B1BDB36A
:105060002868002832D04C1E4FEA1928ADF80010ED
:10507000002623E02A46002317A019F0CFFFFEE701
:10508000F1B2284622F0BCF96A464946FFF726FEEF
:10509000404503D1BDF80000388016E0A9680A0633
:1050A00004D5002802DB0EB9C905F3D5A04203DD03
:1050B0000446BDF800003880761C36B2287A00F02D
:1050C0003F00B042DCDC002C03DB0120BDE8F883AC
:1050D000FFE70020FAE70000496E76616C69642002
:1050E0007374796C65206C69737400002DE9F84362
:1050F00017468946054619F085FF002150B1BDB31A
:105100002868002832D04C1E4FEA19288DF800106C
:10511000002623E02A46002317A019F07FFFFEE7B0
:10512000F1B2284622F06CF96A464946FFF72EFE96
:10513000404503D19DF80000387016E0A9680A06C2
:1051400004D5002802DB0EB9C905F3D5A04203DD62
:1051500004469DF800003870761C36B2287A00F0BC
:105160003F00B042DCDC002C03DB0120BDE8F8830B
:10517000FFE70020FAE70000496E76616C69642061
:105180007374796C65206C69737400002DE9F843C1
:1051900017468946054619F035FF48B1A5B328687A
:1051A00000282FD04FEA19284FF0FF34002621E0C5
:1051B0002A46002316A019F031FFFEE7F1B2284677
:1051C00022F01EF96A464946FFF714FE404502D117
:1051D0000098386015E0A9680A0604D5002802DBAB
:1051E0000EB9C905F4D5A04202DD04460098386026
:1051F000761C36B2287A00F03F00B042DEDC002C8C
:1052000003DB0120BDE8F883FFE70020FAE7000098
:10521000496E76616C6964207374796C65206C6981
:105220007374000010B5024619F0ECFE20B1107A3C
:10523000000606D4002010BD002303A019F0EEFEE6
:10524000FEE71068006810BD496E76616C696420E5
:105250007374796C65206C697374000070B50E46C8
:10526000044619F0CFFE002550B1304619F0BEFEBD
:1052700060B1A168880627D0002001F03F0121E03D
:105280002246002327A019F0C9FEFEE7324600237C
:1052900029A019F0C3FEFEE7226852F82020B2428E
:1052A0000ED1012911D08800001F1EF0E3FA054637
:1052B00019F098FE90B1002D06D0002001461EE0A6
:1052C000401CC0B28142E7D870BD20681EF026FBAA
:1052D0002560A06820F07F00A06070BD2A460023F2
:1052E00019A019F09BFEFEE7226852F82020B24276
:1052F00003D045F82120491CC9B2401CC0B2227A13
:1053000002F03F028242EFD820681EF007FBA0683F
:105310004FF07C4101EBB0104FEAB0602560A06017
:1053200070BD0000496E76616C6964207374796C9D
:1053300065206C6973740000496E76616C69642045
:105340007374796C650000004F7574206F66206D72
:10535000656D6F727900000070B5044619F052FE59
:10536000002638B3002C24D0207A400609D52046E8
:1053700022F026F8050004D022F0A0F828461EF0FE
:10538000CDFA207A000609D52046FFF74BFF05002D
:1053900004D022F093F828461EF0C0FA207A800646
:1053A00002D020681EF0BAFA2660A0686FF30800E9
:1053B000A06070BD2246002301A019F02FFEFEE779
:1053C000496E76616C6964207374796C65206C69D0
:1053D0007374000070B514460D46034619F012FEB2
:1053E00040B118460CF0F0FE22462946BDE8704058
:1053F00000F030B81A46002301A019F00FFEFEE7B6
:10540000496E76616C6964207374796C65206C698F
:105410007374000070B514460D46034619F0F2FD92
:1054200040B118460CF0D0FE22462946BDE8704037
:1054300000F076B81A46002301A019F0EFFDFEE750
:10544000496E76616C6964207374796C65206C694F
:105450007374000037B582B0044619F0C7FDC0B1BF
:10546000BDF80C1020460DF057FE050017D401467C
:1054700020460EF0E6F8BDF80C1000F07F00C1F3F6
:10548000062188420BD1AD1C20680222284404A9C1
:105490002CE0224600231AA019F0C0FDFEE7FF20F1
:1054A000ADF800002046FFF74DFC00B90220001DBA
:1054B00085B2294620462BF0F0FC206819F092FDB9
:1054C000C0B1002C14D020680222284403A9801FF8
:1054D000FFF7E6F820680222284404A9001FFFF71E
:1054E000DFF82068022228446946801EFFF7D8F8BA
:1054F00005B030BD002306A0226819F08FFDFEE73D
:10550000496E76616C6964207374796C6500000083
:105510004F7574206F66206D656D6F7279000000A5
:1055200037B582B0044619F061FDC0B1BDF80C106A
:1055300020460DF0F1FD050017D4014620460EF07F
:1055400080F8BDF80C1000F07F00C1F306218842FE
:105550000BD1AD1C20680222284404A92CE022466D
:1055600000231AA019F05AFDFEE7FF20ADF8000055
:105570002046FFF7E7FB00B90220001D85B229464F
:1055800020462BF08AFC206819F02CFDC0B1002CBD
:1055900014D020680222284403A9801FFFF780F856
:1055A00020680222284404A9001FFFF779F8206828
:1055B000022228446946801EFFF772F805B030BD0C
:1055C000002306A0226819F029FDFEE7496E7661E6
:1055D0006C6964207374796C650000004F757420E9
:1055E0006F66206D656D6F727900000037B582B00F
:1055F000044619F0FBFCC0B1BDF80C1020460DF0BC
:105600008BFD050017D4014620460EF01AF8BDF8B0
:105610000C1000F07F00C1F3062188420BD1AD1CB5
:1056200020680122284404A92CE0224600231AA065
:1056300019F0F4FCFEE7FF20ADF800002046FFF76C
:1056400081FB00B90220C01C85B2294620462BF000
:1056500024FC206819F0C6FCC0B1002C14D02068CE
:105660000222284403A9401FFFF71AF820680122EC
:10567000284404A9C01EFFF713F82068022228441A
:105680006946801EFFF70CF805B030BD002306A068
:10569000226819F0C3FCFEE7496E76616C696420EC
:1056A0007374796C650000004F7574206F66206D0F
:1056B000656D6F727900000037B582B0044619F04D
:1056C00095FCC0B1BDF80C1020460DF025FD05007D
:1056D00017D4014620460DF0B4FFBDF80C1000F0C1
:1056E0007F00C1F3062188420BD1AD1C2068042243
:1056F000284404A92CE0224600231AA019F08EFCAD
:10570000FEE7FF20ADF800002046FFF71BFB00B9C5
:105710000220801D85B2294620462BF0BEFB206862
:1057200019F060FCC0B1002C14D02068022228447B
:1057300003A90838FEF7B4FF20680422284404A90E
:10574000801FFEF7ADFF2068022228446946801EB4
:10575000FEF7A6FF05B030BD002306A0226819F0B1
:105760005DFCFEE7496E76616C6964207374796C48
:10577000650000004F7574206F66206D656D6F7257
:105780007900000010B518210448FEF71AFD0448FE
:10579000002101710121017010BD0000E40301200E
:1057A000780500104FF4B47190FBF1F201FB120088
:1057B000002802DA00F5B47000B20E495A2802DA65
:1057C00031F910007047A0F15A025A2A03D2C0F1F1
:1057D000B40000B2F4E7A0F1B4025A2A01D210B228
:1057E00002E0C0F5B47000B231F81000404200B2DF
:1057F00070470000206704082DE9F04788B01D4677
:10580000109E92468946040007D0B9F1000F04D0DB
:1058100016F0120F10D0002004E0002008B0BDE800
:10582000F087401C215C0A2904D00D2902D00029F0
:10583000F7D1F3E7401CF1E7B00701D547F618456B
:105840004FF000088DF81480204FCDF8108021E033
:105850000498CDF8188028B3002105AB06AACDE93D
:105860000231CDE9006220442B465246494622F0DF
:1058700017FE0699691A0DB2B0B104990844049054
:1058800021780A290BD00D2909D0205C0A2812D0D2
:105890000D2810D00498205C08B1002DD8DC0498A5
:1058A00068B110E00121D8E7049860B97A6804A9CA
:1058B00020469047F3E70498401C0490EFE77A688D
:1058C00004A9204690470498A8E70000A8010020FA
:1058D0002DE9FF4F83B004464FF00000DDF848A0EB
:1058E000DDF84090208093460F00608047D0BBF1E8
:1058F000000F44D05FEA8A7002D547F61840119035
:105900000025A846BBF8086023E07819CDE900A07F
:105910005946119B069AFFF76FFF8044B4F90200C5
:1059200006EB09010144B1F5004F28D23044484448
:105930006080A8EB0501CDF800A05A46069B0198AF
:1059400000F022F8B4F90010814200DB0846208004
:105950004546785D0028D8D15DB1781910F8010C62
:105960000A2801D00D2804D1618806EB09000844FB
:105970006080B4F9020028B1A0EB0900608007B094
:10598000BDE8F08F6680FAE72DE9FC5F1E46DDF882
:1059900030A091460D46070009D0B9F1000F06D09E
:1059A0000020044600908DF804002DBB2BE0002061
:1059B000BDE8FC9FDFF8548069463846D8F80420DB
:1059C000904783460098D8F8042038440021904737
:1059D00080465FEACA7004D0594601A800F018F862
:1059E00050B94246594648461BF0DCF800B2002840
:1059F00002DD2044304404B20098A842DAD3002CDF
:105A000001DDA01B04B22046D2E70000A80100205F
:105A100000230278232902D0012A0DD00FE02AB1F9
:105A20000021012A04D0022A04D008E0012101E06B
:105A3000017004E0017001E0202902D00123184622
:105A400070470221F6E700002DE9F0471E46144694
:105A50000D468246DDF8209015E000BF4FEA54085D
:105A600008FB0657394650464A469047002808DD4D
:105A700044F30000C0EB540407EB0605A4F1010455
:105A800001E005DA4446002CE8D12046BDE8F08765
:105A90003846FBE72DE9F04F89B017468B460600E4
:105AA0004FF0000405D14FF49B72254925A026F044
:105AB0001DFA3FB940F23712214923A026F016FA09
:105AC00000E0641C305D202803D0092801D05C452B
:105AD000F7D34FF0FF3984B31D4804F1060ADFF80D
