:020000040800F2
:10000000E83201209D0100089F130008A3020008A8
:100010009D1300085F0B0008BD2C000800000000C5
:10002000000000000000000000000000D9280008C7
:100030000110000800000000EF01000891290008ED
:10004000B7010008B7010008B7010008B7010008B0
:10005000B7010008B7010008B70100080310000845
:10006000B7010008B7010008B7010008B701000890
:10007000B7010008B7010008B7010008B701000880
:10008000B7010008B7010008B7010008B701000870
:10009000B7010008B7010008B7010008B701000860
:1000A000B7010008B7010008B7010008B701000850
:1000B000B7010008B70100087D2A0008B701000851
:1000C000B7010008B7010008B7010008B701000830
:1000D000B7010008552B0008B7010008B701000858
:1000E000B7010008B7010008B7010008B701000810
:1000F000B7010008B7010008B7010008B701000800
:10010000B7010008951A0008B7010008B7010008F8
:10011000B7010008B7010008B7010008B7010008DF
:10012000B7010008B7010008B70100082D0D00084D
:10013000B7010008B7010008B7010008B7010008BF
:10014000B7010008B7010008B7010008B7010008AF
:10015000B7010008B7010008410D0008B701000809
:10016000B7010008B7010008B7010008B70100088F
:10017000B7010008B7010008B7010008B70100087F
:10018000B7010008B7010008DFF80CD000F044FC0C
:1001900000480047550B0008E83201200648804718
:1001A00006480047FEE7FEE7FEE7FEE7FEE7FEE75C
:1001B000FEE7FEE7FEE7FEE7212A000889010008C6
:1001C000EFF3108072B6704780F310887047434A8F
:1001D0001368012B04D04FF001031360404A1060F4
:1001E000404A116040484FF0805101607047EFF382
:1001F000108272B63948016851B34FF000010160B6
:100200003748016891B1EFF309811EF0100F08BF64
:1002100021ED108B21E9F00F4FF000041EF0100FBC
:1002200008BF012441F8044D006801602D490968A8
:10023000096808C9B1E8F00F002B18BFB1EC108BAA
:1002400081F309884EF0100E002B18BF2EF0100E0F
:1002500082F310884EF0040E704722490860EFF3D5
:10026000148222F0040282F314881D494FF000002A
:1002700008601A494FF0010008601C484FF47F01E4
:10028000D0F8002041EA0201016017484FF0805188
:10029000016017480068006880F3088861B662B69C
:1002A00070471EF0040F0CBFEFF30880EFF30980D6
:1002B00020E9F00F40F804ED40F804ED1EF0040FC3
:1002C0000CBF80F3088880F3098800B521F0F4F9A9
:1002D0005DF804EB4EF0040E7047000014050010AA
:1002E000100500104801002004ED00E020ED00E0C2
:1002F00008ED00E02DE9F05F0546002092469B46A0
:1003000088460646814640241BE02846414647462B
:10031000224600F099FA53465A46C01A914110D32A
:1003200011461846224600F080FA2D1A67EB0108A4
:100330004F4622460120002100F077FA17EB000912
:100340004E41201EA4F10104DFDC484631462A4616
:100350004346BDE8F09F40EA01039B0703D009E054
:1003600008C9121F08C0042AFAD203E011F8013BA1
:1003700000F8013B521EF9D27047D2B201E000F8FA
:10038000012B491EFBD270470022F6E710B5134639
:100390000A4604461946FFF7F0FF204610BD421EEC
:1003A00012F8013F002BFBD111F8013B02F8013B91
:1003B000002BF9D1704710B5044604E00B7800F823
:1003C000013B03B1491C521EF8D2204610BD421C0D
:1003D00010F8011B0029FBD1801A704710B50022CC
:1003E00000E0521C835C8C5CA34201D1002BF8D14D
:1003F000D8B2E1B2401A10BD30B504460020034621
:1004000000E05B1C934203D2E05CCD5C401BF8D063
:1004100030BD034611F8012B00F8012B002AF9D159
:100420001846704730B505460020034600E05B1CC7
:10043000934205D2EC5CC85C201A01D1002CF6D1A5
:1004400030BD70B5064602F05FFC046805460A221E
:100450000021304600F01AFA2C6070BD2DE9FE4FE5
:10046000804681EA0300C00F0C46009021F0004155
:1004700023F00045B8EB0200A94105D240462146D1
:1004800090461C460B46024623F00040104347D0DE
:10049000270DC7F30A00C3F30A510290401A0190D6
:1004A00040286BDAC3F3130040F4801B0098924697
:1004B00020B10023D2EB030A63EB0B0B01985946E2
:1004C000C0F14002504600F0B0F906460D465046D5
:1004D0005946019A00F0C8F910EB08006141002468
:1004E00087EA115284EAE7731A4340D0009A62B354
:1004F000019A012A4FEA075215DC001B61EB020149
:100500004FF0004202EA0752CDE90042001C41F5DB
:10051000801132462B4600F000FA03B0BDE8F08FA0
:1005200040462146F9E7001B61EB0201001C41F542
:10053000801300185B412018A2F5001747EB030158
:1005400040EAD570B6196D4111E06D084FEA3606E4
:1005500045EAC0754FEA0752001B61EB0201001C1F
:1005600041F5801149084FEA3000001951413246E7
:100570002B4603B0BDE8F04F00F0C0B9009801224F
:1005800040000023D0EB020263EBE07300982146A9
:100590004FEAE074B8EB000061EB0401E9E783F097
:1005A00000435BE781F0004158E72DE9FE4F81EA07
:1005B000030404F0004421F0004100944FF0000BCC
:1005C00023F0004350EA01045ED052EA03045BD0FA
:1005D000C3F30A54C1F30A552C44A4F2F334019432
:1005E000A0FB0254C1F3130141F48011C3F31303C0
:1005F00043F4801301FB024400FB034E840A970A74
:1006000044EA815447EA8357A4FB076802958D0AA0
:1006100005FB07854FEA932C04FB0C542705029D2C
:100620004FEA065847EA1637B5EB08056EEB070C9C
:10063000870E920E47EA811742EA8312A7FB020156
:10064000B6EB0B0164EB00042B0D43EA0C335E1890
:1006500044EB1C50DA465146E7FB0201C5F3130494
:100660004FEA0B3343EA14534FEA0432019C43EA46
:100670000603A4F10C040294009CCDE900B400F040
:100680004CF903B0BDE8F08F00200146F9E72DE9F1
:10069000F04D81EA030404F0004B21F000451446BC
:1006A0004FF0000A23F0004150EA050220D054EA3E
:1006B00001021DD0C5F30A570246C5F31303C1F367
:1006C0001300C1F30A5640F4801543F48013A7EBDE
:1006D0000608101BD64608F2FD3873EB050002D35E
:1006E00008F1010801E092185B41B8F1000F03DA4C
:1006F00000200146BDE8F08D00204FF48011064631
:1007000084460EE0171B73EB050705D3121B63EB42
:10071000050306434CEA010C49084FEA30009218E1
:100720005B4150EA0107EDD152EA030012D082EAA0
:10073000040083EA0501084305D0101BAB4106D233
:100740000122002306E000224FF0004302E06FF098
:10075000010253101AEB06004CEB085110EB0A0093
:1007600041EB0B01BDE8F04D00F0C8B80EB5C10F6C
:1007700080EAE0700844CA07002140F233438DE864
:100780000E000A460B4600F0C8F803B000BD0EB5D7
:1007900040F2334102910021CDE900110A460B4697
:1007A00000F0BBF803B000BD0EB540F23342029238
:1007B0000022CDE90022134600F0AFF803B000BDDF
:1007C00070B5C1F30A5201F000450024C1F31301D2
:1007D00040F2FF3341F480119A4201DA002070BDEB
:1007E00040F233439A42A2F2334203DC524200F019
:1007F0002BF800E090402C43F1D0404270BD30B562
:100800000B46014600202022012409E021FA02F5CE
:100810009D4205D303FA02F5491B04FA02F5284468
:10082000151EA2F10102F1DC30BD202A04DB203AC2
:1008300000FA02F1002070479140C2F1200320FA33
:1008400003F3194390407047202A04DB203A21FA31
:1008500002F00021704721FA02F3D040C2F12002D9
:100860009140084319467047202A06DBCB17203AEF
:1008700041FA02F043EAE07306E041FA02F3D040A5
:10088000C2F1200291400843194670472DE9F04714
:1008900091460F4680460446002614F8015B2DB1B0
:1008A00000F0CCF80068405DC007F6D12B2D02D0D7
:1008B0002D2D18D0641E4A463946204600F0C2F855
:1008C00027B13968A14201D1C7F8008071054FF006
:1008D00002040BD54042002803DD02F015FA046043
:1008E000A007BDE8F08746F48066E4E70028F8DA60
:1008F00002F00AFA04606FF00040F2E710B5141E2F
:1009000073F1000408DA401C41F1000192185B41C8
:100910001A4301D120F0010010BD2DE9F04D92469F
:100920009B4611B1B1FA81F202E0B0FA80F22032B6
:100930009046FFF77AFF04460F4640EA0A0041EA74
:100940000B0153465A46084313D0114653EA01009F
:1009500019D0C8F140025046FFF776FF05460E4613
:10096000504659464246FFF760FF084305D0012034
:1009700004E020463946BDE8F08D0020054346EAF4
:10098000E0762C4337430A986305E40AA0EB08009D
:100990000022FD0A44EA47540A3002D500200146ED
:1009A000E9E7010510196941DDE9084500196941C8
:1009B000BDE8F04DA2E7C1F30A52C1F3130140F2C2
:1009C000FF3341F480119A4202DA00200146704759
:1009D00040F233439A42A2F2334202DC5242FFF722
:1009E00033BFFFF722BF000030B5041E71F10004D1
:1009F00004DB4FF00044404264EB0101141E73F12C
:100A0000000405DB1C464FF00043524263EB040335
:100A1000994208BF904230BD064C074D06E0E068A1
:100A200040F0010394E8070098471034AC42F6D335
:100A3000FFF7AEFB10B5030850B503080048704738
:100A4000C0AA03082DE9F05F82460078002715460A
:100A50008B460AF10104B946302801D09DB113E05C
:100A600014F8010B0127782803D0582801D045B18C
:100A70000AE00DB1102D07D10027102514F8010B45
:100A800002E0082500E00A250026B0460EE005FB3E
:100A9000080005FB06F1012701EB10461FFA80F85C
:100AA000B6F5803F00D3B94614F8010B294600F093
:100AB00018F80028EBDABBF1000F05D00FB1641E67
:100AC00000E05446CBF80040B9F1000F06D002F028
:100AD0001BF902210160C81EBDE8F09F48EA0640EC
:100AE000FAE73A2800D2303820F02002412A01D318
:100AF000A2F13700884201D34FF0FF30704770B544
:100B00008C1810F8015B15F0070301D110F8013BB8
:100B10002A1106D110F8012B03E010F8016B01F83F
:100B2000016B5B1EF9D12B0705D40023521E0DD497
:100B300001F8013BFAE710F8013BCB1A921C03E0E5
:100B400013F8015B01F8015B521EF9D5A142D8D31D
:100B5000002070BD10B523F07BF9002010BDFEE72A
:100B600010B54FF080440021204601F09EFF606ADE
:100B7000014A0021517010BD2800001010B5074C2B
:100B8000207808B925F0A0FE4FF080400021416296
:100B9000012101F08AFF0120607010BD28000010C3
:100BA00070B5374905460024086810F0450FFBD0A2
:100BB000410702D50324042003E0C00704D0012428
:100BC000204600F001FF59E000F03AFFA8422BD187
:100BD00040F2FF5000F0F8FE002000F053FF2949DA
:100BE00008424BD0002801DA1C2070BD410001D51D
:100BF000092070BD810001D50A2070BDC10001D55A
:100C00000B2070BD010101D50C2070BD410101D543
:100C10000D2070BDC10101D50E2070BD010201D5AE
:100C20000F2070BD410201D5102070BD810201D599
:100C3000112070BDC10201D5122070BD010301D584
:100C4000132070BD410301D5142070BD810301D56F
:100C5000152070BDC10301D5162070BD010401D55A
:100C6000172070BD410401D5182070BD810401D545
:100C7000192070BD000701D51A2070BD204670BD37
:100C8000342C014008E0FFFD10B50B48002401683A
:100C900011F0450FFBD0480702D50324042003E0E0
:100CA000C80705D00124204600F08EFE204610BD66
:100CB00040F2FF50F8E70000342C014070B50C46BC
:100CC000194906460025086810F0450FFBD041077A
:100CD00002D50324042003E0C00705D001242046E8
:100CE00000F072FE204670BD00F0AAFEB04212D1A4
:100CF00040F2FF5000F068FE002000F0C3FE10F448
:100D0000604F03D0810404D5132070BD000C2080F7
:100D100007E0410401D5102070BD000401D50F206B
:100D200070BD284670BD0000342C014010B520F085
:100D3000EFFD01F0A3FBBDE8104020F001BE000074
:100D400070B520F0E5FD094D094C2946204600F01C
:100D5000EDF838B12946204600F022F8002120465F
:100D600000F034F8BDE8704020F0EABD00800028B3
:100D7000B8640240074A904201D2074801E00548A2
:100D80001038064A8B0001EA020101D5C1607047A4
:100D90008160704710640240006002407D0F7D0F4B
:100DA000074A904201D2074801E005481038064A38
:100DB0008B0001EA020101D5C16070478160704774
:100DC00010640240006002407D0F7D0F0029016821
:100DD00002D041F0010101E021F001010160704702
:100DE0002DE9F043016821F001010160002101605B
:100DF00041608160C1600161212141613C493C4AFF
:100E00003D251039904202D18D60BDE8F083384A0B
:100E10004FF474661832904201D18E60F5E7344A7F
:100E20004FF474173032904201D18F60EDE7304AB1
:100E30004FF0746C4832904202D1C1F808C0E4E728
:100E40002B4B2C4A6033984201D1CA60DDE7284C15
:100E5000294B7834A04201D1CB60D6E7DFF89080EF
:100E6000264C08F19008404501D1CC60CDE7DFF871
:100E700080804FF03D5908F1A808404502D1C1F8E3
:100E80000C90C2E71E49DFF878800839404501D14F
:100E90000D60BAE71A4D1835A84201D10E60B4E7CB
:100EA000174D3035A84201D10F60AEE7144D4835DB
:100EB000A84202D1C1F800C0A7E7114D1049603522
:100EC000091FA84201D10A609FE70D4A783290427B
:100ED00001D10B6099E70A4A9032904201D10C602F
:100EE00093E7074AA83290428FD1C1F800908CE76F
:100EF000106002403D000020400F002000003D2017
:100F0000106402400029016802D041F0200101E094
:100F100021F0200101607047014600200968C907DF
:100F200000D001207047406880B2704730B5104A49
:100F30000024904201D20F4B01E00D4B103B0E4AB2
:100F4000114205D01E2202EAD12502682A4002E0A1
:100F5000406900F08002880001D5586800E01868F8
:100F6000064B1840084201D002B10124204630BD92
:100F700010640240006002403C0F3C0F7D0F7D0F6B
:100F80000B0607D5436912B143F0800301E023F05B
:100F900080034361802908D0002A026801F01E0105
:100FA00001D00A4300E08A430260704730B503680D
:100FB000124ACC6813400A682243D1E905452C4304
:100FC0002243CC6922430C6A22434C6A22438C6A36
:100FD00022434C6B22438C6B22431A4302604269CA
:100FE00022F00703D1E90B2422431A4342610A6924
:100FF00042604A6882608968C16030BD3F801CF0F1
:10100000704710B520F084FC022000F005F8BDE820
:10101000104020F095BC00000149086070470000B6
:10102000143C01402DE9FC5F0025484C00954FF42D
:10103000806801954027C4F81080C4E902750E4607
:101040004FF0080B1021C4E900B1A946204600F07A
:1010500053FD1020FFF7A4FD00284CD13C48BA46B0
:101060004F460089000420603720C4E9010AC4E922
:101070000398204600F040FD3720FFF791FD00283F
:1010800039D1411E04F11400C0E9001B30218160F8
:101090000221C0E903170121416100F0ADFC3320BA
:1010A000C4F808A0C4E90070C4E90378204600F041
:1010B00023FD3320FFF774FD04001CD1254F4FF4AE
:1010C000001AE94640F22A68386810EA080F0AD187
:1010D000504600F0BBFC0028F6D000F007FD49F8B0
:1010E00025006D1CF0E7082000F0B0FC28B10820B6
:1010F00000F06AFC0420BDE8FC9F022000F0A6FC82
:1011000020B1022000F060FC0220F4E7202000F073
:101110009DFC20B1202000F057FC0620EBE74FF4A7
:101120000075284600F092FC20B1284600F04CFCE7
:101130000720E0E740F2FF5000F046FC009800BABC
:101140007060019800BA30602046D4E7A8100020F3
:1011500014000020342C0140F0B5002301240327A3
:101160000D6804FA03F21540954242D1D0F800C050
:101170005E0007FA06F52CEA050CC0F800C091F8ED
:1011800004C0D0F800E00CFA06FC4CEA0E0CC0F8E3
:1011900000C091F804C0BCF1010F02D0BCF1020FF5
:1011A0001FD1D0F808C02CEA050CC0F808C091F88F
:1011B00005C0D0F808E00CFA06FC4CEA0E0CC0F8AA
:1011C00008C0D0F804C02CEA020CC0F804C0426881
:1011D00091F806C00CFA03FC1FFA8CFC42EA0C02E0
:1011E0004260C268AA43C260CA79C568B2402A4355
:1011F000C2605B1C102BB3D3F0BD4B07DB0E9A40D3
:10120000C90810B500EB8100016A0F249C40A1437E
:101210000162016A1143016210BD02460020126999
:101220000A4200D0012070470029018802D041F411
:10123000806101E021F48061018070470246002056
:10124000938A128B43EA024323F07F42914300D1F9
:10125000012070470029018802D041F0010101E01E
:1012600021F00101018070470D4910B5884202D17B
:1012700001214C050AE00B49884202D101218C056D
:1012800004E0094988420AD10121CC05204600F03A
:10129000EDF82046BDE81040002100F0E7B810BD91
:1012A0000054004000580040005C004000290188C4
:1012B00002D041F4807101E021F480710180704717
:1012C0000029018802D041F4007101E021F400718D
:1012D000018070477FB5044680880D4620F03F06A8
:1012E000684600F0E7F827490298B0FBF1F189B2AF
:1012F0000E43A680228822F001022280224B2A6817
:101300009A421BD85200B0FBF2F080B2042800D2FF
:101310000420491C2184A083208840F00100208003
:1013200021884FF6F5300140A8886A8910430843A8
:101330002080A8892989084320817FBDEB88A3F5F7
:101340003F46FF3E0BD002EBC20303EB0212B0FBA1
:10135000F2F080B240F48040020506D007E002EBD4
:101360004202B0FBF2F080B2F6E740F001004FF429
:10137000967251434FF47A72B1FBF2F140F400409F
:10138000C7E7000040420F00A086010012B141F003
:10139000010101E001F0FE0101827047FEE77047A4
:1013A00030B50F22C47801780123FCB1144C2468B5
:1013B00001F1E02104F4E064C4F5E064C4F307241F
:1013C000C4F10405E2404478AC40857815402543DB
:1013D0002A0181F80024007800F01F018B404009A9
:1013E000800000F1E020C0F8003130BD01F01F00A6
:1013F00083404809800000F1E020C0F8803130BD12
:101400000CED00E002490843024908607047000003
:101410000000FA050CED00E0014908627047000089
:1014200000000E42044A0029116801D0014300E087
:10143000814311607047000030380240044A00299F
:10144000116801D0014300E0814311607047000042
:1014500034380240044A0029116801D0014300E0F9
:10146000814311607047000040380240044A00295F
:10147000116801D0014300E0814311607047000012
:1014800020380240044A0029116801D0014300E0DD
:10149000814311607047000044380240044A00292B
:1014A000116801D0014300E08143116070470000E2
:1014B0002438024070B5204A1168204C11F00C010C
:1014C00004D01F4E042903D0082903D004601BE078
:1014D000066019E01849091F0B68C3F380550B68B3
:1014E00003F03F0315B1B6FBF3F301E0B4FBF3F3F4
:1014F0000C680968C4F388146343C1F30141491CB3
:101500004900B3FBF1F1016011680F2303EA1111E7
:101510000C4B5C5C0168E14041601468072505EAFA
:1015200094241C5D21FA04F48460126805EA5232A6
:101530009A5CD140C16070BD083802400024F400BC
:1015400040787D0100000010024600205109012969
:101550000BD002290CD00849096802F01F020123B0
:1015600093400B4200D00120704703497439F3E7E0
:101570000149091FF0E700007438024005490022C4
:101580000A700A70012802D0042801D105200870D1
:101590007047000070380240014908607047000041
:1015A0003C0E4742C0F30121032907D1074A1168C5
:1015B00021F4F813064901401943116003496831C9
:1015C0000A68C0F30B0002430A6070470838024003
:1015D000FFFCFF0F05490028086802D040F0040016
:1015E00001E020F004000860704700000008065089
:1015F000014800687047000008080650010901EB27
:10160000810100F00F0000EB4100C0B270470021E3
:1016100003E0491C0A38C9B2C0B20A28F9D2090746
:1016200040EA11607047000008B5002000900C48A7
:101630000168490612D44FF0FF310160831301683D
:10164000009A01F04001521C00929A4201D00029F8
:10165000F5D00068400601D4002008BD012008BD77
:101660000C2800400248016821F0800101607047A9
:101670000C28004010B50C460E4909680E4A11406E
:101680000A0CE270C1F30423637001F03F03A370FE
:10169000C1F34231217000280BD11046FFF7AEFF95
:1016A000E0706078FFF7AAFF6070A078FFF7A6FFF0
:1016B000A07010BD042800403FFFFF0010B50C468D
:1016C0000F4909680F4A1140C1F305422270C1F366
:1016D0000623637001F07F03A370402303EA1141E6
:1016E000E17000280BD11046FFF788FF207060786A
:1016F000FFF784FF6070A078FFF780FFA07010BD37
:10170000002800407F7F7F0070B5124D0446002600
:10171000CA20286053202860FFF786FFA8B10D4833
:101720001C38016821F04001016001682268114302
:1017300001600848A168143801600168A28841EA84
:1017400002410160FFF78EFF0126FF20286030462E
:1017500070BD00002428004008B5034901EB80005B
:101760000090006808BD00005028004070B50C468D
:10177000010060784FF000062AD0FFF73FFFA07805
:10178000FFF73CFFA078E17840EA014560782178D6
:10179000000240EA41300543194CCA202060532022
:1017A0002060FFF741FF78B1164805401448203803
:1017B0000560FFF757FF12481C380068800602D406
:1017C00000F072F800B10126FF202060304670BDA5
:1017D000C10603D520F010000A306070E078FFF7F2
:1017E00016FF05046078FFF712FF45EA0025A07890
:1017F000FFF70DFF0543207845EA4035CCE70000B0
:10180000242800403FFFFF002DE9F041244F0C4603
:1018100002004FF0000620783A6831464FEA4262F3
:1018200004D0002A15DAFFF7E9FE13E0002A00DBF6
:10183000E170FFF7ECFE05046078FFF7E8FE45EA8B
:101840000025A078FFF7E3FE0543E07845EA004570
:101850000AE0E170A078217840EA01456078E178FB
:10186000000240EA014005430D4CCA201C342060B0
:1018700053202060FFF7D8FE68B10A4805400848A9
:1018800008380560FFF7EEFE3868800602D400F0E5
:101890000BF800B10126FF2020603046BDE8F08142
:1018A000082800407F7F7F0018B500201049009075
:1018B000CA200860532008600D481838026822F0DA
:1018C000A00202604FF400340268009B02F0200284
:1018D0005B1C0093A34201D0002AF5D0006880066B
:1018E00001D5012000E00020FF220A6018BD0000A1
:1018F0002428004008B5034A02EB800000900160F4
:1019000008BD0000502800402DE9FC470025804616
:1019100000952846019500F0B5F8800102D50E200B
:10192000BDE8FC87264F6946388980B2FFF77AFB0D
:101930000028F5D13720234C402601994FF0060AA4
:101940004FF48069B8F1010F1FD0C90335D539892B
:10195000C4F810900904C4E90010C4E902652046E7
:1019600000F0CAF83720FFF71BF90028D8D1C4E9E6
:10197000005AC4F8109000BFC4E90265114800F095
:10198000BBF80620FFF70CF9CAE7490315D53989DA
:10199000C4F810900904C4E90010C4E902650948BC
:1019A00000F0AAF83720FFF7FBF80028B8D1022092
:1019B000C4F81090C4E9000ADEE72520B0E7000073
:1019C00014000020A81000200149086070470000A2
:1019D000382C01400149086070470000382C014054
:1019E0000149C1F8A0007047008025420149086004
:1019F000704700008C85254210B50A4A01681160C5
:101A0000121D41681160121D116821F0F703D0E921
:101A100002142143D0E904400443214319431160D7
:101A200010BD0000242C014010B50121CC0220463D
:101A3000FFF734FD2046BDE810400021FFF72EBD22
:101A400001480068C0B27047102C0140034A0146AB
:101A5000002012680A4200D001207047342C014057
:101A6000034A0146002012680A4200D00120704754
:101A7000342C01400248006800F003007047000069
:101A8000002C014008B5024908440090006808BDD8
:101A9000142C014010B51FF03BFF00F003FDBDE822
:101AA00010401FF04DBF0000044A0029116801D00A
:101AB000014300E081431160704700003C2C01406D
:101AC00030B5094B1A6847F6FF618A43017D846887
:101AD000C568214344682C432143046800692143BD
:101AE00001431143196030BD042C014001480068D6
:101AF00070470000802C014010B5084A0168116051
:101B0000121D1168CB0AD0E901142143D0E903402A
:101B10000443DB0221431943116010BD082C01402E
:101B20000149086070470000002C014008B5012001
:101B30008DF8000010210548FFF76FFB10B1002061
:101B40008DF800009DF8000008BD00000000024074
:101B50002DE9F0410146194800264068032813D0BA
:101B600018B1012801D0022825D1B1F5805F0BD032
:101B70004FF400670025124CB9420ED10120FFF747
:101B8000C3FE060003D016E02720BDE8F0812575CE
:101B900025606560C4E9025709E00020FFF7B4FE44
:101BA000060008D1257525606560A560E5600448DC
:101BB0002561FFF785FF3046E7E7000014000020AD
:101BC000901000202DE9F0439849DFF86492D1F895
:101BD00004C080F856C00989A0F85410D9F8001044
:101BE0000A0E94090470C2F38304447002F00302E5
:101BF00082700A0CC2700A0A02714171D9F804702D
:101C0000390E0901C180C288C7F3074142EA1112A7
:101C1000C28001F00F010172C7F30722D10941729E
:101C2000C2F380118172C2F34011C172C2F300117C
:101C30000173002141734B469D6801232E0EC5F3AD
:101C40000744C5F30728BCF1000F06D0BCF1010F13
:101C500003D0BCF1020F3BD052E09207120D02619B
:101C6000FAB2076947EA82020261026942EA961201
:101C70000261C6F3C202027506F0070242756209EC
:101C80008275C4F38202C275A207520F0276047EE7
:101C9000424644EAD21404760469077EBF1C03FA64
:101CA00007F6641CA4FB06784FEAE67C01FB068677
:101CB00004FB0C6690F808C003FA0CF4A7FB04C8F8
:101CC000046506FB048407FB0144C0E912C417E065
:101CD000BA06920A0261026942EA062202610269B8
:101CE0002243026104694246641C41F10006F60485
:101CF00046EA5436E404C0E912464FF40074046521
:101D0000C2F3801444769206520E00F81A2FEAB2FB
:101D1000057845EAD21500F8015B02F07F0200F871
:101D2000012BD9F80C40220ED50900F8015BC2F353
:101D3000411500F8015BC2F3820500F8015B9207D0
:101D4000120F02700578C4F3074245EA921500F8B5
:101D5000015BC2F340150570417002F00102827010
:101D6000C4F30722D509C570C2F380150571C2F30B
:101D700040154571C2F300158571C2F38105C57127
:101D800002F003020272C4F3460242728372284CCC
:101D900010342268150E0573150C2D02C581C689F5
:101DA000C2F307252E43C6811206026162680669E6
:101DB000150E46EA054505610669C2F3074546EA80
:101DC000052505610669C2F307252E4306610275E4
:101DD000A268150E4575150C2D0685618669C2F33E
:101DE000072546EA054585618569D2B245EA0222A2
:101DF0008261E268856945EA12658561057FC2F303
:101E0000074445EA141505772407240DC483C58BC0
:101E1000C2F307242543C583C2F3460280F820207D
:101E200080F821300846BDE8F0830000140000204F
:101E30000810002008B500200090FFF777FE012869
:101E400003D1684600F02EFC08B1FF2008BD0098C1
:101E5000C0F3432008BD10B5FFF7ECFF042803D002
:101E6000FF2803D0012010BD002010BD022010BDAE
:101E70002DE9F04393B000250095402102A801957B
:101E8000FEF782FA4E4802AE05700561C5604D4905
:101E90000D600089694680B2FFF7C4F8002856D16A
:101EA000019911F0407F52D0474C4FF0400810216B
:101EB000E4E8028140464FF4806984E82102424808
:101EC000083CFFF719FE1020FEF76AFE00283ED1FD
:101ED000471E3D48602114300760C0E9018102219E
:101EE000C0E9031501214161FFF786FD37482060F5
:101EF0000620C4E90108C4E903593348FFF7FCFD93
:101F00000620FEF74DFE002821D12E4D4FF400494A
:101F1000083540F22A68286810EA080F0FD14846B1
:101F2000FFF794FD0028F6D05FF00004FFF7DEFD18
:101F300046F82400641C082CF8D32036EBE7082070
:101F4000FFF784FD30B10820FFF73EFD042013B0F9
:101F5000BDE8F0830220FFF779FD20B10220FFF7F2
:101F600033FD0220F3E72020FFF770FD20B1202091
:101F7000FFF72AFD0620EAE74FF400742046FFF73A
:101F800065FD20B12046FFF71FFD0720DFE74FF476
:101F9000001403E0FFF7AAFD01C67F1E2046FFF7ED
:101FA00055FD08B1002FF5D140F2FF50FFF70CFDB1
:101FB0009DF81500800701D50020C8E72720C6E757
:101FC000140000202C2C0140A810002001FFFF80ED
:101FD00038B500248DF8004000F0FEF8FFF724FD2E
:101FE00000F05AF98DF800009DF8000058BB00F091
:101FF0002FF88DF800009DF8000020BB13480475F1
:10200000046044608460C4600461FFF759FD0F48B8
:102010005838FFF7D7FD8DF800009DF8000048B94B
:102020000A4800215838B0F85400000400F024FB9E
:102030008DF800009DF8000028B94FF40060FFF70C
:1020400087FD8DF800009DF8000038BD901000203D
:102050002DE9F84F01200025ADF80000FFF70AFD3B
:10206000A8B3DFF8E090D9F80400042868D0364C13
:102070004FF0C00A00260220C4F808A0C4E900609E
:102080004FF48068C4E903682046FFF735FDFEF78A
:10209000FBFD05001DD1FFF7F5FCA4F190073860AA
:1020A0000420FFF7EFFC78600820FFF7EBFCB86036
:1020B0000C20FFF7E7FCF860D9F804004F4650B158
:1020C000012808D0062806D0022804D013E0FFE734
:1020D0002520BDE8F88F0320E4E80260402084E872
:1020E00041011948083CFFF707FD69460320FEF748
:1020F000E5FD0500EDD17868042821D0BDF8000089
:10210000B860000420600920C4E9010AC4E903683A
:102110000D48FFF7F1FCFEF7B7FD0500D9D1FFF739
:10212000B1FC094CA03C20600420FFF7ABFC6060D0
:102130000820FFF7A7FCA0600C20FFF7A3FCE060DD
:102140002846C6E714000020A810002070B5204ED5
:102150000C46054690B04FF0FA513046FEF70AFEA5
:1021600000213046FEF732FE3046FEF739FE4FF0D2
:10217000006000901748CDE901054020CDE9030437
:1021800000203115CDE90501890007918900CDE9CD
:1021900008104FF440300A9004200B9003200C905C
:1021A00048020D9080100E9069463046FEF7FEFE04
:1021B000012210213046FEF7E3FE20213046FEF7D3
:1021C000A1FE01213046FEF701FE10B070BD0000F7
:1021D00058640240802C01402DE9FC4101210D2072
:1021E000FFF720F9294E0C2208213046FFF705F8A9
:1021F0000C2209213046FFF700F80C220A21304654
:10220000FEF7FBFF0C220B213046FEF7F6FF0C22F7
:1022100011463046FEF7F1FF1D4F0C2202213846D1
:10222000FEF7EBFF4FF47060009002208DF8050080
:102230008DF8040000248DF8064001258DF8075024
:1022400069463046FEF788FF04200090694638460C
:10225000FEF782FF280300908DF80740694630465C
:10226000FEF77AFF102000908DF804408DF807509B
:1022700069460848FEF770FF0121C802FFF702F91E
:1022800001218805FFF7CEF8BDE8FC810008024077
:10229000000C0240000002402DE9FC5F00258DF893
:1022A000005072487621A946017505604560856039
:1022B000C560A8460561FFF703FC0320FFF730FC6B
:1022C0000120FFF78DFB694C4FF4806B18342046DA
:1022D00025606560A560C4E9035BFFF70DFC4FF462
:1022E000803A0027564601E0761E10D08020FFF786
:1022F000ADFB0028F8D056B140F2FF50FFF764FB69
:102300008DF800709DF80000002854D101E00327EB
:10231000F6E74FF4D570206008204027C4E9010794
:102320005248C4E9035B5E461830FFF7E5FB504BAB
:10233000002051461A684FF0370B02E04C4A1268F1
:10234000491E12F0450F06D009B1510706D54FF0CE
:10235000030A042007E00029F0D1F8E7510605D56B
:102360004FF0000A4020FFF72FFB50468DF8000089
:102370009DF8000000B3A760C4E9005B3B48C4E9D6
:1023800003561830FFF7B8FB3720FEF709FC8DF82D
:102390000000A760C4E9005B3448C4E90356DA468C
:1023A0001830FFF7A9FB3720FEF7FAFB8DF8000085
:1023B0009DF8000088B355E02E4801214FF0804879
:1023C0004160E6E7A760C4E9005A2848C4E903561B
:1023D0001830FFF791FB3720FEF7E2FB8DF8000085
:1023E0009DF8000078BB244948EA010020602920BC
:1023F000C4E901071D48C4E903561830FFF77CFB08
:1024000000201B490190086810F0450FFBD04007E1
:1024100004D503200190042002E011E040F2FF50B7
:10242000FFF7D2FA01988DF800009DF8000050B92E
:102430000020FFF727FBC10F09F1010904D005E0D7
:102440004FF6FF7BBEE70DE0D945BBD3D94503D39B
:102450001B208DF8000005E010F0804F02D00548E9
:10246000022141609DF80000BDE8FC9F9010002013
:10247000342C014014000020000010800748006840
:1024800010F0C05F08D006490120486103484FF0B2
:10249000C2515830FEF76EBC704700000064024025
:1024A0001400002070B54FF480752846FFF7D8FA65
:1024B0001F4C38B1002020702846FFF78BFA01200E
:1024C00020612EE00220FFF7CBFA20B10220FFF7B7
:1024D00081FA022024E00820FFF7C2FA20B1082088
:1024E000FFF778FA04201BE02020FFF7B9FA20B1AB
:1024F0002020FFF76FFA062012E01020FFF7B0FA55
:1025000020B11020FFF766FA052009E04FF40075AE
:102510002846FFF7A5FA20B12846FFF75BFA072007
:10252000207000214CF23A30FFF7BEFA207870BDDF
:10253000140000202DE9F05F4C49054600200A9F59
:10254000164608700861C860494A106049684FF42F
:10255000007B022903D1760A5F4646EAC356454C02
:1025600010218046E4E8027140214FF4806984E83C
:1025700002034048083CFFF7BFFA1020FEF710FBAB
:10258000002840D13B484FF0FF3A14309021C0F86A
:1025900000A0C0E901710221C0E9031801214746EA
:1025A0004161FFF729FA1120E4E80260402084E845
:1025B00081023048FFF7A0FA1120FEF7F1FA060079
:1025C00021D12B4F4FF40049083740F22A68386870
:1025D00010EA080F0FD14846FFF738FA0028F6D066
:1025E0005FF00004FFF782FA45F82400641C082C11
:1025F000F8D32035EBE70820FFF728FA28B10820A8
:10260000FFF7E2F90420BDE8F09F0220FFF71EFA71
:1026100020B10220FFF7D8F90220F4E72020FFF7CD
:1026200015FA20B12020FFF7CFF90620EBE75C4632
:102630005846FFF70BFA20B12046FFF7C5F90720EF
:10264000E1E754464FF4001704E000BFFFF74EFAED
:1026500001C5641E3846FFF7F9F908B1002CF5D121
:1026600040F2FF50FFF7B0F93046CCE714000020ED
:102670002C2C0140A8100020094910B50860072043
:102680004860402088600020C8604FF48060086186
:102690000846FFF731FABDE810400720FEF780BA80
:1026A000A810002070B504001AD00E480E49008909
:1026B000000408600D204860402088600020C86049
:1026C0004FF4806008610846FFF716FA0D20FEF708
:1026D00067FA050003D1FFF7D5F92060284670BDE1
:1026E000262070BD14000020A8100020084810B556
:1026F00000210C22C0E900124022C0E90221110190
:102700000161FFF7F9F9BDE810400C20FEF748BA67
:10271000A81000202DE9F0410026751E2846154C12
:1027200000E0401E616929B9216919B9217809B908
:102730000028F6D1002767610F4800E06D1E016890
:10274000C90401D5002DF9D1E068012803D1FFF7B4
:10275000CDFF0646E760354300D1042640F2FF5026
:10276000FFF732F9207810B12078BDE8F0813046CB
:10277000FBE7000014000020342C01402DE9F05F3D
:102780003F4CDDE90A764FF000081546994682462F
:1027900084F80080C4F810800121E1603949C1F853
:1027A0000080012140F22A30FFF77EF906FB07F195
:1027B0005046FFF7CBFC0120FFF718F960680228AC
:1027C00003D107026D0A45EAC9552F4C10204FF07E
:1027D000400980C4C2464FF4806B84E8010E201F7C
:1027E000241FFFF789F91020FEF7DAF9002844D1F9
:1027F0002348C846211D0089D9460004206037209F
:10280000C4F810B081E801052046FFF775F93720BC
:10281000FEF7C6F9002830D1C4F808801720C4E9B3
:102820000060C4E903A9C346D0462046FFF764F917
:102830001720FEF7B5F900281FD11920C4F808B0F9
:10284000C4E900504546C4E903892046FFF754F91E
:102850001920FEF7A5F900280FD104F11401401E3C
:102860007E43C1E900069020C1E902050120C1E9CB
:1028700004500846FFF7C0F82846BDE8F09F000066
:10288000140000202C2C0140A810002000290188F1
:1028900002D041F0400101E021F040010180704789
:1028A00030B502884C8802F441530A88CD8822430F
:1028B0008C882C4322430C8922434C8922438C89E7
:1028C0002243CC8922431A430280828B22F4006285
:1028D0008283098A018230BD704700000CB5002058
:1028E0002749019000900A6842F480320A604FF450
:1028F000A0430A6802F400320092019A521C01922D
:10290000009A12B9019A9A42F3D10A68920334D517
:10291000012000901A484030026842F08052026064
:102920001848026842F440420260154808300268C4
:102930000260026842F400420260026842F4A0525F
:102940000260031F104A1A600A6842F080720A602F
:102950000A689201FCD50D4A40F2057111600168C8
:1029600021F003010160016841F00201016001688A
:10297000C1F381010229FAD10CBD00900CBD000009
:10298000003802400070004019544007003C0240EB
:1029900010B51EF0BDFF20F011FDBDE810401EF087
:1029A000CFBF000070B51A4C20681A4A10F00C0115
:1029B000194804D0194D042903D0082903D0026016
:1029C0001BE0056019E01249091F0B68C3F380562C
:1029D0000B6803F03F0316B1B5FBF3F201E0B2FB65
:1029E000F3F20B680968C3F388135A43C1F301413A
:1029F000491C4900B2FBF1F101602168064AC1F3AC
:102A00000311121D515C0268CA40026070BD0000D3
:102A1000083802400024F4000000002040787D01C6
:102A2000124810B5016841F4700101601048016856
:102A300041F0010101600E4A002108321160026874
:102A40000C4B1A400260031D0B4A1A60026822F404
:102A50008022026006480C300160FFF73FFF034907
:102A60004FF000608039086010BD000088ED00E084
:102A700000380240FFFFF6FE1030002410B5084C6D
:102A80000121204600F01BF8002807D023F012FF98
:102A90002046BDE81040012100F004B810BD000040
:102AA00000080040C943018270470029018802D014
:102AB00041F0010101E021F001010180704702466F
:102AC0000020138A92890B4202EA010202D0002AF6
:102AD00000D001207047000030B50288164B174C1B
:102AE00098420DD0A0420BD0B0F1804F08D0144DC9
:102AF000A84205D0134DA84202D0134DA84203D1DD
:102B000022F070054A882A43104DA84206D0104D85
:102B1000A84203D022F440750A892A4302804A68F9
:102B2000C2620A880285984201D0A04201D1897A06
:102B300001860121818230BD000001400004014076
:102B40000004004000080040000C0040001000405D
:102B50000014004070B51EF0DBFE0E4C40F225550F
:102B60002946204600F034F838B11DF071FA0A49C0
:102B700008702946204600F014F80821204600F08D
:102B800020F818B10821204600F008F8BDE8704090
:102B90001EF0D6BE0010014010000010C943018095
:102BA00070470A0A01219140C943018070470029FA
:102BB000818902D041F4005101E021F4005181816A
:102BC00070470246002012880A4200D00120704758
:102BD00030B501F01F0201240025C1F3421304FAAD
:102BE00002F2012B0FD0022B0FD0838A4FEA112162
:102BF0000088134204FA01F400EA040001D000B195
:102C00000125284630BD8389F0E7038AEEE70000FE
:102C10007FB50446008A0D4620F44051E8880843F9
:102C20002082A08941F20C618843A9882A89114336
:102C30006A8902431143A181A08A20F44071A889C6
:102C40000843A0826846FEF735FC1A48844202D049
:102C50001948844201D1039800E00298A18909042F
:102C600000EBC00101EB0010296801D5490000E02C
:102C70008900B0FBF1F26420B2FBF0F109010B090D
:102C80006FF018056B4302EB8302A3891D044FF01C
:102C9000320306D503EBC202B2FBF0F000F00700EE
:102CA00005E003EB0212B2FBF0F000F00F00084366
:102CB00020817FBD0010014000140140FEE70000AC
:102CC0000FB4054B10B503A9044A029803F064F849
:102CD00010BC5DF814FB000009F30008F8050010B3
:102CE0000FB4084B10B504A902AA039803F054F8D6
:102CF000044602A9002003F05EFC204610BC5DF8EB
:102D000014FB0000B765000800487047000200206F
:102D1000002807D00E4910F0FF0F04D051FA80F0C0
:102D20000078401C704710F47F4F04D0C0F3072098
:102D3000085C0930704710F47F0F04D0C0F30740DF
:102D4000085C1130704701EB106000781930704753
:102D50008F70030802E008C8121F08C1002AFAD1C8
:102D600070477047002001E001C1121F002AFBD10B
:102D7000704770B5044600256FF02F0608E0206804
:102D8000411C2160007805EB850106EB41014518E7
:102D90002068007800F0D0F80028F0D1284670BDF7
:102DA0002DE9FF5F82B00021DDE90430020DDDF87E
:102DB00040B0034318D044F61050A2F2FF32424311
:102DC0001514119801281FD0A5EB0B00401C5FEAD9
:102DD000000A4FF000064E4FDFF83891B0465046DB
:102DE00015D5CAF1000413E0119801244AA3012863
:102DF00001D16FEA0B010298119AC0E90031C0E9D4
:102E0000024206B0BDE8F09FCBF10000DFE70446C8
:102E10000021404A491842EB0450CDE9001012E06D
:102E2000E00707D032463B4640464946FDF7BDFB2A
:102E30008046894632463B4610461946FDF7B5FBAB
:102E400006460F466410002CEAD1DDE90401DDE9F5
:102E50000023BAF1000F06DAFDF7A7FB42464B4606
:102E6000FDF7A3FB05E0FDF712FC42464B46FDF7DC
:102E70000EFC04460E460022284BFDF7B5FD03D894
:102E80004FF0FF30014607E00022254B2046314637
:102E9000FDF7E4FAFDF78FFD102409E0002C0ADBB2
:102EA0000A220023FDF726FA039B30321A55641ECE
:102EB00050EA0102F2D1641C039AC4F111031444D4
:102EC000119A012A03D0012208430DD10AE00843D8
:102ED00004D000204FF0110B119072E7A3EB0B050B
:102EE0006D1E0DE05B4504DD4FF0000205F10105AC
:102EF00004E003DA4FF00002A5F10105002AECD04E
:102F000002981199C0E90231C0E9004579E7000053
:102F1000000014400000F03F300000000000F043CB
:102F20000000E03F03480168814201D00120704762
:102F300000207047080500103038092801D801200A
:102F4000704700207047000010B54821094801F083
:102F500062FA1CF059F8084C002304226060322108
:102F600006481BF037FEA06003F092FD00202070A1
:102F700010BD0000480C0120A8010020496B00088A
:102F80002DE9F04100251C4688460646152A3BD20D
:102F9000DFE802F00B1B1D2E3744535C5E676A7935
:102FA000878999A6ABB0B5BACD00304610F093FD35
:102FB0000546404610F08FFD014605EBD5704010E8
:102FC00001EBD171A0EB6100A1E025800EE030465D
:102FD00010F081FD0746404610F07DFD07EBD771EC
:102FE000491000EBD070A1EB60008BE065800BE036
:102FF000304610F070FD0746404610F06CFD381A60
:1030000080E0258097E06080208831880844208017
:103010006088718808446080BDE8F081304610F017
:103020005AFD0546404610F056FD05EBD571491096
:1030300000EBD070A1EB60007CE0304610F04BFD5F
:103040000546404610F047FD281A73E025805FE0F2
:10305000304610F040FD0546404610F03CFD281A71
:1030600055E02580084618E0304610F034FD05464E
:10307000404610F030FD05EBD571491000EBD070E3
:10308000A1EB600007E0304610F025FD0546404604
:1030900010F021FD281A2080404610F0EAFC404242
:1030A000B1E7258018E0304610F015FD0546404692
:1030B00010F011FD014605EBD570401001EBD17108
:1030C000A0EB610007E0304610F005FD05464046E4
:1030D00010F001FD281A2080304610F0CAFC92E75B
:1030E000084610F0F8FC40420CE0084610F0F3FCF3
:1030F00040420CE0084610F0EEFC40421AE0304638
:1031000010F0E9FC208071E7304610F0E4FC2080EC
:10311000304610F0AEFC0546404610F0AAFC05EB28
:10312000D571491000EBD070A1EB60006BE7304621
:1031300010F0D1FC2080304610F09BFC0546404644
:1031400010F097FC281A5EE770B5B1F90030B2F9BB
:103150000040A34200DC23460380B1F90250B2F9DB
:103160000240A54200DD2C464480B1F90460B2F96A
:103170000450AE4200DA35468580B1F90610B2F946
:103180000620914200DB1146C1800120AB4201DCE8
:103190008C4200DD002070BDF8B50D460446164691
:1031A000B4F90010B5F900200020914212DBB4F907
:1031B0000220B5F902309A420CDBB4F90420B5F9CB
:1031C00004309A4206DCB4F90620B5F906309A427A
:1031D00000DC0120002E33D0ADF800106088ADF87F
:1031E000020032466946284600F047F8002827D0FA
:1031F000A088ADF800006088ADF80200324669464C
:10320000284600F03AF800281AD02088ADF80000CF
:10321000E088ADF8020032466946284600F02DF8F5
:1032200000280DD0A088ADF80000E088ADF80200BD
:1032300032466946284600F020F8002800D00120D8
:10324000F8BDB0F90020B1F904309A4213DCB0F9AE
:103250000420B1F900309A420DDBB0F90220B1F937
:1032600006309A4207DCB0F90600B1F90210884234
:1032700001DB01207047002070472DE9FC41144616
:103280000E46B1F90020B0F9001005468A423ADB3B
:10329000B5F90400824236DCB6F90270B5F90220B5
:1032A000974230DBB5F906309F422CDC002C75DDEF
:1032B000401A9A1A401C521C00B212B200EBD07095
:1032C00002EBD27240105210904200DB1046844252
:1032D00000DD0446ADF80010288800222044ADF837
:1032E00004006888ADF80200688831462044ADF8D3
:1032F00006006846FFF7C1FF40B1BDF80400204456
:10330000ADF804003FE00020BDE8FC81E888002221
:10331000001BADF80200E888ADF8060031466846AB
:10332000FFF7ABFF28B1BDF804002044ADF804005E
:1033300011E0A8880022001BADF80000A888ADF8B5
:10334000040031466846FFF798FF50B1BDF8000011
:10335000001BADF80000BDF80200001BADF8020034
:1033600016E06888ADF80200688800222044ADF8B5
:10337000060031466846FFF780FF70B1BDF80000D7
:10338000001BADF80000BDF806002044ADF80600B3
:10339000314668461AF0B4F9B6E7FFE70120B3E713
:1033A00010B5B1F90040B2F900309C4200DA234672
:1033B0000380B1F90240B2F902309C4200DA2346A0
:1033C0004380B1F90440B2F904309C4200DD234649
:1033D0008380B1F90610B2F90620914200DC114653
:1033E000C18010BD30B5034680881C885D88001BF5
:1033F000DC88401C198000B2641B641C014624B2A6
:103400005A80184610F085FB2146BDE8304018462A
:1034100010F07ABB2DE9FF4F87B01D46DDE9147629
:10342000DDF858908B46022E50D3002F4ED001F07D
:103430005FFD804612F0A6FB00F11004D0F808A052
:10344000D8F82410404601B188475A4604A8079985
:10345000FFF77AFE002839D0BDF810002188401A05
:1034600001B2ADF81010BDF812006288801AADF8F4
:103470001200BDF814002288801A00B2ADF81400C2
:10348000BDF816206388D21AADF8162095B198F8C9
:103490000820D2070ED1401A401C01B2002007E0DC
:1034A0002A5C802A01D9FF2200E000222A54401C15
:1034B0008842F5DBD8F8140058B1CDE900650297D1
:1034C00004AA51462046099B0BF0D4FB0BB0BDE883
:1034D000F08FB9F1000F0AD001A8009680E8A00291
:1034E00004AA51462046099B0BF05EF9EEE7CDE9B0
:1034F0000065029704AA51462046099B0BF0EEF99D
:10350000E4E72DE9FF4F87B01D46DDE91476DDF8CD
:1035100058A09146022E52D3002F50D0014605A844
:10352000089AFFF711FE002849D001F0E1FC80461F
:1035300012F028FB00F11004D0F808B0D8F82410DD
:10354000404601B18847BDF814002188401A01B2F5
:10355000ADF81410BDF816006288801AADF8160098
:10356000BDF818002288801A00B2ADF81800BDF826
:103570001A206388D21AADF81A2095B198F808205D
:10358000D2070ED1401A401C01B2002007E02A5C8D
:10359000802A01D9FF2200E000222A54401C8842E0
:1035A000F5DBD8F8140068B1CDF800900397CDE9A9
:1035B000016505AA59462046089B1CF039F90BB055
:1035C000BDE8F08FBAF1000F0BD002A805AA80E881
:1035D000A004CDE9009659462046089B1BF0DCFE6E
:1035E000EDE7CDF800900397CDE9016505AA5946AE
:1035F0002046089B1BF080FFE1E70000D0F878210F
:10360000C2F309438B4202D204490A4002E0591A2C
:1036100061F31942C0F8782170470000FFFF00FCF9
:103620002DE9FC5F04461BF0EFFC0190E068994C2B
:1036300000266061016CA9B11AF004FB1AF07AFA55
:103640006069954AA246D0F8781111427DD012F0F7
:103650002EFB002867D0DAF814005546416900298E
:1036600061D108E08C4AD0F87811D2431140C0F8FB
:103670007811BDE8FC9F12F085FA04461AF0DCFBD5
:10368000A0690028FCD16869B0F90000400000F092
:10369000CFFF8346A16820688946814200D16068D7
:1036A0008046686912F082FA06460024AA462DE098
:1036B0000A1992F85A213ABB01EBC40131F95A2F89
:1036C000B1F9025016FB052389885F00891A491C4D
:1036D00009B2490000910FE008EB07015846009A33
:1036E00001F068F809EB07005946009A01F062F80A
:1036F0006D1C07EB46072DB2DAF8140000EBC4008E
:10370000B0F96000A842E7DA641CA4B2DAF8141039
:10371000D1F87821C2F30942A242C9D8BBF1000016
:1037200001D001F009F8DAF814004FF48071544622
:103730005A3001F035F96069202100F5AD7001F0D3
:103740002FF9554A6069D24300E00EE0D0F87811B5
:103750001140C0F8781101981BF050FC06466069D2
:10376000836913B131462269984700F03FFF00F0AA
:10377000A1F8DAF8000054460025E8BB12F004FA7C
:1037800012F02BFA002115F035FE0221206016F010
:1037900047FC0021FF232C22206801F08FFB2B46E1
:1037A00029221946206801F055FB3C4848F289025D
:1037B00029460368206801F04DFB032310222946A7
:1037C000206801F061FB032311222946206801F0E3
:1037D0005BFB032312222946206801F055FB0323DB
:1037E00013222946206801F04FFB2DA1206816F016
:1037F000F7FC0023062200E004E00095194620684B
:1038000016F01AFF60681BF0F9FBB0F5967F0CD23A
:10381000206941F2883188427FF62BAFA06830449E
:10382000A060E068401CE06023E71BF0EDFB6060F7
:1038300060694FF47A71006B0068B1FBF0F0A16829
:1038400009B90121A160E16809B34FF47A725143CB
:10385000A268B1FBF2F6A560E560864200D9064693
:10386000E0693044E061A069401CA0611BF076FA79
:10387000C0F1640332460BA1206816F025FD002339
:10388000009506221946206816F0D6FEF1E6064697
:10389000E1E70000340500100000FF03C8730308CF
:1038A0003F0000002564204650530A25642525204A
:1038B0004350550010B5044C2068002803D016F082
:1038C00023FE0020206010BDCC01002048210148CB
:1038D00000F0A1BD300C01201C21014800F09BBD6F
:1038E000540C01202DE9FF5F0446DDE90E0613B9F3
:1038F000B0F5807F7ED0B6F900504FF0FF376D42B3
:10390000454307EB25252DB22580B6F902C0CCF141
:10391000000C0CFB00FC07EB2C273FB26780B6F9CC
:1039200000C0A1EB0C0141434FF0020C0CEB212134
:1039300009B2A180B6F90280A2EB080242430CEB67
:10394000222000B2E080002B7ED04FF00A0A93FBC9
:10395000FAF5684200EB800003EB400705F101092E
:1039600028B201F0F1FE00900FFA89F001F0ECFEB0
:1039700083465A3528B201F0E7FE804609F15A0025
:1039800000B201F0E1FE0146009AC7F10A0000FB17
:1039900002F300FB08F00BFB073301FB070193FB6D
:1039A000FAF291FBFAF04FEA601AB4F90010B4F998
:1039B00002000AFB01FCCDF80CC05511378805FB4D
:1039C00010C207EBA2220FFA82F905FB01F2BB46F7
:1039D000029277880AFB002107EBA1210BB2B4F910
:1039E0000410BE460AFB01FC05FB10C20BEBA22231
:1039F00016B200E02FE005FB01F7CDE9007CB4F939
:103A00000680DDF80CC00AFB007005FB18C1DDF86C
:103A100004C0009F05FB18C5029A0AFB087C0AFB3C
:103A200008220BEBA1210EEBAC270EEBA02009B274
:103A30000EEBA2220BEBA5250FFA87FC00B212B207
:103A40002DB24F46494500E00EE000DA0F46B54280
:103A500016DAA84615E000202080491E6080A1806B
:103A6000521EE280BDE8FF9F32882A44228072887D
:103A70003A44628032881144A180718808444FE042
:103A8000B046474504DA4F46494506DA0F4604E09A
:103A9000B54201DA2F4600E0374627804F464945B8
:103AA00000DD0F46B54201DDA84600E0B0464745BF
:103AB00003DD4D46494505DC01E0B54201DD2946FF
:103AC00000E03146A1809A4201DA154600E01D4629
:103AD000844501DA614600E001468D4205DA9A42EA
:103AE00001DA114606E0194604E0844501DA614630
:103AF00000E0014661809A4201DD114600E019466E
:103B0000844501DD654600E00546A94205DD9A428F
:103B100001DD104604E0184602E0844500DD604601
:103B2000E0809FE72DE9FE4F0446D0F800B0B0F9E1
:103B30000800E589081AB4F90A10511AD4E90932C3
:103B4000B5F5807F3CD0A589002DA56B05FB00F065
:103B500005FB01F54FEA60104FEA65113ED0256B79
:103B6000E66A05FB00F706FB1177464305FB01609B
:103B700003EBA72902EBA02080460612B4F904004B
:103B80004FEA2927B84248DD002F46DBB4F906107A
:103B9000B14242DD002E40DB94F834104A073FD595
:103BA0008A0704F114031DD400FB067045004FF092
:103BB000020A0BEB05015246184600F0A7FE22E070
:103BC000256BE66A05FB00F706FB1177464305FB0C
:103BD000016003EBA70902EBA000CDE703EB0009AE
:103BE0005018C9E700FB067000EB40054FF0030AD0
:103BF0000BEB05010222184600F088FEE81C584431
:103C000010F8010CA07594F83400C0071ED01948B4
:103C1000A18A008880B2814218D10020BDE8FE8FC1
:103C200032B204F118002369CDE90102002539B24E
:103C3000AA468B4613F018FF0090BDF80000A08242
:103C4000DDE90102594613F0A7FEDBE7E07C78B11D
:103C5000A4F83C90A4F83E80A4F84070A4F8426018
:103C6000656484F848A02046BDE8FE4F00F004B823
:103C70000120D3E7CC7303082DE9F04F044690F8F8
:103C80003C10D0F8009090F83E0087B04FF0FF361F
:103C9000702907DAB4F940203546012A00D50025FD
:103CA00080310DE0902916DDB4F94020B4F90430DC
:103CB0000125521C9A4200DB0025A1F27F114942E6
:103CC000C9B28846702809DAB4F94210012900D532
:103CD0000026803010E00025FF21F2E790280DDD5E
:103CE000B4F94210B4F906200126491C914200DBC8
:103CF0000026A0F27F104042C7B201E00026FF2755
:103D000060690090A07D0590002083468246049063
:103D100094F83400400744D594F84810606C11FBC7
:103D200005014944022201A800F0FCFDA08894F896
:103D3000481010FB01F0616C022206FB001149449F
:103D400003A800F0EFFDA18894F8480011FB00F1F2
:103D5000626C06FB012210FB05901118022202A8DA
:103D600000F0E0FD94F83400800761D594F8480035
:103D7000626C10FB052300EB09010B4413F8013CB6
:103D80000493A38813FB00F306FB0322114411F8EC
:103D900001BC10FB0500111801EB090010F8010C23
:103DA00045E0B4F84000B4F94220284401B204F1DF
:103DB00018008146236913F057FE0190B4F84200C1
:103DC000B4F94010304402B254F8103F484613F0A2
:103DD0004BFE0390608E2368304402B2208E28444C
:103DE00001B2484613F040FE029094F82400103CC3
:103DF00080071DD5B4F9422034F8400F284401B2A1
:103E0000484613F0C9FD04906088B4F900103044AE
:103E100002B2484613F0C0FD83466088304402B2C7
:103E200034F84009284401B2484613F0B5FD8246F3
:103E300094F8340042464546800735D5059810FB76
:103E400008F30499C8F1FF0011FB0031C1F3072109
:103E50001BFB08F61AFB0060C0F3072011FB07F3F9
:103E6000C7F1FF0610FB06331B0AA375022907D80A
:103E7000022803D8002007B0BDE8F08F002702E039
:103E8000022800D8FF270598022800D800220498AD
:103E9000022800D8FF22BBF1020F00D80025BAF19A
:103EA000020F03D8FF2501E0FF20A075EAB1FF2A29
:103EB00004D0DDE9000110F03DFE0090BDB1FF2D02
:103EC00017D0DDE902102A4610F034FE049097B1B5
:103ED000FF2F05D001463A46009810F02BFE0090C7
:103EE000BDF80000A0820120C5E70198E5E702982F
:103EF000ECE70398EAE7BDF81000F3E72DE9F04797
:103F00000446B0F908000A2700026062B4F90A000A
:103F10000002A062B4F90C1091FBF7F5684200EBC7
:103F2000800001EB4006684205F1010800B201F093
:103F30000BFC8246E84300B201F006FC8146C5F165
:103F40005A0000B201F000FC0546C8F15A0000B268
:103F500001F0FAFBC6F10A0101FB0AF3024609FB74
:103F60000630694390FBF7F002FB061191FBF7F175
:103F70004011E06248112063A07C13F081FE94F8A8
:103F8000341060F3000184F83410A07C13F068FE54
:103F900094F8341060F3410184F83410A07C0428B4
:103FA00024D0052822D0062820D021F0040100BF0B
:103FB00084F8341021682162A16921F0E00160F3E6
:103FC0000401A08860F39421E08860F35F51A1614F
:103FD000E0894FF4001101EB5001B1FBF0F0A06358
:103FE000FF20A075208AA082BDE8F08741F004017F
:103FF000DEE700002DE9F047444E894680463188CF
:1040000021B14348434C056800200EE00020BDE884
:10401000F08700BF00EBC00205EB8202136AA342E7
:1040200001DD5B1E1362401C80B28842F2D3002483
:104030001BE000BF04EBC40005EB8007786815F0B7
:104040004FF810B1012809D00DE0796841450AD137
:1040500039891FFA89F081420ED004E04146786820
:10406000FCF7BCF940B1641CA4B230888442E1D3AF
:104070002C46012032881AE004EBC40005EB8004D2
:104080006169206A08444FF47A712062884200DD39
:104090002162002CECD036E000EBC00105EB810181
:1040A000266A0B6AB34200DA0C46401C80B290428A
:1040B000F2D3606810B1204614F0C5F91AF0A4FFDD
:1040C000064600254A4641462046656114F01AFA24
:1040D00018B12562606978B115E0204614F0B3F993
:1040E0002021204600F05CFC2421204600F058FCF2
:1040F0004FF00040206289E730461AF07FFF606190
:1041000008B901206061204681E7000068010020B5
:10411000B40100200100008010B514210C4800F00B
:104120007AF914F0A3F940B10A4901600A494160E3
:104130000A4981600A49C16010BD11F027FC0028BE
:10414000FAD10022134607A011F024FCFEE700007C
:10415000600C0120157E0108858101088983010812
:10416000E17D01084F7574206F66206D656D6F727B
:10417000790000000021084615F084B870B50C469F
:10418000054600261021204600F00AFC2878012868
:1041900004D0022807D0042808D00BE0A88C208087
:1041A000E88C608006E0A86A606003E00A20606036
:1041B0000020A0816A681AB1214628469047064629
:1041C000304670BD2DE9FF41394CC068606001691F
:1041D00000296BD00DF006FC606890F85400400791
:1041E00064D4002669466068FFF7C8FF0746606828
:1041F0000DF0F8FB266061689DF80E0081F8200044
:10420000012805D00878042808D1BDF80C00B0B307
:104210001AF0FAFE61680969C1F87C0160680178EA
:10422000012906D002292ED0042930D0032933D009
:1042300035E00546806D78B1B5F92820BDF900104C
:104240008A4205D1B5F92A20BDF902309A4203D03D
:10425000BDF9022018F086F9BDF80000A884BDF869
:104260000200E88495F82000012805F1200007D01D
:104270000DF01AFBA88C2885E88C68850FE006E015
:104280000DF0C2F9F6E769460DF0ACF807E06946B3
:1042900060680CF071FE02E069460CF09DFB6068FE
:1042A0000DF0A0FB002F9DD166602660BDE8FF8168
:1042B000200500107FB50D46040003D111F064FC09
:1042C000040025D02E4EF5B10020ADF80000ADF869
:1042D0000200204611F06AFC401EADF804002046A2
:1042E00011F0CAFC401EADF806006A46294602A835
:1042F000FEF72AFF00280BD0226912B102A920463E
:104300009047002511E0D4F878013040C4F87801D6
:104310007FBD00BF04EBC501002202A85A31FEF7A1
:104320003BFF0028F4D16D1CADB2D4F87801C0F386
:104330000940A842EED8D4F87801C0F309412029F9
:1043400003D204EBC10002A907E03040C4F87801B1
:10435000C0F3094004EBC00069465A300FF048FB37
:10436000D4F878014FF4800101EBB0604FEAB0104F
:10437000C4F878010321206B1AF08CFD7FBD00008A
:10438000FFFF00FC70B50C461E461546114600F0B6
:10439000F2F8AEB10022294620461BF071FE2946F4
:1043A000204662681BF066FE616819B12A46204605
:1043B0001BF066FE6560A068002800D1A56070BD96
:1043C00029462046A2681BF05BFE002229462046B3
:1043D0001BF050FEA16819B12A4620461BF04AFE88
:1043E000A56060680028EAD1656070BD002100B159
:1043F000416808467047002802D00068091D4058EF
:104400007047002801D0006840587047002100B173
:1044100081680846704700224260C91C21F00301F0
:1044200082600160704770B504460068083016F07D
:1044300017F8050013D00146002220461BF020FE8D
:104440002946204662681BF015FE616819B12A46AC
:1044500020461BF015FE6560A06800B9A5602846DF
:1044600070BD2DE9F0410D4607002BD055B3FFF785
:10447000BDFFA84204D13846FFF7D5FF04461EE031
:104480003868083015F0ECFF04001BD02946384688
:10449000FFF7B7FF06460146224638461BF0EAFD05
:1044A0003246214638461BF0EBFD22462946384667
:1044B0001BF0E6FD2A46214638461BF0DBFD204670
:1044C000BDE8F0810020FBE770B5044600680830C5
:1044D00015F0C6FF050013D00146002220461BF050
:1044E000C9FD29462046A2681BF0CAFDA16819B182
:1044F0002A4620461BF0BEFDA560606800B96560D5
:10450000284670BD28B1416809B9806808B100200B
:104510007047012070472DE9F04116460D460746C9
:10452000B14226D01EB11146FFF76BFF01E0FFF745
:104530006DFF0446A5421CD02946384600F01BF802
:104540002A46214638461BF095FD22462946384624
:104550001BF096FD2A46314638461BF091FD324647
:10456000294638461BF086FD06B9BD60002C00D1F7
:104570007D60BDE8F08170B50A460446FFF736FF5E
:10458000002390420AD111462046FFF734FF6060B5
:10459000011E01D0002224E0A36070BD2046FFF779
:1045A00035FF9042114620460CD1FFF72AFFA0604C
:1045B000011E05D02046BDE8704000221BF05ABD08
:1045C000636070BDFFF71DFF064611462046FFF7EA
:1045D00012FF05460246314620461BF04BFD32468F
:1045E00029462046BDE870401BF04ABD70B500204A
:1045F0000D49054601EBC002401CC0B2957102286E
:10460000F8D30A4E002400BF56F8340038B115F034
:104610007BFF06EBC40046F8345085718580641C2E
:10462000E4B2102CF0D370BD78050010780C012096
:1046300070B500281DD0012110280AD82F4B002268
:1046400003EBC204A479E4070ED0521CD2B2022AB2
:10465000F6D32B4C4FF0FF33002200BF04EBC20512
:10466000AE79F60706D017E003EBC200817153F86C
:10467000320070BDAD8885420ED305D104EBC20077
:10468000817154F8320070BD002B04DB04EBC306CB
:10469000B688B54200D253B2521CD2B2102ADDD332
:1046A000002B05DB04EBC300817154F8330070BDAF
:1046B0005FF0000504EBC5029279D20709D06D1CAA
:1046C000EDB2102DF6D3002213460EA011F062F9C0
:1046D000FEE704EBC5029171908054F83520014645
:1046E000104615F03FFF44F835000028DFD10022C6
:1046F0001346104811F04EF9FEE70000780500104F
:10470000780C01204E6F20667265652062756666C2
:1047100065722E20496E637265617365204C565F29
:104720004D454D5F4255465F4D41585F4E554D2EAC
:104730000000000050AD030810B500210C4B0A46E4
:1047400053F83140844209D0491CC9B20229F7D339
:10475000084B002153F83140844203D103EBC100E0
:10476000827110BD491CC9B21029F3D310BD0000DD
:1047700078050010780C0120002803D004498842F5
:1047800001D10020704750F8040C40087047000029
:1047900070050010064905484BF6FC724860016838
:1047A00021F0010162F35F010160704700400010D9
:1047B0006805001030B500F0030401F0030503465E
:1047C000A54243D14EE00C781C704C785C708C781C
:1047D0009C70CC78DC700C791C714C795C718C7994
:1047E0009C71CC79DC710C7A1C724C7A5C728C7A7C
:1047F0009C72CC7ADC720C7B1C734C7B5C738C7B64
:104800009C73CC7BDC730C7C1C744C7C5C748C7C4B
:104810009C74CC7CDC740C7D1C754C7D5C758C7D33
:104820009C75CC7DDC750C7E1C764C7E5C768C7E1B
:104830009C76CC7EDC760C7F1C774C7F5C778C7F03
:104840009C77CC7FDC772031203A2033202ABAD8DD
:1048500005E000BF11F8014B03F8014B521E002A7E
:10486000F8D130BD4CB3C4F1040405E011F8015B8C
:10487000521E03F8015B641EFCB1002AF6D11CE055
:1048800010C9203A10C310C910C351F8084B43F89F
:10489000084B51F8044C43F8044C51F8104B43F8C2
:1048A000104B51F80C4C43F80C4C51F8084C43F8A1
:1048B000084C51F8044C43F8044C202AE0D802E09C
:1048C00010C9121F10C3042AFAD804E011F8014BD2
:1048D00003F8014B521E002AF8D130BD10B5034633
:1048E00005E000BF11F8014B03F8014B521E002AEE
:1048F000F8D110BD10B5034605E000BF11F8014B1B
:1049000003F8014B521E002AF8D110BD10B5034622
:1049100005E000BF11F8014B03F8014B521E002ABD
:10492000F8D110BD10B5034605E000BF11F8014BEA
:1049300003F8014B521E002AF8D110BD10F00303FA
:1049400009D0C3F1040303E0521E00F8011B5B1EF3
:104950000BB1002AF8D101EB012303EB014303EB78
:1049600001630EE008C0203A08C040F8083B40F858
:10497000043C40F8103B40F80C3C40F8083C40F840
:10498000043C202AEED801E008C0121F042AFBD8FC
:1049900003E000BF00F8011B521E002AFAD1704745
:1049A00010F003034FF0000219D0C3F1040303E039
:1049B000491E00F8012B5B1E8BB10029F8D170470E
:1049C00004C0203904C040F8082B40F8042C40F8FB
:1049D000102B40F80C2C40F8082C40F8042C20290F
:1049E000EED801E004C0091F0429FBD803E000BF92
:1049F00000F8012B491E0029FAD1704710F003027C
:104A00004FF0FF030AD0C2F1040203E0491E00F890
:104A1000013B521E12B10029F8D170474FF0FF320E
:104A20000EE004C0203904C040F8082B40F8042CE4
:104A300040F8102B40F80C2C40F8082C40F8042CBF
:104A40002029EED801E004C0091F0429FBD802E0A8
:104A500000F8013B491E0029FAD1704770B50D4698
:104A6000064600242146304616F0A5FD38B14168BF
:104A7000641C65F3CB21E4B24160402CF2D34024A6
:104A80002146304616F097FD002807D04168641C87
:104A900065F3CB21E4B24160FF2CF1D370BD00007F
:104AA0002DE9F04786B014468A461646170A054691
:104AB0004FF0000823E05146284616F07CFD814661
:104AC0005146284616F006FD06EB002084B202AAE5
:104AD0002146484600F040FB012807D0380610D593
:104AE000BAF1000F07D04FF0000A08E0BDF8080047
:104AF00006B0BDE8F087284616F0AAFC0546002D52
:104B0000D9D124F4FE40292804D02A2802D0CDF897
:104B1000008002E0024800680090BDF80000E7E76E
:104B2000C47303082DE9F8431546894617464FEA32
:104B300012280646A5E04946304616F03CFD0446DC
:104B40004068010570D481066ED0400505D425F477
:104B5000FE424946304622F0B5F925F4FE403028A1
:104B600059D024DC112869D010DC052850D006DC8F
:104B700001285DD0022845D004286CD148E00628E1
:104B800046D0072844D0102865D157E0162858D0C1
:104B900006DC122852D0132850D015285BD150E0E3
:104BA00017284ED018284CD0202854D14CE060282B
:104BB0004AD010DC402838D006DC31282ED03228EC
:104BC00042D0332847D12CE042283DD0502832D063
:104BD000542840D138E048F28102811A904214D022
:104BE00009DC722830D091282ED000F5FF40B0F5B6
:104BF000803F30D109E0012929D0022924D01F2982
:104C000029D121E0A088400423E06068800020E0F2
:104C1000A08800041DE0606880021AE0606840021D
:104C200017E06068000214E015E06068C00110E061
:104C3000A088C0040DE0606840010AE06068C0031D
:104C400007E06068800304E06068400301E060689A
:104C50004000002818DB4946304616F03BFC07EBC5
:104C6000002085B26A462946204600F0B1FA0128A4
:104C700014D05FEA086007D5B9F1000F12D04FF0E9
:104C80000009002E7FF457AF25F4FE40222819D0EA
:104C90000CDC032812D007280CD115E0BDF9000068
:104CA000BDE8F883304616F0D3FB42E7312803D045
:104CB000C02805D00020F3E70F20F1E70220EFE73E
:104CC0000620EDE7FF20EBE74FF48070E8E72DE9E1
:104CD000F8431446894617464FEA122806463BE039
:104CE0004946304616F067FC0546406801051DD46C
:104CF00081061BD0400505D424F4FE4249463046C7
:104D000022F0E0F824F4FE402C2809D00C38B0F54D
:104D1000004002D0A12809D12DE0A888800403E03A
:104D20006868C10224D40003002817DB49463046D6
:104D300016F0D0FB07EB002084B26A4621462846D5
:104D400000F082FA012819D05FEA086006D5B9F1AF
:104D5000000F16D04FF00009002EC1D124F4FE4000
:104D60002C2812D06D2810D0AD38B0F5004F0CD0E3
:104D7000FF20BDE8F8836868C000D5E79DF8000013
:104D8000F7E7304616F064FBA8E70020F1E70000E3
:104D90002DE9F8431446894617464FEA122806467D
:104DA0003BE04946304616F006FC054640680105E2
:104DB0001DD481061BD0400505D424F4FE4249468B
:104DC000304622F07FF824F4FE406E2809D07F2878
:104DD00004D08E38B0F5004F09D105E068680001B5
:104DE00003E06868800100E06868002817DB494636
:104DF000304616F06FFB07EB002084B26A4621466E
:104E0000284600F05DFA012816D05FEA086006D552
:104E1000B9F1000F12D04FF00009002EC1D124F4D7
:104E2000FE407E280ED0BE280FD08E38B0F5004F41
:104E300008D00020BDE8F8830098FBE7304616F064
:104E400007FBACE71AF070F8F4E70148F2E700005E
:104E500024A903082DE9F0411F4614460D460646D5
:104E600016F0A9FB3A46214600F0ECFA0023224650
:104E70002946304621F0DCFF24F4FE422946304624
:104E8000BDE8F04117F0F0B82DE9F0411F46144697
:104E90000D46064616F08FFB3A46214600F0DDFA35
:104EA000002322462946304621F0C2FF24F4FE4268
:104EB00029463046BDE8F04117F0D6B82DE9F0415B
:104EC0001F4614460D46064616F075FB3A46214627
:104ED00000F0CEFA002322462946304621F0A8FFF2
:104EE00024F4FE4229463046BDE8F04117F0BCB834
:104EF000014840697047000034050010704730B524
:104F000004020020831803FB03F5A54200D81846CD
:104F10005208F7D1020900070A80000E488030BD10
:104F20002DE9F0418846050016464FF0FF3706D0C0
:104F3000286820B128460BF0E3FA040002D5384671
:104F4000BDE8F0812968A01C014402223046FFF729
:104F5000D1FC214628460BF00FFB00EA182000F098
:104F60007F00EDE72DE9F0418846050016464FF039
:104F7000FF3706D0286820B128460BF0C1FA04009C
:104F800002D53846BDE8F0812968A01C0144022200
:104F90003046FFF7AFFC214628460BF0EDFA00EA59
:104FA000182000F07F00EDE770B505460068002886
:104FB0000DD0002403E000BF0BF094FA0444214616
:104FC00028460BF0DEFAFF28F6D1A41CA0B270BD73
:104FD0002DE9F0418846050016464FF0FF3706D010
:104FE000286820B128460BF08BFA040002D5384619
:104FF000BDE8F0812968A01C014401223046FFF77A
:1050000079FC214628460BF0B7FA00EA182000F098
:105010007F00EDE72DE9F0418846050016464FF088
:10502000FF3706D0286820B128460BF069FA040043
:1050300002D53846BDE8F0812968A01C014404224D
:105040003046FFF757FC214628460BF095FA00EA58
:10505000182000F07F00EDE770B50E4605003AD04D
:1050600000F06EF96868810616D08006010E091DF1
:10507000286815F077FA044610F088FC80B1002CFF
:1050800029D0696800200A0600D501204A0600D50B
:10509000401C01F03F0111E0042015F0E1F9EAE7BE
:1050A000224600230CA010F075FCFEE704EB810201
:1050B00052F8042C44F82120491EC9B28142F5D887
:1050C00044F8206068684FF0806101EBB0104FEA4F
:1050D000B060C5E9004070BD4F7574206F66206DEB
:1050E000656D6F727900000070B5054600790006A5
:1050F00004D52846BDE8704000F019B9042015F029
:10510000AFF9044610F042FCA8B1D4B1204618F023
:10511000F2FE21462846FFF79FFF686840F08000B6
:105120006860400605D52868D0E90012026028684A
:105130004160204670BD2246002303A010F02AFCE7
:10514000FEE7002070BD00004F7574206F66206D73
:10515000656D6F72790000002DE9F84317468946A6
:10516000060033D0306800282ED000204FEA1928DE
:105170004FF0FF34ADF8000005461DE0E9B23046BF
:1051800018F02FFF6A464946FFF7CAFE404503D193
:10519000BDF80000388016E071680A0604D50028C2
:1051A00002DB0DB9C905F3D5A04203DD0446BDF805
:1051B000000038806D1C2DB2307900F03F00A8420D
:1051C000DCDC002C02DB0120BDE8F8830020FBE7DB
:1051D0002DE9F84317468946060033D03068002889
:1051E0002ED000204FEA19284FF0FF34ADF8000010
:1051F00005461DE0E9B2304618F0F3FE6A4649461E
:10520000FFF7B0FE404503D1BDF80000388016E03E
:1052100071680A0604D5002802DB0DB9C905F3D56B
:10522000A04203DD0446BDF8000038806D1C2DB29D
:10523000307900F03F00A842DCDC002C02DB0120CA
:10524000BDE8F8830020FBE72DE9F84317468946BF
:10525000060033D0306800282ED000204FEA1928ED
:105260004FF0FF348DF8000005461DE0E9B23046EE
:1052700018F0B7FE6A464946FFF7AAFE404503D13B
:105280009DF80000387016E071680A0604D5002801
:1052900002DB0DB9C905F3D5A04203DD04469DF834
:1052A000000038706D1C2DB2307900F03F00A8422C
:1052B000DCDC002C02DB0120BDE8F8830020FBE7EA
:1052C0002DE9F8431746894606002ED0306800289D
:1052D00029D04FEA19284FF0FF3400251BE0E9B22E
:1052E000304618F07EFE6A464946FFF793FE404579
:1052F00002D10098386015E071680A0604D50028CC
:1053000002DB0DB9C905F4D5A04202DD04460098C0
:1053100038606D1C2DB2307900F03F00A842DEDC11
:10532000002C02DB0120BDE8F8830020FBE70179B7
:10533000090601D40020704700680068704700002B
:1053400070B50E464168044688061CD0002001F066
:105350003F0116E0226852F82020B2420FD100250A
:10536000012911D08800001F15F07AF8054610F0C9
:105370000DFB90B1002D06D0002001461EE0401C20
:10538000C0B28142E6D870BD206815F0BDF8256036
:10539000606820F07F00606070BD2A46002310A086
:1053A00010F0F8FAFEE7226852F82020B24203D04B
:1053B00045F82120491CC9B2401CC0B2227902F034
:1053C0003F028242EFD8206815F09EF860684FF0E7
:1053D0007C4101EBB0104FEAB060C4E9005070BDF1
:1053E0004F7574206F66206D656D6F7279000000D7
:1053F00070B5040025D02079400609D5204618F064
:10540000E4FD050004D018F02EFE284615F07CF8C7
:105410002079000609D52046FFF789FF050004D052
:1054200018F021FE284615F06FF82079800602D08A
:10543000206815F069F80020206060686FF30800AC
:10544000606070BD70B514460D460AF041FC2246FE
:105450002946BDE8704000F017B870B514460D46F7
:105460000AF036FC22462946BDE8704000F060B8DC
:1054700070B514460D460AF02BFC22462946BDE8BD
:10548000704000F0A9B8000037B582B00446BDF8FE
:105490000C100BF035F8050011D4014620460BF036
:1054A0006BF8BDF80C1000F07F00C1F306218842B4
:1054B00005D1AD1C20680222284404A926E0FF2063
:1054C000ADF800002046FFF76FFD00B90220001D77
:1054D00085B22946204620F028F8206810F056FAB8
:1054E000C0B1002C14D020680222284403A9801FD8
:1054F000FFF700FA20680222284404A9001FFFF7E2
:10550000F9F92068022228446946801EFFF7F2F963
:1055100005B030BD002302A0226810F03BFAFEE780
:105520004F7574206F66206D656D6F727900000095
:1055300037B582B00446BDF80C100AF0E1FF050053
:1055400011D4014620460BF017F8BDF80C1000F0FE
:105550007F00C1F30621884205D1AD1C20680222DC
:10556000284404A926E0FF20ADF800002046FFF7FC
:105570001BFD00B90220001D85B2294620461FF000
:10558000D4FF206810F002FAC0B1002C14D02068BB
:105590000222284403A9801FFFF7ACF920680222E9
:1055A000284404A9001FFFF7A5F920680222284417
:1055B0006946801EFFF79EF905B030BD002302A0AA
:1055C000226810F0E7F9FEE74F7574206F66206DD2
:1055D000656D6F727900000037B582B00446BDF882
:1055E0000C100AF08DFF050011D4014620460AF088
:1055F000C3FFBDF80C1000F07F00C1F30621884204
:1056000005D1AD1C20680122284404A926E0FF2012
:10561000ADF800002046FFF7C7FC00B90220C01C0F
:1056200085B2294620461FF080FF206810F0AEF9B1
:10563000C0B1002C14D020680222284403A9401FC6
:10564000FFF758F920680122284404A9C01EFFF77B
:1056500051F92068022228446946801EFFF74AF962
:1056600005B030BD002302A0226810F093F9FEE7D8
:105670004F7574206F66206D656D6F727900000044
:1056800037B582B00446BDF80C100AF039FF0500AA
:1056900011D4014620460AF06FFFBDF80C1000F04F
:1056A0007F00C1F30621884205D1AD1C2068042289
:1056B000284404A926E0FF20ADF800002046FFF7AB
:1056C00073FC00B90220801D85B2294620461FF0D8
:1056D0002CFF206810F05AF9C0B1002C14D02068BB
:1056E0000222284403A90838FFF704F9206804229D
:1056F000284404A9801FFFF7FDF8206802222844EF
:105700006946801EFFF7F6F805B030BD002302A001
:10571000226810F03FF9FEE74F7574206F66206D28
:10572000656D6F727900000010B518210448FEF70E
:1057300072FE0448002101710121017010BD0000BA
:105740000C0C0120880500104FF4B47190FBF1F2AD
:1057500001FB1200002802DA00F5B47000B20E4915
:105760005A2802DA31F910007047A0F15A025A2A79
:1057700003D2C0F1B40000B2F4E7A0F1B4025A2A97
:1057800001D210B202E0C0F5B47000B231F81000DE
:10579000404200B27047000040A903082DE9F047DD
:1057A00088B01D46109E92468946040007D0B9F184
:1057B000000F04D016F0120F10D0002004E00020DB
:1057C00008B0BDE8F087401C215C0A2904D00D29EF
:1057D00002D00029F7D1F3E7401CF1E7B00701D56B
:1057E00047F618454FF000088DF81480204FCDF88B
:1057F000108021E00498CDF8188028B3002105AB73
:1058000006AACDE90231CDE9006220442B4652467A
:10581000494619F00DFC0699691A0DB2B0B1049908
:105820000844049021780A290BD00D2909D0205C66
:105830000A2812D00D2810D00498205C08B1002D41
:10584000D8DC049868B110E00121D8E7049860B969
:105850007A6804A920469047F3E70498401C049016
:10586000EFE77A6804A9204690470498A8E700006B
:10587000A00500102DE9FF4F83B004464FF0000053
:10588000DDF848A0DDF84090208093460F0060804E
:1058900047D0BBF1000F44D05FEA8A7002D547F6CB
:1058A000184011900025A846BBF8086023E078193D
:1058B000CDE900A05946119B069AFFF76FFF80447F
:1058C000B4F9020006EB09010144B1F5004F28D2FA
:1058D000304448446080A8EB0501CDF800A05A464A
:1058E000069B019800F022F8B4F90010814200DB19
:1058F000084620804546785D0028D8D15DB17819EA
:1059000010F8010C0A2801D00D2804D1618806EB9B
:10591000090008446080B4F9020028B1A0EB090036
:10592000608007B0BDE8F08F6680FAE72DE9FC5F84
:105930001E46DDF830A091460D46070009D0B9F1AA
:10594000000F06D00020044600908DF804002DBB07
:105950002BE00020BDE8FC9FDFF854806946384604
:10596000D8F80420904783460098D8F8042038449B
:105970000021904780465FEACA7004D0594601A8CA
:1059800000F018F850B942465946484611F0D2FD89
:1059900000B2002802DD2044304404B20098A8423E
:1059A000DAD3002C01DDA01B04B22046D2E70000B0
:1059B000A005001000230278232902D0012A0DD06F
:1059C0000FE02AB10021012A04D0022A04D008E005
:1059D000012101E0017004E0017001E0202902D002
:1059E0000123184670470221F6E700002DE9F04137
:1059F0000E468046024600213346084619F074FCE4
:105A000005460027401C14F02BFD04460FF0BEFF96
:105A100050B17CB1675533464246691C204619F0A7
:105A200063FC2046BDE8F0812246002302A00FF06F
:105A3000B1FFFEE70020F5E74F7574206F66206D1B
:105A4000656D6F72790000002DE9F0471E4614461F
:105A50000D468246DDF8209015E000BF4FEA54085D
:105A600008FB0657394650464A469047002808DD4D
:105A700044F30000C0EB540407EB0605A4F1010455
:105A800001E005DA4446002CE8D12046BDE8F08765
:105A90003846FBE72DE9F04F89B017468B460600E4
:105AA0004FF0000405D14FF49B72254925A01BF04F
:105AB00035FC3FB940F23712214923A01BF02EFCE0
:105AC00000E0641C305D202803D0092801D05C452B
:105AD000F7D34FF0FF3984B31D4804F1060ADFF80D
