:020000040800F2
:10000000403901209D0100080F140008A3020008D8
:100010000D140008E30B00088D2D000800000000FF
:10002000000000000000000000000000A9290008F6
:100030008510000800000000EF010008612A000898
:10004000B7010008B7010008B7010008B7010008B0
:10005000B7010008B7010008B701000887100008C1
:10006000B7010008B7010008B7010008B701000890
:10007000B7010008B7010008B7010008B701000880
:10008000B7010008B7010008B7010008B701000870
:10009000B7010008B7010008B7010008B701000860
:1000A000B7010008B7010008B7010008B701000850
:1000B000B7010008B70100084D2B0008B701000880
:1000C000B7010008B7010008B7010008B701000830
:1000D000B7010008252C0008B7010008B701000887
:1000E000B7010008B7010008B7010008B701000810
:1000F000B7010008B7010008B7010008B701000800
:10010000B7010008051B0008B7010008B701000887
:10011000B7010008B7010008B7010008B7010008DF
:10012000B7010008B7010008B7010008B10D0008C9
:10013000B7010008B7010008B7010008B7010008BF
:10014000B7010008B7010008B7010008B7010008AF
:10015000B7010008B7010008C50D0008B701000885
:10016000B7010008B7010008B7010008B70100088F
:10017000B7010008B7010008B7010008B70100087F
:10018000B7010008B7010008DFF80CD000F086FCCA
:1001900000480047D90B0008403901200648804735
:1001A00006480047FEE7FEE7FEE7FEE7FEE7FEE75C
:1001B000FEE7FEE7FEE7FEE7F12A000889010008F6
:1001C000EFF3108072B6704780F310887047434A8F
:1001D0001368012B04D04FF001031360404A1060F4
:1001E000404A116040484FF0805101607047EFF382
:1001F000108272B63948016851B34FF000010160B6
:100200003748016891B1EFF309811EF0100F08BF64
:1002100021ED108B21E9F00F4FF000041EF0100FBC
:1002200008BF012441F8044D006801602D490968A8
:10023000096808C9B1E8F00F002B18BFB1EC108BAA
:1002400081F309884EF0100E002B18BF2EF0100E0F
:1002500082F310884EF0040E704722490860EFF3D5
:10026000148222F0040282F314881D494FF000002A
:1002700008601A494FF0010008601C484FF47F01E4
:10028000D0F8002041EA0201016017484FF0805188
:10029000016017480068006880F3088861B662B69C
:1002A00070471EF0040F0CBFEFF30880EFF30980D6
:1002B00020E9F00F40F804ED40F804ED1EF0040FC3
:1002C0000CBF80F3088880F3098800B52BF06EFE20
:1002D0005DF804EB4EF0040E70470000240100109E
:1002E000200100101C05002004ED00E020ED00E0DE
:1002F00008ED00E02DE9F05F0546002092469B46A0
:1003000088460646814640241BE02846414647462B
:10031000224600F0A4FA53465A46C01A914110D31F
:1003200011461846224600F08BFA2D1A67EB010899
:100330004F4622460120002100F082FA17EB000907
:100340004E41201EA4F10104DFDC484631462A4616
:100350004346BDE8F09F40EA01039B0703D009E054
:1003600008C9121F08C0042AFAD203E011F8013BA1
:1003700000F8013B521EF9D27047D2B201E000F8FA
:10038000012B491EFBD270470022F6E710B5134639
:100390000A4604461946FFF7F0FF204610BD421EEC
:1003A00012F8013F002BFBD111F8013B02F8013B91
:1003B000002BF9D1704710B5044604E00B7800F823
:1003C000013B03B1491C521EF8D2204610BD421C0D
:1003D00010F8011B0029FBD1801A704710B50022CC
:1003E00000E0521C835C8C5CA34201D1002BF8D14D
:1003F000D8B2E1B2401A10BD30B504460020034621
:1004000000E05B1C934203D2E05CCD5C401BF8D063
:1004100030BD034611F8012B00F8012B002AF9D159
:100420001846704730B505460020034600E05B1CC7
:10043000934205D2EC5CC85C201A01D1002CF6D1A5
:1004400030BD70B5064602F0C7FC046805460A22B6
:100450000021304600F025FA2C6070BD2DE9FE4FDA
:10046000804681EA0300C00F0C46009021F0004155
:1004700023F00045B8EB0200A94105D240462146D1
:1004800090461C460B46024623F00040104347D0DE
:10049000270DC7F30A00C3F30A510290401A0190D6
:1004A00040286BDAC3F3130040F4801B0098924697
:1004B00020B10023D2EB030A63EB0B0B01985946E2
:1004C000C0F14002504600F0BBF906460D465046CA
:1004D0005946019A00F0D3F910EB0800614100245D
:1004E00087EA115284EAE7731A4340D0009A62B354
:1004F000019A012A4FEA075215DC001B61EB020149
:100500004FF0004202EA0752CDE90042001C41F5DB
:10051000801132462B4600F042FA03B0BDE8F08F5E
:1005200040462146F9E7001B61EB0201001C41F542
:10053000801300185B412018A2F5001747EB030158
:1005400040EAD570B6196D4111E06D084FEA3606E4
:1005500045EAC0754FEA0752001B61EB0201001C1F
:1005600041F5801149084FEA3000001951413246E7
:100570002B4603B0BDE8F04F00F002BA009801220C
:1005800040000023D0EB020263EBE07300982146A9
:100590004FEAE074B8EB000061EB0401E9E783F097
:1005A00000435BE781F0004158E72DE9FE4F81EA07
:1005B000030404F0004421F0004100944FF0000BCC
:1005C00023F0004350EA01045ED052EA03045BD0FA
:1005D000C3F30A54C1F30A552C44A4F2F334019432
:1005E000A0FB0254C1F3130141F48011C3F31303C0
:1005F00043F4801301FB024400FB034E840A970A74
:1006000044EA815447EA8357A4FB076802958D0AA0
:1006100005FB07854FEA932C04FB0C542705029D2C
:100620004FEA065847EA1637B5EB08056EEB070C9C
:10063000870E920E47EA811742EA8312A7FB020156
:10064000B6EB0B0164EB00042B0D43EA0C335E1890
:1006500044EB1C50DA465146E7FB0201C5F3130494
:100660004FEA0B3343EA14534FEA0432019C43EA46
:100670000603A4F10C040294009CCDE900B400F040
:100680008EF903B0BDE8F08F00200146F9E72DE9AF
:10069000F04D81EA030404F0004B21F000451446BC
:1006A0004FF0000A23F0004150EA050220D054EA3E
:1006B00001021DD0C5F30A570246C5F31303C1F367
:1006C0001300C1F30A5640F4801543F48013A7EBDE
:1006D0000608101BD64608F2FD3873EB050002D35E
:1006E00008F1010801E092185B41B8F1000F03DA4C
:1006F00000200146BDE8F08D00204FF48011064631
:1007000084460EE0171B73EB050705D3121B63EB42
:10071000050306434CEA010C49084FEA30009218E1
:100720005B4150EA0107EDD152EA030012D082EAA0
:10073000040083EA0501084305D0101BAB4106D233
:100740000122002306E000224FF0004302E06FF098
:10075000010253101AEB06004CEB085110EB0A0093
:1007600041EB0B01BDE8F04D00F00AB90EB540F2C7
:10077000334102910021CDE900110A460B4600F0F9
:100780000EF903B000BD0EB540F2334202920022D2
:10079000CDE90022134600F002F903B000BD70B5A8
:1007A000C1F30A5201F000450024C1F3130140F2E5
:1007B000FF3341F480119A4201DA002070BD40F20B
:1007C00033439A42A2F2334203DC524200F047F82C
:1007D00000E090402C43F1D0404270BD01F0004356
:1007E00030B421F0004150EA010206D00A0DA2F512
:1007F0006072C1F31301002A02DC30BC0020704794
:10080000440F44EAC104C100E01830BC00EBC25000
:1008100000F07FB830B50B460146002020220124AD
:1008200009E021FA02F59D4205D303FA02F5491BBE
:1008300004FA02F52844151EA2F10102F1DC30BDD4
:10084000202A04DB203A00FA02F100207047914090
:10085000C2F1200320FA03F3194390407047202A85
:1008600004DB203A21FA02F00021704721FA02F35A
:10087000D040C2F120029140084319467047202A17
:1008800006DBCB17203A41FA02F043EAE07306E0B8
:1008900041FA02F3D040C2F12002914008431946C8
:1008A00070472DE9F04791460F46804604460026E2
:1008B00014F8015B2DB100F003F90068405DC0073A
:1008C000F6D12B2D02D02D2D18D0641E4A46394664
:1008D000204600F0F9F827B13968A14201D1C7F8E4
:1008E000008071054FF002040BD54042002803DD63
:1008F00002F072FA0460A007BDE8F08746F4806653
:10090000E4E70028F8DA02F067FA04606FF00040CC
:10091000F2E70029A8BF7047401C490008BF20F03B
:100920000100704710B4B0FA80FC00FA0CF050EAF5
:10093000010404BF10BC704749B1CCF1200421FA76
:1009400004F411FA0CF118BF012121430843A3EB71
:100950000C01CB1D4FEA00614FEA102042BF00207E
:1009600010BC704700EBC35010440029A4BF10BC5A
:100970007047401C490008BF20F0010010BC7047C0
:1009800010B5141E73F1000408DA401C41F1000197
:1009900092185B411A4301D120F0010010BD2DE9EE
:1009A000F04D92469B4611B1B1FA81F202E0B0FAE5
:1009B00080F220329046FFF743FF04460F4640EA9C
:1009C0000A0041EA0B0153465A46084313D0114628
:1009D00053EA010019D0C8F140025046FFF73FFF2B
:1009E00005460E46504659464246FFF729FF084342
:1009F00005D0012004E020463946BDE8F08D0020F6
:100A0000054346EAE0762C4337430A986305E40A37
:100A1000A0EB08000022FD0A44EA47540A3002D540
:100A200000200146E9E7010510196941DDE90845A3
:100A300000196941BDE8F04DA2E7C1F30A52C1F3C4
:100A4000130140F2FF3341F480119A4202DA002090
:100A50000146704740F233439A42A2F2334202DC2D
:100A60005242FFF7FCBEFFF7EBBE000030B5041E9C
:100A700071F1000404DB4FF00044404264EB0101DB
:100A8000141E73F1000405DB1C464FF00043524274
:100A900063EB0403994208BF904230BD064C074DFA
:100AA00006E0E06840F0010394E80700984710343E
:100AB000AC42F6D3FFF76CFB549004089490040802
:100AC00000487047307304082DE9F05F82460078D3
:100AD000002715468B460AF10104B946302801D09B
:100AE0009DB113E014F8010B0127782803D0582892
:100AF00001D045B10AE00DB1102D07D10027102516
:100B000014F8010B02E0082500E00A250026B04693
:100B10000EE005FB080005FB06F1012701EB10467E
:100B20001FFA80F8B6F5803F00D3B94614F8010BE0
:100B3000294600F018F80028EBDABBF1000F05D0C9
:100B40000FB1641E00E05446CBF80040B9F1000F2D
:100B500006D002F041F902210160C81EBDE8F09FF5
:100B600048EA0640FAE73A2800D2303820F020025E
:100B7000412A01D3A2F13700884201D34FF0FF3060
:100B8000704770B58C1810F8015B15F0070301D1A0
:100B900010F8013B2A1106D110F8012B03E010F8E0
:100BA000016B01F8016B5B1EF9D12B0705D4002303
:100BB000521E0DD401F8013BFAE710F8013BCB1AA5
:100BC000921C03E013F8015B01F8015B521EF9D59A
:100BD000A142D8D3002070BD10B52DF0B3FD002088
:100BE00010BDFEE710B54FF080440021204601F013
:100BF000C4FF606A014A0021517010BD50000020FE
:100C000010B5074C207808B931F0F0F94FF080406A
:100C100000214162012101F0B0FF0120607010BD90
:100C20005000002070B5374905460024086810F0D0
:100C3000450FFBD0410702D50324042003E0C00781
:100C400004D00124204600F0F7FE59E000F030FF08
:100C5000A8422BD140F2FF5000F0EEFE002000F041
:100C600049FF294908424BD0002801DA1C2070BDF9
:100C7000410001D5092070BD810001D50A2070BD59
:100C8000C10001D50B2070BD010101D50C2070BD44
:100C9000410101D50D2070BDC10101D50E2070BDEF
:100CA000010201D50F2070BD410201D5102070BD99
:100CB000810201D5112070BDC10201D5122070BD85
:100CC000010301D5132070BD410301D5142070BD6F
:100CD000810301D5152070BDC10301D5162070BD5B
:100CE000010401D5172070BD410401D5182070BD45
:100CF000810401D5192070BD000701D51A2070BDEF
:100D0000204670BD342C014008E0FFFD10B50B48B3
:100D10000024016811F0450FFBD0480702D50324D9
:100D2000042003E0C80705D00124204600F084FE1B
:100D3000204610BD40F2FF50F8E70000342C01407F
:100D400070B50C46194906460025086810F0450F95
:100D5000FBD0410702D50324042003E0C00705D0DF
:100D60000124204600F068FE204670BD00F0A0FE81
:100D7000B04212D140F2FF5000F05EFE002000F0C1
:100D8000B9FE10F4604F03D0810404D5132070BD68
:100D9000000C208007E0410401D5102070BD000444
:100DA00001D50F2070BD284670BD0000342C0140D5
:100DB00010B52BF027FA01F0DDFBBDE810402BF059
:100DC00039BA000070B52BF01DFA094D094C2946BF
:100DD000204600F0EDF838B12946204600F022F810
:100DE0000021204600F034F8BDE870402BF022BA14
:100DF00000800028B8640240074A904201D20748A8
:100E000001E005481038064A8B0001EA020101D5CD
:100E1000C16070478160704710640240006002400A
:100E20007D0F7D0F074A904201D2074801E0054837
:100E30001038064A8B0001EA020101D5C1607047F3
:100E40008160704710640240006002407D0F7D0F9A
:100E50000029016802D041F0010101E021F0010107
:100E6000016070472DE9F043016821F00101016044
:100E70000021016041608160C16001612121416107
:100E80003C493C4A3D251039904202D18D60BDE875
:100E9000F083384A4FF474661832904201D18E6064
:100EA000F5E7344A4FF474173032904201D18F6025
:100EB000EDE7304A4FF0746C4832904202D1C1F8ED
:100EC00008C0E4E72B4B2C4A6033984201D1CA603A
:100ED000DDE7284C294B7834A04201D1CB60D6E71E
:100EE000DFF89080264C08F19008404501D1CC6095
:100EF000CDE7DFF880804FF03D5908F1A808404564
:100F000002D1C1F80C90C2E71E49DFF87880083999
:100F1000404501D10D60BAE71A4D1835A84201D1FC
:100F20000E60B4E7174D3035A84201D10F60AEE72F
:100F3000144D4835A84202D1C1F800C0A7E7114DB1
:100F400010496035091FA84201D10A609FE70D4A88
:100F50007832904201D10B6099E70A4A9032904270
:100F600001D10C6093E7074AA83290428FD1C1F8B3
:100F700000908CE7106002403D000020400F0020F0
:100F800000003D20106402400029016802D041F0B9
:100F9000200101E021F0200101607047014600209E
:100FA0000968C90700D001207047406880B27047C7
:100FB00030B5104A0024904201D20F4B01E00D4B96
:100FC000103B0E4A114205D01E2202EAD1250268CA
:100FD0002A4002E0406900F08002880001D558688C
:100FE00000E01868064B1840084201D002B1012405
:100FF000204630BD10640240006002403C0F3C0FB0
:101000007D0F7D0F0B0607D5436912B143F08003B6
:1010100001E023F080034361802908D0002A0268A0
:1010200001F01E0101D00A4300E08A4302607047CC
:1010300030B50368124ACC6813400A682243D1E9EC
:1010400005452C432243CC6922430C6A22434C6A57
:1010500022438C6A22434C6B22438C6B22431A43FB
:101060000260426922F00703D1E90B2422431A43AC
:1010700042610A6942604A6882608968C16030BD25
:101080003F801CF0704710B52BF0BCF8022000F038
:1010900005F8BDE810402BF0CDB80000014908600C
:1010A00070470000143C01402DE9FC5F0025484CCE
:1010B00000954FF4806801954027C4F81080C4E97A
:1010C00002750E464FF0080B1021C4E900B1A94685
:1010D000204600F049FD1020FFF7A4FD00284CD168
:1010E0003C48BA464F460089000420603720C4E9D6
:1010F000010AC4E90398204600F036FD3720FFF7C7
:1011000091FD002839D1411E04F11400C0E9001BF3
:10111000302181600221C0E903170121416100F003
:10112000A3FC3320C4F808A0C4E90070C4E9037824
:10113000204600F019FD3320FFF774FD04001CD198
:10114000254F4FF4001AE94640F22A68386810EA41
:10115000080F0AD1504600F0B1FC0028F6D000F08C
:10116000FDFC49F825006D1CF0E7082000F0A6FC06
:1011700028B1082000F060FC0420BDE8FC9F02209C
:1011800000F09CFC20B1022000F056FC0220F4E7A5
:10119000202000F093FC20B1202000F04DFC062020
:1011A000EBE74FF40075284600F088FC20B1284694
:1011B00000F042FC0720E0E740F2FF5000F03CFC6A
:1011C000009800BA7060019800BA30602046D4E7F9
:1011D000A802001014000010342C0140F0B50023C8
:1011E000012403270D6804FA03F21540954242D109
:1011F000D0F800C05E0007FA06F52CEA050CC0F82E
:1012000000C091F804C0D0F800E00CFA06FC4CEAEB
:101210000E0CC0F800C091F804C0BCF1010F02D060
:10122000BCF1020F1FD1D0F808C02CEA050CC0F8A1
:1012300008C091F805C0D0F808E00CFA06FC4CEAAA
:101240000E0CC0F808C0D0F804C02CEA020CC0F89C
:1012500004C0426891F806C00CFA03FC1FFA8CFC2B
:1012600042EA0C024260C268AA43C260CA79C568F9
:10127000B2402A43C2605B1C102BB3D3F0BD4B07B6
:10128000DB0E9A40C90810B500EB8100016A0F24FB
:101290009C40A1430162016A1143016210BD0246F4
:1012A000002012690A4200D0012070470246002047
:1012B000938A128B43EA024323F07F42914300D189
:1012C000012070470029018802D041F0010101E0AE
:1012D00021F00101018070470D4910B5884202D10B
:1012E00001214C050AE00B49884202D101218C05FD
:1012F00004E0094988420AD10121CC05204600F0CA
:10130000EDF82046BDE81040002100F0E7B810BD20
:101310000054004000580040005C00400029018853
:1013200002D041F4807101E021F4807101807047A6
:101330000029018802D041F4007101E021F400711C
:10134000018070477FB5044680880D4620F03F0637
:10135000684600F0E7F827490298B0FBF1F189B23E
:101360000E43A680228822F001022280224B2A68A6
:101370009A421BD85200B0FBF2F080B2042800D28F
:101380000420491C2184A083208840F00100208093
:1013900021884FF6F5300140A8886A891043084338
:1013A0002080A8892989084320817FBDEB88A3F587
:1013B0003F46FF3E0BD002EBC20303EB0212B0FB31
:1013C000F2F080B240F48040020506D007E002EB64
:1013D0004202B0FBF2F080B2F6E740F001004FF4B9
:1013E000967251434FF47A72B1FBF2F140F400402F
:1013F000C7E7000040420F00A086010012B141F093
:10140000010101E001F0FE0101827047FEE7704733
:1014100030B50F22C47801780123FCB1144C246844
:1014200001F1E02104F4E064C4F5E064C4F30724AE
:10143000C4F10405E2404478AC408578154025436A
:101440002A0181F80024007800F01F018B40400938
:10145000800000F1E020C0F8003130BD01F01F0035
:1014600083404809800000F1E020C0F8803130BDA1
:101470000CED00E002490843024908607047000093
:101480000000FA050CED00E0014908627047000019
:1014900000000E42044A0029116801D0014300E017
:1014A000814311607047000030380240044A00292F
:1014B000116801D0014300E08143116070470000D2
:1014C00034380240044A0029116801D0014300E089
:1014D000814311607047000040380240044A0029EF
:1014E000116801D0014300E08143116070470000A2
:1014F00020380240044A0029116801D0014300E06D
:10150000814311607047000044380240044A0029BA
:10151000116801D0014300E0814311607047000071
:101520002438024070B5204A1168204C11F00C019B
:1015300004D01F4E042903D0082903D004601BE007
:10154000066019E01849091F0B68C3F380550B6842
:1015500003F03F0315B1B6FBF3F301E0B4FBF3F383
:101560000C680968C4F388146343C1F30141491C42
:101570004900B3FBF1F1016011680F2303EA111177
:101580000C4B5C5C0168E14041601468072505EA8A
:1015900094241C5D21FA04F48460126805EA523236
:1015A0009A5CD140C16070BD083802400024F4004C
:1015B00040787D01000000100246002051090129F9
:1015C0000BD002290CD00849096802F01F02012340
:1015D00093400B4200D00120704703497439F3E770
:1015E0000149091FF0E70000743802400549002254
:1015F0000A700A70012802D0042801D10520087061
:1016000070470000703802400149086070470000D0
:101610003C0E4742C0F30121032907D1074A116854
:1016200021F4F81306490140194311600349683158
:101630000A68C0F30B0002430A6070470838024092
:10164000FFFCFF0F05490028086802D040F00400A5
:1016500001E020F004000860704700000008065018
:10166000014800687047000008080650010901EBB6
:10167000810100F00F0000EB4100C0B27047002173
:1016800003E0491C0A38C9B2C0B20A28F9D20907D6
:1016900040EA11607047000008B5002000900C4837
:1016A0000168490612D44FF0FF31016083130168CD
:1016B000009A01F04001521C00929A4201D0002988
:1016C000F5D00068400601D4002008BD012008BD07
:1016D0000C2800400248016821F080010160704739
:1016E0000C28004010B50C460E4909680E4A1140FE
:1016F0000A0CE270C1F30423637001F03F03A3708E
:10170000C1F34231217000280BD11046FFF7AEFF24
:10171000E0706078FFF7AAFF6070A078FFF7A6FF7F
:10172000A07010BD042800403FFFFF0010B50C461C
:101730000F4909680F4A1140C1F305422270C1F3F5
:101740000623637001F07F03A370402303EA114175
:10175000E17000280BD11046FFF788FF20706078F9
:10176000FFF784FF6070A078FFF780FFA07010BDC6
:10177000002800407F7F7F0070B5124D0446002690
:10178000CA20286053202860FFF786FFA8B10D48C3
:101790001C38016821F04001016001682268114392
:1017A00001600848A168143801600168A28841EA14
:1017B00002410160FFF78EFF0126FF2028603046BE
:1017C00070BD00002428004008B5034901EB8000EB
:1017D0000090006808BD00005028004070B50C461D
:1017E000010060784FF000062AD0FFF73FFFA07895
:1017F000FFF73CFFA078E17840EA01456078217866
:10180000000240EA41300543194CCA2020605320B1
:101810002060FFF741FF78B1164805401448203892
:101820000560FFF757FF12481C380068800602D495
:1018300000F072F800B10126FF202060304670BD34
:10184000C10603D520F010000A306070E078FFF781
:1018500016FF05046078FFF712FF45EA0025A0781F
:10186000FFF70DFF0543207845EA4035CCE700003F
:10187000242800403FFFFF002DE9F041244F0C4693
:1018800002004FF0000620783A6831464FEA426283
:1018900004D0002A15DAFFF7E9FE13E0002A00DB86
:1018A000E170FFF7ECFE05046078FFF7E8FE45EA1B
:1018B0000025A078FFF7E3FE0543E07845EA004500
:1018C0000AE0E170A078217840EA01456078E1788B
:1018D000000240EA014005430D4CCA201C34206040
:1018E00053202060FFF7D8FE68B10A480540084839
:1018F00008380560FFF7EEFE3868800602D400F075
:101900000BF800B10126FF2020603046BDE8F081D1
:10191000082800407F7F7F0018B500201049009004
:10192000CA200860532008600D481838026822F069
:10193000A00202604FF400340268009B02F0200213
:101940005B1C0093A34201D0002AF5D000688006FA
:1019500001D5012000E00020FF220A6018BD000030
:101960002428004008B5034A02EB80000090016083
:1019700008BD0000502800402DE9FC4700258046A6
:1019800000952846019500F0B5F8800102D50E209B
:10199000BDE8FC87264F6946388980B2FFF784FB93
:1019A0000028F5D13720234C402601994FF0060A34
:1019B0004FF48069B8F1010F1FD0C90335D53989BB
:1019C000C4F810900904C4E90010C4E90265204677
:1019D00000F0CAF83720FFF725F90028D8D1C4E96C
:1019E000005AC4F8109000BFC4E90265114800F025
:1019F000BBF80620FFF716F9CAE7490315D5398960
:101A0000C4F810900904C4E90010C4E9026509484B
:101A100000F0AAF83720FFF705F90028B8D1022016
:101A2000C4F81090C4E9000ADEE72520B0E7000002
:101A300014000010A802001001490860704700005F
:101A4000382C01400149086070470000382C0140E3
:101A50000149C1F8A0007047008025420149086093
:101A6000704700008C85254210B50A4A0168116054
:101A7000121D41681160121D116821F0F703D0E9B1
:101A800002142143D0E90440044321431943116067
:101A900010BD0000242C014010B50121CC022046CD
:101AA000FFF734FD2046BDE810400021FFF72EBDB2
:101AB00001480068C0B27047102C0140034A01463B
:101AC000002012680A4200D001207047342C0140E7
:101AD000034A0146002012680A4200D001207047E4
:101AE000342C01400248006800F0030070470000F9
:101AF000002C014008B5024908440090006808BD68
:101B0000142C014010B52AF07DFB00F047FDBDE824
:101B100010402AF08FBB0000044A0029116801D050
:101B2000014300E081431160704700003C2C0140FC
:101B300030B5094B1A6847F6FF618A43017D846816
:101B4000C568214344682C4321430468006921434C
:101B500001431143196030BD042C01400148006865
:101B600070470000802C014010B5084A01681160E0
:101B7000121D1168CB0AD0E901142143D0E90340BA
:101B80000443DB0221431943116010BD082C0140BE
:101B90000149086070470000002C014008B5012091
:101BA0008DF8000010210548FFF779FB10B10020E7
:101BB0008DF800009DF8000008BD00000000024004
:101BC0002DE9F0410146194800264068032813D04A
:101BD00018B1012801D0022825D1B1F5805F0BD0C2
:101BE0004FF400670025124CB9420ED10120FFF7D7
:101BF000C3FE060003D016E02720BDE8F08125755E
:101C000025606560C4E9025709E00020FFF7B4FED3
:101C1000060008D1257525606560A560E56004486B
:101C20002561FFF785FF3046E7E70000140000104C
:101C3000900200102DE9F0439849DFF86492D1F842
:101C400004C080F856C00989A0F85410D9F80010D3
:101C50000A0E94090470C2F38304447002F0030274
:101C600082700A0CC2700A0A02714171D9F80470BC
:101C7000390E0901C180C288C7F3074142EA111237
:101C8000C28001F00F010172C7F30722D10941722E
:101C9000C2F380118172C2F34011C172C2F300110C
:101CA0000173002141734B469D6801232E0EC5F33D
:101CB0000744C5F30728BCF1000F06D0BCF1010FA3
:101CC00003D0BCF1020F3BD052E09207120D02612B
:101CD000FAB2076947EA82020261026942EA961291
:101CE0000261C6F3C202027506F00702427562097C
:101CF0008275C4F38202C275A207520F0276047E77
:101D0000424644EAD21404760469077EBF1C03FAF3
:101D100007F6641CA4FB06784FEAE67C01FB068606
:101D200004FB0C6690F808C003FA0CF4A7FB04C887
:101D3000046506FB048407FB0144C0E912C417E0F4
:101D4000BA06920A0261026942EA06220261026947
:101D50002243026104694246641C41F10006F60414
:101D600046EA5436E404C0E912464FF400740465B0
:101D7000C2F3801444769206520E00F81A2FEAB28B
:101D8000057845EAD21500F8015B02F07F0200F801
:101D9000012BD9F80C40220ED50900F8015BC2F3E3
:101DA000411500F8015BC2F3820500F8015B920760
:101DB000120F02700578C4F3074245EA921500F845
:101DC000015BC2F340150570417002F001028270A0
:101DD000C4F30722D509C570C2F380150571C2F39B
:101DE00040154571C2F300158571C2F38105C571B7
:101DF00002F003020272C4F3460242728372284C5C
:101E000010342268150E0573150C2D02C581C68984
:101E1000C2F307252E43C681120602616268066975
:101E2000150E46EA054505610669C2F3074546EA0F
:101E3000052505610669C2F307252E430661027573
:101E4000A268150E4575150C2D0685618669C2F3CD
:101E5000072546EA054585618569D2B245EA022231
:101E60008261E268856945EA12658561057FC2F392
:101E7000074445EA141505772407240DC483C58B50
:101E8000C2F307242543C583C2F3460280F820200D
:101E900080F821300846BDE8F083000014000010EF
:101EA0000802001008B500200090FFF777FE012817
:101EB00003D1684600F02AFC08B1FF2008BD009855
:101EC000C0F3432008BD10B5FFF7ECFF042803D092
:101ED000FF2803D0012010BD002010BD022010BD3E
:101EE0002DE9F04393B000250095402102A801950B
:101EF000FEF74AFA4E4802AE05700561C5604D49CD
:101F00000D600089694680B2FFF7CEF8002856D1EF
:101F1000019911F0407F52D0474C4FF040081021FA
:101F2000E4E8028140464FF4806984E82102424897
:101F3000083CFFF719FE1020FEF774FE00283ED182
:101F4000471E3D48602114300760C0E9018102212D
:101F5000C0E9031501214161FFF786FD3748206084
:101F60000620C4E90108C4E903593348FFF7FCFD22
:101F70000620FEF757FE002821D12E4D4FF40049D0
:101F8000083540F22A68286810EA080F0FD1484641
:101F9000FFF794FD0028F6D05FF00004FFF7DEFDA8
:101FA00046F82400641C082CF8D32036EBE7082000
:101FB000FFF784FD30B10820FFF73EFD042013B089
:101FC000BDE8F0830220FFF779FD20B10220FFF782
:101FD00033FD0220F3E72020FFF770FD20B1202021
:101FE000FFF72AFD0620EAE74FF400742046FFF7CA
:101FF00065FD20B12046FFF71FFD0720DFE74FF406
:10200000001403E0FFF7AAFD01C67F1E2046FFF77C
:1020100055FD08B1002FF5D140F2FF50FFF70CFD40
:102020009DF81500800701D50020C8E72720C6E7E6
:10203000140000102C2C0140A802001001FFFF80AA
:1020400038B500248DF8004000F042F9FFF724FD78
:1020500000F09EF98DF800009DF8000058BB00F0DC
:102060002FF88DF800009DF8000020BB1348047580
:10207000046044608460C4600461FFF759FD0F4848
:102080005838FFF7D7FD8DF800009DF8000048B9DB
:102090000A4800215838B0F85400000400F020FB32
:1020A0008DF800009DF8000028B94FF40060FFF79C
:1020B00087FD8DF800009DF8000038BD90020010EB
:1020C0002DE9F84F01200025ADF80000FFF70AFDCB
:1020D000A8B3DFF8E090D9F80400042868D0364CA3
:1020E0004FF0C00A00260220C4F808A0C4E900602E
:1020F0004FF48068C4E903682046FFF735FDFEF71A
:1021000005FE05001DD1FFF7F5FCA4F1900738602E
:102110000420FFF7EFFC78600820FFF7EBFCB860C5
:102120000C20FFF7E7FCF860D9F804004F4650B1E7
:10213000012808D0062806D0022804D013E0FFE7C3
:102140002520BDE8F88F0320E4E80260402084E801
:1021500041011948083CFFF707FD69460320FEF7D7
:10216000EFFD0500EDD17868042821D0BDF800000E
:10217000B860000420600920C4E9010AC4E90368CA
:102180000D48FFF7F1FCFEF7C1FD0500D9D1FFF7BF
:10219000B1FC094CA03C20600420FFF7ABFC606060
:1021A0000820FFF7A7FCA0600C20FFF7A3FCE0606D
:1021B0002846C6E714000010A802001070B51F4E94
:1021C0000C46054690B04FF0FA513046FEF714FE2B
:1021D00000213046FEF73CFE3046FEF743FE4FF04E
:1021E000006000901648CDE901050020CDE9030408
:1021F0003115CDE90501890007918900CDE9081065
:102200004FF440300A9004200B9003200C904802B9
:102210000D9080100E9069463046FEF709FF0122AE
:1022200010213046FEF7EEFE20213046FEF7ACFED0
:1022300001213046FEF70CFE10B070BD586402401C
:10224000802C014070B5204E0C46054690B04FF0F2
:10225000FA513046FEF7D0FD00213046FEF7F8FD7A
:102260003046FEF7FFFD4FF0006000901748CDE9C3
:1022700001054020CDE9030400203115CDE9050119
:10228000890007918900CDE908104FF440300A9089
:1022900004200B9003200C9048020D9080100E90AB
:1022A00069463046FEF7C4FE012210213046FEF793
:1022B000A9FE20213046FEF767FE01213046FEF7D9
:1022C000C7FD10B070BD000058640240802C014072
:1022D0002DE9FC4101210D20FFF7DCF8294E0C22ED
:1022E00008213046FEF7CBFF0C2209213046FEF7CD
:1022F000C6FF0C220A213046FEF7C1FF0C220B213B
:102300003046FEF7BCFF0C2211463046FEF7B7FF01
:102310001D4F0C2202213846FEF7B1FF4FF47060CA
:10232000009002208DF805008DF8040000248DF83F
:10233000064001258DF8075069463046FEF74EFFEE
:102340000420009069463846FEF748FF28030090B5
:102350008DF8074069463046FEF740FF1020009098
:102360008DF804408DF8075069460848FEF736FF9F
:102370000121C802FFF7BEF801218805FFF78AF89E
:10238000BDE8FC8100080240000C02400000024051
:102390002DE9FC5F00258DF8005072487621A94692
:1023A0000175056045608560C560A8460561FFF759
:1023B000BFFB0320FFF7ECFB0120FFF749FB694C53
:1023C0004FF4806B1834204625606560A560C4E931
:1023D000035BFFF7C9FB4FF4803A0027564601E044
:1023E000761E10D08020FFF769FB0028F8D056B188
:1023F00040F2FF50FFF720FB8DF800709DF80000C1
:10240000002854D101E00327F6E74FF4D57020608F
:1024100008204027C4E901075248C4E9035B5E462F
:102420001830FFF7A1FB504B002051461A684FF0BF
:10243000370B02E04C4A1268491E12F0450F06D0D5
:1024400009B1510706D54FF0030A042007E000291F
:10245000F0D1F8E7510605D54FF0000A4020FFF70C
:10246000EBFA50468DF800009DF8000000B3A7601D
:10247000C4E9005B3B48C4E903561830FFF774FB1E
:102480003720FEF7CFFB8DF80000A760C4E9005BA2
:102490003448C4E90356DA461830FFF765FB3720A5
:1024A000FEF7C0FB8DF800009DF8000088B355E0F2
:1024B0002E4801214FF080484160E6E7A760C4E95B
:1024C000005A2848C4E903561830FFF74DFB37205F
:1024D000FEF7A8FB8DF800009DF8000078BB2449AA
:1024E00048EA010020602920C4E901071D48C4E929
:1024F00003561830FFF738FB00201B49019008688D
:1025000010F0450FFBD0400704D5032001900420B4
:1025100002E011E040F2FF50FFF78EFA01988DF8CB
:1025200000009DF8000050B90020FFF7E3FAC10F4A
:1025300009F1010904D005E04FF6FF7BBEE70DE08D
:10254000D945BBD3D94503D31B208DF8000005E046
:1025500010F0804F02D00548022141609DF8000034
:10256000BDE8FC9F90020010342C014014000010C4
:10257000000010800748006810F0C05F08D00649CE
:102580000120486103484FF0C2515830FEF734BC77
:1025900070470000006402401400001070B54FF452
:1025A00080752846FFF794FA1F4C38B10020207040
:1025B0002846FFF747FA012020612EE00220FFF7AE
:1025C00087FA20B10220FFF73DFA022024E008201C
:1025D000FFF77EFA20B10820FFF734FA04201BE051
:1025E0002020FFF775FA20B12020FFF72BFA0620F4
:1025F00012E01020FFF76CFA20B11020FFF722FA4A
:10260000052009E04FF400752846FFF761FA20B174
:102610002846FFF717FA0720207000214CF23A30C5
:10262000FFF77AFA207870BD140000102DE9F0470A
:10263000284C0025089F164698468146257025613E
:10264000E56025480560012140F22A30FFF764FA71
:102650000120FFF703FA39464846FFF7AFFD6068EF
:10266000022803D10702760A46EAC8561B4C4FF0EF
:1026700040091020C4F80890C4E900704FF4806845
:10268000C4E903582046FFF76FFA1020FEF7CAFA94
:1026900000281CD1411E04F11400C0E9001790214C
:1026A00081600221C0E9031501214161FFF7DCF9D6
:1026B0001120C4F80890C4E90060C4E9035820461A
:1026C000FFF752FABDE8F0471120FEF7ABBABDE8BC
:1026D000F0870000140000102C2C0140A80200100C
:1026E000094910B508600720486040208860002034
:1026F000C8604FF4806008610846FFF735FABDE80E
:1027000010400720FEF78EBAA802001070B5040032
:102710001AD00E480E490089000408600D20486058
:10272000402088600020C8604FF48060086108463F
:10273000FFF71AFA0D20FEF775FA050003D1FFF72F
:10274000D9F92060284670BD262070BD1400001005
:10275000A8020010084810B500210C22C0E90012A0
:102760004022C0E9022111010161FFF7FDF9BDE836
:1027700010400C20FEF756BAA80200102DE9F041D7
:102780000026751E2846154C00E0401E616929B9D7
:10279000216919B9217809B90028F6D100276761A4
:1027A0000F4800E06D1E0168890401D5002DF9D1A4
:1027B000E068012803D1FFF7CDFF0646E760354307
:1027C00000D1042640F2FF50FFF736F9207810B10F
:1027D0002078BDE8F0813046FBE7000014000010CF
:1027E000342C01402DE9F0410026751E2846154C79
:1027F00000E0401E616929B9216919B9217809B938
:102800000028F6D1002767610F4800E06D1E0168BF
:10281000C90401D5002DF9D1E068012803D1FFF7E3
:1028200099FF0646E760354300D1042640F2FF5089
:10283000FFF702F9207810B12078BDE8F08130462A
:10284000FBE7000014000010342C01402DE9F05F7C
:102850003F4CDDE90A764FF000081546994682465E
:1028600084F80080C4F810800121E1603949C1F882
:102870000080012140F22A30FFF74EF906FB07F1F4
:102880005046FFF7DFFC0120FFF7E8F860680228F8
:1028900003D107026D0A45EAC9552F4C10204FF0AD
:1028A000400980C4C2464FF4806B84E8010E201FAB
:1028B000241FFFF759F91020FEF7B4F9002844D17E
:1028C0002348C846211D0089D946000420603720CE
:1028D000C4F810B081E801052046FFF745F937201C
:1028E000FEF7A0F9002830D1C4F808801720C4E909
:1028F0000060C4E903A9C346D0462046FFF734F977
:102900001720FEF78FF900281FD11920C4F808B04E
:10291000C4E900504546C4E903892046FFF724F97D
:102920001920FEF77FF900280FD104F11401401E91
:102930007E43C1E900069020C1E902050120C1E9FA
:1029400004500846FFF790F82846BDE8F09F0000C5
:10295000140000102C2C0140A8020010002901884E
:1029600002D041F0400101E021F0400101807047B8
:1029700030B502884C8802F441530A88CD8822433E
:102980008C882C4322430C8922434C8922438C8916
:102990002243CC8922431A430280828B22F40062B4
:1029A0008283098A018230BD704700000CB5002087
:1029B0002749019000900A6842F480320A604FF47F
:1029C000A0430A6802F400320092019A521C01925C
:1029D000009A12B9019A9A42F3D10A68920334D547
:1029E000012000901A484030026842F08052026094
:1029F0001848026842F440420260154808300268F4
:102A00000260026842F400420260026842F4A0528E
:102A10000260031F104A1A600A6842F080720A605E
:102A20000A689201FCD50D4A40F2057111600168F7
:102A300021F003010160016841F0020101600168B9
:102A4000C1F381010229FAD10CBD00900CBD000038
:102A5000003802400070004019544007003C02401A
:102A600010B529F0CFFB2BF023F9BDE8104029F079
:102A7000E1BB000070B51A4C20681A4A10F00C0136
:102A8000194804D0194D042903D0082903D0026045
:102A90001BE0056019E01249091F0B68C3F380565B
:102AA0000B6803F03F0316B1B5FBF3F201E0B2FB94
:102AB000F3F20B680968C3F388135A43C1F3014169
:102AC000491C4900B2FBF1F101602168064AC1F3DB
:102AD0000311121D515C0268CA40026070BD000003
:102AE000083802400024F4000000002040787D01F6
:102AF000124810B5016841F4700101601048016886
:102B000041F0010101600E4A0021083211600268A3
:102B10000C4B1A400260031D0B4A1A60026822F433
:102B20008022026006480C300160FFF73FFF034936
:102B30004FF000608039086010BD000088ED00E0B3
:102B400000380240FFFFF6FE1030002410B5084C9C
:102B50000121204600F01BF8002807D02FF03CFA96
:102B60002046BDE81040012100F004B810BD00006F
:102B700000080040C943018270470029018802D043
:102B800041F0010101E021F001010180704702469E
:102B90000020138A92890B4202EA010202D0002A25
:102BA00000D001207047000030B50288164B174C4A
:102BB00098420DD0A0420BD0B0F1804F08D0144DF8
:102BC000A84205D0134DA84202D0134DA84203D10C
:102BD00022F070054A882A43104DA84206D0104DB5
:102BE000A84203D022F440750A892A4302804A6829
:102BF000C2620A880285984201D0A04201D1897A36
:102C000001860121818230BD0000014000040140A5
:102C10000004004000080040000C0040001000408C
:102C20000014004070B529F0EDFA0E4C40F2255525
:102C30002946204600F034F838B126F0D5FD0A497F
:102C400008702946204600F014F80821204600F0BC
:102C500020F818B10821204600F008F8BDE87040BF
:102C600029F0E8BA0010014014000020C943018097
:102C700070470A0A01219140C94301807047002929
:102C8000818902D041F4005101E021F40051818199
:102C900070470246002012880A4200D00120704787
:102CA00030B501F01F0201240025C1F3421304FADC
:102CB00002F2012B0FD0022B0FD0838A4FEA112191
:102CC0000088134204FA01F400EA040001D000B1C4
:102CD0000125284630BD8389F0E7038AEEE700002E
:102CE0007FB50446008A0D4620F44051E888084329
:102CF0002082A08941F20C618843A9882A89114366
:102D00006A8902431143A181A08A20F44071A889F5
:102D10000843A0826846FEF705FC1A48844202D0A8
:102D20001948844201D1039800E00298A18909045E
:102D300000EBC00101EB0010296801D5490000E05B
:102D40008900B0FBF1F26420B2FBF0F109010B093C
:102D50006FF018056B4302EB8302A3891D044FF04B
:102D6000320306D503EBC202B2FBF0F000F007001D
:102D700005E003EB0212B2FBF0F000F00F00084395
:102D800020817FBD0010014000140140FEE70000DB
:102D90000FB4054B10B503A9044A029802F010FFC6
:102DA00010BC5DF814FB0000EF130108F4050020CF
:102DB0000FB4084B10B504A902AA039802F000FF53
:102DC000044602A9002003F00AFB204610BC5DF86F
:102DD00014FB0000DF63000800487047C8010010C2
:102DE000002807D00E4910F0FF0F04D051FA80F0F0
:102DF0000078401C704710F47F4F04D0C0F30720C8
:102E0000085C0930704710F47F0F04D0C0F307400E
:102E1000085C1130704701EB106000781930704782
:102E2000FF2A040802E008C8121F08C1002AFAD1CC
:102E300070477047002001E001C1121F002AFBD13A
:102E4000704700002DE9FF5F82B00021DDE904300A
:102E5000020DDDF840B0034318D044F61050A2F242
:102E6000FF3242431514119801281FD0A5EB0B0027
:102E7000401C5FEA000A4FF000064E4FDFF8389121
:102E8000B046504615D5CAF1000413E0119801244C
:102E90004AA3012801D16FEA0B010298119AC0E9F7
:102EA0000031C0E9024206B0BDE8F09FCBF100005E
:102EB000DFE704460021404A491842EB0450CDE9BF
:102EC000001012E0E00707D032463B464046494634
:102ED000FDF76BFB8046894632463B461046194655
:102EE000FDF763FB06460F466410002CEAD1DDE9CE
:102EF0000401DDE90023BAF1000F06DAFDF755FB06
:102F000042464B46FDF751FB05E0FDF7C0FB42464C
:102F10004B46FDF7BCFB04460E460022284BFDF74E
:102F2000A5FD03D84FF0FF30014607E00022254BF6
:102F300020463146FDF792FAFDF77FFD102409E0A7
:102F4000002C0ADB0A220023FDF7D4F9039B303260
:102F50001A55641E50EA0102F2D1641C039AC4F1AE
:102F600011031444119A012A03D0012208430DD100
:102F70000AE0084304D000204FF0110B119072E7D3
:102F8000A3EB0B056D1E0DE05B4504DD4FF0000269
:102F900005F1010504E003DA4FF00002A5F1010597
:102FA000002AECD002981199C0E90231C0E900452D
:102FB00079E70000000014400000F03F30000000FE
:102FC0000000F0430000E03F03480168814201D067
:102FD00001207047002070471801001010B54821EB
:102FE000094801F01EF925F073F9084C002304226A
:102FF00060603221064824F057FFA06003F0C4FC53
:103000000020207010BD0000F41201208005002077
:10301000416A00082DE9F04100251C468846064615
:10302000152A3BD2DFE802F00B1B1D2E3744535C00
:103030005E676A79878999A6ABB0B5BACD0030468C
:1030400019F093FF0546404619F08FFF014605EB46
:10305000D570401001EBD171A0EB6100A1E025809B
:103060000EE0304619F081FF0746404619F07DFF1B
:1030700007EBD771491000EBD070A1EB60008BE03B
:1030800065800BE0304619F070FF0746404619F0A6
:103090006CFF381A80E0258097E0608020883188B6
:1030A000084420806088718808446080BDE8F08111
:1030B000304619F05AFF0546404619F056FF05EB19
:1030C000D571491000EBD070A1EB60007CE0304678
:1030D00019F04BFF0546404619F047FF281A73E0E8
:1030E00025805FE0304619F040FF0546404619F064
:1030F0003CFF281A55E02580084618E0304619F0B4
:1031000034FF0546404619F030FF05EBD5714910F4
:1031100000EBD070A1EB600007E0304619F025FF0E
:103120000546404619F021FF281A2080404619F034
:10313000EAFE4042B1E7258018E0304619F015FF5D
:103140000546404619F011FF014605EBD5704010C9
:1031500001EBD171A0EB610007E0304619F005FFEB
:103160000546404619F001FF281A2080304619F024
:10317000CAFE92E7084619F0F8FE40420CE0084605
:1031800019F0F3FE40420CE0084619F0EEFE404212
:103190001AE0304619F0E9FE208071E7304619F058
:1031A000E4FE2080304619F0AEFE0546404619F098
:1031B000AAFE05EBD571491000EBD070A1EB6000C1
:1031C0006BE7304619F0D1FE2080304619F09BFEA7
:1031D0000546404619F097FE281A5EE770B5B1F92A
:1031E0000030B2F90040A34200DC23460380B1F96D
:1031F0000250B2F90240A54200DD2C464480B1F9EC
:103200000460B2F90450AE4200DA35468580B1F967
:103210000610B2F90620914200DB1146C180012060
:10322000AB4201DC8C4200DD002070BDF8B50D46DC
:1032300004461646B4F90010B5F90020002091426A
:1032400012DBB4F90220B5F902309A420CDBB4F972
:103250000420B5F904309A4206DCB4F90620B5F929
:1032600006309A4200DC0120002E33D0ADF8001069
:103270006088ADF8020032466946284600F047F8FB
:10328000002827D0A088ADF800006088ADF80200C3
:1032900032466946284600F03AF800281AD02088BD
:1032A000ADF80000E088ADF80200324669462846D5
:1032B00000F02DF800280DD0A088ADF80000E088BF
:1032C000ADF8020032466946284600F020F8002892
:1032D00000D00120F8BDB0F90020B1F904309A42C5
:1032E00013DCB0F90420B1F900309A420DDBB0F9DB
:1032F0000220B1F906309A4207DCB0F90600B1F9B4
:103300000210884201DB01207047002070472DE940
:10331000FC4114460E46B1F90020B0F900100546F4
:103320008A423ADBB5F90400824236DCB6F9027013
:10333000B5F90220974230DBB5F906309F422CDC0C
:10334000002C75DD401A9A1A401C521C00B212B2B1
:1033500000EBD07002EBD27240105210904200DBB2
:103360001046844200DD0446ADF800102888002293
:103370002044ADF804006888ADF802006888314642
:103380002044ADF806006846FFF7C1FF40B1BDF824
:1033900004002044ADF804003FE00020BDE8FC81BB
:1033A000E8880022001BADF80200E888ADF80600AE
:1033B00031466846FFF7ABFF28B1BDF80400204452
:1033C000ADF8040011E0A8880022001BADF8000051
:1033D000A888ADF8040031466846FFF798FF50B161
:1033E000BDF80000001BADF80000BDF80200001B96
:1033F000ADF8020016E06888ADF802006888002287
:103400002044ADF8060031466846FFF780FF70B1F2
:10341000BDF80000001BADF80000BDF80600204418
:10342000ADF806003146684623F068FAB6E7FFE7D4
:103430000120B3E710B5B1F90040B2F900309C4269
:1034400000DA23460380B1F90240B2F902309C420F
:1034500000DA23464380B1F90440B2F904309C42BB
:1034600000DD23468380B1F90610B2F906209142AF
:1034700000DC1146C18010BD30B5034680881C8831
:103480005D88001BDC88401C198000B2641B641C32
:10349000014624B25A80184619F085FD2146BDE840
:1034A0003040184619F07ABD2DE9FF4F87B01D4610
:1034B000DDE91476DDF858908B46022E50D3002FAC
:1034C0004ED001F001FC80461BF0C4FD00F1100459
:1034D000D0F808A0D8F82410404601B188475A46D1
:1034E00004A80799FFF77AFE002839D0BDF810002C
:1034F0002188401A01B2ADF81010BDF812006288A0
:10350000801AADF81200BDF814002288801A00B2AB
:10351000ADF81400BDF816206388D21AADF8162055
:1035200095B198F80820D2070ED1401A401C01B27C
:10353000002007E02A5C802A01D9FF2200E0002257
:103540002A54401C8842F5DBD8F8140058B1CDE964
:103550000065029704AA51462046099B0DF074FAB3
:103560000BB0BDE8F08FB9F1000F0AD001A80096AA
:1035700080E8A00204AA51462046099B0CF08AFF6D
:10358000EEE7CDE90065029704AA51462046099B63
:103590000DF08EF8E4E72DE9FF4F87B01D46DDE919
:1035A0001476DDF858A09146022E52D3002F50D049
:1035B000014605A8089AFFF711FE002849D001F03E
:1035C00083FB80461BF046FD00F11004D0F808B0E4
:1035D000D8F82410404601B18847BDF8140021886E
:1035E000401A01B2ADF81410BDF816006288801AB6
:1035F000ADF81600BDF818002288801A00B2ADF8A8
:103600001800BDF81A206388D21AADF81A2095B1B7
:1036100098F80820D2070ED1401A401C01B20020B1
:1036200007E02A5C802A01D9FF2200E000222A5408
:10363000401C8842F5DBD8F8140068B1CDF8009042
:103640000397CDE9016505AA59462046089B25F058
:1036500009FB0BB0BDE8F08FBAF1000F0BD002A848
:1036600005AA80E8A004CDE9009659462046089BAB
:1036700025F0ACF8EDE7CDF800900397CDE90165B2
:1036800005AA59462046089B25F050F9E1E70000BD
:103690002DE9FC5F054624F01BFE554C0190E868BF
:1036A00060600021284624F059FD6068016CA9B1D2
:1036B00023F0AEFB23F024FB60684E4AD0F878116B
:1036C00011427DD0A3461BF054FD002867D0DBF8E3
:1036D00004005D464169002961D108E04549D0F800
:1036E0007821C9430A40C0F87821BDE8FC9F1BF04F
:1036F000B1FC044623F086FCA0690028FCD1686870
:10370000B0F90000400000F099FE8246A1682068F0
:103710008946814200D16068804668681BF0AEFC33
:1037200006460024AB462DE00A1992F85A213ABB0E
:1037300001EBC40131F95A2FB1F9025016FB0523F0
:1037400089885F00891A491C09B2490000910FE07D
:1037500008EB07015046009A00F032FF09EB070022
:103760005146009A00F02CFF6D1C07EB46072DB266
:10377000DBF8040000EBC400B0F96000A842E7DA0F
:10378000641CA4B2DBF80410D1F87821C2F309421A
:10379000A242C9D8BAF1000001D000F0D3FEDBF894
:1037A00004004FF480715C465A3000F0FFFF6068FF
:1037B000202100F5AD7000F0F9FF60680D4A00E0CF
:1037C0000FE0D0F87811D2431140C0F87811019879
:1037D00024F078FD63689D691DB101461846226892
:1037E000A84700F009FEBDE8FC5F00F005B8000046
:1037F000280500200000FF0310B5044C20680028B5
:1038000003D01FF0B7FF0020206010BDA4050020EA
:103810004821014800F005BDDC1201201C210148AF
:1038200000F0FFBC001301202DE9FF5F0446DDE935
:103830000E0613B9B0F5807F7ED0B6F900504FF078
:10384000FF376D42454307EB25252DB22580B6F99C
:1038500002C0CCF1000C0CFB00FC07EB2C273FB2A4
:103860006780B6F900C0A1EB0C0141434FF0020C98
:103870000CEB212109B2A180B6F90280A2EB08026B
:1038800042430CEB222000B2E080002B7ED04FF0B0
:103890000A0A93FBFAF5684200EB800003EB40074D
:1038A00005F1010928B201F0ADFF00900FFA89F08F
:1038B00001F0A8FF83465A3528B201F0A3FF8046E5
:1038C00009F15A0000B201F09DFF0146009AC7F1CC
:1038D0000A0000FB02F300FB08F00BFB073301FBBF
:1038E000070193FBFAF291FBFAF04FEA601AB4F980
:1038F0000010B4F902000AFB01FCCDF80CC0551110
:10390000378805FB10C207EBA2220FFA82F905FBEC
:1039100001F2BB46029277880AFB002107EBA12146
:103920000BB2B4F90410BE460AFB01FC05FB10C241
:103930000BEBA22216B200E02FE005FB01F7CDE968
:10394000007CB4F90680DDF80CC00AFB007005FBB2
:1039500018C1DDF804C0009F05FB18C5029A0AFBD8
:10396000087C0AFB08220BEBA1210EEBAC270EEB27
:10397000A02009B20EEBA2220BEBA5250FFA87FCC3
:1039800000B212B22DB24F46494500E00EE000DA17
:103990000F46B54216DAA84615E000202080491EE1
:1039A0006080A180521EE280BDE8FF9F32882A44D9
:1039B000228072883A44628032881144A1807188E2
:1039C00008444FE0B046474504DA4F46494506DA19
:1039D0000F4604E0B54201DA2F4600E03746278063
:1039E0004F46494500DD0F46B54201DDA84600E0DF
:1039F000B046474503DD4D46494505DC01E0B5428B
:103A000001DD294600E03146A1809A4201DA1546DF
:103A100000E01D46844501DA614600E001468D4222
:103A200005DA9A4201DA114606E0194604E08445B7
:103A300001DA614600E0014661809A4201DD1146EB
:103A400000E01946844501DD654600E00546A942CF
:103A500005DD9A4201DD104604E0184602E0844587
:103A600000DD6046E0809FE72DE9FE4F0446D0F878
:103A700000B0B0F90800E589081AB4F90A10511A23
:103A8000D4E90932B5F5807F3CD0A589002DA56B1E
:103A900005FB00F005FB01F54FEA60104FEA6511E8
:103AA0003ED0256BE66A05FB00F706FB117746431F
:103AB00005FB016003EBA72902EBA020804606125C
:103AC000B4F904004FEA2927B84248DD002F46DB4D
:103AD000B4F90610B14242DD002E40DB94F83410F8
:103AE0004A073FD58A0704F114031DD400FB067072
:103AF00045004FF0020A0BEB05015246184600F054
:103B00000BFE22E0256BE66A05FB00F706FB11774A
:103B1000464305FB016003EBA70902EBA000CDE7DC
:103B200003EB00095018C9E700FB067000EB4005E5
:103B30004FF0030A0BEB05010222184600F0ECFDE2
:103B4000E81C584410F8010CA07594F83400C00724
:103B50001ED01948A18A008880B2814218D1002065
:103B6000BDE8FE8F32B204F118002369CDE90102ED
:103B7000002539B2AA468B461DF06CF90090BDF8BD
:103B80000000A082DDE9010259461DF0FBF8DBE7E9
:103B9000E07C78B1A4F83C90A4F83E80A4F8407092
:103BA000A4F84260656484F848A02046BDE8FE4F52
:103BB00000F004B80120D3E72C2E04082DE9F04FC3
:103BC000044690F83C10D0F8009090F83E0087B082
:103BD0004FF0FF36702907DAB4F940203546012A44
:103BE00000D5002580310DE0902916DDB4F9402084
:103BF000B4F904300125521C9A4200DB0025A1F2E1
:103C00007F114942C9B28846702809DAB4F94210D6
:103C1000012900D50026803010E00025FF21F2E7C1
:103C200090280DDDB4F94210B4F906200126491C94
:103C3000914200DB0026A0F27F104042C7B201E0B3
:103C40000026FF2760690090A07D05900020834634
:103C50008246049094F83400400744D594F8481004
:103C6000606C11FB05014944022201A800F060FDCF
:103C7000A08894F8481010FB01F0616C022206FB4A
:103C80000011494403A800F053FDA18894F84800AE
:103C900011FB00F1626C06FB012210FB059011186C
:103CA000022202A800F044FD94F83400800761D598
:103CB00094F84800626C10FB052300EB09010B44EB
:103CC00013F8013C0493A38813FB00F306FB0322C3
:103CD000114411F801BC10FB0500111801EB09009B
:103CE00010F8010C45E0B4F84000B4F94220284433
:103CF00001B204F11800814623691DF0ABF8019070
:103D0000B4F84200B4F94010304402B254F8103F05
:103D100048461DF09FF80390608E2368304402B23D
:103D2000208E284401B248461DF094F8029094F881
:103D30002400103C80071DD5B4F9422034F8400F10
:103D4000284401B248461DF01DF804906088B4F97B
:103D50000010304402B248461DF014F883466088D3
:103D6000304402B234F84009284401B248461DF0FC
:103D700009F8824694F8340042464546800735D516
:103D8000059810FB08F30499C8F1FF0011FB0031FE
:103D9000C1F307211BFB08F61AFB0060C0F30720E4
:103DA00011FB07F3C7F1FF0610FB06331B0AA375CF
:103DB000022907D8022803D8002007B0BDE8F08FF9
:103DC000002702E0022800D8FF270598022800D823
:103DD00000220498022800D8FF22BBF1020F00D86D
:103DE0000025BAF1020F03D8FF2501E0FF20A075DE
:103DF000EAB1FF2A04D0DDE900011AF0EBF80090E7
:103E0000BDB1FF2D17D0DDE902102A461AF0E2F805
:103E1000049097B1FF2F05D001463A4600981AF05A
:103E2000D9F80090BDF80000A0820120C5E70198F4
:103E3000E5E70298ECE70398EAE7BDF81000F3E73E
:103E40002DE9F0470446B0F908000A270002606235
:103E5000B4F90A000002A062B4F90C1091FBF7F566
:103E6000684200EB800001EB4006684205F1010862
:103E700000B201F0C7FC8246E84300B201F0C2FC88
:103E80008146C5F15A0000B201F0BCFC0546C8F1FC
:103E90005A0000B201F0B6FCC6F10A0101FB0AF3B8
:103EA000024609FB0630694390FBF7F002FB06115E
:103EB00091FBF7F14011E06248112063A07C1DF0F6
:103EC000D5F894F8341060F3000184F83410A07C25
:103ED0001DF0BCF894F8341060F3410184F83410FC
:103EE000A07C042824D0052822D0062820D021F048
:103EF000040100BF84F8341021682162A16921F017
:103F0000E00160F30401A08860F39421E08860F38D
:103F10005F51A161E0894FF4001101EB5001B1FB49
:103F2000F0F0A063FF20A075208AA082BDE8F08792
:103F300041F00401DEE700002DE9F047444E8946D8
:103F40008046318821B14348434C056800200EE08B
:103F50000020BDE8F08700BF00EBC00205EB820245
:103F6000136AA34201DD5B1E1362401C80B28842CB
:103F7000F2D300241BE000BF04EBC40005EB800774
:103F800078681EF0ABFA10B1012809D00DE079680D
:103F900041450AD139891FFA89F081420ED004E0E7
:103FA00041467868FCF71AFA40B1641CA4B2308824
:103FB0008442E1D32C46012032881AE004EBC4008D
:103FC00005EB80046169206A08444FF47A7120622D
:103FD000884200DD2162002CECD036E000EBC0010D
:103FE00005EB8101266A0B6AB34200DA0C46401CDD
:103FF00080B29042F2D3606810B120461DF019FCE7
:1040000024F066F9064600254A4641462046656189
:104010001DF06EFC18B12562606978B115E020468C
:104020001DF007FC2021204600F0C0FB2421204683
:1040300000F0BCFB4FF00040206289E7304624F0DE
:1040400041F9606108B901206061204681E7000004
:104050004C0100108C0500200100008010B51421D7
:104060000C4800F0DEF81DF0F7FB40B10A49016092
:104070000A4941600A4981600A49C16010BD1AF0CD
:10408000D5FE0028FAD10022134607A01AF0EAFE56
:10409000FEE700000C13012001120208711502084E
:1040A00075170208CD1102084F7574206F66206DD8
:1040B000656D6F7279000000002108461EF08ABA13
:1040C0007FB50D46040003D11AF0C6FF040025D0C9
:1040D0002E4EF5B10020ADF80000ADF802002046EC
:1040E0001AF0CCFF401EADF8040020461BF026F865
:1040F000401EADF806006A46294602A8FFF76EF892
:1041000000280BD0226912B102A920469047002551
:1041100011E0D4F878013040C4F878017FBD00BFC9
:1041200004EBC501002202A85A31FFF77FF80028EE
:10413000F4D16D1CADB2D4F87801C0F30940A842A7
:10414000EED8D4F87801C0F30941202903D204EB5A
:10415000C10002A907E03040C4F87801C0F309406B
:1041600004EBC00069465A3018F08CFED4F8780190
:104170004FF4800101EBB0604FEAB010C4F8780151
:104180000321206B23F0EAFF7FBD0000FFFF00FC4E
:1041900070B50C461E461546114600F0F2F8AEB159
:1041A00000222946204625F096FB294620466268D3
:1041B00025F08BFB616819B12A46204625F08BFB60
:1041C0006560A068002800D1A56070BD2946204622
:1041D000A26825F080FB00222946204625F075FBC9
:1041E000A16819B12A46204625F06FFBA5606068DA
:1041F0000028EAD1656070BD002100B14168084621
:104200007047002802D00068091D405870470028F8
:1042100001D0006840587047002100B1816808460D
:10422000704700224260C91C21F0030182600160D6
:10423000704770B50446006808301FF047FA050063
:1042400013D001460022204625F045FB2946204692
:10425000626825F03AFB616819B12A46204625F0CC
:104260003AFB6560A06800B9A560284670BD2DE9DD
:10427000F0410D4607002BD055B3FFF7BDFFA84214
:1042800004D13846FFF7D5FF04461EE038680830F1
:104290001FF01CFA04001BD029463846FFF7B7FF71
:1042A000064601462246384625F00FFB3246214697
:1042B000384625F010FB22462946384625F00BFBF0
:1042C0002A462146384625F000FB2046BDE8F0810D
:1042D0000020FBE770B50446006808301FF0F6F9CF
:1042E000050013D001460022204625F0EEFA2946AB
:1042F0002046A26825F0EFFAA16819B12A462046A7
:1043000025F0E3FAA560606800B96560284670BDD5
:1043100028B1416809B9806808B1002070470120C0
:1043200070472DE9F04116460D460746B14226D0AA
:104330001EB11146FFF76BFF01E0FFF76DFF04466A
:10434000A5421CD02946384600F01BF82A462146D3
:10435000384625F0BAFA22462946384625F0BBFAF7
:104360002A463146384625F0B6FA324629463846BE
:1043700025F0ABFA06B9BD60002C00D17D60BDE828
:10438000F08170B50A460446FFF736FF00239042DD
:104390000AD111462046FFF734FF6060011E01D0AC
:1043A000002224E0A36070BD2046FFF735FF904255
:1043B000114620460CD1FFF72AFFA060011E05D050
:1043C0002046BDE87040002225F07FBA636070BDD2
:1043D000FFF71DFF064611462046FFF712FF054670
:1043E00002463146204625F070FA324629462046DC
:1043F000BDE8704025F06FBA70B500200D49054644
:1044000001EBC002401CC0B295710228F8D30A4EDD
:10441000002400BF56F8340038B11FF0ABF906EBAA
:10442000C40046F8345085718580641CE4B2102CB9
:10443000F0D370BD6C0100102413012070B500286A
:104440001DD0012110280AD82F4B002203EBC204F3
:10445000A479E4070ED0521CD2B2022AF6D32B4C18
:104460004FF0FF33002200BF04EBC205AE79F60720
:1044700006D017E003EBC200817153F8320070BD23
:10448000AD8885420ED305D104EBC200817154F88A
:10449000320070BD002B04DB04EBC306B688B542C6
:1044A00000D253B2521CD2B2102ADDD3002B05DB4E
:1044B00004EBC300817154F8330070BD5FF0000558
:1044C00004EBC5029279D20709D06D1CEDB2102D14
:1044D000F6D3002213460EA01AF0C4FCFEE704EB4C
:1044E000C5029171908054F83520014610461FF0A6
:1044F000ADF944F835000028DFD1002213461048FA
:104500001AF0B0FCFEE700006C010010241301203B
:104510004E6F2066726565206275666665722E2034
:10452000496E637265617365204C565F4D454D5F02
:104530004255465F4D41585F4E554D2E00000000DC
:10454000B875040810B500210C4B0A4653F83140E9
:10455000844209D0491CC9B20229F7D3084B002173
:1045600053F83140844203D103EBC100827110BD86
:10457000491CC9B21029F3D310BD00006C01001012
:1045800024130120002803D00449884201D10020CF
:10459000704750F8040C4008704700006401001098
:1045A000064905484BF6FC724860016821F001019C
:1045B00062F35F0101607047FC3F00105C01001076
:1045C00030B500F0030401F003050346A54243D1D2
:1045D0004EE00C781C704C785C708C789C70CC78B9
:1045E000DC700C791C714C795C718C799C71CC7984
:1045F000DC710C7A1C724C7A5C728C7A9C72CC7A6C
:10460000DC720C7B1C734C7B5C738C7B9C73CC7B53
:10461000DC730C7C1C744C7C5C748C7C9C74CC7C3B
:10462000DC740C7D1C754C7D5C758C7D9C75CC7D23
:10463000DC750C7E1C764C7E5C768C7E9C76CC7E0B
:10464000DC760C7F1C774C7F5C778C7F9C77CC7FF3
:10465000DC772031203A2033202ABAD805E000BF89
:1046600011F8014B03F8014B521E002AF8D130BD5E
:104670004CB3C4F1040405E011F8015B521E03F8C9
:10468000015B641EFCB1002AF6D11CE010C9203A7F
:1046900010C310C910C351F8084B43F8084B51F828
:1046A000044C43F8044C51F8104B43F8104B51F8AC
:1046B0000C4C43F80C4C51F8084C43F8084C51F89A
:1046C000044C43F8044C202AE0D802E010C9121F21
:1046D00010C3042AFAD804E011F8014B03F8014B87
:1046E000521E002AF8D130BD10B5034605E000BFC8
:1046F00011F8014B03F8014B521E002AF8D110BDEE
:1047000010B5034605E000BF11F8014B03F8014B5B
:10471000521E002AF8D110BD10B5034605E000BFB7
:1047200011F8014B03F8014B521E002AF8D110BDBD
:1047300010B5034605E000BF11F8014B03F8014B2B
:10474000521E002AF8D110BD10F0030309D0C3F1A6
:10475000040303E0521E00F8011B5B1E0BB1002A8C
:10476000F8D101EB012303EB014303EB01630EE0FE
:1047700008C0203A08C040F8083B40F8043C40F824
:10478000103B40F80C3C40F8083C40F8043C202A20
:10479000EED801E008C0121F042AFBD803E000BFD6
:1047A00000F8011B521E002AFAD1704710F00303D3
:1047B0004FF0000219D0C3F1040303E0491E00F8D2
:1047C000012B5B1E8BB10029F8D1704704C0203942
:1047D00004C040F8082B40F8042C40F8102B40F897
:1047E0000C2C40F8082C40F8042C2029EED801E0CD
:1047F00004C0091F0429FBD803E000BF00F8012B07
:10480000491E0029FAD1704710F003024FF0FF0350
:104810000AD0C2F1040203E0491E00F8013B521E17
:1048200012B10029F8D170474FF0FF320EE004C0FA
:10483000203904C040F8082B40F8042C40F8102B15
:1048400040F80C2C40F8082C40F8042C2029EED815
:1048500001E004C0091F0429FBD802E000F8013B75
:10486000491E0029FAD1704770B50D46064600244E
:10487000214630461FF0AFFF38B18168641C65F3F4
:10488000CB21E4B28160402CF2D340242146304653
:104890001FF0A1FF002807D08168641C65F3CB21BD
:1048A000E4B28160FF2CF1D370BD00002DE9F04728
:1048B00086B014468A461646170A05464FF0000889
:1048C00023E0514628461FF086FF81465146284680
:1048D0001FF010FF06EB002084B202AA21464846D2
:1048E00000F094FB012807D0380610D5BAF1000F6C
:1048F00007D04FF0000A08E0BDF8080006B0BDE898
:10490000F08728461FF0B4FE0546002DD9D124F4C7
:10491000FE40292804D02A2802D0CDF8008002E0E9
:10492000024800680090BDF80000E7E7282E040860
:104930002DE9F8431546894617464FEA12280646E0
:10494000A5E0494630461FF046FF04468068010551
:1049500070D481066ED0400505D425F4FE42494648
:1049600030462DF039FF25F4FE40302859D024DCA4
:10497000112869D010DC052850D006DC01285DD054
:10498000022845D004286CD148E0062846D00728E4
:1049900044D0102865D157E0162858D006DC1228DC
:1049A00052D0132850D015285BD150E017284ED094
:1049B00018284CD0202854D14CE060284AD010DC74
:1049C000402838D006DC31282ED0322842D0332877
:1049D00047D12CE042283DD0502832D0542840D135
:1049E00038E048F28102811A904214D009DC722822
:1049F00030D091282ED000F5FF40B0F5803F30D167
:104A000009E0012929D0022924D01F2929D121E038
:104A10002089400423E0A068800020E02089000471
:104A20001DE0A06880021AE0A068400217E0A068BC
:104A3000000214E015E0A068C00110E02089C00465
:104A40000DE0A06840010AE0A068C00307E0A0688C
:104A5000800304E0A068400301E0A0684000002853
:104A600018DB494630461FF045FE07EB002085B2B3
:104A70006A462946204600F019FB012814D05FEA57
:104A8000086007D5B9F1000F12D04FF00009002ED1
:104A90007FF457AF25F4FE40222819D00CDC032800
:104AA00012D007280CD115E0BDF90000BDE8F8834D
:104AB00030461FF0DDFD42E7312803D0C02805D085
:104AC0000020F3E70F20F1E70220EFE70620EDE7F3
:104AD000FF20EBE74FF48070E8E72DE9F843144638
:104AE000894617464FEA122806463BE049463046BB
:104AF0001FF071FE0546806801051DD481061BD09C
:104B0000400505D424F4FE42494630462DF064FEAB
:104B100024F4FE402C2809D00C38B0F5004002D017
:104B2000A12809D12DE02889800403E0A868C102EA
:104B300024D40003002817DB494630461FF0DAFD75
:104B400007EB002084B26A462146284600F0FEFAB0
:104B5000012819D05FEA086006D5B9F1000F16D018
:104B60004FF00009002EC1D124F4FE402C2812D0B1
:104B70006D2810D0AD38B0F5004F0CD0FF20BDE847
:104B8000F883A868C000D5E79DF80000F7E7304635
:104B90001FF06EFDA8E70020F1E700002DE9F843C3
:104BA0001446894617464FEA122806463BE0494616
:104BB00030461FF010FE0546806801051DD48106B1
:104BC0001BD0400505D424F4FE42494630462DF062
:104BD00003FE24F4FE406E2809D07F2804D08E38CE
:104BE000B0F5004F09D105E0A868000103E0A8680E
:104BF000800100E0A868002817DB494630461FF016
:104C000079FD07EB002084B26A462146284600F071
:104C1000EDFA012816D05FEA086006D5B9F1000F59
:104C200012D04FF00009002EC1D124F4FE407E289E
:104C30000ED0BE280FD08E38B0F5004F08D000201F
:104C4000BDE8F8830098FBE730461FF011FDACE7A4
:104C500023F0CEFAF4E70148F2E700008463040889
:104C60002DE9F0411F4614460D4606461FF0B3FDE0
:104C70003A46214600F0DEFB002322462946304614
:104C80002DF026FC24F4FE4229463046BDE8F041D2
:104C900020F0E8BA2DE9F0411F4614460D460646BD
:104CA0001FF099FD3A46214600F0E4FB002322461E
:104CB000294630462DF00CFC24F4FE4229463046AD
:104CC000BDE8F04120F0CEBA0148406870470000CE
:104CD00028050020704730B504020020831803FB2C
:104CE00003F5A54200D818465208F7D1020900077B
:104CF0000A80000E488030BD2DE9F041884605004D
:104D000016464FF0FF3706D0286820B128460EF02F
:104D100025F8040002D53846BDE8F0812968A01CBA
:104D2000014402223046FFF7EBFC214628460EF0F4
:104D3000AAFA00EA182000F07F00EDE72DE9F04123
:104D40008846044616461AF075F868B14FF0FF37EA
:104D50003CB1206828B1414620460DF0FFFF050018
:104D600008D53846BDE8F0812246002309A01AF094
:104D700079F8FEE72168A81C014402223046FFF7BB
:104D8000BFFC294620460EF07EFA00EA182000F00B
:104D90007F00E7E7496E76616C6964207374796C13
:104DA0006500000070B505461AF044F820B1286887
:104DB000002812D0002408E02A46002307A01AF099
:104DC00051F8FEE70DF0BCFF0444214628460EF0E2
:104DD0005FFAFF28F6D1A41CA0B270BD496E7661BF
:104DE0006C6964207374796C650000002DE9F041F2
:104DF0008846044616461AF01DF868B14FF0FF3792
:104E00003CB1206828B1414620460DF0A7FF0500BF
:104E100008D53846BDE8F0812246002309A01AF0E3
:104E200021F8FEE72168A81C014401223046FFF763
:104E300067FC294620460EF026FA00EA182000F00A
:104E40007F00E7E7496E76616C6964207374796C62
:104E5000650000002DE9F0418846050016464FF038
:104E6000FF3706D0286820B128460DF077FF0400F0
:104E700002D53846BDE8F0812968A01C014404220F
:104E80003046FFF73DFC214628460EF0FCF900EACB
:104E9000182000F07F00EDE770B50E46054619F0CA
:104EA000D5FF18B3304619F0C5FF28B3002D48D000
:104EB0003146284600F002FAA868810622D0800612
:104EC000010E091D28681EF0C1FC044619F0AEFF52
:104ED000E0B1002C35D0A96800200A0600D50120D9
:104EE0004A0600D5401C01F03F011DE02A46002380
:104EF00014A019F0B7FFFEE73246002316A019F000
:104F0000B1FFFEE704201EF0E1FBDEE722460023AE
:104F100015A019F0A7FFFEE704EB810252F8042C5C
:104F200044F82120491EC9B28142F5D844F82060D6
:104F3000A8684FF0806101EBB0104FEAB0602C60C0
:104F4000A86070BD496E76616C6964207374796C79
:104F500065206C6973740000496E76616C69642029
:104F60007374796C650000004F7574206F66206D56
:104F7000656D6F727900000070B5044619F066FF28
:104F800038B1207A00060AD52046BDE8704000F00E
:104F900079B92246002314A019F064FFFEE7082027
:104FA0001EF094FB054619F041FFA8B1D5B1284683
:104FB00022F0A2F829462046FFF76EFFA06840F0D5
:104FC0008000A060400605D52068D0E9001202608C
:104FD00020684160284670BD2A46002307A019F0CA
:104FE00041FFFEE7002070BD496E76616C69642068
:104FF0007374796C65206C69737400004F7574204C
:105000006F66206D656D6F72790000002DE9F843C1
:1050100017468946054619F019FF002150B1BDB366
:105020002868002832D04C1E4FEA1928ADF800102D
:10503000002623E02A46002317A019F013FFFEE7FD
:10504000F1B2284622F008F96A464946FFF754FEB5
:10505000404503D1BDF80000388016E0A9680A0673
:1050600004D5002802DB0EB9C905F3D5A04203DD43
:105070000446BDF800003880761C36B2287A00F06D
:105080003F00B042DCDC002C03DB0120BDE8F883EC
:10509000FFE70020FAE70000496E76616C69642042
:1050A0007374796C65206C69737400002DE9F843A2
:1050B00017468946054619F0C9FE002150B1BDB317
:1050C0002868002832D04C1E4FEA1928ADF800108D
:1050D000002623E02A46002317A019F0C3FEFEE7AE
:1050E000F1B2284622F0B8F86A464946FFF726FE94
:1050F000404503D1BDF80000388016E0A9680A06D3
:1051000004D5002802DB0EB9C905F3D5A04203DDA2
:105110000446BDF800003880761C36B2287A00F0CC
:105120003F00B042DCDC002C03DB0120BDE8F8834B
:10513000FFE70020FAE70000496E76616C696420A1
:105140007374796C65206C69737400002DE9F84301
:1051500017468946054619F079FE002150B1BDB3C6
:105160002868002832D04C1E4FEA19288DF800100C
:10517000002623E02A46002317A019F073FEFEE75D
:10518000F1B2284622F068F86A464946FFF72EFE3B
:10519000404503D19DF80000387016E0A9680A0662
:1051A00004D5002802DB0EB9C905F3D5A04203DD02
:1051B00004469DF800003870761C36B2287A00F05C
:1051C0003F00B042DCDC002C03DB0120BDE8F883AB
:1051D000FFE70020FAE70000496E76616C69642001
:1051E0007374796C65206C69737400002DE9F84361
:1051F00017468946054619F029FE48B1A5B3286827
:1052000000282FD04FEA19284FF0FF34002621E064
:105210002A46002316A019F025FEFEE7F1B2284623
:1052200022F01AF86A464946FFF714FE404502D1BB
:105230000098386015E0A9680A0604D5002802DB4A
:105240000EB9C905F4D5A04202DD044600983860C5
:10525000761C36B2287A00F03F00B042DEDC002C2B
:1052600003DB0120BDE8F883FFE70020FAE7000038
:10527000496E76616C6964207374796C65206C6921
:105280007374000010B5024619F0E0FD20B1107AE9
:10529000000606D4002010BD002303A019F0E2FD93
:1052A000FEE71068006810BD496E76616C69642085
:1052B0007374796C65206C697374000070B50E4668
:1052C000044619F0C3FD002550B1304619F0B2FD77
:1052D00060B1A168880627D0002001F03F0121E0DD
:1052E0002246002327A019F0BDFDFEE73246002329
:1052F00029A019F0B7FDFEE7226852F82020B2423B
:105300000ED1012911D08800001F1EF0DFF90546DB
:1053100019F08CFD90B1002D06D0002001461EE052
:10532000401CC0B28142E7D870BD20681EF022FA4E
:105330002560A06820F07F00A06070BD2A46002391
:1053400019A019F08FFDFEE7226852F82020B24222
:1053500003D045F82120491CC9B2401CC0B2227AB2
:1053600002F03F028242EFD820681EF003FAA068E4
:105370004FF07C4101EBB0104FEAB0602560A060B7
:1053800070BD0000496E76616C6964207374796C3D
:1053900065206C6973740000496E76616C696420E5
:1053A0007374796C650000004F7574206F66206D12
:1053B000656D6F727900000070B5044619F046FD06
:1053C000002638B3002C24D0207A400609D5204688
:1053D00021F022FF050004D021F09CFF28461EF09A
:1053E000C9F9207A000609D52046FFF74BFF0500D2
:1053F00004D021F08FFF28461EF0BCF9207A8006E9
:1054000002D020681EF0B6F92660A0686FF308008D
:10541000A06070BD2246002301A019F023FDFEE725
:10542000496E76616C6964207374796C65206C696F
:105430007374000070B514460D46034619F006FD5E
:1054400040B118460CF0E4FC22462946BDE8704005
:1054500000F030B81A46002301A019F003FDFEE762
:10546000496E76616C6964207374796C65206C692F
:105470007374000070B514460D46034619F0E6FC3F
:1054800040B118460CF0C4FC22462946BDE87040E5
:1054900000F076B81A46002301A019F0E3FCFEE7FD
:1054A000496E76616C6964207374796C65206C69EF
:1054B0007374000037B582B0044619F0BBFCC0B16C
:1054C000BDF80C1020460DF049FC050017D401462C
:1054D00020460DF0D8FEBDF80C1000F07F00C1F39F
:1054E000062188420BD1AD1C20680222284404A961
:1054F0002CE0224600231AA019F0B4FCFEE7FF209E
:10550000ADF800002046FFF74DFC00B90220001D59
:1055100085B2294620462BF052FB206819F086FC04
:10552000C0B1002C14D020680222284403A9801F97
:10553000FFF7E6F820680222284404A9001FFFF7BD
:10554000DFF82068022228446946801EFFF7D8F859
:1055500005B030BD002306A0226819F083FCFEE7E9
:10556000496E76616C6964207374796C6500000023
:105570004F7574206F66206D656D6F727900000045
:1055800037B582B0044619F055FCC0B1BDF80C1017
:1055900020460DF0E3FB050017D4014620460DF030
:1055A00072FEBDF80C1000F07F00C1F306218842A6
:1055B0000BD1AD1C20680222284404A92CE022460D
:1055C00000231AA019F04EFCFEE7FF20ADF8000002
:1055D0002046FFF7E7FB00B90220001D85B22946EF
:1055E00020462BF0ECFA206819F020FCC0B1002C0A
:1055F00014D020680222284403A9801FFFF780F8F6
:1056000020680222284404A9001FFFF779F82068C7
:10561000022228446946801EFFF772F805B030BDAB
:10562000002306A0226819F01DFCFEE7496E766192
:105630006C6964207374796C650000004F75742088
:105640006F66206D656D6F727900000037B582B0AE
:10565000044619F0EFFBC0B1BDF80C1020460DF068
:105660007DFB050017D4014620460DF00CFEBDF869
:105670000C1000F07F00C1F3062188420BD1AD1C55
:1056800020680122284404A92CE0224600231AA005
:1056900019F0E8FBFEE7FF20ADF800002046FFF719
:1056A00081FB00B90220C01C85B2294620462BF0A0
:1056B00086FA206819F0BAFBC0B1002C14D020681B
:1056C0000222284403A9401FFFF71AF8206801228C
:1056D000284404A9C01EFFF713F8206802222844BA
:1056E0006946801EFFF70CF805B030BD002306A008
:1056F000226819F0B7FBFEE7496E76616C69642099
:105700007374796C650000004F7574206F66206DAE
:10571000656D6F727900000037B582B0044619F0EC
:1057200089FBC0B1BDF80C1020460DF017FB050039
:1057300017D4014620460DF0A6FDBDF80C1000F070
:105740007F00C1F3062188420BD1AD1C20680422E2
:10575000284404A92CE0224600231AA019F082FB59
:10576000FEE7FF20ADF800002046FFF71BFB00B965
:105770000220801D85B2294620462BF020FA2068A1
:1057800019F054FBC0B1002C14D020680222284428
:1057900003A90838FEF7B4FF20680422284404A9AE
:1057A000801FFEF7ADFF2068022228446946801E54
:1057B000FEF7A6FF05B030BD002306A0226819F051
:1057C00051FBFEE7496E76616C6964207374796CF5
:1057D000650000004F7574206F66206D656D6F72F7
:1057E0007900000010B518210448FEF71AFD04489E
:1057F000002101710121017010BD0000B8120120CB
:105800007C0100104FF4B47190FBF1F201FB120027
:10581000002802DA00F5B47000B20E495A2802DA04
:1058200031F910007047A0F15A025A2A03D2C0F190
:10583000B40000B2F4E7A0F1B4025A2A01D210B2C7
:1058400002E0C0F5B47000B231F81000404200B27E
:1058500070470000A06304082DE9F04788B01D469A
:10586000109E92468946040007D0B9F1000F04D07B
:1058700016F0120F10D0002004E0002008B0BDE8A0
:10588000F087401C215C0A2904D00D2902D0002990
:10589000F7D1F3E7401CF1E7B00701D547F618450B
:1058A0004FF000088DF81480204FCDF8108021E0D3
:1058B0000498CDF8188028B3002105AB06AACDE9DD
:1058C0000231CDE9006220442B465246494622F07F
:1058D00013FD0699691A0DB2B0B1049908440490F9
:1058E00021780A290BD00D2909D0205C0A2812D072
:1058F0000D2810D00498205C08B1002DD8DC049845
:1059000068B110E00121D8E7049860B97A6804A969
:1059100020469047F3E70498401C0490EFE77A682C
:1059200004A9204690470498A8E7000094010010BD
:105930002DE9FF4F83B004464FF00000DDF848A08A
:10594000DDF84090208093460F00608047D0BBF187
:10595000000F44D05FEA8A7002D547F618401190D4
:105960000025A846BBF8086023E07819CDE900A01F
:105970005946119B069AFFF76FFF8044B4F9020065
:1059800006EB09010144B1F5004F28D230444844E8
:105990006080A8EB0501CDF800A05A46069B01984F
:1059A00000F022F8B4F90010814200DB08462080A4
:1059B0004546785D0028D8D15DB1781910F8010C02
:1059C0000A2801D00D2804D1618806EB090008449B
:1059D0006080B4F9020028B1A0EB0900608007B034
:1059E000BDE8F08F6680FAE72DE9FC5F1E46DDF822
:1059F00030A091460D46070009D0B9F1000F06D03E
:105A00000020044600908DF804002DBB2BE0002000
:105A1000BDE8FC9FDFF8548069463846D8F804207A
:105A2000904783460098D8F80420384400219047D6
:105A300080465FEACA7004D0594601A800F018F801
:105A400050B94246594648461AF0D0FF00B20028E5
:105A500002DD2044304404B20098A842DAD3002C7E
:105A600001DDA01B04B22046D2E700009401001023
:105A700000230278232902D0012A0DD00FE02AB199
:105A80000021012A04D0022A04D008E0012101E00B
:105A9000017004E0017001E0202902D001231846C2
:105AA00070470221F6E700002DE9F0471E46144634
:105AB0000D468246DDF8209015E000BF4FEA5408FD
:105AC00008FB0657394650464A469047002808DDED
:105AD00044F30000C0EB540407EB0605A4F10104F5
