:020000040800F2
:10000000682401209D010008F5130008A3020008E0
:10001000F11300083B0B0008293200080000000023
:10002000000000000000000000000000552D000846
:100030007111000800000000EF010008452E0008C3
:10004000B7010008B7010008B7010008B7010008B0
:10005000B7010008B7010008B7010008B7010008A0
:10006000B7010008B7010008B7010008B701000890
:10007000B7010008B7010008B7010008B701000880
:10008000B7010008B7010008B7010008B701000870
:10009000B7010008B7010008B7010008B701000860
:1000A000B7010008B7010008B7010008B701000850
:1000B000B7010008B70100087D2F0008B70100084C
:1000C000B7010008B7010008B7010008B701000830
:1000D000B701000861300008B7010008B701000847
:1000E000B7010008B7010008B7010008B701000810
:1000F000B7010008B7010008B7010008B701000800
:10010000B7010008751C0008B7010008B701000816
:10011000B7010008B7010008B7010008B7010008DF
:10012000B7010008B7010008B7010008590E000820
:10013000B7010008B7010008B7010008B7010008BF
:10014000B7010008B7010008B7010008B7010008AF
:10015000B7010008B7010008610E0008B7010008E8
:10016000B7010008B7010008B7010008B70100088F
:10017000B7010008B7010008B7010008B70100087F
:10018000B7010008B7010008DFF80CD000F020FC30
:1001900000480047310B00086824012006488047CA
:1001A00006480047FEE7FEE7FEE7FEE7FEE7FEE75C
:1001B000FEE7FEE7FEE7FEE7152F000889010008CD
:1001C000EFF3108072B6704780F310887047434A8F
:1001D0001368012B04D04FF001031360404A1060F4
:1001E000404A116040484FF0805101607047EFF382
:1001F000108272B63948016851B34FF000010160B6
:100200003748016891B1EFF309811EF0100F08BF64
:1002100021ED108B21E9F00F4FF000041EF0100FBC
:1002200008BF012441F8044D006801602D490968A8
:10023000096808C9B1E8F00F002B18BFB1EC108BAA
:1002400081F309884EF0100E002B18BF2EF0100E0F
:1002500082F310884EF0040E704722490860EFF3D5
:10026000148222F0040282F314881D494FF000002A
:1002700008601A494FF0010008601C484FF47F01E4
:10028000D0F8002041EA0201016017484FF0805188
:10029000016017480068006880F3088861B662B69C
:1002A00070471EF0040F0CBFEFF30880EFF30980D6
:1002B00020E9F00F40F804ED40F804ED1EF0040FC3
:1002C0000CBF80F3088880F3098800B524F08CFD0A
:1002D0005DF804EB4EF0040E704700009000001033
:1002E000880000108C00001004ED00E020ED00E01C
:1002F00008ED00E02DE9F05F0546002092469B46A0
:1003000088460646814640241BE02846414647462B
:10031000224600F06FF953465A46C01A914110D355
:1003200011461846224600F056F92D1A67EB0108CF
:100330004F4622460120002100F04DF917EB00093D
:100340004E41201EA4F10104DFDC484631462A4616
:100350004346BDE8F09F40EA01039B0703D009E054
:1003600008C9121F08C0042AFAD203E011F8013BA1
:1003700000F8013B521EF9D27047D2B201E000F8FA
:10038000012B491EFBD270470022F6E710B5134639
:100390000A4604461946FFF7F0FF204610BD421EEC
:1003A00012F8013F002BFBD111F8013B02F8013B91
:1003B000002BF9D1704710B5044604E00B7800F823
:1003C000013B03B1491C521EF8D2204610BD421C0D
:1003D00010F8011B0029FBD1801A704710B50022CC
:1003E00000E0521C835C8C5CA34201D1002BF8D14D
:1003F000D8B2E1B2401A10BD30B504460020034621
:1004000000E05B1C934203D2E05CCD5C401BF8D063
:1004100030BD034611F8012B00F8012B002AF9D159
:100420001846704730B505460020034600E05B1CC7
:10043000934205D2EC5CC85C201A01D1002CF6D1A5
:1004400030BD70B5064602F02DFF046805460A224D
:100450000021304600F0DEF82C6070BD2DE9F04D33
:1004600081EA030404F0004B21F0004514464FF0EC
:10047000000A23F0004150EA050220D054EA0102AC
:100480001DD0C5F30A570246C5F31303C1F3130089
:10049000C1F30A5640F4801543F48013A7EB060815
:1004A000101BD64608F2FD3873EB050002D308F1A5
:1004B000010801E092185B41B8F1000F03DA002057
:1004C0000146BDE8F08D00204FF4801106468446B9
:1004D0000EE0171B73EB050705D3121B63EB050337
:1004E00006434CEA010C49084FEA300092185B4180
:1004F00050EA0107EDD152EA030012D082EA04006B
:1005000083EA0501084305D0101BAB4106D2012246
:10051000002306E000224FF0004302E06FF00102EA
:1005200053101AEB06004CEB085110EB0A0041EB9C
:100530000B01BDE8F04D00F0A5B80EB540F2334117
:1005400002910021CDE900110A460B4600F0A9F8FE
:1005500003B000BD0EB540F2334202920022CDE955
:100560000022134600F09DF803B000BD70B5C1F342
:100570000A5201F000450024C1F3130140F2FF3399
:1005800041F480119A4201DA002070BD40F23343F9
:100590009A42A2F2334203DC524200F02BF800E010
:1005A00090402C43F1D0404270BD30B50B4601461F
:1005B00000202022012409E021FA02F59D4205D302
:1005C00003FA02F5491B04FA02F52844151EA2F1AC
:1005D0000102F1DC30BD202A04DB203A00FA02F1EE
:1005E000002070479140C2F1200320FA03F3194321
:1005F00090407047202A04DB203A21FA02F00021C3
:10060000704721FA02F3D040C2F120029140084322
:10061000194670472DE9F04791460F46804604463B
:10062000002614F8015B2DB100F0F6F90068405D7A
:10063000C007F6D12B2D02D02D2D18D0641E4A46AE
:100640003946204600F0ECF927B13968A14201D1C2
:10065000C7F8008071054FF002040BD54042002816
:1006600003DD02F01FFE0460A007BDE8F08746F43A
:100670008066E4E70028F8DA02F014FE04606FF008
:100680000040F2E710B5141E73F1000408DA401CB4
:1006900041F1000192185B411A4301D120F00100A1
:1006A00010BD2DE9F04D92469B4611B1B1FA81F291
:1006B00002E0B0FA80F220329046FFF78CFF044649
:1006C0000F4640EA0A0041EA0B0153465A460843E6
:1006D00013D0114653EA010019D0C8F14002504628
:1006E000FFF788FF05460E46504659464246FFF73B
:1006F00072FF084305D0012004E020463946BDE8DA
:10070000F08D0020054346EAE0762C4337430A98F3
:100710006305E40AA0EB08000022FD0A44EA4754FE
:100720000A3002D500200146E9E7010510196941A8
:10073000DDE9084500196941BDE8F04DA2E72DE962
:10074000FE4F804681EA0300C00F0C46009021F066
:10075000004123F00045B8EB0200A94105D2404614
:10076000214690461C460B46024623F000401043AB
:1007700047D0270DC7F30A00C3F30A510290401A6D
:10078000019040286BDAC3F3130040F4801B0098FB
:10079000924620B10023D2EB030A63EB0B0B0198C6
:1007A0005946C0F140025046FFF715FF06460D4678
:1007B00050465946019A00F01DF910EB08006141BE
:1007C000002487EA115284EAE7731A4340D0009A62
:1007D00062B3019A012A4FEA075215DC001B61EB54
:1007E00002014FF0004202EA0752CDE90042001C2C
:1007F00041F5801132462B46FFF753FF03B0BDE8A9
:10080000F08F40462146F9E7001B61EB0201001C16
:1008100041F5801300185B412018A2F5001747EB43
:10082000030140EAD570B6196D4111E06D084FEA39
:10083000360645EAC0754FEA0752001B61EB02011C
:10084000001C41F5801149084FEA30000019514160
:1008500032462B4603B0BDE8F04FFFF713BF0098B8
:10086000012240000023D0EB020263EBE07300980A
:1008700021464FEAE074B8EB000061EB0401E9E7C0
:1008800083F000435BE781F0004158E72DE9FE4F1C
:1008900081EA030404F0004421F0004100944FF089
:1008A000000B23F0004350EA01045ED052EA030437
:1008B0005BD0C3F30A54C1F30A552C44A4F2F334B9
:1008C0000194A0FB0254C1F3130141F48011C3F35E
:1008D000130343F4801301FB024400FB034E840A1C
:1008E000970A44EA815447EA8357A4FB07680295B4
:1008F0008D0A05FB07854FEA932C04FB0C54270552
:10090000029D4FEA065847EA1637B5EB08056EEB2D
:10091000070C870E920E47EA811742EA8312A7FB63
:100920000201B6EB0B0164EB00042B0D43EA0C3320
:100930005E1844EB1C50DA465146E7FB0201C5F352
:1009400013044FEA0B3343EA14534FEA0432019C79
:1009500043EA0603A4F10C040294009CCDE900B420
:10096000FFF79FFE03B0BDE8F08F00200146F9E7D6
:10097000C1F30A52C1F3130140F2FF3341F4801175
:100980009A4202DA00200146704740F233439A420D
:10099000A2F2334202DC5242FFF72CBEFFF71BBE2D
:1009A00030B5041E71F1000404DB4FF000444042F6
:1009B00064EB0101141E73F1000405DB1C464FF0CB
:1009C0000043524263EB0403994208BF904230BD9A
:1009D000064C074D06E0E06840F0010394E807008C
:1009E00098471034AC42F6D3FFF7D2FB40D6030849
:1009F00080D60308202A06DBCB17203A41FA02F002
:100A000043EAE07306E041FA02F3D040C2F120026B
:100A1000914008431946704700487047D8CD0308F5
:100A20002DE9F05F82460078002715468B460AF1D3
:100A30000104B946302801D09DB113E014F8010B30
:100A40000127782803D0582801D045B10AE00DB11C
:100A5000102D07D10027102514F8010B02E00825FE
:100A600000E00A250026B0460EE005FB080005FB65
:100A700006F1012701EB10461FFA80F8B6F5803F1A
:100A800000D3B94614F8010B294600F018F80028E5
:100A9000EBDABBF1000F05D00FB1641E00E0544645
:100AA000CBF80040B9F1000F06D002F0FBFB0221A9
:100AB0000160C81EBDE8F09F48EA0640FAE73A2800
:100AC00000D2303820F02002412A01D3A2F13700B1
:100AD000884201D34FF0FF30704770B58C1810F882
:100AE000015B15F0070301D110F8013B2A1106D173
:100AF00010F8012B03E010F8016B01F8016B5B1E8D
:100B0000F9D12B0705D40023521E0DD401F8013B67
:100B1000FAE710F8013BCB1A921C03E013F8015BD3
:100B200001F8015B521EF9D5A142D8D3002070BD57
:100B300010B526F043FC002010BD00BFFEE700000A
:100B400010B500214FF0804002F02BFA4FF08040AA
:100B5000446A002001490870204610BD6100002051
:100B600010B50848007808B928F0B4FD00204FF00F
:100B7000804148620121880702F013FA01200249EE
:100B8000087010BD600000206100002070B50025D5
:100B90004FF4803400E0641E24B1802001F03EF860
:100BA0000028F8D014B90325284670BD40F2FF5044
:100BB00000F0F0FF2846F8E72DE9F041064600274F
:100BC0004848056801E04748056805F045000028E9
:100BD000F9D005F0040030B10327042000F0DAFF5B
:100BE0003846BDE8F08105F0010028B10127012059
:100BF00000F0D0FF3846F4E701F00AF8B04202D026
:100C000010273846EDE740F2FF5000F0C3FF002008
:100C100001F024F804463448204008B93846E0E79B
:100C200004F0004008B11C20DBE704F0804008B16C
:100C30000920D6E704F0005008B10A20D1E704F0FB
:100C4000805008B10B20CCE704F0006008B10C2004
:100C5000C7E704F0806008B10D20C2E704F080709F
:100C600008B10E20BDE704F4000008B10F20B8E77A
:100C700004F4800008B11020B3E704F4001008B1B8
:100C80001120AEE704F4801008B11220A9E704F4A3
:100C9000002008B11320A4E704F4802008B1142038
:100CA0009FE704F4003008B115209AE704F480307F
:100CB00008B1162095E704F4004008B1172090E72A
:100CC00004F4804008B118208BE704F4005008B108
:100CD000192086E704F0080008B11A2081E7384699
:100CE0007FE70000342C014008E0FFFD70B50025CF
:100CF0001048046801E00F48046804F0450000282B
:100D0000F9D004F0040028B10325042000F042FFCC
:100D1000284670BD04F0010028B10125012000F033
:100D200039FF2846F5E740F2FF5000F033FF284630
:100D3000EFE70000342C014070B500250B48046833
:100D400001E00A48046804F045000028F9D004F0E6
:100D5000040028B10325042000F01CFF284670BDC4
:100D600040F2FF5000F016FF2846F8E7342C01400F
:100D70002DE9F04106460F464FF00008224805686D
:100D800001E02148056805F045000028F9D005F08C
:100D9000040038B14FF00308042000F0FBFE404689
:100DA000BDE8F08105F0010030B14FF001080120ED
:100DB00000F0F0FE4046F3E700F02AFFB04203D017
:100DC0004FF010084046EBE740F2FF5000F0E2FE23
:100DD000002000F043FF044604F4604018B9200CE2
:100DE00038804046DCE704F4005008B11320D7E710
:100DF00004F4804008B11020D2E704F4004008B1A8
:100E00000F20CDE74046CBE7342C014070B50026DB
:100E10004FF480350F48046802E06D1E0D480468E9
:100E200004F0450008B9002DF7D115B104F0040015
:100E300028B10326042000F0ADFE304670BD04F05A
:100E4000400028B10026402000F0A4FE3046F5E71F
:100E50003046F3E7342C014010B501F0DFFC10BD43
:100E600010B50749074800F007F938B104490548AB
:100E700000F024F80021034800F03AF810BD00000B
:100E800000800028B86402400246094B9A4201D211
:100E9000084801E00648103801F000531BB1064B2A
:100EA0000B40C36002E0044B0B40836070470000BE
:100EB00010640240006002407D0F7D0F0246094B26
:100EC0009A4201D2084801E00648103801F0005368
:100ED0001BB1064B0B40C36002E0044B0B40836028
:100EE0007047000010640240006002407D0F7D0FDB
:100EF00021B1026842F00102026003E0026822F0C0
:100F00000102026070470000016821F001010160E8
:100F10000021016041608160C16001612121416166
:100F20004A49884204D13D21484A103A91608CE0F8
:100F300046491831884205D14FF47461434A103A4A
:100F4000916082E041493031884205D14FF47411FB
:100F50003E4A103A916078E03C494831884205D1D8
:100F60004FF07461394A103A91606EE03749603150
:100F7000884204D13649354A103AD16065E0334998
:100F80007831884204D13349304A103AD1605CE06C
:100F90002E499031884204D12F492C4A103AD16011
:100FA00053E02A49A831884205D14FF03D51274AE4
:100FB000103AD16049E02949884204D13D21274AAD
:100FC000083A116041E025491831884205D14FF4B3
:100FD0007461224A083A116037E020493031884272
:100FE00005D14FF474111D4A083A11602DE01B49D8
:100FF0004831884205D14FF07461184A083A1160AF
:1010000023E016496031884204D11149134A121F66
:1010100011601AE011497831884204D10D490F4A14
:10102000121F116011E00D499031884204D10A4924
:101030000A4A121F116008E00849A831884204D109
:101040004FF03D51054A121F116070471060024079
:101050003D000020400F002000003D2010640240B1
:1010600021B1026842F02002026003E0026822F02F
:10107000200202607047000070B502460020002484
:101080000025124EB24201D2114B01E00F4B103B32
:10109000104E0E4036B11E2606EAD124166806EA26
:1010A000040502E0566906F0800501F000560EB115
:1010B0005C6800E01C68084E344004EA010616B182
:1010C0000DB1012000E0002070BD0000106402405E
:1010D000006002403C0F3C0F7D0F7D0F10B501F00A
:1010E00080034BB122B1436943F08003436103E0C5
:1010F000436923F08003436180290BD02AB1036840
:1011000001F01E042343036004E0036801F01E04A1
:10111000A343036010BD000010B500220268134B0A
:101120001A40CC680B6823434C6923438C692343E2
:10113000CC6923430C6A23434C6A23438C6A2343C0
:101140004C6B23438C6B23431A430260426922F0A9
:101150000702D1E90B3423431A4342610B69436010
:101160004B6883608B68C36010BD00003F801CF03B
:10117000704700002DE9FC4107460D46002600247B
:1011800000200090019008205B4908601020486012
:10119000402088600020C8604FF4806008610846E5
:1011A00000F09AFD1020FFF707FD044614B1204619
:1011B000BDE8FC815148008800044F490860372091
:1011C0004860402088600020C8604FF4806008615B
:1011D000084600F081FD3720FFF7EEFC04460CB115
:1011E0002046E5E74FF0FF30454908600820486099
:1011F000302088600220C86000200861012048611A
:10120000084600F0DFFC00203B49086033204860BE
:10121000402088600020C8604FF480600861084664
:1012200000F05AFD3320FFF7C7FC04460CB12046FE
:10123000BEE709E04FF4001000F0F0FC20B100F030
:1012400045FD4DF82600761C2E48006840F22A61C4
:1012500008400028EED0082000F0E0FC28B108206B
:1012600000F098FC04242046A2E7022000F0D6FCFF
:1012700028B1022000F08EFC0224204698E72020AE
:1012800000F0CCFC28B1202000F084FC062420468D
:101290008EE74FF4007000F0C1FC30B14FF40070E5
:1012A00000F078FC0724204682E740F2FF5000F06F
:1012B00071FC00980006009901F47F4140EA01208A
:1012C000009901F47F0140EA1120009940EA116081
:1012D000686001980006019901F47F4140EA01200D
:1012E000019901F47F0140EA1120019940EA11605F
:1012F000286020465CE70000D00200201800002093
:10130000E4020020342C0140F0B50A4600210023FD
:10131000002400BF3DE0012505FA01F3156805EA48
:1013200003049C4234D105684F000326BE40B543F8
:10133000056015794E00B54006683543056015799E
:10134000012D02D01579022D16D185684F00032694
:10135000BE40B543856055794E00B540866835433B
:101360008560456801268E40B5434560456896799D
:101370008E40B6B235434560C5684F000326BE4077
:10138000B543C560D5794E00B540C6683543C560E4
:10139000491C1029BFD3F0BDF0B5002300244D0730
:1013A000ED0E02FA05F3CE1000F1200555F8265097
:1013B0004E07F70E0F26BE40B543CF1000F12006B2
:1013C00046F82750CE1000F1200555F8265045EA82
:1013D0000304CE1000F1200545F82640F0BD02467A
:1013E000002013690B400BB1012000E00020704782
:1013F00000BFFEE77047000070B5002100230F22F8
:10140000C4781CB3174C246804F4E064C4F5E064A9
:10141000C4F30721C1F10404E3B20A4144789C40BB
:10142000E1B28478144021430C07210E0E4C05785C
:101430006155047804F01F050124AC4005786D1156
:10144000AD0005F1E025C5F8004109E0047804F09D
:101450001F050124AC40054D0678761145F826405D
:1014600070BD00000CED00E000E400E080E100E071
:1014700002490143024A1160704700000000FA056A
:101480000CED00E0014908627047000000000E42C8
:1014900029B1064A12680243044B1A6004E0034A69
:1014A00012688243014B1A607047000030380240D6
:1014B00029B1064A12680243044B1A6004E0034A49
:1014C00012688243014B1A607047000040380240A6
:1014D00029B1064A12680243044B1A6004E0034A29
:1014E00012688243014B1A60704700004438024082
:1014F00029B1064A12680243044B1A6004E0034A09
:1015000012688243014B1A60704700002438024081
:10151000F0B5002100220024022500260223324FCC
:101520003F6807F00C0121B1042905D0082937D103
:1015300005E02E4F076036E02D4F076033E02A4F5D
:101540003F1F3F68C7F38056274F3F1F3F6807F094
:101550003F036EB1264FB7FBF3F7DFF88CC0ACF159
:10156000040CDCF800C0CCF3881C07FB0CF40CE086
:101570001E4FB7FBF3F7DFF870C0ACF1040CDCF8DA
:1015800000C0CCF3881C07FB0CF4174F3F1F3F68CB
:10159000C7F301477F1C7D00B4FBF5F7076002E04D
:1015A000124F076000BF00BF0F4F3F6807F0F00108
:1015B0000909104F7A5C0768D74047600A4F3F68B7
:1015C00007F4E051890A0B4F7A5C4768D74087607F
:1015D000054F3F6807F46041490B064F7A5C476846
:1015E000D740C760F0BD0000083802400024F40076
:1015F00040787D010000001010B501460022002354
:1016000000204A11012A02D10A4C236808E0022A6C
:1016100003D1084C7034236802E0064C743423680C
:1016200001F01F02012494401C400CB1012000E095
:10163000002010BD003802400021094A11701170CD
:10164000012802D0042808D103E00121044A1170C6
:1016500004E00521024A117000E000BF00BF70479E
:101660007038024001490860704700003C0E474254
:10167000002100F44072B2F5407F08D1094A116898
:1016800021F4F811084A02401143064A1160054A44
:1016900068321268C0F30B031A43024B68331A60B6
:1016A0007047000008380240FFFCFF0F014600BFF2
:1016B000080900EB8000420001F00F001044C0B2A6
:1016C00070470146002204E0501CC2B2A1F10A009A
:1016D000C1B20A29F8DA100741EA10607047000029
:1016E00008B50022009200200021104A126802F082
:1016F0004002CAB9421E0D4B1A6000BF0B4A126865
:1017000002F04001009A521C0092009AB2F5803F0C
:1017100001D00029F2D0054A126802F040020AB155
:10172000012002E0002000E0012008BD0C2800405C
:101730000348006820F080000149086070470000FD
:101740000C28004070B506460C4600250E4800687F
:101750000E4900EA0105280CE070C5F30420607012
:1017600005F03F00A070C5F3423020705EB9E0780C
:10177000FFF79CFFE0706078FFF798FF6070A0783B
:10178000FFF794FFA07070BD042800403FFFFF00EA
:1017900070B506460C4600250F4800680F4900EA60
:1017A0000105C5F305402070C5F30620607005F003
:1017B0007F00A07005F48000000CE0705EB9207816
:1017C000FFF774FF20706078FFF770FF6070A078FB
:1017D000FFF76CFFA07070BD002800407F7F7F0086
:1017E00030B504460025CA2015490860532008601A
:1017F000FFF776FF00B91DE011481C38006820F0A3
:1018000040000F491C3908600846006821680843F9
:101810000B491C3908600A491439A0680860084659
:101820000068A18840EA0140054914390860FFF7C3
:101830007FFF0125FF2002490860284630BD0000D7
:101840002428004008B5014600200090044800907C
:10185000009800EB810000900098006808BD00002F
:10186000502800402DE9F04105460C46002600278F
:101870004DB9607800F01000102804D1607820F095
:1018800010000A30607005B908E06078FFF70EFFBD
:101890000646A078FFF70AFF064600BF55B1E0787C
:1018A0000004617840EA0120A1780843217840EAE9
:1018B000413611E0E078FFF704FF4FEA0048607816
:1018C000FFF7FFFE48EA0028A078FFF7FAFE48EA93
:1018D0000008207848EA4036CA20124908605320A0
:1018E0000860FFF7FDFE08B9002714E00E483040FD
:1018F0000C4920390860FFF71BFF0A481C380068B4
:1019000000F0200030B900F079F808B9002702E0B3
:10191000012700E00127FF20024908603846BDE8A2
:10192000F0810000242800403FFFFF002DE9F04136
:1019300005460C46002600274DB92E48006800F0E9
:10194000400000B102E00020E07000BF0DE0294837
:10195000006800F0400020B12078FFF7A7FE06469F
:1019600002E00020E07000BF00BF55B12078000405
:10197000617840EA0120A1780843E17840EA014615
:1019800011E02078FFF79DFE4FEA00486078FFF7EE
:1019900098FE48EA0028A078FFF793FE48EA00087E
:1019A000E07848EA0046CA2012491C3108605320FA
:1019B0000860FFF795FE08B9002713E00E48304095
:1019C0000C4908390860FFF7B3FE0A48006800F0C8
:1019D000200030B900F012F808B9002702E0012712
:1019E00000E00127FF2003491C3108603846BDE8AC
:1019F000F0810000082800407F7F7F0008B50022AA
:101A0000009200200021CA22134B1A6053221A6050
:101A1000114A183A126822F0A0020F4B183B1A60C4
:101A200000BF0D4A183A126802F02001009A521CB9
:101A30000092009AB2F5003F01D00029F1D0064A89
:101A4000183A126802F020020AB1012000E00020DA
:101A5000FF22014B1A6008BD2428004008B500226F
:101A60000092044A0092009A02EB80020092009ACF
:101A7000116008BD502800407CB5054600240020B8
:101A80000090019000F0EAF800F0007010B10E2410
:101A900020467CBD3D49098888B26946FFF76AFB4C
:101AA00004460CB12046F4E7012D36D1019800F42C
:101AB000802000282ED03548008800043449086072
:101AC00037204860402088600020C860A802086174
:101AD000084600F001F93720FFF76EF804460CB114
:101AE0002046D6E702202A490860062048604020A8
:101AF00088600020C8604FF480600861084600F0EC
:101B0000EBF80620FFF758F804460CB12046C0E772
:101B10002046BEE725242046BBE7019800F480302C
:101B200078B31A48008800041949086037204860D3
:101B3000402088600020C8604FF48060086108463B
:101B400000F0CAF83720FFF737F804460CB12046FA
:101B50009FE700200E49086006204860402088600A
:101B60000020C8604FF480600861084600F0B4F8B7
:101B70000620FFF721F804460CB1204689E72046ED
:101B800087E7FFE72524204683E7000018000020B0
:101B9000D00200200149086070470000382C014045
:101BA0000149086070470000382C01400149086075
:101BB00070470000A080254201490860704700007E
:101BC0008C85254200210B4B02681A601B1D426860
:101BD0001A601A1D116821F0F701D0E902231A4397
:101BE00003691A4343691A431143024A08321160D8
:101BF00070470000242C014010B50121C802FFF7F6
:101C000077FC00214FF40060FFF772FC10BD00006C
:101C100001480068C0B27047102C01400146002006
:101C2000034A12680A400AB1012000E00020704710
:101C3000342C014001460020034A12680A400AB1D0
:101C4000012000E000207047342C01400248006869
:101C500000F0030070470000002C014008B5014669
:101C6000002000900248084400900098006808BDD9
:101C7000142C014010B500F0E5FD10BD29B1064A55
:101C800012680243044B1A6004E0034A126882435C
:101C9000014B1A60704700003C2C014000210A4AA9
:101CA000116847F6FF629143027D83681A434368D7
:101CB0001A43C3681A4303681A4303691A4311435A
:101CC000014A116070470000042C0140014800687F
:101CD00070470000802C01400021094B02681A6007
:101CE0001A1D11686FF30A01D0E901231A43C36872
:101CF0001A4303691A431143014A121D11607047C8
:101D0000082C01400149086070470000002C014088
:101D100008B50120009010210448FFF760FB08B1CE
:101D2000002000909DF8000008BD00000000024067
:101D300070B50446002520480068032802D12725F5
:101D4000284670BD1C48006838B11B48006801284F
:101D500003D01948006802282CD1B4F5805F02D165
:101D600027252846EDE7B4F5006F13D10120FFF7D2
:101D700083FE0546F5B900201049087508604860E3
:101D800088604FF40060C860002008610846FFF7D3
:101D900085FF0FE00020FFF76FFE054655B90020D4
:101DA00006490875086048608860C8600861084690
:101DB000FFF774FF2846C4E714000020B802002093
:101DC000F0B5014600200022C04B1B7881F8563048
:101DD000BF4B1B88A1F85430BE4B1B681A0E9309E9
:101DE0000B70C2F383034B7002F003038B70B94B8B
:101DF0001B68C3F30742CA70B64B1B88C3F30722A4
:101E00000A71B44B1A784A715B681A0E1301CB80C1
:101E1000B04B5B68C3F30742CB8843EA1213CB8015
:101E200002F00F030B72AB4B9B88C3F30722D3095D
:101E30004B72C2F380138B72C2F34013CB72C2F3A6
:101E400000130B7300234B73A04B1B681BB19F4BFC
:101E50001B68012B4FD193071B0D0B619D4B1A790A
:101E60000B6943EA82030B619A4B9B681A0E0B695C
:101E700043EA92130B61C2F3C2030B7502F007032E
:101E80004B75944B9B68C3F3074253098B75C2F3A0
:101E90008203CB7593075B0F0B768E4B1B89C3F3C5
:101EA00007220B7E43EAD2130B760B695B1C0024DE
:101EB000C1E912340B7ED1E912469B1C012505FABB
:101EC00003F3DF17A4FB035C06FB03C304FB073328
:101ED000C1E912530C7A0123A3400B650027D1E915
:101EE00012560B6DA5FB034C06FB03C305FB073322
:101EF000C1E9124336E0754B1B68022B32D1754B9A
:101F00001A7993069B0A0B61724B9B681A0E0B6938
:101F100043EA02230B616F4B9B68C3F307420B69D3
:101F200013430B616B4B1B89C3F307220B6900241E
:101F30005B1C44EB04074FF400760025A3FB064C22
:101F400007FB06C603FB05664FF480650027A4FB6C
:101F5000053C06FB05C504FB0754C1E912344FF4E8
:101F600000730B65C2F3801301F8193F93065B0EF3
:101F70004B70584B1A7A4B7843EAD2134B7002F0ED
:101F80007F038B70534BDB681A0ED309CB70C2F3FF
:101F900041130B71C2F382034B7193071B0F8B71BB
:101FA0004C4BDB68C3F307428B7943EA92138B7186
:101FB000C2F34013CB7100230B7202F001034B728A
:101FC000444B9B89C3F30722D3098B72C2F380135E
:101FD000CB72C2F340130B73C2F300134B73C2F303
:101FE00081038B7302F00303CB733A4B1A7B5308C4
:101FF0000B7401234B74384B1B681A0ECA741939C1
:10200000354B1B68C3F307421402CC85324B1B8847
:10201000C3F30722CB8D1343CB852F4B1A781406BD
:102020000C635B681A0E0B6B43EA02440C632A4B89
:102030005B68C3F307420B6B43EA02240C63264B35
:102040009B88C3F307220B6B13430B63224B1A7954
:1020500034235A54204B9B681A0E35235A541E4B76
:102060009B68C3F3074214068C631B4B1B89C3F3A5
:1020700007228B6B43EA02448C63174B1A7A8B6BF3
:1020800043EA02248C63144BDB681A0E8B6B1343F8
:102090008B63114BDB68C3F307423C235B5C43EA71
:1020A00012143C235C5413071C0DCC870A4B9B89EC
:1020B000C3F30722CB8F1343CB87074B1A7B5408FC
:1020C00040235C54012441235C54F0BD14000020E3
:1020D00018000020300200204002002008B5002037
:1020E0000090FFF715FE012809D1684600F098FC22
:1020F00008B1FF2008BD0098C0F34320FAE7FF2095
:10210000F8E710B50424FFF7E9FF0446042C01D1D9
:10211000002010BDFF2C01D10220FAE70120F8E7D2
:10212000F0B593B0002500201190129000274021B7
:1021300001A8FEF729F9002401AE00205F490870CC
:102140005F4908605F4908605F4908605F49098826
:1021500088B211A9FFF70EF8054615B1284613B04D
:10216000F0BD129800F0807018B9129800F000705D
:1021700008B1012000E000200746002F72D0402067
:102180005349086010204860402088600020C860E3
:102190004FF4806008610846FFF79EFD1020FEF7AF
:1021A0000BFD05460DB12846D9E74FF0FF304949F0
:1021B000086040204860602088600220C8600020DD
:1021C0000861012048610846FFF7FCFC424840498D
:1021D000086006204860402088600020C8604FF4F6
:1021E000806008610846FFF777FD0620FEF7E4FCF3
:1021F00005460DB12846B2E70EE04FF40040FFF768
:102200000DFD48B1002404E0FFF760FD46F824000E
:10221000641C082CF8D320362B480830006840F2A4
:102220002A6108400028E8D00820FFF7F7FC28B111
:102230000820FFF7AFFC0425284690E70220FFF7AF
:10224000EDFC28B10220FFF7A5FC0225284686E711
:102250002020FFF7E3FC30B12020FFF79BFC062590
:1022600028467CE727E04FF40070FFF7D7FC30B139
:102270004FF40070FFF78EFC072528466FE74FF0FC
:10228000FF3404E0FFF722FD3060361D641E4FF47A
:102290000010FFF7C3FC08B1002CF3D140F2FF504F
:1022A000FFF778FC9DF8110000F00200022801D130
:1022B000002500E02725284651E7000020000020E7
:1022C000240000201C0000202C2C014018000020BD
:1022D000D0020020E402002001FFFF8008B50020AA
:1022E000009000F06BF9FFF787FC00F0C7F9009051
:1022F0009DF8000010B19DF8000008BD00F032F814
:1023000000909DF8000010B19DF80000F5E7002056
:1023100012490875086048608860C860086108460E
:10232000FFF7BCFC0E48FFF74BFD00909DF8000046
:1023300040B90B48B0F8540002041046002100F0E8
:1023400053FB00909DF8000020B94FF40060FFF7A8
:10235000EFFC00909DF80000CFE70000B8020020DD
:102360006002002038B5002401200090FFF76EFCC9
:1023700010B92524204638BD44480068042828D0D8
:1023800000204349086002204860C0208860002087
:10239000C8604FF4806008610846FFF79DFCFEF7B7
:1023A000A5FC04460CB12046E5E70020FFF756FCEB
:1023B000384908600420FFF751FC3649486008207E
:1023C000FFF74CFC334988600C20FFF747FC31498C
:1023D000C8602E48006858B12C480068012807D012
:1023E0002A480068062803D028480068022816D129
:1023F00000202749086003204860402088600020B2
:10240000C8604FF4806008610846FFF765FC6946C4
:102410000320FEF7ADFC04460CB12046ABE71B4899
:10242000006804282ED0BDF800001B490860BDF8E4
:10243000000000041649086009204860C020886038
:102440000020C8604FF4806008610846FFF744FC34
:10245000FEF74CFC04460CB120468CE70020FFF749
:10246000FDFB0E4908600420FFF7F8FB0B494860AC
:102470000820FFF7F3FB094988600C20FFF7EEFB0B
:102480000649C8600024204675E7000014000020BB
:10249000D00200204002002018000020300200205E
:1024A00030B58FB005460C464FF0FA511D48FEF787
:1024B000EBFC00211B48FEF71BFD1A48FEF724FD2C
:1024C0004FF00060009018480190029500200390A2
:1024D000049405904FF4806006908000079080007F
:1024E0000890002009904FF440300A9004200B908F
:1024F00003200C904FF400000D9080100E90694660
:102500000848FEF709FE012210210648FEF7E6FD05
:1025100020210448FEF7A4FD01210248FEF7E8FC53
:102520000FB030BD58640240802C014030B58FB0F0
:1025300005460C464FF0FA511E48FEF7A5FC002157
:102540001C48FEF7D5FC1B48FEF7DEFC4FF0006090
:1025500000901948019002954020039004940020B7
:1025600005904FF4806006908000079080000890EE
:10257000002009904FF440300A9004200B90032073
:102580000C904FF400000D9080100E9069460948A1
:10259000FEF7C2FD012210210648FEF79FFD202113
:1025A0000448FEF75DFD01210248FEF7A1FC0FB0D3
:1025B00030BD000058640240802C01401CB5012150
:1025C0000D20FEF765FF0C2208212948FEF7E4FEE6
:1025D0000C2209212648FEF7DFFE0C220A2124489E
:1025E000FEF7DAFE0C220B212148FEF7D5FE0C2265
:1025F00011461F48FEF7D0FE0C2202211D48FEF7AF
:10260000CBFE4FF47060009002208DF805008DF82D
:10261000040000208DF8060001208DF807006946AF
:102620001348FEF771FE0420009069461148FEF73A
:102630006BFE4FF48050009000208DF80700694633
:102640000B48FEF761FE1020009000208DF804007A
:1026500001208DF8070069460748FEF755FE012165
:10266000C802FEF735FF01218805FEF711FF1CBDEA
:1026700000080240000C024000000240F8B50020B3
:102680000090002500240026002776205F49087569
:102690000020086048608860C86008610846FFF74D
:1026A000FDFA0320FFF72EFB0120FFF77FFA002041
:1026B0005749086048608860C8604FF480600861CE
:1026C0000846FFF709FBFEF761FA00909DF800004D
:1026D00010B19DF80000F8BD4FF4D5704C4908606A
:1026E00008204860402088600020C8604FF4806067
:1026F00008610846FFF7F0FAFEF788FB00909DF8A6
:10270000000020B9012043490860870712E000203B
:102710003F49086037204860402088600020C8603A
:102720004FF4806008610846FFF7D6FA3720FEF7BD
:1027300043FA009000203649086037204860402066
:1027400088600020C8604FF4806008610846FFF789
:10275000C3FA3720FEF730FA00909DF800000028F9
:1027600051D13BE000202A490860372048604020D2
:1027700088600020C8604FF4806008610846FFF759
:10278000ABFA3720FEF718FA00909DF8000010B160
:102790009DF800009FE7204838431D490860292024
:1027A0004860402088600020C8604FF48060086165
:1027B0000846FFF791FAFEF7BFFA00909DF8000077
:1027C00010B19DF8000086E70020FFF747FA0546A4
:1027D000012080EAD57080F00106641C1EB94FF616
:1027E000FF708442BED34FF6FF70844204D31B2097
:1027F00000909DF800006EE705F08040051E02D0B5
:102800000220044908609DF8000064E7B802002037
:10281000D0020020140000200000108010B50748EE
:10282000006800F0C05040B10120054908604FF039
:10283000C25102485830FEF727FB10BD0064024029
:102840002800002010B54FF48070FFF7F3F950B165
:102850000020254908704FF48070FFF7A1F901208E
:102860002249086037E00220FFF7E4F930B1022086
:10287000FFF796F902201C4908702CE00820FFF7AA
:10288000D9F930B10820FFF78BF9042016490870F8
:1028900021E02020FFF7CEF930B12020FFF780F9AA
:1028A00006201149087016E01020FFF7C3F930B177
:1028B0001020FFF775F905200B4908700BE04FF465
:1028C0000070FFF7B7F930B14FF40070FFF768F907
:1028D00007200549087000214CF23A30FFF7CEF985
:1028E0000148007810BD00002000002024000020D6
:1028F0002DE9F047814614461D46DDE908680027AA
:1029000000203249087032490860012031490860CE
:10291000002031490860012140F22A30FFF7AEF96A
:1029200008FB06F14846FFF7BBFD0120FFF744F91D
:102930002A480068022808D1060202020023204625
:102940002946FDF7D7FC04460D46254806601020B1
:1029500023494860402088600020C8604FF48060B0
:1029600008610846FFF7B8F91020FEF725F9074679
:1029700017B13846BDE8F0874FF0FF3019490860BD
:1029800008FB06F04860902088600220C8600020A4
:102990000861012048610846FFF714F910480460F7
:1029A00012200F494860402088600020C8604FF422
:1029B000806008610846FFF78FF91220FEF7FCF8E7
:1029C00007460FB13846D5E73846D3E72000002048
:1029D000240000201C0000202C2C014014000020AA
:1029E000D0020020E402002070B504460D46002607
:1029F0000A48046007200949486040208860002098
:102A0000C8604FF4806008610846FFF765F9072049
:102A1000FEF7D2F80646304670BD0000D002002016
:102A200070B50446002514B92625284670BD0F4808
:102A3000008800040E4908600D204860402088602E
:102A40000020C8604FF4806008610846FFF744F931
:102A50000D20FEF7B1F805460DB12846E6E7002047
:102A6000FFF7FCF820602846E0E70000180000208F
:102A7000D002002010B5002400200A4908600C2074
:102A80004860402088600020C8604FF48060086182
:102A90000846FFF721F90C20FEF78EF80446204681
:102AA00010BD0000D002002070B500256C1E00E0B3
:102AB000641E1848006838B91748006820B91748DC
:102AC000007808B9002CF3D1002012490860441E98
:102AD00000E0641E1248006800F4005008B1002CA9
:102AE000F7D110480068012805D1FFF7C3FF05465C
:102AF00000200C4908600CB905B9042540F2FF50CC
:102B0000FFF748F80548007810B10448007870BD18
:102B10002846FCE728000020240000202000002098
:102B2000342C01401C00002070B500256C1E00E014
:102B3000641E1848006838B91748006820B917485B
:102B4000007808B9002CF3D1002012490860441E17
:102B500000E0641E1248006800F4805008B1002CA8
:102B6000F7D110480068012805D1FFF783FF05461B
:102B700000200C4908600CB905B9042540F2FF504B
:102B8000FFF708F80548007810B10448007870BDD8
:102B90002846FCE728000020240000202000002018
:102BA000342C01401C0000202DE9F04781461546D9
:102BB0001E46DDE90878002400204949087049498B
:102BC0000860012048490860002048490860012148
:102BD00040F22A30FFF752F808FB07F14846FFF7AA
:102BE000A5FC0120FEF7E8FF41480068022808D153
:102BF00007020202002328463146FDF77BFB05460B
:102C00000E463C48076010203A49486040208860E2
:102C10000020C8604FF4806008610846FFF75CF848
:102C20001020FDF7C9FF044614B12046BDE8F08727
:102C30003148008800042F49086037204860402050
:102C400088600020C8604FF4806008610846FFF784
:102C500043F83720FDF7B0FF04460CB12046E5E706
:102C60002448C0F80080172022494860402088602E
:102C70000020C8604FF4806008610846FFF72CF818
:102C80001720FDF799FF04460CB12046CEE71948FE
:102C90000560192017494860402088600020C860FE
:102CA0004FF4806008610846FFF716F81920FDF719
:102CB00083FF04460CB12046B8E74FF0FF300F49C0
:102CC000086008FB07F04860902088600020C8601A
:102CD0000861012048610846FEF774FF2046A5E719
:102CE00020000020240000201C0000202C2C01408B
:102CF00014000020D002002018000020E402002070
:102D000021B1028842F04002028004E002884FF6BE
:102D1000BF731A400280704710B50022028802F487
:102D200041520B884C8823438C882343CC8823430F
:102D30000C8923434C8923438C892343CC89234327
:102D40001A430280838B4FF2FF74234083830B8AE4
:102D5000038210BD704700000CB500200190009068
:102D60003448006840F480303249086000BF314880
:102D7000006800F4003000900198401C0190009819
:102D800018B90198B0F5A04FF1D12A48006800F4B5
:102D9000003010B10120009001E000200090009868
:102DA000012846D123484030006840F08050214936
:102DB000403108602048006840F440401E490860E7
:102DC0001C48083000681B49083108600846006844
:102DD00040F4004008600846006840F4A0500860D5
:102DE0001648091F0860081F006840F08070091F1E
:102DF000086000BF0F48006800F000700028F9D09C
:102E000040F205700E4908600A480830006820F05A
:102E100003000849083108600846006840F00200D5
:102E2000086000BF03480830006800F00C00082864
:102E3000F8D10CBD00380240007000401954400722
:102E4000003C024010B522F00DF923F081FC22F085
:102E50002BF910BD70B500200022022300240221AE
:102E6000274D2D6805F00C0020B1042806D0082855
:102E700034D107E0234D244E356033E0234D224EFC
:102E800035602FE01E4D2D1F2D68C5F380541C4D5D
:102E90002D1F2D6805F03F0154B11C4DB5FBF1F518
:102EA000174E361F3668C6F3881605FB06F209E092
:102EB000144DB5FBF1F5124E361F3668C6F3881671
:102EC00005FB06F20E4D2D1F2D68C5F301456D1C47
:102ED0006B00B2FBF3F50C4E356003E0094D0A4E72
:102EE000356000BF00BF064D2D68C5F30315084EC1
:102EF000705D054D2D68C540034E356070BD000006
:102F0000083802400024F4000000002040787D01D1
:102F10000400002010B51548006840F47000134903
:102F200008601348006840F0010011490860002063
:102F30000F49083108600E4800680E4908400C49E6
:102F400008600D48091D0860081F006820F48020F3
:102F5000091F0860002006490C310860FFF7FCFEDD
:102F60004FF0006001498039086010BD88ED00E035
:102F700000380240FFFFF6FE1030002410B501219A
:102F8000054800F01AF828B126F096FB0121024806
:102F900000F004F810BD000000080040CA4302829F
:102FA000704721B1028842F00102028004E00288E9
:102FB0004FF6FE731A400280704730B5024600207B
:102FC00000230024158A05EA0103958905EA010416
:102FD00013B10CB1012000E0002030BD00220288B6
:102FE000184B98420ED0184B98420BD0B0F1804F3E
:102FF00008D0164B984205D0154B984202D0154B7D
:10300000984204D14FF68F731A404B881A43124BE3
:10301000984207D0114B984204D04FF6FF431A4014
:103020000B891A4302804B68C3620B880385054BEA
:10303000984202D0044B984201D18B7A0386012337
:1030400083827047000001400004014000040040FA
:1030500000080040000C0040001000400014004038
:1030600010B540F225510B4800F049F840B120F06E
:1030700091FB0949087040F22551064800F017F805
:103080000821044800F02EF818B10821014800F08A
:1030900005F810BD001001401000001001F400728E
:1030A000B2F5007F00D100BFCA430280704710B55F
:1030B0000022002340F66A14A14200D100BF0A1288
:1030C00001249440A3B2DC43048010BD21B1828965
:1030D00042F40052828104E082894DF6FF731A4067
:1030E0008281704702460020B1F5007F00D100BF09
:1030F00013880B400BB1012000E00020704770B531
:103100000246002400230025002040F66A16B14242
:1031100000D100BFC1F3421501F01F03012606FADA
:1031200003F3012D02D19689334006E0022D02D12E
:10313000168A334001E0968A33400C12012606FAC3
:1031400004F41688344013B10CB1012000E00020D3
:1031500070BD00002DE9FF4705460E460024A1463C
:1031600000BFA046B08900B100BF2C8A24F44054AF
:10317000F08804432C82AC8941F20C608443B0880F
:1031800031890843718908430443AC81AC8A24F433
:103190004074B0890443AC826846FEF7B9F9204810
:1031A000854202D01F48854202D1DDF80C9001E033
:1031B000DDF80890A88900F4004040B109EBC9008F
:1031C00000EB091031684900B0FBF1F707E009EBAB
:1031D000C90000EB091031688900B0FBF1F76420E9
:1031E000B7FBF0F004012009642101FB1078A889E5
:1031F00000F4004040B1322000EBC800B0FBF1F019
:1032000000F00700044308E0322000EB08106421BE
:10321000B0FBF1F000F00F0004432C81BDE8FF8704
:10322000001001400014014000BFFEE70146481EA7
:10323000B0F1807F01D301207047481E4FF0E0229B
:103240005061FF20044A107000204FF0E02290618E
:10325000072010610020EFE723ED00E00FB4054BDD
:1032600010B503A9044A029803F08EFC10BC5DF867
:1032700014FB0000071D01085C0100100FB4084B8F
:1032800010B504A902AA039803F07EFC044602A923
:10329000002004F0B1F8204610BC5DF814FB0000DB
:1032A000F9730008004870472C020020014609B954
:1032B00000207047C8B220B1C8B20E4A105C401C52
:1032C000F7E701F47F4028B10A48C1F30722805C88
:1032D0000930EEE701F47F0028B10648C1F3074248
:1032E000805C1130E5E7034800EB1160007819308D
:1032F000DFE70000B393030802E008C8121F08C10B
:10330000002AFAD170477047002001E001C1121F66
:10331000002AFBD1704700002DE9FF5F82B0002139
:10332000DDE90430020DDDF840B0034318D044F667
:103330001050A2F2FF3242431514119801281FD0F9
:10334000A5EB0B00401C5FEA000A4FF000064E4F51
:10335000DFF83891B046504615D5CAF1000413E0A5
:10336000119801244AA3012801D16FEA0B010298A8
:10337000119AC0E90031C0E9024206B0BDE8F09FF1
:10338000CBF10000DFE704460021404A491842EB38
:103390000450CDE9001012E0E00707D032463B466A
:1033A00040464946FDF772FA8046894632463B461A
:1033B00010461946FDF76AFA06460F466410002CBF
:1033C000EAD1DDE90401DDE90023BAF1000F06DAF4
:1033D000FDF75CFA42464B46FDF758FA05E0FDF76B
:1033E0003DF842464B46FDF739F804460E460022AA
:1033F000284BFDF7D5FA03D84FF0FF30014607E020
:103400000022254B20463146FDF799F9FDF7B0FA29
:10341000102409E0002C0ADB0A220023FCF76AFFD3
:10342000039B30321A55641E50EA0102F2D1641C2B
:10343000039AC4F111031444119A012A03D0012202
:1034400008430DD10AE0084304D000204FF0110BCF
:10345000119072E7A3EB0B056D1E0DE05B4504DDDB
:103460004FF0000205F1010504E003DA4FF000021D
:10347000A5F10105002AECD002981199C0E90231AA
:10348000C0E9004579E70000000014400000F03F6B
:10349000300000000000F0430000E03F03490868EE
:1034A000884201D0012070470020FCE798010020ED
:1034B00010B548210A4801F056FD1EF081FF094968
:1034C0000860002304221E2107481EF095FC0749CE
:1034D000086003F097FF00200549087010BD000048
:1034E000A0FE0020CC010020F5740008D4010020CB
:1034F000D00100202DE9F04705460F4616461C4630
:10350000152E30D2DFE806F00B3034495765839A28
:10351000AFCDD6F9F7F6F5F4F3F2F1F0EF00284667
:1035200014F062FF814600EBD9704FEA600A38461A
:1035300014F05AFF804600EBD870AAEB600000B28E
:103540002080284614F0F9FE814600EBD9704FEA3E
:10355000600A384614F0F1FE804600EBD870AAEB02
:10356000600000B260806AE100202080608066E137
:10357000284614F039FF814600EBD9704FEA600A03
:10358000384614F031FF804600EBD870AAEB60009B
:1035900000B220800020608051E1284614F024FF12
:1035A0008046384614F020FFA8EB000000B22080CF
:1035B0000020608043E100202080284614F0BDFEFA
:1035C0008046384614F0B9FEA8EB000000B26080D7
:1035D00035E1284614F008FF814600EBD9704FEA28
:1035E000600A384614F000FF804600EBD870AAEB62
:1035F000600000B22080284614F09FFE80463846C6
:1036000014F09BFEA8EB000000B2608017E1284692
:1036100014F0EAFE8046384614F0E6FEA8EB0000FF
:1036200000B22080284614F088FE8046384614F008
:1036300084FEA8EB000000B2608000E10020208042
:10364000284614F07AFE814600EBD9704FEA600AF2
:10365000384614F072FE804600EBD870AAEB60008A
:1036600000B26080EBE0284614F0BEFE804638468B
:1036700014F0BAFEA8EB000000B22080284614F037
:103680005CFE814600EBD9704FEA600A384614F0C0
:1036900054FE804600EBD870AAEB600000B2608058
:1036A000CDE000202080384614F047FE404200B2B2
:1036B0006080C4E0284614F097FE814600EBD97084
:1036C0004FEA600A384614F08FFE804600EBD8704F
:1036D000AAEB600000B22080384614F02EFE404273
:1036E00000B26080ABE09AE082E07AE067E04DE013
:1036F00043E032E01AE012E0FFE7284614F074FEDF
:103700008046384614F070FEA8EB000000B220801E
:10371000384614F012FE404200B260808FE0002074
:103720002080284614F009FE608088E0284614F0C6
:103730005BFE814600EBD9704FEA600A384614F010
:1037400053FE804600EBD870AAEB600000B22080E8
:10375000284614F0F2FD608071E0284614F044FE23
:103760008046384614F040FEA8EB000000B22080EE
:10377000284614F0E2FD608061E0384614F034FE23
:10378000404200B220800020608058E0384614F0AB
:103790002BFE404200B22080284614F0CEFD814628
:1037A00000EBD9704FEA600A384614F0C6FD804637
:1037B00000EBD870AAEB600000B260803FE03846B2
:1037C00014F012FE404200B22080284614F0B5FDED
:1037D0008046384614F0B1FDA8EB000000B26080CE
:1037E0002DE0284614F000FE20800020608026E0B6
:1037F000284614F0F9FD2080284614F09EFD8146ED
:1038000000EBD9704FEA600A384614F096FD804606
:1038100000EBD870AAEB600000B260800FE0284691
:1038200014F0E2FD2080284614F087FD80463846DB
:1038300014F083FDA8EB000000B2608000BF00BF61
:1038400020882988084400B220806088698808445C
:1038500000B26080BDE8F08730B50346B1F90040A2
:10386000B2F90050AC4202DDB1F9004001E0B2F91A
:1038700000401C80B1F90240B2F90250AC4202DDB6
:10388000B1F9024001E0B2F902405C80B1F90440B4
:10389000B2F90450AC4202DAB1F9044001E0B2F9E5
:1038A00004409C80B1F90640B2F90650AC4202DAFD
:1038B000B1F9064001E0B2F90640DC800120B3F91D
:1038C0000040B3F90450AC4205DCB3F90240B3F94F
:1038D0000650AC4200DD002030BDF8B504460D4670
:1038E00016460027B4F90000B5F90010884212DB33
:1038F000B4F90200B5F9021088420CDBB4F90400F7
:10390000B5F90410884206DCB4F90600B5F90610D2
:10391000884200DC01270EB93846F8BD2088ADF892
:1039200000006088ADF8020032466946284600F083
:103930004CF808B90020F0E7A088ADF800006088D6
:10394000ADF8020032466946284600F03EF808B954
:103950000020E2E72088ADF80000E088ADF8020022
:1039600032466946284600F030F808B90020D4E70E
:10397000A088ADF80000E088ADF802003246694644
:10398000284600F022F808B90020C6E70120C4E765
:103990000246B2F90000B1F90430984213DCB2F9E2
:1039A0000400B1F9003098420DDBB2F90200B1F920
:1039B0000630984207DCB2F90600B1F902309842AD
:1039C00001DB012070470020FCE72DE9FC5F054684
:1039D0000E4614464FF0000AB6F90000B5F9001083
:1039E000884213DBB6F90000B5F9041088420DDCFB
:1039F000B6F90200B5F90210884207DBB6F90200F9
:103A0000B5F90610884201DC4FF0010ABAF1000F47
:103A100002D10020BDE8FC9F002C01DC0120F9E769
:103A2000284614F0E1FC834600EBDB704710284683
:103A300014F083FC834600EBDB704FEA60084745D7
:103A400001DA384600E0404681464C4500DD4C46F0
:103A50002888ADF800002888204400B2ADF80400A2
:103A60006888ADF802006888204400B2ADF806000E
:103A7000002231466846FFF7A8FF80B1BDF8040078
:103A8000204400B2ADF80400BDF80600204400B2A6
:103A9000ADF80600314668461DF01CF8BAE7E88824
:103AA000001B00B2ADF80200E888ADF80600002265
:103AB00031466846FFF789FF80B1BDF80400204415
:103AC00000B2ADF80400BDF80200001B00B2ADF872
:103AD0000200314668461CF0FDFF9BE7A888001BEA
:103AE00000B2ADF80000A888ADF80400002231460D
:103AF0006846FFF76AFF80B1BDF80000001B00B206
:103B0000ADF80000BDF80200001B00B2ADF80200E5
:103B1000314668461CF0DEFF7CE76888ADF802009D
:103B20006888204400B2ADF806000022314668469D
:103B3000FFF74BFF80B1BDF80000001B00B2ADF8ED
:103B40000000BDF80600204400B2ADF80600314682
:103B500068461CF0BFFF5DE701205BE710B5B1F9D7
:103B60000030B2F90040A34202DAB1F9003001E0BE
:103B7000B2F900300380B1F90230B2F90240A34239
:103B800002DAB1F9023001E0B2F902304380B1F952
:103B90000430B2F90440A34202DDB1F9043001E07F
:103BA000B2F904308380B1F90630B2F90640A3427D
:103BB00002DDB1F9063001E0B2F90630C38010BD74
:103BC000F0B506460D460024002E02DA601CC4B291
:103BD00076423746002D02DAA01CC4B26D42AC46D4
:103BE000674509D9CCEB0C1000EB4000B0FBF7F3B4
:103BF00004F11000C4B205E0C7EB071000EB400071
:103C0000B0FBFCF30022D9B2162910DD2C2901DC0F
:103C1000501CC2B2292901DC501CC2B2252901DC8A
:103C2000501CC2B2202912DC501CC2B20FE0022983
:103C300001DB501CC2B2062901DB501CC2B20A29AA
:103C400001DB501CC2B20F2901DB501CC2B213446D
:103C500004F0100008B1C3F15A0304F0020038B1B7
:103C600004F0010008B1B43307E0C3F1B40304E089
:103C700004F0010008B1C3F5B47398B2F0BD2DE9AA
:103C8000F04F04460D46C4F5806101FB01F0860A41
:103C900006FB01F04FEA902C04FB04F0870A07FBB7
:103CA00004F04FEA90280CFB05F04FEA902906EB50
:103CB0004600604350434FEA105A01EB41007843FD
:103CC00058434FEA105B099808FB00F04FEA902E2A
:103CD00009EB0A0058447044BDE8F08F2DE9FF4F0E
:103CE00087B01C46DDE91467022F02DA0BB0BDE88D
:103CF000F08F06B9FAE702F021F88046404615F049
:103D000025F882460AF11005DAF80800069004A8A2
:103D1000DDE90712FFF7A0FD8346BBF1000F00D1DC
:103D2000E4E7BDF810002988401A00B2ADF8100091
:103D3000BDF812006988401A00B2ADF81200BDF853
:103D400014002988401A00B2ADF81400BDF816001E
:103D50006988401A00B2ADF81600D4B198F808008E
:103D600000F00100A8B904A814F014FB03904FF070
:103D700000090AE014F80900802801DDFF2000E0B6
:103D8000002004F8090009F1010903988145F1DBDD
:103D900000BFD8F8140048B1CDE90074029604AA17
:103DA0002846099B06990DF0F7FA16E0169848B9CF
:103DB000CDE90074029604AA2846099B06990DF0E5
:103DC000D9F80AE01698CDE90074CDE9026004AA9A
:103DD0002846099B06990DF01BF800BF86E72DE9E0
:103DE000FF4F89B016461C46DDE91678B8F1020F80
:103DF00002DA0DB0BDE8F08F07B9FAE707A8DDE9F0
:103E00000912FFF729FD0690069800B9F1E701F0C5
:103E100095FF8146484614F099FF82460AF1100545
:103E2000DAF808000590BDF81C002988401A00B295
:103E3000ADF81C00BDF81E006988401A00B2ADF84C
:103E40001E00BDF820002988401A00B2ADF82000FD
:103E5000BDF822006988401A00B2ADF82200D4B142
:103E600099F8080000F00100A8B907A814F092FA28
:103E700004904FF0000B0AE014F80B00802801DDDD
:103E8000FF2000E0002004F80B000BF1010B049868
:103E90008345F1DB00BFD9F8140050B1CDE90068CB
:103EA000CDE9024707AA28460A9B05991EF0E3FFC1
:103EB00018E0189850B9CDE90068CDE9024707AA83
:103EC00028460A9B05991EF0DDFD0BE01898CDE908
:103ED0000068CDE90247049007AA28460A9B059985
:103EE0001EF014FD00BF84E7D0F87821C2F3094228
:103EF0008A4207DA0023D0F8782163F31942C0F828
:103F0000782107E0D0F87821C1EB124363F319421E
:103F1000C0F87821704700002DE9FF5F81461EF050
:103F20004FFA0390002002906D49D9F80C00086008
:103F3000002148461EF05EF969480068006C60B9CF
:103F4000002167480068D0F8780161F3194064499E
:103F50000968C1F87801BDE8FF9F1DF001F91DF067
:103F600047F85F480068D0F87801C0F3094000289E
:103F70007ED05B48006814F095FF00287FD0584839
:103F80000068406900287AD15548006814F0DEFEC8
:103F900005461DF013FA00BFA8690028FCD10027D0
:103FA0004F490968B1F90010480001F025F90746AA
:103FB000D5F808A02968A868884201D1686800E09F
:103FC000286801904648006814F0D7FE0646002491
:103FD00045E04348006800F5AD70005DE8BB40482F
:103FE00000685A3030F934103D4800685A3000EB10
:103FF000C400B0F9020006FB00104FEA400838493F
:1040000009685A3101EBC40014F0BDF9400000907A
:10401000334800685A3000EBC400B0F902B012E037
:10402000019800EB08013846009A01F0E3F90AEB29
:1040300008003946009A01F0DDF908EB46080BF15B
:1040400001000FFA80FB264800685A3000EBC400DC
:10405000B0F906005845E3DA00BF601C84B220487E
:104060000068D0F87801C0F30940A042B1DC01E05B
:104070002FE004E017B1384601F06EF900BF4FF4AD
:104080008071174800685A3001F066FB20211448FF
:10409000006800F5AD7001F05FFB0021104800687A
:1040A000D0F8780161F319400D490968C1F8780129
:1040B00003981EF077F9029009480068806940B1C2
:1040C0000748006883690748026805480299006844
:1040D000984701F065F800F007F800BF3BE70000E3
:1040E000B4010020B001002010B50548006830B1CF
:1040F000034800681AF0CAF800200149086010BDA2
:10410000BC01002010B54821014800F02CFF10BD73
:1041100088FE002010B51C21014800F024FF10BDCE
:10412000ACFE00202DE9FF4F8DB00546DDE91AA455
:10413000109880B9BAF5807F0DD100202880688062
:104140000E98401E00B2A8800F98401E00B2E88072
:1041500011B0BDE8F08F0A21109890FBF1FB0BF134
:1041600001000C900BEB8B011098A0EB41000B9021
:104170000FFA8BF002F004FB0A900C9800B202F0E8
:10418000FFFA09900BF15A0000B202F0F9FA089018
:104190000C985A3000B202F0F3FA07900B98C0F175
:1041A0000A020A9842430B99099800FB01200A2150
:1041B00090FBF1F60B98C0F10A02089842430B9964
:1041C000079800FB01200A2190FBF1F776117F117F
:1041D000B4F90000404200FB0AF0001200B2ADF852
:1041E0000400B4F90200404200FB0AF0001200B2E1
:1041F000ADF80600B4F900100E98401A00FB0AF062
:10420000001200B2ADF80800B4F902100F98401A7D
:1042100000FB0AF0001200B2ADF80A00BDF90480FC
:10422000BDF9069007FB08F006FB1900218801EB99
:10423000A02000B2ADF8180006FB08F007FB09004B
:10424000618801EBA02000B2ADF81A00BDF908802A
:10425000BDF9069007FB08F006FB1900218801EB69
:10426000A02000B2ADF8140006FB08F007FB09001F
:10427000618801EBA02000B2ADF81600BDF9048002
:10428000BDF90A9007FB08F006FB1900218801EB35
:10429000A02000B2ADF8100006FB08F007FB0900F3
:1042A000618801EBA02000B2ADF81200BDF90880D2
:1042B000BDF90A9007FB08F006FB1900218801EB05
:1042C000A02000B2ADF80C0006FB08F007FB0900C7
:1042D000618801EBA02000B2ADF80E00BDF910001E
:1042E000BDF91810884202DABDF9100001E0BDF9ED
:1042F0001800BDF90C10BDF91420914202DABDF985
:104300000C1001E0BDF9141088420BDABDF9100061
:10431000BDF91810884202DABDF910000DE0BDF9B0
:1043200018000AE0BDF90C00BDF91410884202DA49
:10433000BDF90C0001E0BDF914002880BDF91000A2
:10434000BDF91810884202DDBDF9100001E0BDF989
:104350001800BDF90C10BDF91420914202DDBDF921
:104360000C1001E0BDF9141088420BDDBDF91000FE
:10437000BDF91810884202DDBDF910000DE0BDF94D
:1043800018000AE0BDF90C00BDF91410884202DDE6
:10439000BDF90C0001E0BDF91400A880BDF91200C0
:1043A000BDF91A10884202DABDF9120001E0BDF928
:1043B0001A00BDF90E10BDF91620914202DABDF9BE
:1043C0000E1001E0BDF9161088420BDABDF912009B
:1043D000BDF91A10884202DABDF912000DE0BDF9EC
:1043E0001A000AE0BDF90E00BDF91610884202DA83
:1043F000BDF90E0001E0BDF916006880BDF912009C
:10440000BDF91A10884202DDBDF9120001E0BDF9C4
:104410001A00BDF90E10BDF91620914202DDBDF95A
:104420000E1001E0BDF9161088420BDDBDF9120037
:10443000BDF91A10884202DDBDF912000DE0BDF988
:104440001A000AE0BDF90E00BDF91610884202DD1F
:10445000BDF90E0001E0BDF91600E88000BF77E667
:104460002DE9F74F86B0044620680590B4F908108E
:104470000798A0EB0108B4F90A100898A0EB01090D
:10448000E089B0F5807F13D1206B00FB08F0E16A72
:1044900001FB1901606A00EBA10BE06A00FB08F068
:1044A000216B01FB0901A06A00EBA100049027E049
:1044B000A08960B9E08E08FB00F8E08E09FB00F9E6
:1044C000606A00EB080BA06A4844049018E0E08E94
:1044D00008FB00F8E08E09FB00F9206B00FB08F0F8
:1044E000E16A01FB1901606A00EBA12BE06A00FBA5
:1044F00008F0216B01FB0901A06A00EBA1200490E8
:104500004FEA2B2604980712B4F90400B04203DCEA
:10451000002009B0BDE8F08F002E01DA0020F8E796
:10452000B4F90600B84201DC0020F2E7002F01DAFE
:104530000020EEE73420005DC0F3800050B334204B
:10454000005DC0F3400078B90225B4F90400784357
:10455000684306FB050A059800EB0A012A4604F1A8
:10456000140001F09BF82CE00325B4F90400784313
:10457000684306FB050A6A1E059800EB0A0104F170
:10458000140001F08BF80AEB0500401E0599095C48
:10459000A17516E04FF0000A0025208A03463AB2C2
:1045A00031B2019004F1180017F070FB0290BDF8D1
:1045B0000800A0823AB231B204F1180017F0C6FA2E
:1045C000A0753420005D00F0010060B11248006861
:1045D000029002980190A08ABDF80410884201D18F
:1045E000002096E700BFE07C08B9012091E70FFAB0
:1045F0008BF12187049801B2618731B2A18739B26A
:10460000E187C4F840A084F84450204600F006F842
:10461000039003987DE70000E09603082DE9F04F32
:104620008DB00446D4F8009094F838000C9094F8BB
:104630003A000B900C9870280BDA4FF0FF35B4F964
:104640003C002844002800DA00250C988030C7B2CE
:1046500013E00C9890280EDD0125B4F93C002844A5
:10466000B4F90410884200DB00250C98C0F1FF006B
:104670008030C7B201E00025FF270B9870280CDAC4
:104680004FF0FF36B4F93E003044002800DA00262F
:104690000B98803000F0FF0815E00B9890280FDD94
:1046A0000126B4F93E003044B4F90610884200DB1C
:1046B00000260B98C0F1FF00803000F0FF0802E0F8
:1046C00000264FF0FF08A08A0A90A07D06900020E7
:1046D0000590049003903420005DC0F38000002812
:1046E0005BD094F84400226C00FB052000EB09012C
:1046F000022209A800F0DEFFA28894F8440012FB11
:1047000000F2206C02FB060000EB0901022208A85F
:1047100000F0D0FFA28894F8440012FB00F2206C55
:1047200002FB060294F8440000FB052000EB09019F
:10473000022207A800F0BEFF3420005DC0F3400055
:10474000002876D094F84400216C00FB0511084441
:10475000401E19F800000590A18894F8440011FB50
:1047600000F1206C01FB060194F844000844401E4F
:1047700019F800000490A18894F8440011FB00F19E
:10478000206C01FB060194F8440000FB051108446D
:10479000401E19F8000003904BE0208A0090B4F905
:1047A0003E20A08F284401B204F11800009B17F0AE
:1047B0006DFA0990208A0090E08F304402B2B4F97B
:1047C0003C1004F11800009B17F060FA0890208A52
:1047D0000090E08F304402B2A08F284401B204F16F
:1047E0001800009B17F052FA07903420005DC0F3C8
:1047F0004000F0B1B4F93E20A08F284401B204F18A
:10480000180017F0A3F90590E08F304402B2B4F914
:104810003C1004F1180017F099F90490E08F30442F
:1048200002B2A08F284401B204F1180017F08EF9EB
:104830000390BA46BB463420005DC0F34000E0B3AD
:1048400006987843C7F1FF0C059B03FB0C00C0F3EF
:10485000072104987843C7F1FF0C039B03FB0C006E
:10486000C0F3072201FB08F0C8F1FF0302FB0300BD
:10487000030AA375022905DC022A03DC00200DB01F
:10488000BDE8F08F022901DC4FF00008022A01DCAC
:104890004FF0FF080698022801DC4FF0000A059847
:1048A000022801DC4FF0FF0A0498022801DC4FF0D7
:1048B000000B0398022803DC00E002E04FF0FF0B3E
:1048C00003E0BA46BB46FF21A175BAF1000F02D141
:1048D000099802900BE0BAF1FF0F02D10A980290FA
:1048E00005E05246DDE9091013F053FF0290BBF1D9
:1048F000000F02D1079801900BE0BBF1FF0F02D12E
:104900000898019005E05A46DDE9071013F041FFD1
:104910000190B8F1000F03D1BDF80400A0820FE0B0
:10492000B8F1FF0F03D1BDF80800A08208E04246AD
:10493000DDE9011013F02DFF0090BDF80000A0820A
:1049400001209CE72DE9F05F0446B4F9080001025C
:104950006162B4F90A000102A162B4F90C000A21F3
:1049600090FBF1F56F1CB4F90C0005EB8501A0EB91
:104970004106684200B201F003FF8046784200B26F
:1049800001F0FEFE8146C5F15A0000B201F0F8FECA
:104990008246C7F15A0000B201F0F2FE8346C6F12A
:1049A0000A0000FB08F009FB06000A2190FBF1F168
:1049B000E162C6F10A0000FB0AF00BFB06000A21C7
:1049C00090FBF1F12163E06A4111E162206B41113A
:1049D0002163A07C17F0D5FA3421095D60F3000152
:1049E00034200155A07C17F0AFFA3421095D60F343
:1049F000410134200155A07C042805D0A07C052865
:104A000002D0A07C062807D13420005D20F00400ED
:104A1000001D3421085505E03420005D20F004011C
:104A20003420015521682162A06920F0E000A061D6
:104A3000A17CA06961F30400A061A188A06961F371
:104A40009420A061E188A06961F35F50A061E089D2
:104A50004FF4803191FBF0F0E086FF21A175208AB0
:104A6000A082BDE8F09F00002DE9F34707465B48B0
:104A7000008810B90020BDE8FC875948066800246A
:104A800014E004EBC40006EB8000006A554988423C
:104A90000ADD04EBC40006EB8000006A401E04EB54
:104AA000C40106EB81010862601C84B24B48008897
:104AB0008442E6DB0025002442E04FF0000904EBCD
:104AC000C40106EB8101486818F068F88046B8F127
:104AD000000F12D104EBC40006EB80004068B8421E
:104AE00019D104EBC40006EB80000089BDF8041066
:104AF000884210D14FF001090DE0B8F1010F0AD141
:104B000004EBC40106EB810148683946FBF766FCFB
:104B100008B94FF00109B9F1000F0FD004EBC40040
:104B200006EB8005296A686908442862286AB0F59E
:104B30007A7F02DD4FF47A70286205E0601C84B24F
:104B4000264800888442B8DB00BF002D44D135469A
:104B500001240DE004EBC40006EB8000006A296A22
:104B6000884203DA04EBC40006EB8005601C84B2C3
:104B70001A4800888442EDDB686810B1284617F0B7
:104B800043FE1DF01DFC8146002068613946284621
:104B9000019A17F0A7FE8046B8F1000F0FD1284602
:104BA00017F032FE2021284600F0D6FD24212846A9
:104BB00000F0D2FD4FF00040286200205BE70020AB
:104BC0002862686918B948461DF0ECFB686168699D
:104BD00008B90120686100BF28464CE7B8010020F1
:104BE000D80100200100008010B51421134800F006
:104BF000BAF917F01DFE04466CB900BF204613F049
:104C000082FF30B9224600230DA013F083FF00BFBE
:104C1000FEE700BF10BD0E49204617F0CDFE0D493E
:104C2000204617F0CBFE0C49204617F0C9FE0B4971
:104C3000204617F0BFFE00BFECE70000B8FE0020E2
:104C40004F7574206F66206D656D6F72790000007E
:104C5000E9BF0108B9C4010841C70108AFBF010895
:104C600010B50021084618F041F810BD70B5044693
:104C70000D4600261021284600F06EFD2078012800
:104C800004D1A08C2880E08C68800CE02078022879
:104C900002D1A06A686006E02078042803D10A20C7
:104CA00068600020A881606820B1294620466268BB
:104CB00090470646304670BD7FB504463E49E068E1
:104CC000086008460068006900B97FBD3A4800687E
:104CD0000FF0C4FF3848006890F85400C0F380001B
:104CE00000B1F2E700BF694633480068FFF7BEFF36
:104CF0000546314800680FF0B1FF00202F490860D9
:104D00009DF80E002C49096881F820002A480068A7
:104D100090F82000012807D11DF052FB26490968B0
:104D20000969C1F87C010EE0234800680078042876
:104D300009D1BDF80C0030B11DF042FB1E490968D5
:104D40000969C1F87C011C4800680078012805D178
:104D50006946194800680FF083FC1FE01648006898
:104D60000078022805D16946134800680FF0DCFA84
:104D700014E0114800680078042805D169460E48FF
:104D800000680EF0DDFF09E00B480068007803289A
:104D900004D16946084800680EF05DFC06480068CA
:104DA0000FF05CFF002D9ED10020034908600349ED
:104DB000086000BF89E70000980000109C00001008
:104DC0002DE9FF4104460F4614B913F0C3FF044612
:104DD0000CB9BDE8FF813FB90021D4F8780161F337
:104DE0001940C4F87801F4E70020ADF80800ADF8E8
:104DF0000A00204613F0C1FF401E00B2ADF80C00BF
:104E0000204614F031F8401E00B2ADF80E0002AAA0
:104E100039466846FEF720FD0646002E4CD0206934
:104E200018B1694620462269904700250BE004F13D
:104E30005A0000EBC50100226846FEF74EFD00B1A6
:104E4000C7E7681C85B2D4F87801C0F30940A842CE
:104E5000EDDCD4F87801C0F3094020280BDAD4F84F
:104E60007811C1F3094204F15A0101EBC20069460D
:104E700013F0FDF911E00021D4F8780161F3194035
:104E8000C4F87801D4F87811C1F3094204F15A0149
:104E900001EBC20002A913F0EAF9D4F87801000C82
:104EA000401CD4F8781160F31941C4F8781103213B
:104EB000206B1DF09FF900BF00BF8AE72DE9F0418C
:104EC00007460C4615461E462946384600F00EF9A0
:104ED000AEB10022294620461EF084FC2946204619
:104EE00062681EF071FC606820B12A462046616845
:104EF0001EF078FC6560A068B0B9A56014E0294692
:104F00002046A2681EF06EFC0022294620461EF0B4
:104F10005BFCA06820B12A462046A1681EF054FC24
:104F2000A560606800B96560BDE8F08101460020B9
:104F300001B14868704702460AB9002070470B4625
:104F40001068001D03441868F8E702460AB90020FB
:104F500070470B46106803441868F9E701460020C3
:104F600001B188687047002242608260CA1C22F04A
:104F700003010160704770B50446216801F1080023
:104F800019F018F90546A5B10022294620461EF061
:104F900029FC2946204662681EF016FC606820B194
:104FA0002A46204661681EF01DFC6560A06800B9B5
:104FB000A560284670BD2DE9F04106460D4606B1B4
:104FC00015B90020BDE8F0813046FFF7AFFFA842D9
:104FD00006D13046FFF7CFFF044624BB0020F1E79F
:104FE000316801F1080019F0E5F804460CB9002019
:104FF000E8E729463046FFF7A8FF0746224639462C
:1050000030461EF0E1FB3A46214630461EF0EAFBF0
:105010002246294630461EF0E5FB2A462146304608
:105020001EF0D2FB00BF2046CCE770B504462168D5
:1050300001F1080019F0BEF80546A5B10022294685
:1050400020461EF0C1FB29462046A2681EF0CAFB7E
:10505000A06820B12A462046A1681EF0B5FBA560D5
:10506000606800B96560284670BD014609B9012035
:105070007047486818B9886808B90120F8E7002027
:10508000F6E72DE9F04107460D461646B54201D137
:10509000BDE8F0812EB131463846FFF756FF044691
:1050A00003E03846FFF75AFF0446A54200D1EFE778
:1050B0002946384600F01AF82A46214638461EF09E
:1050C00083FB2246294638461EF08CFB2A46314691
:1050D00038461EF087FB3246294638461EF074FBE0
:1050E00006B9BD6004B97D6000BFD1E72DE9F0418C
:1050F00004460D462046FFF719FFA8420FD1294666
:105100002046FFF718FF6060606810B90020A060BB
:105110002FE00022204661681EF064FB29E0204653
:10512000FFF71CFFA8420FD129462046FFF70DFFCD
:10513000A060A06810B9002060601AE0002220463C
:10514000A1681EF041FB14E029462046FFF7FDFE52
:10515000064629462046FFF7EEFE07463A46314608
:1051600020461EF031FB3246394620461EF03AFBFF
:1051700000BFBDE8F081F0B50446059D8C4201DC1E
:1051800018B2F0BD944201DB28B2FAE7571AEE1AC2
:10519000601A704390FBF7F0184400B2F1E700008A
:1051A00010B5002406E00020114901EBC40188710C
:1051B000601CC4B2022CF6D3002415E00D4850F850
:1051C000340078B10B4951F8340019F05FF8002031
:1051D000084941F8340001EBC4018871054901EB2D
:1051E000C4018880601CC4B2102CE7DB10BD000035
:1051F000FC010020D0FE002070B505460DB900204E
:1052000070BD102D15D8002411E0444800EBC400F7
:10521000807900F0010040B90120404901EBC40150
:1052200088713E4850F83400EAE7601CC4B2022C92
:10523000EBD34FF0FF3600242CE0394800EBC400DC
:10524000807900F0010018BB354800EBC40080886D
:10525000A8421DD3324800EBC4008088A84208D180
:1052600001202F4901EBC40188712D4850F834000A
:10527000C6E7002E01DA66B20AE0294800EBC40056
:105280008088274901EBC6018988884200DA66B226
:10529000601CC4B2102CD0DB002E08DB012020499A
:1052A00001EBC60188711E4850F83600A8E70024BB
:1052B0002AE01B4800EBC400807900F0010008BB25
:1052C0000120174901EBC4018871154901EBC401A4
:1052D0008D80134951F83400294619F017F8104908
:1052E00041F83400084650F8340038B900BF0022B5
:1052F00013460C4813F00EFC00BFFEE7084850F8B8
:1053000034007DE7601CC4B2102CD2DB00BF002249
:10531000134605A013F0FEFB00BFFEE7FC010020D2
:10532000D0FE002014D003084E6F20667265652001
:105330006275666665722E20496E6372656173657B
:10534000204C565F445241575F4255465F4D41588D
:105350005F4E554D2E000000014600200CE0114A22
:1053600052F830208A4205D100220E4B03EBC003D5
:105370009A717047421CD0B20228F0D300200CE092
:10538000094A52F830208A4205D10022064B03EB2D
:10539000C0039A71EDE7421CD0B21028F0DB00BFC9
:1053A000E7E70000FC010020D0FE0020014609B91B
:1053B000002070470448814201D10020F9E70A1F0C
:1053C00010684008F5E70000F40100200749084A8A
:1053D000116011460868016821F0010101604BF677
:1053E000FC72016862F35F010160704700400010C9
:1053F000F00100202DE9F0410F46154601463A46DE
:1054000001F0030602F0030CB4457DD0C2E092F82F
:10541000008081F80080491C521C92F8008081F8BD
:105420000080491C521C92F8008081F80080491CC1
:10543000521C92F8008081F80080491C521C92F89E
:10544000008081F80080491C521C92F8008081F88D
:105450000080491C521C92F8008081F80080491C91
:10546000521C92F8008081F80080491C521C92F86E
:10547000008081F80080491C521C92F8008081F85D
:105480000080491C521C92F8008081F80080491C61
:10549000521C92F8008081F80080491C521C92F83E
:1054A000008081F80080491C521C92F8008081F82D
:1054B0000080491C521C92F8008081F80080491C31
:1054C000521C92F8008081F80080491C521C92F80E
:1054D000008081F80080491C521C92F8008081F8FD
:1054E0000080491C521C92F8008081F80080491C01
:1054F000521C92F8008081F80080491C521C92F8DE
:10550000008081F8008000E053E0491C521C92F8B2
:10551000008081F80080491C521C92F8008081F8BC
:105520000080491C521C92F8008081F80080491CC0
:10553000521C92F8008081F80080491C521C92F89D
:10554000008081F80080491C521C92F8008081F88C
:105550000080491C521C92F8008081F80080491C90
:10556000521C92F8008081F80080491C521C92F86D
:10557000008081F80080491C521C92F8008081F85C
:105580000080491C521C92F8008081F80080491C60
:10559000521C203D202D3FF63AAF06E092F80080E5
:1055A00081F80080491C521C6D1E002DF6D1BDE80B
:1055B000F0816EB1C6F1040607E092F8008081F830
:1055C0000080491C521C761E6D1E0EB1002DF4D1B8
:1055D0000B46144630E0D4F80080C3F800801B1D51
:1055E000241DD4F80080C3F800801B1D241DD4F8AE
:1055F0000080C3F800801B1D241DD4F80080C3F870
:1056000000801B1D241DD4F80080C3F800801B1DE2
:10561000241DD4F80080C3F800801B1D241DD4F87D
:105620000080C3F800801B1D241DD4F80080C3F83F
:1056300000801B1D241D203D202DCCD806E0D4F871
:105640000080C3F800801B1D241D2D1F042DF6D8DB
:105650001946224606E092F8008081F80080491C35
:10566000521C6D1E002DF6D100BFA0E730B50446D8
:105670000B4604E01D782570641C5B1C521E002A3A
:10568000F8D130BD30B504460B4604E01D782570D6
:10569000641C5B1C521E002AF8D130BD30B5044694
:1056A0000B4604E01D782570641C5B1C521E002A0A
:1056B000F8D130BD30B504460B4604E01D782570A6
:1056C000641C5B1C521E002AF8D130BD30B5044664
:1056D0000B4604E01D782570641C5B1C521E002ADA
:1056E000F8D130BDF0B506460B46344604F003054C
:1056F0004DB1C5F1040503E02370641C521E6D1EFC
:105700000DB1002AF8D103EB032707EB034707EBA2
:105710000361204610E00160001D0160001D016072
:10572000001D0160001D0160001D0160001D016081
:10573000001D0160001D203A202AECD802E0016023
:10574000001D121F042AFAD8044602E02370641CCC
:10575000521E002AFAD1F0BD30B50446224602F0AE
:10576000030353B1C3F1040304E000251570521C78
:10577000491E5B1E0BB10029F7D1104611E0002530
:105780000560001D0560001D0560001D0560001D11
:105790000560001D0560001D0560001D0560001D01
:1057A00020392029EBD803E000250560001D091FE2
:1057B0000429F9D8024603E000251570521C491E41
:1057C0000029F9D130BD30B50446224602F003036A
:1057D00053B1C3F1040304E0FF251570521C491EA8
:1057E0005B1E0BB10029F7D1104612E04FF0FF35D8
:1057F0000560001D0560001D0560001D0560001DA1
:105800000560001D0560001D0560001D0560001D90
:1058100020392029EAD804E04FF0FF350560001D4B
:10582000091F0429F8D8024603E0FF251570521C11
:10583000491E0029F9D130BD2DE9FE4F05460E461F
:10584000144627464FEA27294FF0000AA84626E0CB
:105850003146404619F08CFE00903146404619F022
:10586000E1FD834607EB0B2084B201AA2146009894
:1058700000F0E6FB8246BAF1010F04D1BDF8041036
:105880000846BDE8FE8F09F0800000B90AE00EB1BD
:10589000002604E0404619F06FFD804600BFB8F1D5
:1058A000000FD5D100BF24F4FE44292C02D02A2CAD
:1058B00008D100E000BF064800680090BDF8001065
:1058C0000846DEE700200290BDF808100846D8E739
:1058D000DC9603082DE9FE4F06460F461546A846FE
:1058E0004FEA2820029000200090B146F3E03946AC
:1058F000484619F03DFE0446A088C0F3C0200028A9
:1059000076D1207900F03F00002871DDA088C0F337
:10591000802028B925F4FE423946484624F0B8F9DB
:105920004FF0000B25F4FE40312869D019DC102817
:1059300074D007DC082841D2DFE800F0A57B41A540
:105940005152505320286AD006DC112868D0122802
:1059500067D0132832D180E0232829D03028F9D10C
:1059600047E0602873D00EDC422871D006DC322874
:105970007BD033284BD04028ECD153E050285FD067
:105980005428E7D176E048F28102811A90421ED075
:1059900009DC722870D0912869D0A0F500408038C9
:1059A000002870D112E0022965D01F296BD15DE07B
:1059B0006068C0F3005008B14FF0010B63E0A088AD
:1059C000C0F3803008B14FF0010B5CE000BF6068AD
:1059D000C0F3407008B14FF0010B54E000BF00BFAE
:1059E00000BFA088C0F3C03008B14FF0010B4AE0FF
:1059F0004FE06068C0F3405008B14FF0010B42E047
:105A00006068C0F3805008B14FF0010B3BE0606864
:105A1000C0F3C05008B14FF0010B34E01AE023E0AE
:105A200019E019E06068C0F3006008B14FF0010BA5
:105A300029E0A088C0F3003008B14FF0010B22E04C
:105A40006068C0F3806008B14FF0010B1BE010E00C
:105A50000EE00AE000BF00BF00BF6068C0F3004076
:105A600008B14FF0010B0EE000BF00BF00BF00BF48
:105A700000BF00BF00BF00BF6068C0F3404008B176
:105A80004FF0010B00BF00BFBBF1000F00D026E0BC
:105A900000BF3946484619F0C5FC824608EB0A208B
:105AA00085B201AA2946204600F016FB0090009816
:105AB000012803D1BDF90400BDE8FE8F029800F073
:105AC000800000B90BE00FB1002704E0484619F050
:105AD00053FC814600BFB9F1000F7FF408AF00BF4F
