:020000040800F2
:10000000206B00209D010008310B0008290B00081F
:100010002D0B0008C10200081D250008000000008B
:10002000000000000000000000000000C1200008E7
:10003000A908000800000000C10B0008B121000859
:10004000B7010008B7010008B7010008B7010008B0
:10005000B7010008B7010008B7010008B7010008A0
:10006000B7010008B7010008B7010008B701000890
:10007000B7010008B7010008B7010008B701000880
:10008000B7010008B7010008B7010008B701000870
:10009000B7010008B7010008B7010008B701000860
:1000A000B7010008B7010008B7010008B701000850
:1000B000B7010008B701000821220008B7010008B5
:1000C000B7010008B7010008B7010008B701000830
:1000D000B701000819230008B7010008B70100089C
:1000E000B7010008B7010008B7010008B701000810
:1000F000B7010008B7010008B7010008B701000800
:10010000B7010008DD0F0008B7010008B7010008BB
:10011000B7010008B7010008B7010008B7010008DF
:10012000B7010008B7010008B701000891050008F1
:10013000B7010008B7010008B7010008B7010008BF
:10014000B7010008B7010008B7010008B7010008AF
:10015000B7010008B701000899050008B7010008B9
:10016000B7010008B7010008B7010008B70100088F
:10017000B7010008B7010008B7010008B70100087F
:10018000B7010008B7010008DFF80CD000F086F8CE
:1001900000480047153D0008206B002006488047B6
:1001A00006480047FEE7FEE7FEE7FEE7FEE7FEE75C
:1001B000FEE7FEE7FEE7FEE7B92100088901000837
:1001C0002DE9F05F0546002092469B46884606468C
:1001D000814640241BE0284641464746224600F01F
:1001E0004DF853465A46C01A914110D3114618464D
:1001F000224600F034F82D1A67EB01084F462246DC
:100200000120002100F02BF817EB00094E41201EC1
:10021000A4F10104DFDC484631462A464346BDE8E6
:10022000F09FD2B201E000F8012B491EFBD27047CB
:100230000022F6E710B513460A4604461946FFF7B2
:10024000F0FF204610BD421E12F8013F002BFBD1EB
:1002500011F8013B02F8013B002BF9D17047202A2D
:1002600004DB203A00FA02F1002070479140C2F10D
:10027000200320FA03F3194390407047202A04DB3F
:10028000203A21FA02F00021704721FA02F3D0400F
:10029000C2F120029140084319467047064C074DB1
:1002A00006E0E06840F0010394E807009847103446
:1002B000AC42F6D3FFF76CFF284B0008484B000810
:1002C00000BFFEE770B500254FF4803400E0641EE7
:1002D00024B1802000F056FE0028F8D014B9032580
:1002E000284670BD40F2FF5000F008FE2846F8E7AF
:1002F0002DE9F041064600274848056801E04748D7
:10030000056805F045000028F9D005F0040030B17B
:100310000327042000F0F2FD3846BDE8F08105F027
:10032000010028B10127012000F0E8FD3846F4E77C
:1003300000F022FEB04202D010273846EDE740F22E
:10034000FF5000F0DBFD002000F03CFE0446344886
:10035000204008B93846E0E704F0004008B11C200E
:10036000DBE704F0804008B10920D6E704F0005034
:1003700008B10A20D1E704F0805008B10B20CCE787
:1003800004F0006008B10C20C7E704F0806008B1F9
:100390000D20C2E704F0807008B10E20BDE704F420
:1003A000000008B10F20B8E704F4800008B1102065
:1003B000B3E704F4001008B11120AEE704F4801094
:1003C00008B11220A9E704F4002008B11320A4E723
:1003D00004F4802008B114209FE704F4003008B131
:1003E00015209AE704F4803008B1162095E704F44C
:1003F000004008B1172090E704F4804008B11820AD
:100400008BE704F4005008B1192086E704F00800D7
:1004100008B11A2081E738467FE70000342C0140FC
:1004200008E0FFFD70B500251048046801E00F48A2
:10043000046804F045000028F9D004F0040028B155
:100440000325042000F05AFD284670BD04F0010089
:1004500028B10125012000F051FD2846F5E740F2C2
:10046000FF5000F04BFD2846EFE70000342C014020
:1004700070B500250B48046801E00A48046804F0E0
:1004800045000028F9D004F0040028B10325042019
:1004900000F034FD284670BD40F2FF5000F02EFD04
:1004A0002846F8E7342C01402DE9F04106460F4676
:1004B0004FF000082248056801E02148056805F072
:1004C00045000028F9D005F0040038B14FF00308CA
:1004D000042000F013FD4046BDE8F08105F0010066
:1004E00030B14FF00108012000F008FD4046F3E76D
:1004F00000F042FDB04203D04FF010084046EBE759
:1005000040F2FF5000F0FAFC002000F05BFD0446D2
:1005100004F4604018B9200C38804046DCE704F44D
:10052000005008B11320D7E704F4804008B1102030
:10053000D2E704F4004008B10F20CDE74046CBE7F6
:10054000342C014070B500264FF480350F48046804
:1005500002E06D1E0D48046804F0450008B9002D46
:10056000F7D115B104F0040028B10326042000F0EF
:10057000C5FC304670BD04F0400028B10026402084
:1005800000F0BCFC3046F5E73046F3E7342C014080
:1005900010B501F0F9FA10BD10B50749074800F091
:1005A00007F938B10449054800F024F80021034850
:1005B00000F03AF810BD000000800028B864024046
:1005C0000246094B9A4201D2084801E00648103819
:1005D00001F000531BB1064B0B40C36002E0044B1B
:1005E0000B408360704700001064024000600240CE
:1005F0007D0F7D0F0246094B9A4201D2084801E067
:100600000648103801F000531BB1064B0B40C36085
:1006100002E0044B0B40836070470000106402400E
:10062000006002407D0F7D0F21B1026842F001029F
:10063000026003E0026822F00102026070470000DD
:10064000016821F0010101600021016041608160C9
:10065000C1600161212141614A49884204D13D21A3
:10066000484A103A91608CE046491831884205D1D9
:100670004FF47461434A103A916082E0414930314D
:10068000884205D14FF474113E4A103A916078E0E7
:100690003C494831884205D14FF07461394A103ADB
:1006A00091606EE037496031884204D13649354A5D
:1006B000103AD16065E033497831884204D133493A
:1006C000304A103AD1605CE02E499031884204D122
:1006D0002F492C4A103AD16053E02A49A831884268
:1006E00005D14FF03D51274A103AD16049E02949E0
:1006F000884204D13D21274A083A116041E025494A
:100700001831884205D14FF47461224A083A1160C9
:1007100037E020493031884205D14FF474111D4A29
:10072000083A11602DE01B494831884205D14FF04D
:100730007461184A083A116023E016496031884212
:1007400004D11149134A121F11601AE0114978317E
:10075000884204D10D490F4A121F116011E00D4962
:100760009031884204D10A490A4A121F116008E0F8
:100770000849A831884204D14FF03D51054A121F63
:1007800011607047106002403D000020400F0020C3
:1007900000003D201064024021B1026842F02002B6
:1007A000026003E0026822F020020260704700004D
:1007B00070B50246002000240025124EB24201D23C
:1007C000114B01E00F4B103B104E0E4036B11E2670
:1007D00006EAD124166806EA040502E0566906F026
:1007E000800501F000560EB15C6800E01C68084E00
:1007F000344004EA010616B10DB1012000E00020EA
:1008000070BD000010640240006002403C0F3C0FCD
:100810007D0F7D0F10B501F080034BB122B143690C
:1008200043F08003436103E0436923F080034361A5
:1008300080290BD02AB1036801F01E042343036012
:1008400004E0036801F01E04A343036010BD000030
:1008500010B500220268134B1A40CC680B68234382
:100860004C6923438C692343CC6923430C6A23439B
:100870004C6A23438C6A23434C6B23438C6B234386
:100880001A430260426922F00702D1E90B34234384
:100890001A4342610B6943604B6883608B68C36095
:1008A00010BD00003F801CF0704700002DE9FC41A6
:1008B00007460D46002600240020009001900820E5
:1008C0005B49086010204860402088600020C860B4
:1008D0004FF480600861084600F0B2FB1020FFF77B
:1008E00007FD044614B12046BDE8FC81514800884C
:1008F00000044F490860372048604020886000208D
:10090000C8604FF480600861084600F099FB37200A
:10091000FFF7EEFC04460CB12046E5E74FF0FF3050
:100920004549086008204860302088600220C8607F
:100930000020086101204861084600F0F7FA002015
:100940003B49086033204860402088600020C86030
:100950004FF480600861084600F072FB3320FFF717
:10096000C7FC04460CB12046BEE709E04FF4001076
:1009700000F008FB20B100F05DFB4DF82600761C6E
:100980002E48006840F22A6108400028EED0082076
:1009900000F0F8FA28B1082000F0B0FA042420464C
:1009A000A2E7022000F0EEFA28B1022000F0A6FA39
:1009B0000224204698E7202000F0E4FA28B1202005
:1009C00000F09CFA062420468EE74FF4007000F0F9
:1009D000D9FA30B14FF4007000F090FA07242046A5
:1009E00082E740F2FF5000F089FA00980006009973
:1009F00001F47F4140EA0120009901F47F0140EABF
:100A00001120009940EA1160686001980006019980
:100A100001F47F4140EA0120019901F47F0140EA9D
:100A20001120019940EA1160286020465CE700002F
:100A3000300200203000002044020020342C01400D
:100A4000F0B50A4600210023002400BF3DE0012547
:100A500005FA01F3156805EA03049C4234D10568E0
:100A60004F000326BE40B543056015794E00B540E2
:100A70000668354305601579012D02D01579022DE0
:100A800016D185684F000326BE40B5438560557971
:100A90004E00B540866835438560456801268E4026
:100AA000B5434560456896798E40B6B2354345609A
:100AB000C5684F000326BE40B543C560D5794E00DA
:100AC000B540C6683543C560491C1029BFD3F0BD89
:100AD000F0B5002300244D07ED0E02FA05F3CE1009
:100AE00000F1200555F826504E07F70E0F26BE40A0
:100AF000B543CF1000F1200646F82750CE1000F184
:100B0000200555F8265045EA0304CE1000F12005D3
:100B100045F82640F0BD0246002013690B400BB19A
:100B2000012000E00020704700BFFEE700BFFEE7A5
:100B30007047000070B5002100230F22C4781CB359
:100B4000174C246804F4E064C4F5E064C4F307219E
:100B5000C1F10404E3B20A4144789C40E1B28478D4
:100B6000144021430C07210E0E4C05786155047882
:100B700004F01F050124AC4005786D11AD0005F1AE
:100B8000E025C5F8004109E0047804F01F050124C0
:100B9000AC40054D0678761145F8264070BD000042
:100BA0000CED00E000E400E080E100E002490143D8
:100BB000024A1160704700000000FA050CED00E0E9
:100BC0007047000029B1064A12680243044B1A60BC
:100BD00004E0034A12688243014B1A607047000028
:100BE0003038024029B1064A12680243044B1A60A9
:100BF00004E0034A12688243014B1A607047000008
:100C00004038024029B1064A12680243044B1A6078
:100C100004E0034A12688243014B1A6070470000E7
:100C20004438024029B1064A12680243044B1A6054
:100C300004E0034A12688243014B1A6070470000C7
:100C400024380240F0B500210022002402250026AD
:100C50000223324F3F6807F00C0121B1042905D06F
:100C6000082937D105E02E4F076036E02D4F076089
:100C700033E02A4F3F1F3F68C7F38056274F3F1F7F
:100C80003F6807F03F036EB1264FB7FBF3F7DFF87D
:100C90008CC0ACF1040CDCF800C0CCF3881C07FB62
:100CA0000CF40CE01E4FB7FBF3F7DFF870C0ACF1AB
:100CB000040CDCF800C0CCF3881C07FB0CF4174FC5
:100CC0003F1F3F68C7F301477F1C7D00B4FBF5F76A
:100CD000076002E0124F076000BF00BF0F4F3F6880
:100CE00007F0F0010909104F7A5C0768D7404760A8
:100CF0000A4F3F6807F4E051890A0B4F7A5C476856
:100D0000D7408760054F3F6807F46041490B064FA5
:100D10007A5C4768D740C760F0BD000008380240E1
:100D20000024F40040787D0114000020014600BF3B
:100D3000080900EB8000420001F00F001044C0B22F
:100D40007047000070B506460C4600250E48006846
:100D50000E4900EA0105280CE070C5F3042060701C
:100D600005F03F00A070C5F3423020705EB9E07816
:100D7000FFF7DCFFE0706078FFF7D8FF6070A078C5
:100D8000FFF7D4FFA07070BD042800403FFFFF00B4
:100D900070B506460C4600250F4800680F4900EA6A
:100DA0000105C5F305402070C5F30620607005F00D
:100DB0007F00A07005F48000000CE0705EB9207820
:100DC000FFF7B4FF20706078FFF7B0FF6070A07885
:100DD000FFF7ACFFA07070BD002800407F7F7F0050
:100DE0007CB50546002400200090019000F0EAF850
:100DF00000F0007010B10E2420467CBD3D490988EA
:100E000088B26946FFF752FD04460CB12046F4E76C
:100E1000012D36D1019800F4802000282ED03548CD
:100E2000008800043449086037204860402088600A
:100E30000020C860A8020861084600F001F93720C8
:100E4000FFF756FA04460CB12046D6E702202A499D
:100E5000086006204860402088600020C8604FF489
:100E600080600861084600F0EBF80620FFF740FAC2
:100E700004460CB12046C0E72046BEE725242046A4
:100E8000BBE7019800F4803078B31A48008800046A
:100E90001949086037204860402088600020C860F9
:100EA0004FF480600861084600F0CAF83720FFF769
:100EB0001FFA04460CB120469FE700200E49086047
:100EC00006204860402088600020C8604FF48060A1
:100ED0000861084600F0B4F80620FFF709FA044656
:100EE0000CB1204689E7204687E7FFE72524204606
:100EF00083E7000030000020300200200149086034
:100F000070470000382C014001490860704700001C
:100F1000382C01400149086070470000A08025423C
:100F200001490860704700008C85254200210B4B69
:100F300002681A601B1D42681A601A1D116821F0B0
:100F4000F701D0E902231A4303691A4343691A439C
:100F50001143024A0832116070470000242C0140FE
:100F600010B50121C802FFF75DFE00214FF40060BB
:100F7000FFF758FE10BD000001480068C0B270477E
:100F8000102C014001460020034A12680A400AB1B1
:100F9000012000E000207047342C01400146002071
:100FA000034A12680A400AB1012000E0002070479D
:100FB000342C01400248006800F003007047000034
:100FC000002C014008B5014600200090024808446A
:100FD00000900098006808BD142C014010B500F086
:100FE000E7FD10BD29B1064A12680243044B1A609E
:100FF00004E0034A12688243014B1A607047000004
:101000003C2C014000210A4A116847F6FF629143D7
:10101000027D83681A4343681A43C3681A4303680E
:101020001A4303691A431143014A116070470000D3
:10103000042C01400148006870470000802C0140EA
:101040000021094B02681A601A1D11686FF30A012A
:10105000D0E901231A43C3681A4303691A431143B1
:10106000014A121D11607047082C014001490860B7
:1010700070470000002C014008B50120009041039A
:101080000448FFF748FD08B1002000909DF80000DB
:1010900008BD0000001C024070B504460025204831
:1010A0000068032802D12725284670BD1C48006827
:1010B00038B11B480068012803D01948006802288D
:1010C0002CD1B4F5805F02D127252846EDE7B4F591
:1010D000006F13D10120FFF783FE0546F5B900200C
:1010E000104908750860486088604FF40060C86067
:1010F000002008610846FFF785FF0FE00020FFF79A
:101100006FFE054655B9002006490875086048601D
:101110008860C86008610846FFF774FF2846C4E786
:101120002C00002018020020F0B50146002000220B
:10113000C04B1B7881F85630BF4B1B88A1F8543048
:10114000BE4B1B681A0E93090B70C2F383034B70DE
:1011500002F003038B70B94B1B68C3F30742CA70DC
:10116000B64B1B88C3F307220A71B44B1A784A7135
:101170005B681A0E1301CB80B04B5B68C3F3074268
:10118000CB8843EA1213CB8002F00F030B72AB4BF8
:101190009B88C3F30722D3094B72C2F380138B726F
:1011A000C2F34013CB72C2F300130B7300234B73D3
:1011B000A04B1B681BB19F4B1B68012B4FD19307A2
:1011C0001B0D0B619D4B1A790B6943EA82030B617E
:1011D0009A4B9B681A0E0B6943EA92130B61C2F398
:1011E000C2030B7502F007034B75944B9B68C3F366
:1011F000074253098B75C2F38203CB7593075B0FCC
:101200000B768E4B1B89C3F307220B7E43EAD21366
:101210000B760B695B1C0024C1E912340B7ED1E90B
:1012200012469B1C012505FA03F3DF17A4FB035CA0
:1012300006FB03C304FB0733C1E912530C7A0123F5
:10124000A3400B650027D1E912560B6DA5FB034C9B
:1012500006FB03C305FB0733C1E9124336E0754BB8
:101260001B68022B32D1754B1A7993069B0A0B61CE
:10127000724B9B681A0E0B6943EA02230B616F4B9A
:101280009B68C3F307420B6913430B616B4B1B89CC
:10129000C3F307220B6900245B1C44EB04074FF4E3
:1012A00000760025A3FB064C07FB06C603FB05667C
:1012B0004FF480650027A4FB053C06FB05C504FB35
:1012C0000754C1E912344FF400730B65C2F3801365
:1012D00001F8193F93065B0E4B70584B1A7A4B7806
:1012E00043EAD2134B7002F07F038B70534BDB68E1
:1012F0001A0ED309CB70C2F341130B71C2F38203F0
:101300004B7193071B0F8B714C4BDB68C3F3074288
:101310008B7943EA92138B71C2F34013CB71002394
:101320000B7202F001034B72444B9B89C3F30722FB
:10133000D3098B72C2F38013CB72C2F340130B73C9
:10134000C2F300134B73C2F381038B7302F00303E8
:10135000CB733A4B1A7B53080B7401234B74384BF5
:101360001B681A0ECA741939354B1B68C3F3074240
:101370001402CC85324B1B88C3F30722CB8D134359
:10138000CB852F4B1A7814060C635B681A0E0B6B17
:1013900043EA02440C632A4B5B68C3F307420B6BBE
:1013A00043EA02240C63264B9B88C3F307220B6B92
:1013B00013430B63224B1A7934235A54204B9B68F6
:1013C0001A0E35235A541E4B9B68C3F3074214066A
:1013D0008C631B4B1B89C3F307228B6B43EA0244CC
:1013E0008C63174B1A7A8B6B43EA02248C63144B81
:1013F000DB681A0E8B6B13438B63114BDB68C3F3F3
:1014000007423C235B5C43EA12143C235C54130701
:101410001C0DCC870A4B9B89C3F30722CB8F134348
:10142000CB87074B1A7B540840235C54012441238B
:101430005C54F0BD2C000020300000209001002002
:10144000A001002008B500200090FFF715FE01283C
:1014500009D1684600F09AFC08B1FF2008BD009849
:10146000C0F34320FAE7FF20F8E710B50424FFF7A4
:10147000E9FF0446042C01D1002010BDFF2C01D14E
:101480000220FAE70120F8E7F0B593B0002500202C
:10149000119012900027402101A8FEF7C9FE0024F8
:1014A00001AE00205F4908705F4908605F4908602D
:1014B0005F4908605F49098888B211A9FFF7F6F90A
:1014C000054615B1284613B0F0BD129800F08070A3
:1014D00018B9129800F0007008B1012000E0002057
:1014E0000746002F72D04020534908601020486002
:1014F000402088600020C8604FF480600861084682
:10150000FFF79EFD1020FEF7F3FE05460DB12846BD
:10151000D9E74FF0FF30494908604020486060201B
:1015200088600220C86000200861012048610846E8
:10153000FFF7FCFC42484049086006204860402014
:1015400088600020C8604FF4806008610846FFF79B
:1015500077FD0620FEF7CCFE05460DB12846B2E722
:101560000EE04FF40040FFF70DFD48B1002404E009
:10157000FFF760FD46F82400641C082CF8D32036E1
:101580002B480830006840F22A6108400028E8D063
:101590000820FFF7F7FC28B10820FFF7AFFC04256F
:1015A000284690E70220FFF7EDFC28B10220FFF764
:1015B000A5FC0225284686E72020FFF7E3FC30B192
:1015C0002020FFF79BFC062528467CE727E04FF408
:1015D0000070FFF7D7FC30B14FF40070FFF78EFCBE
:1015E000072528466FE74FF0FF3404E0FFF722FDA0
:1015F0003060361D641E4FF40010FFF7C3FC08B1C5
:10160000002CF3D140F2FF50FFF778FC9DF8110059
:1016100000F00200022801D1002500E0272528461D
:1016200051E70000380000203C000020340000207A
:101630002C2C014030000020300200204402002009
:1016400001FFFF8008B50020009000F06BF9FFF764
:1016500087FC00F0C9F900909DF8000010B19DF8DA
:10166000000008BD00F032F800909DF8000010B1B5
:101670009DF80000F5E700201249087508604860F1
:101680008860C86008610846FFF7BCFC0E48FFF799
:101690004BFD00909DF8000040B90B48B0F8540095
:1016A00002041046002100F055FB00909DF8000058
:1016B00020B94FF40060FFF7EFFC00909DF80000A8
:1016C000CFE7000018020020C001002038B5002438
:1016D00001200090FFF76EFC10B92524204638BD8C
:1016E00044480068042828D00020434908600220AC
:1016F0004860C02088600020C8604FF480600861A6
:101700000846FFF79DFCFEF78DFE04460CB120460F
:10171000E5E70020FFF756FC384908600420FFF792
:1017200051FC364948600820FFF74CFC334988607B
:101730000C20FFF747FC3149C8602E48006858B1BB
:101740002C480068012807D02A480068062803D0E2
:1017500028480068022816D1002027490860032085
:101760004860402088600020C8604FF480600861B5
:101770000846FFF765FC69460320FEF795FE044620
:101780000CB12046ABE71B48006804282ED0BDF8FA
:1017900000001B490860BDF80000000416490860FD
:1017A00009204860C02088600020C8604FF4806035
:1017B00008610846FFF744FCFEF734FE04460CB10E
:1017C00020468CE70020FFF7FDFB0E49086004204F
:1017D000FFF7F8FB0B4948600820FFF7F3FB0949C6
:1017E00088600C20FFF7EEFB0649C8600024204605
:1017F00075E700002C00002030020020A00100202E
:10180000300000209001002030B58FB005460C4616
:101810004FF0FA511D48FEF7D3FE00211B48FEF79A
:1018200003FF1A48FEF70CFF4FF0006000901848C5
:101830000190029500200390049405904FF480607D
:1018400006908000079080000890002009904FF4D7
:1018500040300A9004200B9003200C904FF40000BD
:101860000D9080100E9069460848FEF7F1FF0122A6
:1018700010210648FEF7CEFF20210448FEF78CFF1A
:1018800001210248FEF7D0FE0FB030BD586402407F
:10189000802C014030B58FB005460C464FF0FA5110
:1018A0001E48FEF78DFE00211C48FEF7BDFE1B48BA
:1018B000FEF7C6FE4FF000600090194801900295B7
:1018C000402003900494002005904FF4806006901F
:1018D0008000079080000890002009904FF440306D
:1018E0000A9004200B9003200C904FF400000D9000
:1018F00080100E9069460948FEF7AAFF01221021C8
:101900000648FEF787FF20210448FEF745FF012126
:101910000248FEF789FE0FB030BD00005864024057
:10192000802C01401CB501218C20FFF74BF90C22C3
:1019300008212A48FFF7CCF80C2209212748FFF795
:10194000C7F80C220A212548FFF7C2F80C220B2108
:101950002248FFF7BDF80C2211462048FFF7B8F8DF
:101960000C2202211E48FFF7B3F84FF4706000907C
:1019700002208DF805008DF8040000208DF8060087
:1019800001208DF8070069461448FFF759F8042034
:10199000009069461248FFF753F84FF480500090CA
:1019A00000208DF8070069460C48FFF749F84FF40E
:1019B0000050009000208DF8040001208DF80700F1
:1019C00069460848FFF73CF80121C802FFF71AF9F9
:1019D00001218805FFF7F6F81CBD00000008024051
:1019E000000C0240001C0240F8B5002000900025C9
:1019F00000240026002776205F4908750020086033
:101A000048608860C86008610846FFF7FBFA032059
:101A1000FFF72CFB0120FFF77DFA002057490860F3
:101A200048608860C8604FF4806008610846FFF72E
:101A300007FBFEF747FC00909DF8000010B19DF8F1
:101A40000000F8BD4FF4D5704C490860082048608C
:101A5000402088600020C8604FF48060086108461C
:101A6000FFF7EEFAFEF76EFD00909DF8000020B93A
:101A7000012043490860870712E000203F490860C1
:101A800037204860402088600020C8604FF48060A4
:101A900008610846FFF7D4FA3720FEF729FC0090CA
:101AA00000203649086037204860402088600020C8
:101AB000C8604FF4806008610846FFF7C1FA37201C
:101AC000FEF716FC00909DF80000002851D13BE085
:101AD00000202A49086037204860402088600020A4
:101AE000C8604FF4806008610846FFF7A9FA372004
:101AF000FEF7FEFB00909DF8000010B19DF800007D
:101B00009FE7204838431D4908602920486040204D
:101B100088600020C8604FF4806008610846FFF7C5
:101B20008FFAFEF7A5FC00909DF8000010B19DF81B
:101B3000000086E70020FFF745FA0546012080EA0D
:101B4000D57080F00106641C1EB94FF6FF70844208
:101B5000BED34FF6FF70844204D31B2000909DF843
:101B600000006EE705F08040051E02D00220044907
:101B700008609DF8000064E7180200203002002091
:101B80002C0000200000108010B50748006800F00D
:101B9000C05040B10120054908604FF0C2510248D1
:101BA0005830FEF70DFD10BD0064024040000020DB
:101BB00010B54FF48070FFF7F1F950B100202549BE
:101BC00008704FF48070FFF79FF9012022490860E8
:101BD00037E00220FFF7E2F930B10220FFF794F975
:101BE00002201C4908702CE00820FFF7D7F930B11B
:101BF0000820FFF789F904201649087021E0202009
:101C0000FFF7CCF930B12020FFF77EF9062011490B
:101C1000087016E01020FFF7C1F930B11020FFF76F
:101C200073F905200B4908700BE04FF40070FFF7C3
:101C3000B5F930B14FF40070FFF766F90720054998
:101C4000087000214CF23A30FFF7CCF901480078D7
:101C500010BD0000380000203C0000202DE9F047B6
:101C6000814614461D46DDE90868002700203249F8
:101C7000087032490860012031490860002031496C
:101C80000860012140F22A30FFF7ACF908FB06F1A9
:101C90004846FFF7B9FD0120FFF742F92A480068DE
:101CA000022808D106020202002320462946FEF738
:101CB00087FA04460D4625480660102023494860EF
:101CC000402088600020C8604FF4806008610846AA
:101CD000FFF7B6F91020FEF70BFB074617B13846A1
:101CE000BDE8F0874FF0FF301949086008FB06F0A7
:101CF0004860902088600220C860002008610120B0
:101D000048610846FFF712F91048046012200F4995
:101D10004860402088600020C8604FF480600861FF
:101D20000846FFF78DF91220FEF7E2FA07460FB1D9
:101D30003846D5E73846D3E7380000203C0000207D
:101D4000340000202C2C01402C0000203002002008
:101D50004402002070B504460D4600260A4804607F
:101D6000072009494860402088600020C8604FF47F
:101D7000806008610846FFF763F90720FEF7B8FAAC
:101D80000646304670BD00003002002070B50446A3
:101D9000002514B92625284670BD0F480088000488
:101DA0000E4908600D204860402088600020C8600F
:101DB0004FF4806008610846FFF742F90D20FEF7F6
:101DC00097FA05460DB12846E6E70020FFF7FAF836
:101DD00020602846E0E700003000002030020020AC
:101DE00010B5002400200A4908600C2048604020FB
:101DF00088600020C8604FF4806008610846FFF7E3
:101E00001FF90C20FEF774FA0446204610BD0000AE
:101E10003002002070B500256C1E00E0641E1848DA
:101E2000006838B91748006820B91748007808B921
:101E3000002CF3D1002012490860441E00E0641E0B
:101E40001248006800F4005008B1002CF7D1104887
:101E50000068012805D1FFF7C3FF054600200C49A3
:101E600008600CB905B9042540F2FF50FFF746F8A9
:101E70000548007810B10448007870BD2846FCE79A
:101E8000400000203C00002038000020342C01409D
:101E90003400002070B500256C1E00E0641E184858
:101EA000006838B91748006820B91748007808B9A1
:101EB000002CF3D1002012490860441E00E0641E8B
:101EC0001248006800F4805008B1002CF7D1104887
:101ED0000068012805D1FFF783FF054600200C4963
:101EE00008600CB905B9042540F2FF50FFF706F869
:101EF0000548007810B10448007870BD2846FCE71A
:101F0000400000203C00002038000020342C01401C
:101F1000340000202DE9F047814615461E46DDE9D4
:101F200008780024002049490870494908600120C8
:101F300048490860002048490860012140F22A30E1
:101F4000FFF750F808FB07F14846FFF7A3FC012014
:101F5000FEF7E6FF41480068022808D107020202A6
:101F6000002328463146FEF72BF905460E463C482D
:101F7000076010203A494860402088600020C8600F
:101F80004FF4806008610846FFF75AF81020FEF70A
:101F9000AFF9044614B12046BDE8F0873148008807
:101FA00000042F49086037204860402088600020E6
:101FB000C8604FF4806008610846FFF741F8372099
:101FC000FEF796F904460CB12046E5E72448C0F830
:101FD0000080172022494860402088600020C860A7
:101FE0004FF4806008610846FFF72AF81720FEF7D3
:101FF0007FF904460CB12046CEE719480560192048
:1020000017494860402088600020C8604FF4806015
:1020100008610846FFF714F81920FEF769F904462D
:102020000CB12046B8E74FF0FF300F49086008FBBD
:1020300007F04860902088600020C8600861012097
:1020400048610846FEF772FF2046A5E738000020E9
:102050003C000020340000202C2C01402C000020EB
:1020600030020020300000204402002021B102880C
:1020700042F04002028004E002884FF6BF731A402B
:102080000280704710B50022028802F441520B888A
:102090004C8823438C882343CC8823430C892343D7
:1020A0004C8923438C892343CC8923431A430280E0
:1020B000838B4FF2FF74234083830B8A038210BD0E
:1020C000704700000CB50020019000903448006873
:1020D00040F480303249086000BF3148006800F4A5
:1020E000003000900198401C0190009818B90198A8
:1020F000B0F5A04FF1D12A48006800F4003010B1CB
:102100000120009001E0002000900098012846D1B5
:1021100023484030006840F0805021494031086039
:102120002048006840F440401E4908601C480830C0
:1021300000681B49083108600846006840F4004008
:1021400008600846006840F4A05008601648091F5F
:102150000860081F006840F08070091F086000BF19
:102160000F48006800F000700028F9D040F20570B8
:102170000E4908600A480830006820F0030008494A
:10218000083108600846006840F00200086000BF9F
:1021900003480830006800F00C000828F8D10CBD96
:1021A000003802400070004019544007003C0240D3
:1021B00010B502F01BF910BD10B51548006840F4C9
:1021C0007000134908601348006840F0010011498D
:1021D000086000200F49083108600E4800680E4969
:1021E00008400C4908600D48091D0860081F006878
:1021F00020F48020091F0860002006490C31086087
:10220000FFF760FF4FF0006001498039086010BDA2
:1022100088ED00E000380240FFFFF6FE1030002499
:1022200010B50121054800F01AF828B102F0DEF8D7
:102230000121024800F004F810BD00000008004031
:10224000CA430282704721B1028842F00102028033
:1022500004E002884FF6FE731A400280704730B5E2
:102260000246002000230024158A05EA010395890F
:1022700005EA010413B10CB1012000E0002030BDDB
:102280001AB183890B43838102E083898B43838165
:102290007047000000220288184B98420ED0184B5D
:1022A00098420BD0B0F1804F08D0164B984205D021
:1022B000154B984202D0154B984204D14FF68F73BC
:1022C0001A404B881A43124B984207D0114B984240
:1022D00004D04FF6FF431A400B891A4302804B6823
:1022E000C3620B880385054B984202D0044B984289
:1022F00001D18B7A0386012383827047000001405D
:10230000000401400004004000080040000C0040B0
:10231000001000400014004010B540F225510D4857
:1023200000F042F8A0B101F0D7FE0B490B4A128829
:1023300088540A4A1288885C01F0DCFE074800884D
:10234000401C0649088040F22551024800F008F878
:1023500010BD0000001001408C000020240000206F
:1023600010B50022002340F66A14A14200D100BF3C
:102370000A1201249440A3B2DC43048010BD21B1B1
:10238000828942F40052828104E082894DF6FF7313
:102390001A40828170471AB1838A0B43838202E01C
:1023A000838A8B438382704770B5024600240023E2
:1023B0000025002040F66A16B14200D100BFC1F3EB
:1023C000421501F01F03012606FA03F3012D02D185
:1023D0009689334006E0022D02D1168A334001E08F
:1023E000968A33400C12012606FA04F4168834400B
:1023F00013B10CB1012000E0002070BDF0B5034620
:10240000002400260025002040F66A17B94200D1BA
:1024100000BF1846C1F3421401F01F06012707FA56
:1024200006F5012C01D10C3004E0022C01D1103052
:1024300000E014301AB107682F43076002E0076814
:10244000AF430760F0BD00002DE9FF4705460E468B
:102450000024A14600BFA046B08900B100BF2C8A6D
:1024600024F44054F08804432C82AC8941F20C607F
:102470008443B08831890843718908430443AC819F
:10248000AC8A24F44074B0890443AC826846FEF7F9
:10249000D9FB2048854202D01F48854202D1DDF891
:1024A0000C9001E0DDF80890A88900F4004040B1EC
:1024B00009EBC90000EB091031684900B0FBF1F7E6
:1024C00007E009EBC90000EB091031688900B0FB97
:1024D000F1F76420B7FBF0F004012009642101FB4F
:1024E0001078A88900F4004040B1322000EBC80009
:1024F000B0FBF1F000F00700044308E0322000EBED
:1025000008106421B0FBF1F000F00F0004432C81AF
:10251000BDE8FF87001001400014014000BFFEE746
:102520000FB4054B10B503A9044A029800F018F83F
:1025300010BC5DF814FB0000133A0008880000206E
:1025400002E008C8121F08C1002AFAD1704770477C
:10255000002001E001C1121F002AFBD170470000DA
:102560002DE9FF4F8DB00F460546002606E02528D1
:102570000BD0DDE90F1290476D1C761C28780028DF
:10258000F5D111B03046BDE8F08F0024A246A14637
:102590000122EC4900E0044315F8013F203B02FA18
:1025A00003F00842F7D128782A2810D06FF02F02C4
:1025B0002878A0F13001092914D80AEB8A0102EB2E
:1025C000410144F0020400EB010A6D1CF0E701CF69
:1025D0005FEA000A03D544F40054CAF1000A44F04B
:1025E00002046D1C28782E2817D115F8010F44F02D
:1025F00004042A280ED06FF02F022878A0F13001B1
:1026000009290AD809EB890102EB410100EB010914
:102610006D1CF2E757F8049B6D1C28786C280FD0CE
:1026200006DC4C2817D068280DD06A2814D104E0A5
:10263000742810D07A280FD10DE044F400140AE079
:1026400044F4801401E044F440146978814202D1DA
:1026500004F580146D1C6D1C2A786E2A1FD00CDCCA
:10266000632A31D004DC002A8BD0582A11D1A3E090
:10267000642A68D0692A0CD165E0732A2ED004DC64
:102680006F2A73D0702A04D19BE0752A6FD0782A04
:102690006ED01046DDE90F129047761C50E1C4F36E
:1026A0000250022806D0032809D0042801CF09D0FF
:1026B000066045E101CFF117C0E9006140E101CFBB
:1026C00006803DE106703BE117F8040B8DF8000031
:1026D00000208DF80100EB46012003E057F804BB11
:1026E0004FF0FF3061074FF0000102D40DE008F118
:1026F0000101884649450FDA8045F8DB1BF80810D0
:102700000029F4D108E008F1010188468142FADB92
:102710001BF808100029F6D1DDE90F23AAEB080009
:102720008146214600F036F9304400EB080604E00B
:10273000DDE90F121BF8010B9047B8F10108F7D241
:1027400021464846F7E00A21C4F302534FF0000B3C
:102750000891022B04D001CFC117032B09D00AE046
:10276000FF1D27F00707F7E8020108E032E01FE04D
:1027700020E000B2C117042B01D140B2C117031EE3
:1027800071F1000307DA4FF0000CD0EB0C006CEB9A
:1027900001012D2302E0230504D52B238DF82430DD
:1027A000012303E0E30701D02023F7E7984658E030
:1027B0000A2110E010210EE010204FF0000B0890CD
:1027C0000CE010214FF0000B44F004044FF0080916
:1027D000089103E008214FF0000B0891C4F3025365
:1027E000022B04D001CF0021032B06D006E0FF1DF1
:1027F00027F00707F7E8020103E080B2042B00D1BD
:10280000C0B24FF0000823072BD5702A07D0DDF89F
:1028100020C08CF0100C5CEA0B0C05D00EE04023BD
:102820008DF82430012308E050EA010306D030235C
:102830008DF824308DF8252002239846DDF820C03D
:102840008CF0080C5CEA0B0C0BD150EA010301D1AF
:10285000630706D530238DF824304FF00108A9F125
:102860000109582A04D038A20B9208AA0A920BE058
:102870003AA2F9E75B46089AFDF7A2FC0B9B9B5C2A
:102880000A9A521E0A92137050EA0102F2D10A9873
:10289000ADEB000000F1200B600702D524F480347A
:1028A00001E04FF00109D94502DDA9EB0B0000E082
:1028B000002000EB0B0141440890AAEB010AE00361
:1028C00006D4DDE90F232146504600F063F80644A4
:1028D0004FF0000908E009A911F80900DDE90F121D
:1028E000904709F10109761CC145F4DBE0030CD5E2
:1028F000DDE90F232146504600F04CF8064404E081
:10290000DDE90F1230209047761C0899481E089088
:102910000029F5DC08E00A980A990078491C0A9118
:10292000DDE90F129047761CBBF10001ABF1010B02
:10293000F1DC21465046DDE90F2300F019F806448A
:102940006D1C1BE60928010030313233343536372F
:1029500038396162636465660000000030313233EB
:10296000343536373839414243444546000000008B
:102970002DE9F041044600251E461746880404D47C
:1029800005E039462020B0476D1C641EF9D5284665
:10299000BDE8F0812DE9F041044600251E46904631
:1029A000C80301D5302700E02027880404D505E0BE
:1029B00041463846B0476D1C641EF9D52846BDE82F
:1029C000F081000070B504460D460020E070401E06
:1029D000A0632946204601F065FB08B1042070BDC4
:1029E00004F23A2001F042F94AF65521884201D01A
:1029F0000320F4E700BF94F83C00E92807D094F8DE
:102A00003C00EB2803D094F83C00E82811D10322C5
:102A100009A104F1720001F09FF908B90020DEE776
:102A2000052206A104F18E0001F096F908B90020F4
:102A3000D5E70220D3E70000464154004641543315
:102A4000320000002DE9FF4F85B09A4603AA01210C
:102A5000059800F08FF918B1012009B0BDE8F08F9A
:102A6000DDF80C904FF03F08082701E07806070ECC
:102A700037B1B9FBF7F0B0FBF8F0B0F5806FF5D8DF
:102A800007B9FF274FF480520021504601F083F927
:102A90000AF5DF764FF0000B444669E0069850F8DF
:102AA0002B50642D07D801D1484603E06420B9FBC0
:102AB000F0F0684305466019484501D8601901D314
:102AC000A9EB040505B959E0214606F1080001F01B
:102AD00055FC294606F10C0001F050FC07983071B6
:102AE000B4FBF8F0B0FBF7F00490B4FBF8F0B0FBE7
:102AF000F7F107FB1100C0B20290B4FBF8F008FB3D
:102B00001040401CC0B2019002987070C02104981F
:102B100001EA900001990843B0700498F0706019C0
:102B2000401EB0FBF8F0B0FBF7F004906019401EB7
:102B3000B0FBF8F0B0FBF7F107FB1100C0B2029058
:102B40006019401EB0FBF8F108FB1100401CC0B238
:102B5000019002987071C021049801EA90000199D7
:102B60000843B0710498F07110360BF1010B2C443E
:102B7000BBF1040F02D20CB14C458FD300BF4AF613
:102B800055210AF5FF7001F005FC01230022514692
:102B9000059800F097F908B101205EE700205CE796
:102BA0000EB501210420FEF71DF80020ADF802004B
:102BB0001148006811490968484311490968B1FB87
:102BC000F0F0401E01900020ADF80000ADF80800C4
:102BD00069460C48FFF75EFB012211460948FFF7E2
:102BE0004FFB01231A4619461E2001F08FFA0020E0
:102BF000054908600EBD0000580000205400002068
:102C000000000020000800405000002010B50446DD
:102C10000349096804FB01F000F004F810BD00004E
:102C20005400002010B504460748046001210748FD
:102C3000FFF709FB00BF044800680028FBD1002112
:102C40000248FFF700FB10BD5000002000080040C4
:102C500010B54FF4E060FDF7A9FF0649064801F002
:102C6000D1FBFFF79DFF01F087FD04A000F0B6FD4A
:102C700010BD000080841E000010014053445F53CB
:102C800044494F0070B50646052526B1012E06D0F1
:102C9000032E37D134E001F06FFD002070BD00BF7E
:102CA00001F052FA044624B12246294616A0FFF745
:102CB00037FC681EC0B2051E01D0002CF0D10CB14B
:102CC0000120EBE716A0FFF72BFC00BF1A48FEF728
:102CD0002BFA044624B12246294618A0FFF720FC0F
:102CE000681EC0B2051E01D0002CEFD10CB101202E
:102CF000D4E719A0FFF714FCFEF7C6FB0020CDE7D0
:102D00000120CBE70120C9E7534420696E69742094
:102D100072657472792025642E20282564290A00A2
:102D2000534420696E6974207375636365737366B9
:102D3000756C6C792E0A00007002002053442067E5
:102D4000657420696E666F207265747279202564DF
:102D50002E20282564290A005344206765742069C1
:102D60006E666F207375636365737366756C6C79DB
:102D70002E0A000030B5034623B1012B1CD0032BD3
:102D80003BD138E0052916D2DFE801F003050A0F30
:102D90001300002030BD1A48C06810600020F9E719
:102DA0001748008910600020F4E70120106000201F
:102DB000F0E70020EEE700BF05291BD2DFE801F0B5
:102DC00003050F1418000020E4E70E48846CB0F8E7
:102DD0004C00C50545EA542010600020DAE7094898
:102DE000006D10600020D5E7012010600020D1E7C1
:102DF0000020CFE700BF0020CCE70420CAE7000096
:102E00005C000020700200202DE9FC4780468946C6
:102E100014461D464FF0050AB8F1000F06D0B8F170
:102E2000010F0FD0B8F1030F2CD129E02A4621461B
:102E3000484601F04DFD064616B10420BDE8FC876A
:102E40000020FBE71048B0F8500080B261020A464B
:102E50000023CDE900054846FEF700FF0746FEF7D0
:102E6000D9FF00BFFEF701FB0028FBD137B13A467E
:102E7000514606A0FFF754FB0420DFE70020DDE702
:102E80000420DBE70420D9E77002002053442072BD
:102E90006561642072657472792025642E2028256E
:102EA00064290A00014621B1012904D0032906D171
:102EB00003E0002070470020FCE70020FAE7012033
:102EC000F8E700002DE9FC470746884614461D46F2
:102ED0004FF0050A27B1012F0ED0032F23D120E098
:102EE0002A462146404601F0CDFD064616B1042093
:102EF000BDE8FC870020FBE70C48B0F8500080B22A
:102F000061020A460023CDE900054046FFF702F8BA
:102F10008146FEF7BFFF00BFFEF7A7FA0028FBD1EE
:102F2000E6E70420E4E70420E2E700007002002066
:102F30002DE9FC4781460C461546002000900027ED
:102F4000804601AA6946484600F025F80646FEB9C3
:102F50000198006A801E0199498900FB01F70198D8
:102F60004089009900FB01F801998889C11700EB9D
:102F7000D15149124F4301998889C11700EBD151B2
:102F8000491208FB01F8780820604FEA58002860D1
:102F90003046BDE8FC872DE9F74F86B0884692465B
:102FA000002205A906A800F0FFFE8146B9F1000F36
:102FB0006CD10598CAF8000005988169006A801EE6
:102FC000814204D805988069C8F800005EE00025B9
:102FD0000598007801281BD102260598019000BFB2
:102FE000314601A800F01DFD0746781C10B94FF0CE
:102FF00001090CE0012F02D14FF0020907E007B9E7
:103000006D1C701C06460599096A8842E8D333E0B6
:103010000598066A0598D0F82CB0002400BF54B972
:1030200059460BF1010B059801F03CF88146B9F1C6
:10303000000F00D01FE005980078022808D10599FC
:103040003C31081900F012FE00B96D1CA41C09E007
:1030500005993C31081900F0FDFD20F0704000B9E1
:103060006D1C241D05988089B4FBF0F100FB114410
:10307000701E061ED3D100BFC8F8005005988561A8
:103080000598007940F0010005990871484609B09B
:10309000BDE8F08F2DE9FF4F99B00E4619A800F05A
:1030A00079FD04900498002803DA0B201DB0BDE8D8
:1030B000F08FFC49049851F8200028B10021F94A0A
:1030C000049852F8200001700498C0B216900020B5
:1030D000159006B9F44E1698FFF7D4FD03900398A7
:1030E00000F0010008B10320E0E7039800F00400BD
:1030F00008B10A20DAE770681290129838B912AA5B
:1031000003211698FFF736FE08B10120129012989D
:1031100040B11298B0F5004F04D81298401E129991
:10312000084008B10120129014AA02211698FFF756
:1031300021FE08B10120B9E7BDF85000B0F5805F6D
:103140000BDCBDF85000B0F5007F06DBBDF8500089
:10315000401EBDF85010084008B10120A6E73078A5
:1031600000F00F0018907078012804DB70780228B6
:1031700001DC707800E001200690B16889B1B16887
:10318000B1F5004F0DD8BDF85000C11700EBD1616B
:103190004911B268B2FBF1F301FB132109B9B1681F
:1031A00001E04FF400710591F068B0F1807F05D81F
:1031B000F068411E084008B9F06800E00020079060
:1031C000BDF850100798B0FBF1F00790BDF8501013
:1031D0001C98B0FBF1F01390139808B9112065E723
:1031E0001B9C0CB9112061E74FF0000ACDF840A0FC
:1031F00000BF10AA01211698FFF7BCFD08B10120FD
:1032000054E7189800F0080040B910983F2805D9F5
:103210004FF03F0A1098A0EB0A00109010988028F9
:1032200001D20E2042E700BF00BF0798802801D9D5
:1032300080200790189800F0020028B1189800F03C
:10324000010008B9032707E0189800F0010008B949
:1032500013202BE7022700BF00BF00BF079D032FED
:103260002DD195B910984FEA50494FF0000B012528
:1032700002E00BF1010B6D008C4830F81B0020B10F
:103280008A4830F81B004845F3D91098B0FBF5F890
:10329000082000EB8800BDF850100844401EB0FB29
:1032A000F1F0099020200A90002008904FF6F57068
:1032B000804502D97E48804539D90E20F6E695B979
:1032C00010984FEA10394FF0000B012502E00BF186
:1032D000010B6D00774830F81B0020B1754830F8BD
:1032E0001B004845F3D91098B0FBF5F840F6F5708F
:1032F000804503D9042000EB480906E0012708EBCC
:103300004800401C032101EB5009BDF8500048441F
:10331000401EBDF85010B0FBF1F0099001200A905A
:1033200005984001BDF85010B0FBF1F008900A98E4
:1033300050440F90069A09990F9801FB02010898D2
:1033400008440E9012990E980844401E491E20EA27
:1033500001010E98A1EB0009032F06D10A984844F9
:103360000A900F9848440F9013E00698B9FBF0F1CB
:1033700000FB119038B1A9F101090A98401C0A908C
:103380000F98401C0F900698B9FBF0F1099808447B
:1033900009900E9800EB0510A0EB0A0010998842E6
:1033A00001D90E2082E610990A980A1A06990998FE
:1033B00000FB11210898081AB0FBF5F8032F0BD178
:1033C0004FF6F570804507D8079818B96808079038
:1033D00000B135E00E2069E6022F28D14FF6F570D6
:1033E000804517D9079830B94020B0EB450F02D37C
:1033F0006800079024E0189800F0020008B1032745
:103400001EE0079820B968000790802800D817E0D0
:103410000E204BE640F6F570804508D8079820B995
:1034200068000790802800D80AE00E203EE6012FB1
:1034300005D140F6F570804501D90E2036E600E052
:103440000CE700BFBDF850200021204600F0A3FC8F
:103450000B2219A1204600F091FCBDF8501004F198
:103460000B0000F097FF65730A9881B204F10E001B
:1034700000F090FF06982074032F01D1002000E097
:10348000059881B204F1110000F084FF1098B0F5A6
:10349000803F17D2109881B204F1130000F07AFF38
:1034A00015E00000C8020020F84A0008E84A0008B9
:1034B000F5FFFF0FDA4A0008EBFE904D53444F53DF
:1034C000352E300004F12000109900F057FFF8204D
:1034D00060753F2104F1180000F05CFFFF2104F14A
:1034E0001A0000F057FF514604F11C0000F046FF9F
:1034F000032F28D100F02EFB0146019004F1430078
:1035000000F03CFF04F12400099900F037FF02218C
:1035100004F12C0000F032FF012104F1300000F032
:1035200039FF062104F1320000F034FF802084F8D6
:103530004000292084F84200132286A104F14700AC
:1035400000F01CFC19E000F005FB0146019004F1BD
:10355000270000F013FF099881B204F1160000F073
:1035600019FF802084F82400292084F826001322E3
:103570007DA104F12B0000F001FC4AF6552104F571
:10358000FF7000F007FF0123524621461698FFF70F
:1035900099FC08B1012089E5032F34D101230AF1F8
:1035A000060221461698FFF78DFCBDF85020002139
:1035B000204600F0F0FB7149204600F0DFFE704924
:1035C00004F5F27000F0DAFEA8F1010104F5F470E0
:1035D00000F0D4FE022104F5F67000F0CFFE4AF6AA
:1035E000552104F5FF7000F0D5FE01230AF1070212
:1035F00021461698FFF766FC01230AF101022146D5
:103600001698FFF75FFCBDF85010139800FB01F20D
:103610000021204600F0BFFB0F980D904FF0000BEB
:1036200041E0032F0FD16FF00701204600F0A6FE06
:10363000391F201D00F0A2FE6FF0704104F1080058
:1036400000F09CFE09E0012F01D14E4801E06FF02F
:1036500007000146204600F091FE0998119000BF36
:1036600013991198884201D9139800E01198814666
:103670004B4621460D9A1698FFF724FC08B101200D
:1036800014E5BDF850200021204600F084FB0D9881
:1036900048440D901198A0EB090011901198002852
:1036A000DED10BF1010B06988345BAD3032F01D16C
:1036B000284600E00898119000BF1399119888429D
:1036C00001D9139800E0119881464B4621460D9A86
:1036D0001698FFF7F7FB08B10120E7E40D9848447E
:1036E0000D901198A0EB0900119011980028E4D1D9
:1036F00000BF032F02D10C2017900CE01098B0F5FA
:10370000803F02D30620179005E0022F01D104204C
:1037100000E00120179000BF189800F0080070B971
:1037200010980B9000200C9023460BA9DDE916029F
:10373000FFF788F90290029808B10298B6E40022D7
:1037400011461698FFF716FB08B10120AEE40020E1
:10375000ACE400004E4F204E414D45202020204635
:1037600041543332202020004E4F204E414D452001
:103770002020204641542020202020005252614128
:1037800072724161F8FFFF00F7B582B016460398E8
:10379000019001A800F0FEF90546002D02DA0B2089
:1037A00005B0F0BD0C4850F825400CB10020207049
:1037B000029810B10020029908700749029841F858
:1037C00025000EB90020EBE7002202A903A800F0B3
:1037D000EBFA07463846E3E7C802002030B585B06B
:1037E00005460020029003900490294602A8FCF7A9
:1037F0002AFD2EA102A8FCF726FD012202A92C48D1
:10380000FFF7C2FF2B49087008460078002835D022
:103810000846017828A0FEF783FE2FA0FEF780FE61
:1038200000243548002000BF3448002000BF334842
:1038300000F00EFAC4B2214631A0FEF771FE792CD9
:1038400018D132A0FEF76CFE4FF48053334A0021AA
:1038500002A8FFF71FFC174908700846007828B136
:10386000084601782EA0FEF75BFE15E033A0FEF7B8
:1038700057FE02E06E2C00D10EE000BF6A4601A99F
:1038800002A8FFF755FB35A00199FEF749FE38A0C5
:103890000099FEF745FE00BF002202A91046FFF77F
:1038A00073FF38A0FEF73CFE05B030BD3A000000C3
:1038B000D80400207B000020746573742064657652
:1038C000206D6F756E746564206572726F722E2044
:1038D000282564290A000000796F752077616E74CD
:1038E00020746F20646F206D6B6673203F2028204A
:1038F000792F6E20290A0000880000208400002013
:10390000696E7075743A2025632E0A006D6B6673BC
:103910002073746172742E0A0000000004560020A7
:103920007465737420646576206D6B6673206572B0
:10393000726F722E20282564290A00007465737442
:1039400020646576206D6B667320737563636573A1
:103950007366756C6C792E0A00000000746F7461D8
:103960006C2073697A653A202564206B620A000036
:10397000667265652073697A65203A202564206B3C
:10398000620A00007465737420646F6E652E0A000D
:1039900000B5014600F0A0FB00BD2DE9FF41074640
:1039A0000D4600213846FFF70DF80646022E06D0D8
:1039B000032E00D21DB9304604B0BDE8F08100BF2F
:1039C00000240AE007F5FD7101EB041101F1080084
:1039D00000F040F94DF82400641C042CF2D30DB122
:1039E000681E00E00020044600BF5DF8240028B1F6
:1039F0005DF824103846FEF7E5FF00E00320064698
:103A00002DB9022E03D3601C04460428EDD33046A2
:103A1000D2E700B502460B46D0B200F06BFB104671
:103A200000BD2DE9F05F81460D46D9F80040022D1A
:103A300002D3206AA84202D84FF0010887E04FF075
:103A4000FF382078012804D002283AD003287AD100
:103A500056E02E4606EB5606A089B6FBF0F0E16A6A
:103A600000EB010A5146204600F01CFB00B16DE05E
:103A70003046761CA189B0FBF1F201FB120104F182
:103A80003C00475CA089B6FBF0F0E16A00EB010A5C
:103A90005146204600F006FB00B157E0A089B6FB76
:103AA000F0F100FB116104F13C00405C47EA0027A3
:103AB00005F0010008B1380901E0C7F30B008046AA
:103AC00044E0B4F80CA00AEBDA704010B5FBF0F05B
:103AD000E16A00EB010B5946204600F0E3FA00B121
:103AE00034E06800A189B0FBF1F201FB120104F19E
:103AF0003C0001EB000A504600F0B8F8804625E093
:103B0000B4F80CA04FEAEA700AEB90708010B5FB95
:103B1000F0F0E16A00EB010B5946204600F0C2FAD2
:103B200000B113E0A800A189B0FBF1F201FB120182
:103B300004F13C0001EB000A504600F08BF820F045
:103B4000704803E0FFE74FF0010800BF00BF4046A8
:103B5000BDE8F09F10B58AB0684600F0E9FA9DF81C
:103B60000700143044069DF8050044EA40549DF8CF
:103B7000060044EA00449DF8000044EAC0249DF891
:103B8000010044EA40149DF8020044EA6004204623
:103B90000AB010BDF0B506464FF0FF30D6F800C0B1
:103BA0006146634601B9F0BD00BF13F8012B202A1E
:103BB00001D33A2AF9D13A2A40D1042591F800C01C
:103BC000BCF1300F0DDB91F800C0BCF1390F08DCFF
:103BD00001F1020C9C4504D191F800C0ACF1300514
:103BE00027E0002500BFDFF860C05CF82570316871
:103BF00000BF17F8014B11F8012B612C05DB7A2C63
:103C000003DCA4F1200C0CF0FF04612A05DB7A2A06
:103C100003DCA2F1200C0CF0FF020CB19442E8D0BE
:103C20000CB9994205D005F1010C6546BCF1040FB1
:103C3000D9DB042D01DA28463360B4E7DFF80CC085
:103C40009CF8000000BFAEE7A04A00087A00002000
:103C5000FFF79EBE0146C8788A7842EA00204A787B
:103C600042EA00200A7842EA00207047014648787C
:103C70000A7842EA002070477CB504460D461C488D
:103C8000844204D101210846FCF79CFF1EE019483C
:103C9000844204D101210220FCF794FF16E016486B
:103CA000844204D101210420FCF78CFF0EE013486C
:103CB000844204D101210820FCF784FF06E010486B
:103CC000844203D101211020FCF77CFF00950120E4
:103CD0008DF8040000208DF8060003208DF8050003
:103CE00001208DF8070069462046FCF7A9FE7CBD3F
:103CF000000002400004024000080240000C0240A4
:103D000000100240028B0A4302837047428B0A4331
:103D100042837047FEF79CFF4FF480710D48FFF718
:103D2000ABFF4FF480710B48FFF7F0FF11E04FF449
:103D300080710848FFF7EAFF4FF4FA70FEF766FF5C
:103D40004FF480710348FFF7DDFF4FF4FA70FEF780
:103D50005DFFECE700000240F0B503461D460C464F
:103D6000002000BF15F8017B14F801CBA7EB0C0075
:103D7000561E321E01D00028F4D0F0BD30B50346E7
:103D80000C463AB100BF14F8015B03F8015B551E05
:103D90002A1EF8D130BD10B5034600BF03F8011B41
:103DA000541E221EFAD110BD2DE9F74F84B0002118
:103DB000059801600498FFF7EDFE03900398002832
:103DC00003DA0B2007B0BDE8F08FB149039851F832
:103DD00020400CB90C20F5E705980460069800F027
:103DE000FE000690207878B16078FFF75BF8074610
:103DF00007F0010040B9069820B107F0040008B1AF
:103E00000A20DFE70020DDE70020207003986070C3
:103E10006078FEF737FF074607F0010008B103207E
:103E2000D0E7069820B107F0040008B10A20C9E7DE
:103E3000607804F10C020221FEF79CFF08B101201A
:103E4000C0E7A089B0F5805F07DCA089B0F5007FEE
:103E500003DBA089411E084008B10120B2E7002120
:103E60002046FFF79AFD0546042D01D10120A9E760
:103E7000022D01D30D20A5E7D4F8389004F14700B6
:103E8000FFF7F4FEA189884201D00D209AE704F1E2
:103E90005200FFF7EBFE064626B904F16000FFF77B
:103EA000D9FE064666624C20005DA070A07801280D
:103EB00004D0A078022801D00D2083E7A0784643E3
:103EC0004920005D6081608918B16089411E084009
:103ED00008B10D2076E704F14D00FFF7C7FE208101
:103EE000A089C11700EBD1614911228992FBF1F33E
:103EF00001FB132109B10D2064E704F14F00FFF726
:103F0000B5FE8246BAF1000F04D104F15C00FFF760
:103F1000A1FE824604F14A00FFF7A8FE8346BBF1EA
:103F2000000F01D10D204DE7A089C11700EBD16131
:103F30004911228992FBF1F10BEB06021144029127
:103F400002998A4501D20D203CE70298AAEB0000B5
:103F50006189B0FBF1F8B8F1000F01D10D2031E714
:103F600000254C48804500D803254FF6F570804564
:103F700000D8022540F6F570804500D801250DB91E
:103F80000D201FE708F102002062C4F8289009EB19
:103F90000B00E062029848446063032D13D104F1E2
:103FA0006600FFF763FE08B10D200BE7208908B11A
:103FB0000D2007E704F16800FFF74CFE2063206A3C
:103FC0008000019015E0208908B90D20FAE6E06A2A
:103FD00030442063022D02D1206A400008E094F8AA
:103FE000200000F00100216A01EB410100EB5100CB
:103FF0000190A089401E01990844A189B0FBF1F00D
:10400000616A884201D90D20DCE64FF0FF30A061E3
:10401000606180202071032D2DD104F16C00FFF729
:1040200025FE012827D109F10101204600F03AF8C8
:1040300008BB0020207104F23A20FFF717FE4AF671
:104040005521884217D104F13C00FFF703FE1249C5
:10405000884210D104F50870FFF7FCFD0F49884233
:1040600009D104F50970FFF7F5FDA06104F50A70A8
:10407000FFF7F0FD6061257009480088401C80B2A0
:1040800007490880E0800020E06100BF9AE6000058
:10409000C8020020F5FFFF0F525261417272416168
:1040A0007800002070B504460D460026A06BA8429B
:1040B00010D0204600F074F906465EB960780123FE
:1040C0002A4604F13C01FEF79FFE10B14FF0FF3588
:1040D0000126A563304670BD00BF0548008800F08A
:1040E00020000028F9D002488088C0B27047000044
:1040F0000010014000BF0449098801F04001002977
:10410000F9D0014988807047001001402DE9F04145
:1041100007460C4615461E460448077044708570D5
:10412000C670FCF707FDBDE8F08100002600002006
:1041300010B5044621460020FCF72AFE211D002070
:10414000FCF700FE10BD000010B50548007820B94E
:1041500000F008F8012002490870FDF773FA10BD5D
:104160004400002008B54FF4C060FCF71FFD31206B
:104170008DF8000000208DF801008DF8020001206C
:104180008DF803006846FCF7D5FC3B208DF8000055
:1041900001208DF801006846FCF7CCFC08BD00004A
:1041A0002DE9F0470546884617461C4600266C4810
:1041B000854225D101210846FCF704FD01210803B1
:1041C000FCF720FD2026052211466648FCF780FCFE
:1041D000B4F5004F00D034B9052206216148FCF740
:1041E00077FC46F04006B4F5404F01D0002C59D181
:1041F000052207215B48FCF76BFC46F0800651E086
:104200005948854227D101210220FCF7DBFC01211E
:104210008803FCF7E7FC05220D215448FCF758FC05
:104220006E14B4F5004F00D034B905220E214F486A
:10423000FCF74EFC46F48046B4F5404F03D0B4F58D
:10424000804F00D074BB05220F214848FCF740FC8A
:1042500046F4004626E04648854223D1012102204B
:10426000FCF7B0FC0121C803FCF7BCFC08260622C1
:1042700003213E48FCF72CFCB4F5004F00D034B9C4
:10428000062204213948FCF723FC46F01006B4F559
:10429000404F00D034B9062205213448FCF718FC01
:1042A00046F02006B946B9F1000F09D0B9F1010F67
:1042B0000BD0B9F1020F0ED0B9F1030F17D110E0F6
:1042C00000202C49C880088111E000202949C880BD
:1042D000012008810BE002202649C88000200881C7
:1042E00005E002202349C8800120088100BF00BFEB
:1042F0004FF482701F4948800020C8810C8088805C
:104300004FF4007048810846A0F80C802846FDF75D
:10431000B9FE01212846FDF7A9FE174806600220D4
:1043200015490871002088710120C8710320487167
:104330000B48854203D10B48FCF782FB0EE00A488C
:10434000854204D10C490948FCF77AFB06E008488D
:10435000854203D108490548FCF772FBBDE8F087A8
:1043600000300140000002400038004000040240DC
:10437000003C00405C0200204800002000F8011BC7
:10438000090A00F8011B090A00F8011B090A00F8D4
:10439000011B704700F8011B091200F8011B704750
:1043A00070B504460025E078E8B16078012304F197
:1043B0003C01A26BFEF786FDA0B90020E070E16A27
:1043C000A06B401A616A88420DD2A07802280AD1F7
:1043D000636AA16BCA186078012304F13C01FEF7FF
:1043E00071FD00E00125284670BD0000044800680A
:1043F00020B103480068401E014908607047000072
:10440000500000207FB505460C4600F03DF8012124
:104410001020FCF7F7FB0C20ADF80A0000940020F8
:10442000ADF80400ADF80800ADF80600ADF80C00DA
:1044300069462846FEF708F8012300221146252088
:10444000FFF764FE012240F225512846FDF7D6FF12
:1044500001212846FDF793FF01218805FCF7B2FBF7
:10446000012280212846FDF796FF012210210548F0
:10447000FCF7D0F901231A4619464620FFF746FEFD
:104480007FBD0000B86402401CB501210846FCF75E
:1044900099FB072209210D48FCF71AFB07220A2184
:1044A0000A48FCF715FB4FF4C060009002208DF81D
:1044B000040001208DF806008DF8070003208DF818
:1044C000050069460148FCF7BBFA1CBD000002402C
:1044D00010B53C48406900B110BD3B48408B40F4EA
:1044E0000040394948839F2000F0FCF900240EE089
:1044F00034484069000233494861FF2000F0F2F976
:104500003049496908432F494861601CC4B2032CF3
:10451000EEDB2C484069EF21B1EB104F44D1294824
:1045200041692AA0FDF7FCFF2648808A25490883B7
:104530000846008BA0F58040153805281DD2DFE81D
:1045400000F017120D0803004FF400301D494860B9
:1045500017E04FF480301B49486012E04FF40040F0
:10456000184948600DE04FF480401649486008E063
:104570004FF400501349486003E019A0FDF7D0FF45
:1045800000BF00BF0F48406800090E49C8600846D8
:104590004068098848430B49086108460069010DD5
:1045A00014A0FDF7BDFF04E00648416918A0FDF71F
:1045B000B7FF0548008B40F400400349088300BF63
:1045C0008AE700005C0000200000024057323551AD
:1045D0005858204A4544454349443A2025780A0022
:1045E00057323551585820756E6B6E6F776E2E0AA4
:1045F00000000000573235515858206361706163E4
:104600006974793A202564204D69420A000000004F
:10461000573235515858204A45444543494420654E
:1046200072726F722E2025780A00000070B5044661
:104630000E4623E0250300F0B1F91348408B40F407
:10464000004011494883202000F04CF9C5F3074091
:1046500000F048F9C5F3072000F044F9E8B200F093
:1046600041F90948008B40F400400749088300F0F5
:1046700077F9214605A0FDF753FF641C301EA6F113
:104680000106D7D170BD0000000002406572617361
:10469000653A2025640A000000B589B0012108466A
:1046A000FCF790FA01210220FCF78CFA01210803A3
:1046B000FCF7A8FA2D48008B40F400402B490883F2
:1046C0004FF40040009001208DF8040000208DF888
:1046D000060001208DF8070003208DF805006946CB
:1046E0002248FCF7ADF9052203212148FCF7F0F937
:1046F000052204211E48FCF7EBF9052211461C484F
:10470000FCF7E6F90220ADF816000120ADF818001C
:104710004FF48270ADF812000020ADF81E00ADF825
:104720001000ADF814004FF40070ADF81A0000202E
:10473000ADF81C0004A90F48FDF7A4FC01210D48A9
:10474000FDF794FC3820029002208DF80C00002028
:104750008DF80E0001208DF80F0003208DF80D005C
:1047600002A90348FCF76CF909B000BD0000024043
:10477000000402400030014010B500230322194616
:104780000448FFF70DFDFFF787FF00F005F8FFF77E
:104790009FFE10BD003C004070B500244FF6FF7531
:1047A00000BF1648408B40F4004014494883AB20BA
:1047B00000F098F8002604E0FF2000F093F8701C49
:1047C000C6B2032EF8DBFF2000F08CF804460B483D
:1047D000008B40F4004009490883681E80B2051E22
:1047E00001D0FF2CDDD01DB905A0FDF799FE03E037
:1047F000214609A0FDF794FE70BD000000000240B4
:1048000057323551585820696E6974206661696C59
:1048100065642E0A0000000057323551585820694F
:104820006E6974206F6B2E20282578290A000000FD
:104830002DE9F04104460F4615463E0215B9012008
:10484000BDE8F08100F066F8022804D11AA0FDF757
:1048500067FE0220F4E71D48408B40F400401B49EE
:1048600048830B2000F03EF8C6F3074000F03AF80A
:10487000C6F3072000F036F8F0B200F033F8FF205E
:1048800000F030F80CE04FF0000806E0FF2000F0E8
:1048900029F804F8010B08F10108B8F1FF0FF5D968
:1048A000281EA5F10105EED10848008B40F4004018
:1048B000064908830020C3E7726561642070616760
:1048C000652074696D656F75742E0A0000000240E2
:1048D00070B506460C4615462A0121013046FFF701
:1048E000A7FF70BD014600BF0948008900F0020023
:1048F0000028F9D00648818100BF0548008900F0F2
:1049000001000028F9D002488089C0B27047000039
:104910000030014070B54FF6FF7400250F48408B02
:1049200040F400400D49488300BF0520FFF7DAFF3F
:10493000FF20FFF7D7FF0546601E041E03D005F0D9
:1049400001000028F1D10548008B40F400400349E4
:1049500008830CB9022070BD0020FCE70000024073
:1049600010B5FFF7D7FF022800D110BD0A48408BD1
:1049700040F40040084948830420FFF7B3FF06488D
:10498000008B40F4004004490883FFF7C3FF02286E
:1049900000D1EAE70020E8E70000024010B5FFF789
:1049A000B9FF022800D110BD0A48408B40F40040F6
:1049B000084948830620FFF795FF0648008B40F41E
:1049C000004004490883FFF7A5FF022800D1EAE769
:1049D0000020E8E7000002402DE9F04105460E46C0
:1049E000174617B90120BDE8F081FFF793FF0228B1
:1049F00004D11DA0FDF794FD0220F4E72DE0FFF7A0
:104A0000CDFF1F48408B40F400401D4948833402CD
:104A10000220FFF767FFC4F30740FFF763FFC4F30B
:104A20000720FFF75FFFE0B2FFF75CFF4FF00008E1
:104A300007E015F8010BFFF755FF08F101001FFA19
:104A400080F8B8F1FF0FF4DD0D48008B40F4004012
:104A50000B490883FFF784FF761C381EA7F1010776
:104A6000CDD100BFBFE70000777269746520706127
:104A700067652074696D656F75742E0A000000000B
:104A80000000024070B506460C46154629462046F1
:104A9000FFF7CCFD2A0121013046FFF79DFF70BDD5
:104AA000104B0008204B0008184B0008084B00086A
:104AB00001030507090E10121416181C1E819FE031
:104AC000FC407E80FC00002B2E2C3B3D5B5D2F5C70
:104AD000222A3A3C3E3F7C7F000001000400100087
:104AE0004000000100020000010002000400080074
:104AF000100020000000000007000000000000007F
:104B00000000000000000000555342320000000089
:104B1000535049460000000053445F535049000081
:104B200053445F5344494F00484B000800000020A5
:104B30008C00000040250008D44B00088C000020A9
:104B4000946A000050250008007A030A0000000063
:104B5000000000000102030406070809000000002D
:104B60000102030401020304060708090000000013
:104B70000000000000000000000000000000000035
:104B80000000000000000000000000000000000025
:104B9000000000000000000000000000E80300002A
:104BA000E803000000010000000000000010000009
:104BB00000000000000000000000000000000000F5
:104BC00000000000000000000000000000000000E5
:044BD00000000000E1
:040000050800018965
:00000001FF
