:020000040800F2
:10000000082601209D01000823130008A302000810
:10001000211300083B0B0008A12D00080000000080
:10002000000000000000000000000000BD290008E2
:10003000C90F000800000000EF010008752A000841
:10004000B7010008B7010008B7010008B7010008B0
:10005000B7010008B7010008B7010008CB0F00087E
:10006000B7010008B7010008B7010008B701000890
:10007000B7010008B7010008B7010008B701000880
:10008000B7010008B7010008B7010008B701000870
:10009000B7010008B7010008B7010008B701000860
:1000A000B7010008B7010008B7010008B701000850
:1000B000B7010008B7010008612B0008B70100086C
:1000C000B7010008B7010008B7010008B701000830
:1000D000B7010008392C0008B7010008B701000873
:1000E000B7010008B7010008B7010008B701000810
:1000F000B7010008B7010008B7010008B701000800
:10010000B7010008C1190008B7010008B7010008CD
:10011000B7010008B7010008B7010008B7010008DF
:10012000B7010008B7010008B7010008090D000871
:10013000B7010008B7010008B7010008B7010008BF
:10014000B7010008B7010008B7010008B7010008AF
:10015000B7010008B70100081D0D0008B70100082D
:10016000B7010008B7010008B7010008B70100088F
:10017000B7010008B7010008B7010008B70100087F
:10018000B7010008B7010008DFF80CD000F020FC30
:1001900000480047310B0008082601200648804728
:1001A00006480047FEE7FEE7FEE7FEE7FEE7FEE75C
:1001B000FEE7FEE7FEE7FEE7052B000889010008E1
:1001C000EFF3108072B6704780F310887047434A8F
:1001D0001368012B04D04FF001031360404A1060F4
:1001E000404A116040484FF0805101607047EFF382
:1001F000108272B63948016851B34FF000010160B6
:100200003748016891B1EFF309811EF0100F08BF64
:1002100021ED108B21E9F00F4FF000041EF0100FBC
:1002200008BF012441F8044D006801602D490968A8
:10023000096808C9B1E8F00F002B18BFB1EC108BAA
:1002400081F309884EF0100E002B18BF2EF0100E0F
:1002500082F310884EF0040E704722490860EFF3D5
:10026000148222F0040282F314881D494FF000002A
:1002700008601A494FF0010008601C484FF47F01E4
:10028000D0F8002041EA0201016017484FF0805188
:10029000016017480068006880F3088861B662B69C
:1002A00070471EF0040F0CBFEFF30880EFF30980D6
:1002B00020E9F00F40F804ED40F804ED1EF0040FC3
:1002C0000CBF80F3088880F3098800B51FF0FEFC9E
:1002D0005DF804EB4EF0040E704700004805002066
:1002E00044050020F000001004ED00E020ED00E0E7
:1002F00008ED00E02DE9F05F0546002092469B46A0
:1003000088460646814640241BE02846414647462B
:10031000224600F0E1F953465A46C01A914110D3E3
:1003200011461846224600F0C8F92D1A67EB01085D
:100330004F4622460120002100F0BFF917EB0009CB
:100340004E41201EA4F10104DFDC484631462A4616
:100350004346BDE8F09F40EA01039B0703D009E054
:1003600008C9121F08C0042AFAD203E011F8013BA1
:1003700000F8013B521EF9D27047D2B201E000F8FA
:10038000012B491EFBD270470022F6E710B5134639
:100390000A4604461946FFF7F0FF204610BD421EEC
:1003A00012F8013F002BFBD111F8013B02F8013B91
:1003B000002BF9D1704710B5044604E00B7800F823
:1003C000013B03B1491C521EF8D2204610BD421C0D
:1003D00010F8011B0029FBD1801A704710B50022CC
:1003E00000E0521C835C8C5CA34201D1002BF8D14D
:1003F000D8B2E1B2401A10BD30B504460020034621
:1004000000E05B1C934203D2E05CCD5C401BF8D063
:1004100030BD034611F8012B00F8012B002AF9D159
:100420001846704730B505460020034600E05B1CC7
:10043000934205D2EC5CC85C201A01D1002CF6D1A5
:1004400030BD70B5064602F0D1FC046805460A22AC
:100450000021304600F050F92C6070BD2DE9FE4FB0
:1004600081EA030404F0004421F0004100944FF0BD
:10047000000B23F0004350EA01045ED052EA03046B
:100480005BD0C3F30A54C1F30A552C44A4F2F334ED
:100490000194A0FB0254C1F3130141F48011C3F392
:1004A000130343F4801301FB024400FB034E840A50
:1004B000970A44EA815447EA8357A4FB07680295E8
:1004C0008D0A05FB07854FEA932C04FB0C54270586
:1004D000029D4FEA065847EA1637B5EB08056EEB62
:1004E000070C870E920E47EA811742EA8312A7FB98
:1004F0000201B6EB0B0164EB00042B0D43EA0C3355
:100500005E1844EB1C50DA465146E7FB0201C5F386
:1005100013044FEA0B3343EA14534FEA0432019CAD
:1005200043EA0603A4F10C040294009CCDE900B454
:1005300000F029F903B0BDE8F08F00200146F9E78B
:100540002DE9F04D81EA030404F0004B21F0004551
:1005500014464FF0000A23F0004150EA050220D073
:1005600054EA01021DD0C5F30A570246C5F313032E
:10057000C1F31300C1F30A5640F4801543F480130D
:10058000A7EB0608101BD64608F2FD3873EB0500F2
:1005900002D308F1010801E092185B41B8F1000FA5
:1005A00003DA00200146BDE8F08D00204FF48011F1
:1005B000064684460EE0171B73EB050705D3121B96
:1005C00063EB050306434CEA010C49084FEA30008F
:1005D00092185B4150EA0107EDD152EA030012D0B4
:1005E00082EA040083EA0501084305D0101BAB41F1
:1005F00006D20122002306E000224FF0004302E071
:100600006FF0010253101AEB06004CEB085110EB8F
:100610000A0041EB0B01BDE8F04D00F0A5B80EB5A6
:1006200040F2334102910021CDE900110A460B4608
:1006300000F0A9F803B000BD0EB540F233420292BB
:100640000022CDE90022134600F09DF803B000BD62
:1006500070B5C1F30A5201F000450024C1F3130143
:1006600040F2FF3341F480119A4201DA002070BD5C
:1006700040F233439A42A2F2334203DC524200F08A
:100680002BF800E090402C43F1D0404270BD30B5D3
:100690000B46014600202022012409E021FA02F540
:1006A0009D4205D303FA02F5491B04FA02F52844DA
:1006B000151EA2F10102F1DC30BD202A04DB203A34
:1006C00000FA02F1002070479140C2F1200320FAA5
:1006D00003F3194390407047202A04DB203A21FAA3
:1006E00002F00021704721FA02F3D040C2F120024B
:1006F00091400843194670472DE9F04791460F464F
:1007000080460446002614F8015B2DB100F084F900
:100710000068405DC007F6D12B2D02D02D2D18D0DA
:10072000641E4A463946204600F07AF927B13968F6
:10073000A14201D1C7F8008071054FF002040BD52A
:100740004042002803DD02F051FB0460A007BDE831
:10075000F08746F48066E4E70028F8DA02F046FB0A
:1007600004606FF00040F2E710B5141E73F100044E
:1007700008DA401C41F1000192185B411A4301D193
:1007800020F0010010BD2DE9F04D92469B4611B1BD
:10079000B1FA81F202E0B0FA80F220329046FFF71F
:1007A0008CFF04460F4640EA0A0041EA0B0153461B
:1007B0005A46084313D0114653EA010019D0C8F134
:1007C00040025046FFF788FF05460E465046594600
:1007D0004246FFF772FF084305D0012004E020469F
:1007E0003946BDE8F08D0020054346EAE0762C430B
:1007F00037430A986305E40AA0EB08000022FD0ACB
:1008000044EA47540A3002D500200146E9E70105D1
:1008100010196941DDE9084500196941BDE8F04D4D
:10082000A2E72DE9FE4F804681EA0300C00F0C4687
:10083000009021F0004123F00045B8EB0200A941EF
:1008400005D24046214690461C460B46024623F000
:100850000040104347D0270DC7F30A00C3F30A51E5
:100860000290401A019040286BDAC3F3130040F461
:10087000801B0098924620B10023D2EB030A63EB61
:100880000B0B01985946C0F140025046FFF715FF87
:1008900006460D4650465946019A00F0ABF810EB5B
:1008A00008006141002487EA115284EAE7731A4381
:1008B00040D0009A62B3019A012A4FEA075215DC30
:1008C000001B61EB02014FF0004202EA0752CDE942
:1008D0000042001C41F5801132462B46FFF753FFC2
:1008E00003B0BDE8F08F40462146F9E7001B61EBFD
:1008F0000201001C41F5801300185B412018A2F58D
:10090000001747EB030140EAD570B6196D4111E0BD
:100910006D084FEA360645EAC0754FEA0752001BDC
:1009200061EB0201001C41F5801149084FEA3000DB
:100930000019514132462B4603B0BDE8F04FFFF796
:1009400013BF0098012240000023D0EB020263EBAA
:10095000E073009821464FEAE074B8EB000061EBC9
:100960000401E9E783F000435BE781F0004158E7C9
:10097000C1F30A52C1F3130140F2FF3341F4801175
:100980009A4202DA00200146704740F233439A420D
:10099000A2F2334202DC5242FFF79EBEFFF78DBE49
:1009A00030B5041E71F1000404DB4FF000444042F6
:1009B00064EB0101141E73F1000405DB1C464FF0CB
:1009C0000043524263EB0403994208BF904230BD9A
:1009D000064C074D06E0E06840F0010394E807008C
:1009E00098471034AC42F6D3FFF7D2FBD087030808
:1009F00010880308202A06DBCB17203A41FA02F0C0
:100A000043EAE07306E041FA02F3D040C2F120026B
:100A1000914008431946704700487047307F0308EB
:100A20002DE9F05F82460078002715468B460AF1D3
:100A30000104B946302801D09DB113E014F8010B30
:100A40000127782803D0582801D045B10AE00DB11C
:100A5000102D07D10027102514F8010B02E00825FE
:100A600000E00A250026B0460EE005FB080005FB65
:100A700006F1012701EB10461FFA80F8B6F5803F1A
:100A800000D3B94614F8010B294600F018F80028E5
:100A9000EBDABBF1000F05D00FB1641E00E0544645
:100AA000CBF80040B9F1000F06D002F09FF9022107
:100AB0000160C81EBDE8F09F48EA0640FAE73A2800
:100AC00000D2303820F02002412A01D3A2F13700B1
:100AD000884201D34FF0FF30704770B58C1810F882
:100AE000015B15F0070301D110F8013B2A1106D173
:100AF00010F8012B03E010F8016B01F8016B5B1E8D
:100B0000F9D12B0705D40023521E0DD401F8013B67
:100B1000FAE710F8013BCB1A921C03E013F8015BD3
:100B200001F8015B521EF9D5A142D8D3002070BD57
:100B300010B521F027F9002010BDFEE710B54FF0E9
:100B400080440021204602F022F8606A014A002118
:100B5000517010BD3800002010B5074C207808B93E
:100B600023F00CFB4FF0804000214162012102F094
:100B70000EF80120607010BD3800002070B53749B4
:100B800005460024086810F0450FFBD0410702D548
:100B90000324042003E0C00704D00124204600F011
:100BA000A9FE59E000F0E2FEA8422BD140F2FF502E
:100BB00000F0A0FE002000F0FBFE294908424BD0C7
:100BC000002801DA1C2070BD410001D5092070BD4C
:100BD000810001D50A2070BDC10001D50B2070BD78
:100BE000010101D50C2070BD410101D50D2070BD62
:100BF000C10101D50E2070BD010201D50F2070BDCD
:100C0000410201D5102070BD810201D5112070BDB7
:100C1000C10201D5122070BD010301D5132070BDA2
:100C2000410301D5142070BD810301D5152070BD8D
:100C3000C10301D5162070BD010401D5172070BD78
:100C4000410401D5182070BD810401D5192070BD63
:100C5000000701D51A2070BD204670BD342C01401C
:100C600008E0FFFD10B50B480024016811F0450FA6
:100C7000FBD0480702D50324042003E0C80705D0B1
:100C80000124204600F036FE204610BD40F2FF5001
:100C9000F8E70000342C014070B50C4619490646AF
:100CA0000025086810F0450FFBD0410702D503244A
:100CB000042003E0C00705D00124204600F01AFEFE
:100CC000204670BD00F052FEB04212D140F2FF50FB
:100CD00000F010FE002000F06BFE10F4604F03D017
:100CE000810404D5132070BD000C208007E041046E
:100CF00001D5102070BD000401D50F2070BD28461D
:100D000070BD0000342C014010B51FF00BF901F04C
:100D10008FFBBDE810401FF01DB9000070B51FF03B
:100D200001F9094D094C2946204600F0E3F838B195
:100D30002946204600F022F80021204600F034F831
:100D4000BDE870401FF006B900800028B86402407A
:100D5000074A904201D2074801E005481038064A88
:100D60008B0001EA020101D5C160704781607047C4
:100D700010640240006002407D0F7D0F074A9042E0
:100D800001D2074801E005481038064A8B0001EA05
:100D9000020101D5C1607047816070471064024054
:100DA000006002407D0F7D0F0029016802D041F0F4
:100DB000010101E021F00101016070472DE9F043DC
:100DC000016821F001010160002101604160816042
:100DD000C1600161212141613C493C4A3D251039F6
:100DE000904202D18D60BDE8F083384A4FF47466BA
:100DF0001832904201D18E60F5E7344A4FF47417EF
:100E00003032904201D18F60EDE7304A4FF0746C80
:100E10004832904202D1C1F808C0E4E72B4B2C4A7B
:100E20006033984201D1CA60DDE7284C294B783401
:100E3000A04201D1CB60D6E7DFF89080264C08F1C4
:100E40009008404501D1CC60CDE7DFF880804FF0BD
:100E50003D5908F1A808404502D1C1F80C90C2E7FD
:100E60001E49DFF878800839404501D10D60BAE7A6
:100E70001A4D1835A84201D10E60B4E7174D303530
:100E8000A84201D10F60AEE7144D4835A84202D107
:100E9000C1F800C0A7E7114D10496035091FA842ED
:100EA00001D10A609FE70D4A7832904201D10B6070
:100EB00099E70A4A9032904201D10C6093E7074AC1
:100EC000A83290428FD1C1F800908CE710600240A8
:100ED0003D000020400F002000003D201064024033
:100EE0000029016802D041F0200101E021F0200139
:100EF0000160704730B5104A0024904201D20F4B78
:100F000001E00D4B103B0E4A114205D01E2202EAB1
:100F1000D12502682A4002E0406900F08002880082
:100F200001D5586800E01868064B1840084201D007
:100F300002B10124204630BD10640240006002402E
:100F40003C0F3C0F7D0F7D0F0B0607D5436912B197
:100F500043F0800301E023F080034361802908D03F
:100F6000002A026801F01E0101D00A4300E08A4312
:100F70000260704730B50368124ACC6813400A68B3
:100F80002243D1E905452C432243CC6922430C6A14
:100F900022434C6A22438C6A22434C6B22438C6B63
:100FA00022431A430260426922F00703D1E90B246D
:100FB00022431A4342610A6942604A688260896832
:100FC000C16030BD3F801CF0704710B51EF0AAFF15
:100FD000022000F005F8BDE810401EF0BBBF000085
:100FE0000149086070470000143C01402DE9FC5F96
:100FF0000025484C00954FF4806801954027C4F8BF
:101000001080C4E902750E464FF0080B1021C4E9A8
:1010100000B1A946204600F005FD1020FFF7AEFD07
:1010200000284CD13C48BA464F4600890004206055
:101030003720C4E9010AC4E90398204600F0F2FC15
:101040003720FFF79BFD002839D1411E04F1140021
:10105000C0E9001B302181600221C0E90317012192
:10106000416100F05FFC3320C4F808A0C4E90070BF
:10107000C4E90378204600F0D5FC3320FFF77EFD5D
:1010800004001CD1254F4FF4001AE94640F22A68AB
:10109000386810EA080F0AD1504600F06DFC0028AD
:1010A000F6D000F0B9FC49F825006D1CF0E70820E7
:1010B00000F062FC28B1082000F01CFC0420BDE810
:1010C000FC9F022000F058FC20B1022000F012FC2E
:1010D0000220F4E7202000F04FFC20B1202000F097
:1010E00009FC0620EBE74FF40075284600F044FCAD
:1010F00020B1284600F0FEFB0720E0E740F2FF5059
:1011000000F0F8FB009800BA7060019800BA3060F7
:101110002046D4E74802001024000010342C01407F
:10112000F0B50023012403270D6804FA03F21540EB
:10113000954242D1D0F800C05E0007FA06F52CEACD
:10114000050CC0F800C091F804C0D0F800E00CFA1B
:1011500006FC4CEA0E0CC0F800C091F804C0BCF1CB
:10116000010F02D0BCF1020F1FD1D0F808C02CEA49
:10117000050CC0F808C091F805C0D0F808E00CFADA
:1011800006FC4CEA0E0CC0F808C0D0F804C02CEAEB
:10119000020CC0F804C0426891F806C00CFA03FCC7
:1011A0001FFA8CFC42EA0C024260C268AA43C26089
:1011B000CA79C568B2402A43C2605B1C102BB3D306
:1011C000F0BD4B07DB0E9A40C90810B500EB81005B
:1011D000016A0F249C40A1430162016A114301622C
:1011E00010BD0246002012690A4200D0012070475B
:1011F0000029018802D041F4806101E021F480617E
:101200000180704702460020938A128B43EA024312
:1012100023F07F42914300D10120704700290188CB
:1012200002D041F0010101E021F00101018070478D
:101230000029018802D041F4807101E021F480711D
:10124000018070470029018802D041F4007101E05B
:1012500021F40071018070477FB5044680880D46F7
:1012600020F03F06684600F0CFF827490298B0FB0F
:10127000F1F189B20E43A680228822F00102228079
:10128000224B2A689A421BD85200B0FBF2F080B27F
:10129000042800D20420491C2184A083208840F027
:1012A0000100208021884FF6F5300140A8886A8926
:1012B000104308432080A8892989084320817FBDE5
:1012C000EB88A3F53F46FF3E0BD002EBC20303EBD6
:1012D0000212B0FBF2F080B240F48040020506D06A
:1012E00007E002EB4202B0FBF2F080B2F6E740F01A
:1012F00001004FF4967251434FF47A72B1FBF2F150
:1013000040F40040C7E7000040420F00A086010003
:1013100012B141F0010101E001F0FE0101827047CC
:10132000FEE7704730B50F22C47801780123FCB185
:10133000144C246801F1E02104F4E064C4F5E06495
:10134000C4F30724C4F10405E2404478AC40857836
:10135000154025432A0181F80024007800F01F0180
:101360008B404009800000F1E020C0F8003130BD22
:1013700001F01F0083404809800000F1E020C0F820
:10138000803130BD0CED00E002490843024908609D
:10139000704700000000FA050CED00E0014908620A
:1013A0007047000000000E42044A0029116801D075
:1013B000014300E081431160704700003038024073
:1013C000044A0029116801D0014300E08143116003
:1013D0007047000040380240044A0029116801D0DB
:1013E000014300E08143116070470000443802402F
:1013F000044A0029116801D0014300E081431160D3
:10140000704700002438024070B5204A1168204C13
:1014100011F00C0104D01F4E042903D0082903D079
:1014200004601BE0066019E01849091F0B68C3F34C
:1014300080550B6803F03F0315B1B6FBF3F301E0F1
:10144000B4FBF3F30C680968C4F388146343C1F375
:101450000141491C4900B3FBF1F1016011680F2300
:1014600003EA11110C4B5C5C0168E14041601468B7
:10147000072505EA94241C5D21FA04F484601268AF
:1014800005EA52329A5CD140C16070BD0838024012
:101490000024F40040787D01140000100246002072
:1014A000510901290BD002290CD00849096802F022
:1014B0001F02012393400B4200D0012070470349D3
:1014C0007439F3E70149091FF0E70000743802405E
:1014D000054900220A700A70012802D0042801D1AF
:1014E000052008707047000070380240014908600C
:1014F000704700003C0E4742C0F30121032907D189
:10150000074A116821F4F813064901401943116094
:10151000034968310A68C0F30B0002430A60704750
:1015200008380240FFFCFF0F010901EB810100F0C8
:101530000F0000EB4100C0B27047002103E0491CDE
:101540000A38C9B2C0B20A28F9D2090740EA1160C4
:101550007047000008B5002000900C48016849065B
:1015600012D44FF0FF31016083130168009A01F03B
:101570004001521C00929A4201D00029F5D0006827
:10158000400601D4002008BD012008BD0C28004001
:101590000248016821F08001016070470C2800407A
:1015A00010B50C460E4909680E4A11400A0CE2704B
:1015B000C1F30423637001F03F03A370C1F3423110
:1015C000217000280BD11046FFF7AEFFE070607865
:1015D000FFF7AAFF6070A078FFF7A6FFA07010BD0C
:1015E000042800403FFFFF0010B50C460F49096872
:1015F0000F4A1140C1F305422270C1F30623637004
:1016000001F07F03A370402303EA1141E170002839
:101610000BD11046FFF788FF20706078FFF784FF3A
:101620006070A078FFF780FFA07010BD0028004018
:101630007F7F7F0070B5124D04460026CA202860C7
:1016400053202860FFF786FFA8B10D481C380168B9
:1016500021F04001016001682268114301600848DF
:10166000A168143801600168A28841EA0241016062
:10167000FFF78EFF0126FF202860304670BD000076
:101680002428004008B5034901EB80000090006861
:1016900008BD00005028004070B50C46010060787D
:1016A0004FF000062AD0FFF73FFFA078FFF73CFF7E
:1016B000A078E17840EA014560782178000240EAAC
:1016C00041300543194CCA20206053202060FFF7A9
:1016D00041FF78B116480540144820380560FFF7EF
:1016E00057FF12481C380068800602D400F072F8D8
:1016F00000B10126FF202060304670BDC10603D531
:1017000020F010000A306070E078FFF716FF050443
:101710006078FFF712FF45EA0025A078FFF70DFF7C
:101720000543207845EA4035CCE7000024280040F6
:101730003FFFFF002DE9F041244F0C4602004FF01F
:10174000000620783A6831464FEA426204D0002A07
:1017500015DAFFF7E9FE13E0002A00DBE170FFF77E
:10176000ECFE05046078FFF7E8FE45EA0025A07866
:10177000FFF7E3FE0543E07845EA00450AE0E17043
:10178000A078217840EA01456078E178000240EADB
:10179000014005430D4CCA201C34206053202060BA
:1017A000FFF7D8FE68B10A480540084808380560C8
:1017B000FFF7EEFE3868800602D400F00BF800B1A7
:1017C0000126FF2020603046BDE8F0810828004057
:1017D0007F7F7F0018B5002010490090CA20086064
:1017E000532008600D481838026822F0A0020260F9
:1017F0004FF400340268009B02F020025B1C00934F
:10180000A34201D0002AF5D00068800601D501204E
:1018100000E00020FF220A6018BD000024280040DC
:1018200008B5034A02EB80000090016008BD00008B
:10183000502800402DE9FC470025804600952846A9
:10184000019500F0B5F8800102D50E20BDE8FC87B7
:10185000264F6946388980B2FFF7C8FB0028F5D1CA
:101860003720234C402601994FF0060A4FF4806937
:10187000B8F1010F1FD0C90335D53989C4F81090CC
:101880000904C4E90010C4E90265204600F0CAF862
:101890003720FFF773F90028D8D1C4E9005AC4F8FB
:1018A000109000BFC4E90265114800F0BBF80620A3
:1018B000FFF764F9CAE7490315D53989C4F81090D0
:1018C0000904C4E90010C4E90265094800F0AAF857
:1018D0003720FFF753F90028B8D10220C4F8109040
:1018E000C4E9000ADEE72520B0E70000240000106C
:1018F000480200100149086070470000382C014080
:101900000149086070470000382C01400149C1F8C6
:10191000A000704700802542014908607047000020
:101920008C85254210B50A4A01681160121D416874
:101930001160121D116821F0F703D0E90214214350
:10194000D0E90440044321431943116010BD000055
:10195000242C014010B50121CC022046FFF748FDA0
:101960002046BDE810400021FFF742BD0148006855
:10197000C0B27047102C0140034A01460020126893
:101980000A4200D001207047342C0140034A01462E
:10199000002012680A4200D001207047342C014018
:1019A0000248006800F0030070470000002C01406E
:1019B00008B5024908440090006808BD142C014095
:1019C00010B51EF0AFFA00F047FDBDE810401EF064
:1019D000C1BA0000044A0029116801D0014300E0A7
:1019E00081431160704700003C2C014030B5094B29
:1019F0001A6847F6FF618A43017D8468C568214300
:101A000044682C4321430468006921430143114386
:101A1000196030BD042C0140014800687047000087
:101A2000802C014010B5084A01681160121D116830
:101A3000CB0AD0E901142143D0E903400443DB027F
:101A400021431943116010BD082C01400149086071
:101A500070470000002C014008B501208DF80000FF
:101A600010210548FFF7BDFB10B100208DF80000E4
:101A70009DF8000008BD0000000002402DE9F04183
:101A80000146194800264068032813D018B10128E0
:101A900001D0022825D1B1F5805F0BD04FF400674B
:101AA0000025124CB9420ED10120FFF7C3FE0600FB
:101AB00003D016E02720BDE8F0812575256065601C
:101AC000C4E9025709E00020FFF7B4FE060008D180
:101AD000257525606560A560E56004482561FFF710
:101AE00085FF3046E7E700002400001030020010B8
:101AF0002DE9F0439849DFF86492D1F804C080F8EA
:101B000056C00989A0F85410D9F800100A0E94099B
:101B10000470C2F38304447002F0030282700A0C62
:101B2000C2700A0A02714171D9F80470390E0901B4
:101B3000C180C288C7F3074142EA1112C28001F096
:101B40000F010172C7F30722D1094172C2F380115C
:101B50008172C2F34011C172C2F3001101730021FE
:101B600041734B469D6801232E0EC5F30744C5F310
:101B70000728BCF1000F06D0BCF1010F03D0BCF167
:101B8000020F3BD052E09207120D0261FAB20769D0
:101B900047EA82020261026942EA96120261C6F3D2
:101BA000C202027506F00702427562098275C4F32B
:101BB0008202C275A207520F0276047E424644EAB0
:101BC000D21404760469077EBF1C03FA07F6641C6E
:101BD000A4FB06784FEAE67C01FB068604FB0C6654
:101BE00090F808C003FA0CF4A7FB04C8046506FBD0
:101BF000048407FB0144C0E912C417E0BA06920A44
:101C00000261026942EA062202610269224302611C
:101C100004694246641C41F10006F60446EA543663
:101C2000E404C0E912464FF400740465C2F3801462
:101C300044769206520E00F81A2FEAB2057845EA69
:101C4000D21500F8015B02F07F0200F8012BD9F8F1
:101C50000C40220ED50900F8015BC2F3411500F8D3
:101C6000015BC2F3820500F8015B9207120F02705C
:101C70000578C4F3074245EA921500F8015BC2F308
:101C800040150570417002F001028270C4F3072212
:101C9000D509C570C2F380150571C2F340154571B1
:101CA000C2F300158571C2F38105C57102F003020C
:101CB0000272C4F3460242728372284C10342268C6
:101CC000150E0573150C2D02C581C689C2F30725B3
:101CD0002E43C6811206026162680669150E46EA45
:101CE000054505610669C2F3074546EA0525056114
:101CF0000669C2F307252E4306610275A268150E18
:101D00004575150C2D0685618669C2F3072546EADF
:101D1000054585618569D2B245EA02228261E268A1
:101D2000856945EA12658561057FC2F3074445EA86
:101D3000141505772407240DC483C58BC2F307242B
:101D40002543C583C2F3460280F8202080F8213065
:101D50000846BDE8F083000024000010A801001030
:101D600008B500200090FFF777FE012803D16846F0
:101D700000F0D6FC08B1FF2008BD0098C0F3432056
:101D800008BD10B5FFF7ECFF042803D0FF2803D0EF
:101D9000012010BD002010BD022010BD2DE9F04330
:101DA00093B000250095402102A80195FEF7ECFABA
:101DB0004E4802AE05700561C5604D490D60008951
:101DC000694680B2FFF712F9002856D1019911F047
:101DD000407F52D0474C4FF040081021E4E8028188
:101DE00040464FF4806984E821024248083CFFF7EE
:101DF00019FE1020FEF7C2FE00283ED1471E3D48C6
:101E0000602114300760C0E901810221C0E9031597
:101E100001214161FFF786FD374820600620C4E9B3
:101E20000108C4E903593348FFF7FCFD0620FEF71B
:101E3000A5FE002821D12E4D4FF40049083540F26F
:101E40002A68286810EA080F0FD14846FFF794FD6A
:101E50000028F6D05FF00004FFF7DEFD46F824000E
:101E6000641C082CF8D32036EBE70820FFF784FD2C
:101E700030B10820FFF73EFD042013B0BDE8F08329
:101E80000220FFF779FD20B10220FFF733FD022089
:101E9000F3E72020FFF770FD20B12020FFF72AFD97
:101EA0000620EAE74FF400742046FFF765FD20B1F5
:101EB0002046FFF71FFD0720DFE74FF4001403E083
:101EC000FFF7AAFD01C67F1E2046FFF755FD08B1AA
:101ED000002FF5D140F2FF50FFF70CFD9DF81500E3
:101EE000800701D50020C8E72720C6E7240000109E
:101EF0002C2C01404802001001FFFF8038B500245F
:101F00008DF8004000F042F9FFF724FD00F09EF943
:101F10008DF800009DF8000058BB00F02FF88DF8F8
:101F200000009DF8000020BB134804750460446065
:101F30008460C4600461FFF759FD0F485838FFF70B
:101F4000D7FD8DF800009DF8000048B90A4800212F
:101F50005838B0F85400000400F0CCFB8DF80000B5
:101F60009DF8000028B94FF40060FFF787FD8DF859
:101F700000009DF8000038BD300200102DE9F84F38
:101F800001200025ADF80000FFF70AFDA8B3DFF837
:101F9000E090D9F80400042868D0364C4FF0C00A0D
:101FA00000260220C4F808A0C4E900604FF480684D
:101FB000C4E903682046FFF735FDFEF753FE050030
:101FC0001DD1FFF7F5FCA4F1900738600420FFF75E
:101FD000EFFC78600820FFF7EBFCB8600C20FFF7FF
:101FE000E7FCF860D9F804004F4650B1012808D04A
:101FF000062806D0022804D013E0FFE72520BDE81C
:10200000F88F0320E4E80260402084E84101194889
:10201000083CFFF707FD69460320FEF73DFE05007B
:10202000EDD17868042821D0BDF80000B860000424
:1020300020600920C4E9010AC4E903680D48FFF7DC
:10204000F1FCFEF70FFE0500D9D1FFF7B1FC094CFA
:10205000A03C20600420FFF7ABFC60600820FFF785
:10206000A7FCA0600C20FFF7A3FCE0602846C6E7B1
:10207000240000104802001070B51F4E0C460546A3
:1020800090B04FF0FA513046FEF762FE0021304624
:10209000FEF78AFE3046FEF791FE4FF0006000909A
:1020A0001648CDE901050020CDE903043115CDE93D
:1020B0000501890007918900CDE908104FF44030EF
:1020C0000A9004200B9003200C9048020D90801081
:1020D0000E9069463046FEF74DFF01221021304632
:1020E000FEF732FF20213046FEF7FAFE012130468E
:1020F000FEF75AFE10B070BD58640240802C0140BB
:1021000070B5204E0C46054690B04FF0FA5130465F
:10211000FEF71EFE00213046FEF746FE3046FEF773
:102120004DFE4FF0006000901748CDE901054020BA
:10213000CDE9030400203115CDE90501890007919F
:102140008900CDE908104FF440300A9004200B902C
:1021500003200C9048020D9080100E906946304686
:10216000FEF708FF012210213046FEF7EDFE202188
:102170003046FEF7B5FE01213046FEF715FE10B0E1
:1021800070BD000058640240802C01402DE9FC41E4
:1021900001210D20FFF708F9294E0C2208213046B5
:1021A000FFF70FF80C2209213046FFF70AF80C223E
:1021B0000A213046FFF705F80C220B213046FFF7C5
:1021C00000F80C2211463046FEF7FBFF1D4F0C2293
:1021D00002213846FEF7F5FF4FF4706000900220B0
:1021E0008DF805008DF8040000248DF806400125C7
:1021F0008DF8075069463046FEF792FF04200090A4
:1022000069463846FEF78CFF280300908DF807409A
:1022100069463046FEF784FF102000908DF8044098
:102220008DF8075069460848FEF77AFF0121C80279
:10223000FFF7D2F801218805FFF7B6F8BDE8FC8169
:1022400000080240000C0240000002402DE9FC5F43
:1022500000258DF8005072487621A9460175056069
:1022600045608560C560A8460561FFF7BFFB032098
:10227000FFF7ECFB0120FFF749FB694C4FF4806B43
:102280001834204625606560A560C4E9035BFFF74C
:10229000C9FB4FF4803A0027564601E0761E10D065
:1022A0008020FFF769FB0028F8D056B140F2FF50BC
:1022B000FFF720FB8DF800709DF80000002854D136
:1022C00001E00327F6E74FF4D5702060082040278F
:1022D000C4E901075248C4E9035B5E461830FFF7C2
:1022E000A1FB504B002051461A684FF0370B02E01B
:1022F0004C4A1268491E12F0450F06D009B1510729
:1023000006D54FF0030A042007E00029F0D1F8E7D2
:10231000510605D54FF0000A4020FFF7EBFA504672
:102320008DF800009DF8000000B3A760C4E9005BD1
:102330003B48C4E903561830FFF774FB3720FEF71B
:102340001DFC8DF80000A760C4E9005B3448C4E9B7
:102350000356DA461830FFF765FB3720FEF70EFC10
:102360008DF800009DF8000088B355E02E4801214B
:102370004FF080484160E6E7A760C4E9005A28486A
:10238000C4E903561830FFF74DFB3720FEF7F6FB84
:102390008DF800009DF8000078BB244948EA010050
:1023A00020602920C4E901071D48C4E903561830FC
:1023B000FFF738FB00201B490190086810F0450F1B
:1023C000FBD0400704D503200190042002E011E077
:1023D00040F2FF50FFF78EFA01988DF800009DF84B
:1023E000000050B90020FFF7E3FAC10F09F101091D
:1023F00004D005E04FF6FF7BBEE70DE0D945BBD327
:10240000D94503D31B208DF8000005E010F0804F64
:1024100002D00548022141609DF80000BDE8FC9F04
:1024200030020010342C0140240000100000108005
:102430000748006810F0C05F08D0064901204861D5
:1024400003484FF0C2515830FEF782BC704700007D
:10245000006402402400001070B54FF480752846D7
:10246000FFF794FA1F4C38B1002020702846FFF780
:1024700047FA012020612EE00220FFF787FA20B101
:102480000220FFF73DFA022024E00820FFF77EFA41
:1024900020B10820FFF734FA04201BE02020FFF7CA
:1024A00075FA20B12020FFF72BFA062012E0102049
:1024B000FFF76CFA20B11020FFF722FA052009E09F
:1024C0004FF400752846FFF761FA20B12846FFF760
:1024D00017FA0720207000214CF23A30FFF77AFA01
:1024E000207870BD240000102DE9F05F4C490546AE
:1024F00000200A9F164608700861C860494A1060AB
:1025000049684FF4007B022903D1760A5F4646EA08
:10251000C356454C10218046E4E8027140214FF437
:10252000806984E802034048083CFFF77BFA1020EA
:10253000FEF724FB002840D13B484FF0FF3A14300F
:102540009021C0F800A0C0E901710221C0E9031880
:10255000012147464161FFF7E5F91120E4E80260F7
:10256000402084E881023048FFF75CFA1120FEF732
:1025700005FB060021D12B4F4FF40049083740F2EC
:102580002A68386810EA080F0FD14846FFF7F4F9B7
:102590000028F6D05FF00004FFF73EFA45F824006B
:1025A000641C082CF8D32035EBE70820FFF7E4F98A
:1025B00028B10820FFF79EF90420BDE8F09F022013
:1025C000FFF7DAF920B10220FFF794F90220F4E7CF
:1025D0002020FFF7D1F920B12020FFF78BF906204A
:1025E000EBE75C465846FFF7C7F920B12046FFF7F6
:1025F00081F90720E1E754464FF4001704E000BFDB
:10260000FFF70AFA01C5641E3846FFF7B5F908B1AD
:10261000002CF5D140F2FF50FFF76CF93046CCE7C3
:10262000240000102C2C0140480200102DE9F05F1E
:102630002D4CDDE90A764FF0000815469946824692
:1026400084F80080C4F810804FF0010BC4F80CB07F
:102650002649C1F80080594640F22A30FFF7BAF9FE
:1026600006FB07F15046FFF707FD0120FFF754F97D
:102670006068022803D107026D0A45EAC9551C4C5F
:102680004FF0400A1020C4F808A0C4E900704FF4CD
:1026900080692046C4E90389FFF7C4F91020FEF7DA
:1026A0006DFA00281ED1411E04F114007E43E0E8BB
:1026B0000216902102C00221464680E8420804F139
:1026C0001400FFF72FF91220C4F808A0C4E9005045
:1026D000C4E903692046FFF7A5F9BDE8F05F1220C1
:1026E000FEF74CBABDE8F09F240000102C2C0140EE
:1026F00048020010094910B50860072048604020D2
:1027000088600020C8604FF4806008610846FFF7C9
:1027100089F9BDE810400720FEF730BA48020010E2
:1027200070B504001AD00E480E49008900040860F4
:102730000D204860402088600020C8604FF4806011
:1027400008610846FFF76EF90D20FEF717FA05003D
:1027500003D1FFF72DF92060284670BD262070BDFB
:102760002400001048020010084810B500210C2277
:10277000C0E900124022C0E9022111010161FFF706
:1027800051F9BDE810400C20FEF7F8B948020010DE
:102790002DE9F0410026751E2846154C00E0401E2C
:1027A000616929B9216919B9217809B90028F6D1D7
:1027B000002767610F4800E06D1E0168890401D59C
:1027C000002DF9D1E068012803D1FFF7CDFF0646BF
:1027D000E760354300D1042640F2FF50FFF78AF846
:1027E000207810B12078BDE8F0813046FBE700008A
:1027F00024000010342C01402DE9F0410026751E04
:102800002846154C00E0401E616929B9216919B9B3
:10281000217809B90028F6D1002767610F4800E048
:102820006D1E0168C90401D5002DF9D1E0680128A9
:1028300003D1FFF799FF0646E760354300D1042630
:1028400040F2FF50FFF756F8207810B12078BDE82D
:10285000F0813046FBE7000024000010342C0140DA
:102860002DE9F05F3F4CDDE90A764FF00008154690
:102870009946824684F80080C4F810800121E16006
:102880003949C1F80080012140F22A30FFF7A2F84F
:1028900006FB07F15046FFF733FC0120FFF73CF839
:1028A0006068022803D107026D0A45EAC9552F4C1A
:1028B00010204FF0400980C4C2464FF4806B84E87A
:1028C000010E201F241FFFF7ADF81020FEF756F968
:1028D000002844D12348C846211D0089D946000458
:1028E00020603720C4F810B081E801052046FFF7CA
:1028F00099F83720FEF742F9002830D1C4F8088053
:102900001720C4E90060C4E903A9C346D0462046A5
:10291000FFF788F81720FEF731F900281FD119209A
:10292000C4F808B0C4E900504546C4E9038920460C
:10293000FFF778F81920FEF721F900280FD104F1EC
:102940001401401E7E43C1E900069020C1E9020542
:102950000120C1E904500846FEF7E4FF2846BDE81F
:10296000F09F0000240000102C2C014048020010B1
:102970000029018802D041F0400101E021F040012E
:102980000180704730B502884C8802F441530A88B0
:10299000CD8822438C882C4322430C8922434C89C6
:1029A00022438C892243CC8922431A430280828BA2
:1029B00022F400628283098A018230BD70470000E0
:1029C0000CB500202749019000900A6842F480323B
:1029D0000A604FF4A0430A6802F400320092019AA0
:1029E000521C0192009A12B9019A9A42F3D10A68D4
:1029F000920334D5012000901A484030026842F01A
:102A0000805202601848026842F440420260154851
:102A1000083002680260026842F400420260026804
:102A200042F4A0520260031F104A1A600A6842F082
:102A300080720A600A689201FCD50D4A40F2057165
:102A40001160016821F003010160016841F0020199
:102A500001600168C1F381010229FAD10CBD009027
:102A60000CBD0000003802400070004019544007BF
:102A7000003C024010B51DF055FA1EF039FCBDE8CF
:102A800010401DF067BA000070B51A4C20681A4A51
:102A900010F00C01194804D0194D042903D008295D
:102AA00003D002601BE0056019E01249091F0B68A2
:102AB000C3F380560B6803F03F0316B1B5FBF3F286
:102AC00001E0B2FBF3F20B680968C3F388135A43C1
:102AD000C1F30141491C4900B2FBF1F101602168D9
:102AE000064AC1F30311121D515C0268CA4002601C
:102AF00070BD0000083802400024F40000000010FF
:102B000040787D01124810B5016841F47001016000
:102B10001048016841F0010101600E4A00210832AD
:102B2000116002680C4B1A400260031D0B4A1A60C8
:102B3000026822F48022026006480C300160FFF730
:102B40003FFF03494FF000608039086010BD00006E
:102B500088ED00E000380240FFFFF6FE1030002450
:102B600010B5084C0121204600F01BF8002807D0C2
:102B700021F0FAFA2046BDE81040012100F004B827
:102B800010BD000000080040C943018270470029C1
:102B9000018802D041F0010101E021F00101018032
:102BA000704702460020138A92890B4202EA010212
:102BB00002D0002A00D001207047000030B5028802
:102BC000164B174C98420DD0A0420BD0B0F1804F5D
:102BD00008D0144DA84205D0134DA84202D0134D81
:102BE000A84203D122F070054A882A43104DA8421A
:102BF00006D0104DA84203D022F440750A892A431A
:102C000002804A68C2620A880285984201D0A042C6
:102C100001D1897A01860121818230BD0000014005
:102C2000000401400004004000080040000C004087
:102C3000001000400014004070B51DF073F90E4CF8
:102C400040F225552946204600F034F838B11BF0F3
:102C500083FE0A4908702946204600F014F808212E
:102C6000204600F020F818B10821204600F008F8AE
:102C7000BDE870401DF06EB900100140000000205A
:102C8000C943018070470A0A01219140C94301806C
:102C900070470029818902D041F4005101E021F4FC
:102CA0000051818170470246002012880A4200D0FC
:102CB0000120704730B501F01F0201240025C1F347
:102CC000421304FA02F2012B0FD0022B0FD0838A99
:102CD0004FEA11210088134204FA01F400EA0400CB
:102CE00001D000B10125284630BD8389F0E7038A71
:102CF000EEE700007FB50446008A0D4620F44051FF
:102D0000E88808432082A08941F20C618843A988A1
:102D10002A8911436A8902431143A181A08A20F4C0
:102D20004071A8890843A0826846FEF76DFB1A48E7
:102D3000844202D01948844201D1039800E00298ED
:102D4000A189090400EBC00101EB0010296801D53D
:102D5000490000E08900B0FBF1F26420B2FBF0F121
:102D600009010B096FF018056B4302EB8302A3897D
:102D70001D044FF0320306D503EBC202B2FBF0F0A4
:102D800000F0070005E003EB0212B2FBF0F000F0E8
:102D90000F00084320817FBD001001400014014056
:102DA000FEE700000FB4054B10B503A9044A0298D2
:102DB00002F0D2FD10BC5DF814FB0000E1E5000854
:102DC000000600200FB4084B10B504A902AA03980E
:102DD00002F0C2FD044602A9002003F0CCF920460F
:102DE00010BC5DF814FB00007761000800487047D4
:102DF000A0010010002807D00E4910F0FF0F04D0EA
:102E000051FA80F00078401C704710F47F4F04D0D6
:102E1000C0F30720085C0930704710F47F0F04D01E
:102E2000C0F30740085C1130704701EB1060007878
:102E3000193070470F45030802E008C8121F08C187
:102E4000002AFAD170477047002001E001C1121F2B
:102E5000002AFBD1704700002DE9FF5F82B00021FE
:102E6000DDE90430020DDDF840B0034318D044F62C
:102E70001050A2F2FF3242431514119801281FD0BE
:102E8000A5EB0B00401C5FEA000A4FF000064E4F16
:102E9000DFF83891B046504615D5CAF1000413E06A
:102EA000119801244AA3012801D16FEA0B0102986D
:102EB000119AC0E90031C0E9024206B0BDE8F09FB6
:102EC000CBF10000DFE704460021404A491842EBFD
:102ED0000450CDE9001012E0E00707D032463B462F
:102EE00040464946FDF7BAFA8046894632463B4697
:102EF00010461946FDF7B2FA06460F466410002C3C
:102F0000EAD1DDE90401DDE90023BAF1000F06DAB8
:102F1000FDF7A4FA42464B46FDF7A0FA05E0FDF79F
:102F20000FFB42464B46FDF70BFB04460E460022C4
:102F3000284BFDF735FD03D84FF0FF30014607E081
:102F40000022254B20463146FDF76BFCFDF710FDB6
:102F5000102409E0002C0ADB0A220023FDF7CAF93D
:102F6000039B30321A55641E50EA0102F2D1641CF0
:102F7000039AC4F111031444119A012A03D00122C7
:102F800008430DD10AE0084304D000204FF0110B94
:102F9000119072E7A3EB0B056D1E0DE05B4504DDA0
:102FA0004FF0000205F1010504E003DA4FF00002E2
:102FB000A5F10105002AECD002981199C0E902316F
:102FC000C0E9004579E70000000014400000F03F30
:102FD000300000000000F0430000E03F03480168BB
:102FE000814201D00120704700207047D0000010BE
:102FF00010B54821094801F0B6F91AF007FA084C53
:103000000023042260601E21064819F0EBFFA06037
:1030100003F0B6F80020207010BD0000A8240010B6
:1030200050010010396200082DE9F04100251C46CE
:1030300088460646152A3BD2DFE802F00B1B1D2E00
:103040003744535C5E676A79878999A6ABB0B5BA95
:10305000CD0030460FF083FD054640460FF07FFD62
:10306000014605EBD570401001EBD171A0EB61007A
:10307000A1E025800EE030460FF071FD0746404686
:103080000FF06DFD07EBD771491000EBD070A1EB8D
:1030900060008BE065800BE030460FF060FD074676
:1030A00040460FF05CFD381A80E0258097E0608094
:1030B00020883188084420806088718808446080B6
:1030C000BDE8F08130460FF04AFD054640460FF05E
:1030D00046FD05EBD571491000EBD070A1EB600007
:1030E0007CE030460FF03BFD054640460FF037FDD3
:1030F000281A73E025805FE030460FF030FD05466A
:1031000040460FF02CFD281A55E02580084618E0AF
:1031100030460FF024FD054640460FF020FD05EB3C
:10312000D571491000EBD070A1EB600007E030468C
:103130000FF015FD054640460FF011FD281A2080BE
:1031400040460FF0DAFC4042B1E7258018E03046F7
:103150000FF005FD054640460FF001FD014605EB69
:10316000D570401001EBD171A0EB610007E0304653
:103170000FF0F5FC054640460FF0F1FC281A2080C0
:1031800030460FF0BAFC92E708460FF0E8FC4042E8
:103190000CE008460FF0E3FC40420CE008460FF05C
:1031A000DEFC40421AE030460FF0D9FC208071E787
:1031B00030460FF0D4FC208030460FF09EFC0546D0
:1031C00040460FF09AFC05EBD571491000EBD0702A
:1031D000A1EB60006BE730460FF0C1FC2080304669
:1031E0000FF08BFC054640460FF087FC281A5EE77F
:1031F00070B5B1F90030B2F90040A34200DC2346BB
:103200000380B1F90250B2F90240A54200DD2C461C
:103210004480B1F90460B2F90450AE4200DA354698
:103220008580B1F90610B2F90620914200DB114603
:10323000C1800120AB4201DC8C4200DD002070BD6A
:10324000F8B50D4604461646B4F90010B5F900204D
:103250000020914212DBB4F90220B5F902309A4203
:103260000CDBB4F90420B5F904309A4206DCB4F959
:103270000620B5F906309A4200DC0120002E33D03A
:10328000ADF800106088ADF8020032466946284665
:1032900000F047F8002827D0A088ADF8000060882B
:1032A000ADF8020032466946284600F03AF8002898
:1032B0001AD02088ADF80000E088ADF80200324650
:1032C0006946284600F02DF800280DD0A088ADF8FA
:1032D0000000E088ADF8020032466946284600F05A
:1032E00020F8002800D00120F8BDB0F90020B1F985
:1032F00004309A4213DCB0F90420B1F900309A424C
:103300000DDBB0F90220B1F906309A4207DCB0F9C2
:103310000600B1F90210884201DB0120704700204D
:1033200070472DE9FC4114460E46B1F90020B0F972
:10333000001005468A423ADBB5F90400824236DCC9
:10334000B6F90270B5F90220974230DBB5F90630C4
:103350009F422CDC002C75DD401A9A1A401C521C2E
:1033600000B212B200EBD07002EBD27240105210D9
:10337000904200DB1046844200DD0446ADF80010A8
:10338000288800222044ADF804006888ADF80200C7
:10339000688831462044ADF806006846FFF7C1FF53
:1033A00040B1BDF804002044ADF804003FE0002027
:1033B000BDE8FC81E8880022001BADF80200E88827
:1033C000ADF8060031466846FFF7ABFF28B1BDF8FF
:1033D00004002044ADF8040011E0A8880022001B7E
:1033E000ADF80000A888ADF8040031466846FFF744
:1033F00098FF50B1BDF80000001BADF80000BDF80B
:103400000200001BADF8020016E06888ADF802006B
:10341000688800222044ADF8060031466846FFF770
:1034200080FF70B1BDF80000001BADF80000BDF8D2
:1034300006002044ADF806003146684619F050F801
:10344000B6E7FFE70120B3E710B5B1F90040B2F9E4
:1034500000309C4200DA23460380B1F90240B2F901
:1034600002309C4200DA23464380B1F90440B2F9AD
:1034700004309C4200DD23468380B1F90610B2F986
:103480000620914200DC1146C18010BD30B50346D4
:1034900080881C885D88001BDC88401C198000B275
:1034A000641B641C014624B25A8018460FF075FB59
:1034B0002146BDE8304018460FF06ABB2DE9FF4FAA
:1034C00087B01D46DDE91476DDF858908A468346BC
:1034D000022E4BD3002F49D001F04AFC804610F059
:1034E000A3FD00F11004806804905246594605A8D7
:1034F000FFF77EFE002839D0BDF814002188401A5D
:1035000001B2ADF81410BDF816006288801AADF84B
:103510001600BDF818002288801A00B2ADF8180015
:10352000BDF81A206388D21AADF81A2095B198F820
:103530000820D2070ED1401A401C01B2002007E03B
:103540002A5C802A01D9FF2200E000222A54401C74
:103550008842F5DBD8F8140058B1CDE90065029730
:1035600005AA2046099B04990AF0FCFC0BB0BDE8B3
:10357000F08FB9F1000F0AD001A8009680E8A002F0
:1035800005AA2046099B04990AF042FAEEE7CDE924
:103590000065029705AA2046099B04990AF0D2FA11
:1035A000E4E72DE9F04F87B01C46DDE91065DDF852
:1035B00048A017468B46022D55D3002E53D00A46FD
:1035C000014605A8FFF714FE00284CD001F0D0FBFF
:1035D000814610F029FD0146BDF8142030F8103F57
:1035E0008968D21A12B2ADF81420BDF81630B0F8BE
:1035F00002C0A3EB0C03ADF81630BDF81830B0F8DC
:1036000000C0A3EB0C031BB2ADF81830BDF81AC014
:10361000B0F80280ACEB080CADF81AC0C4B199F850
:1036200008C05FEACC7C13D19A1A521C13B2002254
:103630000CE014F802C0BCF1800F02D94FF0FF0C6F
:1036400001E04FF0000C04F802C0521C9A42F0DB7B
:10365000D9F8142052B100970396CDE901545B4686
:1036600005AA1AF08BFD07B0BDE8F08FBAF1000F84
:103670000AD00DF108085B4688E85004CDE90075D2
:1036800005AA1AF003FBEEE700970396CDE9015473
:103690005B4605AA1AF0AAFBE5E70000D0F87821FE
:1036A000C2F309438B4202D204490A4002E0591A8C
:1036B00061F31942C0F8782170470000FFFF00FC59
:1036C0002DE9FC5F054619F0A1FE554C0190E86814
:1036D00060600021284619F0DFFD6068016CA9B127
:1036E00019F0A4F919F01EF960684E4AD0F8781163
:1036F00011427DD0A34610F02CFD002867D0DBF8E6
:1037000004005D464169002961D108E04549D0F8CF
:103710007821C9430A40C0F87821BDE8FC9F10F029
:1037200083FC044619F07CFAA0690028FCD1686883
:10373000B0F90000400000F023FF8246A168206835
:103740008946814200D160688046686810F080FC3C
:1037500006460024AB462DE00A1992F85A213ABBDE
:1037600001EBC40131F95A2FB1F9025016FB0523C0
:1037700089885F00891A491C09B2490000910FE04D
:1037800008EB07015046009A00F0BCFF09EB070068
:103790005146009A00F0B6FF6D1C07EB46072DB2AC
:1037A000DBF8040000EBC400B0F96000A842E7DADF
:1037B000641CA4B2DBF80410D1F87821C2F30942EA
:1037C000A242C9D8BAF1000001D000F05DFFDBF8D9
:1037D00004004FF480715C465A3001F089F860684B
:1037E000202100F5AD7001F083F860680D4A00E01B
:1037F0000FE0D0F87811D2431140C0F87811019849
:1038000019F0FEFD63689D691DB1014618462268E6
:10381000A84700F093FEBDE8FC5F00F005B800008B
:10382000080100100000FF0310B5044C6068002878
:1038300003D015F0E7FC0020606010BD14010010FB
:103840004821014800F08FBD902400101C21014840
:1038500000F089BDB42400102DE9FF4F85B08946E2
:10386000129C824613B9B4F5807F7CD04FF00A08D1
:1038700093FBF8F6704200EB800003EB4007751CE9
:1038800030B201F08BFE009028B201F087FE834633
:103890005A3630B201F082FE06465A3528B201F09F
:1038A0007DFE03460098C7F10A0101FB00F20BFB05
:1038B0000722714303FB071191FBF8F092FBF8F22A
:1038C0004FEA601B13985611B0F90080C8F1000050
:1038D000604340F30F231398A9EB08016143B0F94B
:1038E00002E041F30F25CEF100006043079940F359
:1038F0000F200BFB03F706FB03FCA1EB0E0161435A
:103900000BFB00C241F30F2906FB10710EEBA22244
:10391000CDE902C713B22A460BFB02F706FB10746F
:1039200006FB02FC0BFB00C0CDE900C708EBA4249A
:1039300025B20EEBA020039F04B206FB1970DDF840
:1039400008C0019F0BFB09C206FB197608EBA121F9
:1039500008EBA0200EEBA22208EBA62609B200B2CB
:1039600012B236B200E00AE0DDF800C088420BFB7C
:1039700009CC0EEBAC273FB211DA844610E00020F0
:10398000AAF80000AAF80200A9F10100AAF80400B0
:103990000798401EAAF8060009B0BDE8F08F8C46D3
:1039A000AE4201DAB04600E0A846C44505DA8842D6
:1039B00001DA844606E08C4604E0AE4201DAB44601
:1039C00000E0AC46AAF800C0884201DD844600E071
:1039D0008C46AE4201DDB04600E0A846C44503DD9A
:1039E000884206DC084604E0AE4201DD304600E0D5
:1039F0002846AAF804009A4201DA104600E0184668
:103A0000A74201DA394600E02146884205DA9A42A7
:103A100001DA104606E0184604E0A74201DA38460B
:103A200000E02046AAF802009A4201DD104600E0BC
:103A30001846A74201DD394600E02146884203DDF1
:103A40009A4206DC1A4604E0A74201DD3A4600E04D
:103A50002246AAF806209FE72DE9FE4F0446D0F83B
:103A600000B0B0F90800D4E909650B1AB4F90A00EE
:103A7000121AE089B0F5807F37D0A089E18E002846
:103A8000084601FB03F13ED000FB02F3206BE26A23
:103A900000FB01F702FB13774A4300FB032006EB10
:103AA000A72905EBA020B4F904104FEA2927061234
:103AB0008046B94246DD002F44DBB4F90600B0422F
:103AC00040DD002E3EDB94F8340042073DD58207EE
:103AD00004F114001CD401FB067102224D00924631
:103AE0000BEB050100F0BAFE22E0206BE16A00FB5F
:103AF00003F701FB1277594300FB021006EBA709FD
:103B000005EBA000CFE700FB025006EB0109CAE776
:103B100001FB067101EB41054FF0030A0BEB0501B8
:103B2000022200F09BFEE81C584410F8010CA0751E
:103B300094F83400C0071ED01848A18A008880B2CB
:103B4000814218D10020BDE8FE8F32B204F1180086
:103B50002369CDE90102002539B2AA468B4612F04D
:103B600035FA0090BDF80000A082DDE90102594657
:103B700012F0C4F9DBE7E07C68B1A4F83890A4F84F
:103B80003A80A787E687256484F844A02046BDE8EC
:103B9000FE4F00F005B80120D5E700003C480308BF
:103BA0002DE9F04F044690F83810D0F8009090F8C6
:103BB0003A0087B04FF0FF36702907DAB4F93C209D
:103BC0003546012A00D5002580310DE0902916DD0B
:103BD000B4F93C20B4F904300125521C9A4200DBB0
:103BE0000025A1F27F114942C9B28846702809DA3E
:103BF000B4F93E10012900D50026803010E00025E0
:103C0000FF21F2E790280DDDB4F93E10B4F906204B
:103C10000126491C914200DB0026A0F27F104042A1
:103C2000C7B201E00026FF2760690090A07D0590E3
:103C3000002083468246049094F83400400744D51F
:103C400094F84410206C11FB05014944022201A89C
:103C500000F010FEA08894F8441010FB01F0216CD5
:103C6000022206FB0011494403A800F003FEA188CC
:103C700094F8440011FB00F1226C06FB012210FBBA
:103C800005901118022202A800F0F4FD94F8340007
:103C900080075BD594F84400226C10FB052300EBF1
:103CA00009010B4413F8013C0493A38813FB00F3B0
:103CB00006FB0322114411F801BC10FB050011188A
:103CC00001EB090010F8010C3FE0A08FB4F93E2091
:103CD000284401B204F118008146236912F076F9F4
:103CE0000190E08FB4F93C10304402B24846236999
:103CF00012F06CF90390E08F2369304402B2A08F78
:103D0000284401B2484612F061F9029094F8340058
:103D100080071BD5A08FB4F93E20284401B2484645
:103D200012F0ECF80490E08FB4F93C10304402B289
:103D3000484612F0E3F88346E08F304402B2A08F89
:103D4000284401B2484612F0D9F8824694F834006B
:103D500042464546800735D5059810FB08F304997F
:103D6000C8F1FF0011FB0031C1F307211BFB08F66E
:103D70001AFB0060C0F3072011FB07F3C7F1FF0631
:103D800010FB06331B0AA375022907D8022803D8A3
:103D9000002007B0BDE8F08F002702E0022800D81D
:103DA000FF270598022800D800220498022800D88E
:103DB000FF22BBF1020F00D80025BAF1020F03D891
:103DC000FF2501E0FF20A075EAB1FF2A04D0DDE95C
:103DD00000010FF00DF90090BDB1FF2D17D0DDE906
:103DE00002102A460FF004F9049097B1FF2F05D076
:103DF00001463A4600980FF0FBF80090BDF800002D
:103E0000A0820120C5E70198E5E70298ECE7039856
:103E1000EAE7BDF81000F3E72DE9F0470446B0F9F2
:103E200008000A2700026062B4F90A000002A062DA
:103E3000B4F90C1091FBF7F5684200EB800001EB40
:103E40004006684205F1010800B201F0A7FB824676
:103E5000E84300B201F0A2FB8146C5F15A0000B26E
:103E600001F09CFB0546C8F15A0000B201F096FB38
:103E7000C6F10A0101FB0AF3024609FB0630694359
:103E800090FBF7F002FB061191FBF7F14011E062A5
:103E900048112063A07C12F0A5F994F8341060F367
:103EA000000184F83410A07C12F08CF994F83410DE
:103EB00060F3410184F83410A07C042822D0052846
:103EC00020D006281ED021F0040100BF84F8341051
:103ED00021682162A16921F0E00160F30401A0885A
:103EE00060F39421E08860F35F51A161E0894FF4B1
:103EF0008031B1FBF0F0E086FF20A075208AA0821F
:103F0000BDE8F08741F00401E0E700002DE9F0474B
:103F1000444E89468046318821B14348434C056868
:103F200000200EE00020BDE8F08700BF00EBC002DB
:103F300005EB8202136AA34201DD5B1E1362401C83
:103F400080B28842F2D300241BE000BF04EBC4001F
:103F500005EB8007786813F021FB10B1012809D028
:103F60000DE0796841450AD139891FFA89F081420B
:103F70000ED004E041467868FCF730FA40B1641C8A
:103F8000A4B230888442E1D32C46012032881AE062
:103F900004EBC40005EB80046169206A08444FF417
:103FA0007A712062884200DD2162002CECD036E07C
:103FB00000EBC00105EB8101266A0B6AB34200DA0F
:103FC0000C46401C80B29042F2D3606810B120468B
:103FD00012F0EBFC19F01AFA064600254A46414653
:103FE0002046656112F040FD18B12562606978B124
:103FF00015E0204612F0D9FC2021204600F078FC84
:104000002421204600F074FC4FF00040206289E734
:10401000304619F0F5F9606108B901206061204669
:1040200081E70000100100105C0100100100008019
:1040300010B514210C4800F096F912F0C9FC40B1FB
:104040000A4901600A4941600A4981600A49C16020
:1040500010BD0FF0EBFE0028FAD10022134607A096
:104060000FF0E8FEFEE70000C024001079630108AD
:10407000E9660108ED680108456301084F75742081
:104080006F66206D656D6F72790000000021084633
:1040900013F056BB70B50C4605460026102120468D
:1040A00000F026FC2878012804D0022807D0042834
:1040B00008D00BE0A88C2080E88C608006E0A86A1D
:1040C000606003E00A2060600020A0816A681AB185
:1040D0002146284690470646304670BD2DE9FF41EF
:1040E000474DC06868600169002960D00CF0EAFCA7
:1040F000686890F85400400759D4002669466868FB
:10410000FFF7C8FF074668680CF0DCFC2E606868A3
:104110009DF80E1080F82010012905D000780428A1
:1041200008D1BDF80C0090B319F070F969680969FD
:10413000C1F87C0168680178012906D0022938D0CD
:1041400004293AD003293DD02AE00446806D78B195
:10415000B4F92820BDF900108A4205D1B4F92A200B
:10416000BDF902309A4203D0BDF9022016F0B0FF2B
:10417000BDF80000A084BDF80200E08494F820009F
:104180003BE000BF04F120000CF0A4FA04E014E0CE
:1041900004F120000CF0F8FBA08C2085E08C6085F9
:1041A00068680CF08FFC002FA8D16E602E60BDE80F
:1041B000FF8169460CF07CF9F2E7694668680BF00C
:1041C00041FFEDE70446006E0028E9D00299022283
:1041D00030F82100A084206E029902EB8101405E3C
:1041E000E084B4F92810B4F924209142D0D1B4F974
:1041F0002A108142CCD19DF80E000128C8D1C1E718
:104200004C0500207FB50D46040003D10FF00EFFD2
:10421000040025D02E4EF5B10020ADF80000ADF819
:10422000020020460FF014FF401EADF804002046A7
:104230000FF074FF401EADF806006A46294602A83A
:10424000FEF7D6FF00280BD0226912B102A9204642
:104250009047002511E0D4F878013040C4F8780187
:104260007FBD00BF04EBC501002202A85A31FEF752
:10427000E7FF0028F4D16D1CADB2D4F87801C0F38B
:104280000940A842EED8D4F87801C0F309412029AA
:1042900003D204EBC10002A907E03040C4F8780162
:1042A000C0F3094004EBC00069465A300EF0EEFB43
:1042B000D4F878014FF4800101EBB0604FEAB01000
:1042C000C4F878010321206B18F0E6FF7FBD0000E1
:1042D000FFFF00FC70B50C461E461546114600F067
:1042E000F2F8AEB10022294620461AF04DFB2946CD
:1042F000204662681AF042FB616819B12A462046DE
:104300001AF042FB6560A068002800D1A56070BD6E
:1043100029462046A2681AF037FB0022294620468B
:104320001AF02CFBA16819B12A4620461AF026FB88
:10433000A56060680028EAD1656070BD002100B109
:10434000416808467047002802D00068091D40589F
:104350007047002801D0006840587047002100B124
:1043600081680846704700224260C91C21F00301A1
:1043700082600160704770B504460068083014F030
:10438000EDFE050013D00146002220461AF0FCFA8B
:104390002946204662681AF0F1FA616819B12A4686
:1043A00020461AF0F1FA6560A06800B9A5602846B9
:1043B00070BD2DE9F0410D4607002BD055B3FFF736
:1043C000BDFFA84204D13846FFF7D5FF04461EE0E2
:1043D0003868083014F0C2FE04001BD02946384665
:1043E000FFF7B7FF06460146224638461AF0C6FADE
:1043F0003246214638461AF0C7FA22462946384640
:104400001AF0C2FA2A46214638461AF0B7FA204670
:10441000BDE8F0810020FBE770B504460068083075
:1044200014F09CFE050013D00146002220461AF02D
:10443000A5FA29462046A2681AF0A6FAA16819B181
:104440002A4620461AF09AFAA560606800B96560AD
:10445000284670BD28B1416809B9806808B10020BC
:104460007047012070472DE9F04116460D4607467A
:10447000B14226D01EB11146FFF76BFF01E0FFF7F6
:104480006DFF0446A5421CD02946384600F01BF8B3
:104490002A46214638461AF071FA224629463846FD
:1044A0001AF072FA2A46314638461AF06DFA324648
:1044B000294638461AF062FA06B9BD60002C00D1D0
:1044C0007D60BDE8F08170B50A460446FFF736FF0F
:1044D000002390420AD111462046FFF734FF606066
:1044E000011E01D0002224E0A36070BD2046FFF72A
:1044F00035FF9042114620460CD1FFF72AFFA060FD
:10450000011E05D02046BDE8704000221AF036BAE0
:10451000636070BDFFF71DFF064611462046FFF79A
:1045200012FF05460246314620461AF027FA324667
:1045300029462046BDE870401AF026BA70B5002022
:104540000D49054601EBC002401CC0B2957102281E
:10455000F8D30A4E002400BF56F8340038B114F0E6
:1045600051FE06EBC40046F8345085718580641C0A
:10457000E4B2102CF0D370BD90050020D8240010B8
:1045800070B500281DD0012110280AD82F4B002219
:1045900003EBC204A479E4070ED0521CD2B2022A63
:1045A000F6D32B4C4FF0FF33002200BF04EBC205C3
:1045B000AE79F60706D017E003EBC200817153F81D
:1045C000320070BDAD8885420ED305D104EBC20028
:1045D000817154F8320070BD002B04DB04EBC3067C
:1045E000B688B54200D253B2521CD2B2102ADDD3E3
:1045F000002B05DB04EBC300817154F8330070BD60
:104600005FF0000504EBC5029279D20709D06D1C5A
:10461000EDB2102DF6D3002213460EA00FF00AFCC7
:10462000FEE704EBC5029171908054F835200146F5
:10463000104614F015FE44F835000028DFD10022A2
:10464000134610480FF0F6FBFEE70000900500202F
:10465000D82400104E6F206672656520627566660C
:1046600065722E20496E637265617365204C565FDA
:10467000445241575F4255465F4D41585F4E554D3C
:104680002E0000001481030810B500210C4B0A46CF
:1046900053F83140844209D0491CC9B20229F7D3EA
:1046A000084B002153F83140844203D103EBC10091
:1046B000827110BD491CC9B21029F3D310BD00008E
:1046C00090050020D8240010002803D00449884217
:1046D00001D10020704750F8040C400870470000DA
:1046E00088050020064905484BF6FC7248600168C1
:1046F00021F0010162F35F0101607047004000108A
:104700008005002030B500F0030401F003050346E6
:10471000A54243D14EE00C781C704C785C708C78CC
:104720009C70CC78DC700C791C714C795C718C7944
:104730009C71CC79DC710C7A1C724C7A5C728C7A2C
:104740009C72CC7ADC720C7B1C734C7B5C738C7B14
:104750009C73CC7BDC730C7C1C744C7C5C748C7CFC
:104760009C74CC7CDC740C7D1C754C7D5C758C7DE4
:104770009C75CC7DDC750C7E1C764C7E5C768C7ECC
:104780009C76CC7EDC760C7F1C774C7F5C778C7FB4
:104790009C77CC7FDC772031203A2033202ABAD88E
:1047A00005E000BF11F8014B03F8014B521E002A2F
:1047B000F8D130BD4CB3C4F1040405E011F8015B3D
:1047C000521E03F8015B641EFCB1002AF6D11CE006
:1047D00010C9203A10C310C910C351F8084B43F850
:1047E000084B51F8044C43F8044C51F8104B43F873
:1047F000104B51F80C4C43F80C4C51F8084C43F852
:10480000084C51F8044C43F8044C202AE0D802E04C
:1048100010C9121F10C3042AFAD804E011F8014B82
:1048200003F8014B521E002AF8D130BD10B50346E3
:1048300005E000BF11F8014B03F8014B521E002A9E
:10484000F8D110BD10B5034605E000BF11F8014BCB
:1048500003F8014B521E002AF8D110BD10B50346D3
:1048600005E000BF11F8014B03F8014B521E002A6E
:10487000F8D110BD10B5034605E000BF11F8014B9B
:1048800003F8014B521E002AF8D110BD10F00303AB
:1048900009D0C3F1040303E0521E00F8011B5B1EA4
:1048A0000BB1002AF8D101EB012303EB014303EB29
:1048B00001630EE008C0203A08C040F8083B40F809
:1048C000043C40F8103B40F80C3C40F8083C40F8F1
:1048D000043C202AEED801E008C0121F042AFBD8AD
:1048E00003E000BF00F8011B521E002AFAD17047F6
:1048F00010F003034FF0000219D0C3F1040303E0EA
:10490000491E00F8012B5B1E8BB10029F8D17047BE
:1049100004C0203904C040F8082B40F8042C40F8AB
:10492000102B40F80C2C40F8082C40F8042C2029BF
:10493000EED801E004C0091F0429FBD803E000BF42
:1049400000F8012B491E0029FAD1704710F003022C
:104950004FF0FF030AD0C2F1040203E0491E00F841
:10496000013B521E12B10029F8D170474FF0FF32BF
:104970000EE004C0203904C040F8082B40F8042C95
:1049800040F8102B40F80C2C40F8082C40F8042C70
:104990002029EED801E004C0091F0429FBD802E059
:1049A00000F8013B491E0029FAD170472DE9F04774
:1049B00086B014468A461646170A05464FF0000888
:1049C00023E05146284615F054FC814651462846BE
:1049D00015F0D8FB06EB002084B202AA2146484617
:1049E00000F0FAFA012807D0380610D5BAF1000F06
:1049F00007D04FF0000A08E0BDF8080006B0BDE897
:104A0000F087284615F07CFB0546002DD9D124F40B
:104A1000FE40292804D02A2802D0CDF8008002E0E8
:104A2000024800680090BDF80000E7E73848030836
:104A30002DE9F8431546894617464FEA12280646DF
:104A400093E04946304615F014FC044640680105E1
:104A500075D4810673D0400505D425F4FE4249463D
:104A600030461FF053FE25F4FE40312850D019DCAB
:104A700010285CD007DC082861D2DFE800F0605223
:104A80003D6043434343202855D006DC11284ED0D7
:104A900012284CD0132852D149E0232829D030289D
:104AA0004DD132E0602846D00EDC422843D006DCEF
:104AB000322840D033282ED0402840D12EE0502834
:104AC00032D054283BD136E048F28102811A90421C
:104AD00015D009DC72282ED091282CD000F5FF408B
:104AE000B0F5803F2BD10AE0022924D01F2926D11E
:104AF00021E06068C00220E0A08840041DE06068FA
:104B000080001AE0A088000417E06068800214E0CA
:104B10006068400211E0606800020EE06068C00159
:104B20000BE0A088C00408E06068400105E0606810
:104B3000C00302E003E060688003002818DB4946F8
:104B4000304615F01FFB07EB002085B26A46294668
:104B5000204600F07DFA012814D05FEA086007D5EE
:104B6000B9F1000F12D04FF00009002E7FF469AFA9
:104B700025F4FE40222819D00CDC032812D0072887
:104B80000CD115E0BDF90000BDE8F883304615F002
:104B9000B7FA54E7312803D0C02805D00020F3E746
:104BA0000F20F1E70220EFE70620EDE7FF20EBE71B
:104BB0004FF48070E8E72DE9F8431446894617461C
:104BC0004FEA122806463BE04946304615F051FBB5
:104BD0000546406801051DD481061BD0400505D45B
:104BE00024F4FE42494630461FF090FD24F4FE4076
:104BF0002C2809D00C38B0F5004002D0A12809D1EA
:104C00002DE0A888800403E06868010324D44003F1
:104C1000002817DB4946304615F0B4FA07EB0020B0
:104C200084B26A462146284600F04EFA012819D07F
:104C30005FEA086006D5B9F1000F16D04FF0000901
:104C4000002EC1D124F4FE402C2812D06D2810D0A3
:104C5000AD38B0F5004F0CD0FF20BDE8F883686890
:104C6000C000D5E79DF80000F7E7304615F048FA98
:104C7000A8E70020F1E700002DE9F8431446894633
:104C800017464FEA122806463BE04946304615F0E3
:104C9000F0FA0546406801051DD481061BD0400589
:104CA00005D424F4FE42494630461FF02FFD24F47B
:104CB000FE406E2809D07F2804D08E38B0F5004F12
:104CC00009D105E06868000103E06868800100E040
:104CD0006868002817DB4946304615F053FA07EBA1
:104CE000002084B26A462146284600F029FA0128AD
:104CF00016D05FEA086006D5B9F1000F12D04FF068
:104D00000009002EC1D124F4FE407E280ED0BE281A
:104D10000FD08E38B0F5004F08D00020BDE8F883E2
:104D20000098FBE7304615F0EBF9ACE718F0FEFA17
:104D3000F4E70148F2E70000947D03082DE9F04113
:104D40001F4614460D46064615F093FA3A4621468C
:104D500000F0B8FA00232246294630461FF098FC9E
:104D600024F4FE4229463046BDE8F04115F092BFDA
:104D7000014840687047000008010010704730B5D6
:104D800004020020831803FB03F5A54200D818464F
:104D90005208F7D1020900070A80000E488030BD92
:104DA0002DE9F0418846050016464FF0FF3706D042
:104DB000286820B128460AF0E7FB040002D53846EF
:104DC000BDE8F0812968A01C014402223046FFF7AB
:104DD00039FD214628460AF013FC00EA182000F0AD
:104DE0007F00EDE72DE9F0418846050016464FF0BB
:104DF000FF3706D0286820B128460AF0C5FB04001A
:104E000002D53846BDE8F0812968A01C0144022281
:104E10003046FFF717FD214628460AF0F1FB00EA6D
:104E2000182000F07F00EDE770B505460068002807
:104E30000DD0002403E000BF0AF098FB0444214693
:104E400028460AF0E2FBFF28F6D1A41CA0B270BDF0
:104E50002DE9F0418846050016464FF0FF3706D091
:104E6000286820B128460AF08FFB040002D5384696
:104E7000BDE8F0812968A01C014401223046FFF7FB
:104E8000E1FC214628460AF0BBFB00EA182000F0AE
:104E90007F00EDE72DE9F0418846050016464FF00A
:104EA000FF3706D0286820B128460AF06DFB0400C1
:104EB00002D53846BDE8F0812968A01C01440422CF
:104EC0003046FFF7BFFC214628460AF099FB00EA6E
:104ED000182000F07F00EDE770B50E4605003AD0CF
:104EE00000F06EF96868810616D08006010E091D73
:104EF000286814F0B5F904460EF098FF80B1002C34
:104F000029D0696800200A0600D501204A0600D58C
:104F1000401C01F03F0111E0042014F01FF9EAE702
:104F2000224600230CA00EF085FFFEE704EB810271
:104F300052F8042C44F82120491EC9B28142F5D808
:104F400044F8206068684FF0806101EBB0104FEAD0
:104F5000B060C5E9004070BD4F7574206F66206D6C
:104F6000656D6F727900000070B505460079000626
:104F700004D52846BDE8704000F019B9042014F0AB
:104F8000EDF804460EF052FFA8B1D4B1204617F058
:104F9000A2FE21462846FFF79FFF686840F0800088
:104FA0006860400605D52868D0E9001202602868CC
:104FB0004160204670BD2246002303A00EF03AFF58
:104FC000FEE7002070BD00004F7574206F66206DF5
:104FD000656D6F72790000002DE9F8431746894628
:104FE000060033D0306800282ED000204FEA192860
:104FF0004FF0FF34ADF8000005461DE0E9B2304641
:1050000017F0DFFE6A464946FFF7CAFE404503D166
:10501000BDF80000388016E071680A0604D5002843
:1050200002DB0DB9C905F3D5A04203DD0446BDF886
:10503000000038806D1C2DB2307900F03F00A8428E
:10504000DCDC002C02DB0120BDE8F8830020FBE75C
:105050002DE9F84317468946060033D0306800280A
:105060002ED000204FEA19284FF0FF34ADF8000091
:1050700005461DE0E9B2304617F0A3FE6A464946F0
:10508000FFF7B0FE404503D1BDF80000388016E0C0
:1050900071680A0604D5002802DB0DB9C905F3D5ED
:1050A000A04203DD0446BDF8000038806D1C2DB21F
:1050B000307900F03F00A842DCDC002C02DB01204C
:1050C000BDE8F8830020FBE72DE9F8431746894641
:1050D000060033D0306800282ED000204FEA19286F
:1050E0004FF0FF348DF8000005461DE0E9B2304670
:1050F00017F067FE6A464946FFF7AAFE404503D10E
:105100009DF80000387016E071680A0604D5002882
:1051100002DB0DB9C905F3D5A04203DD04469DF8B5
:10512000000038706D1C2DB2307900F03F00A842AD
:10513000DCDC002C02DB0120BDE8F8830020FBE76B
:105140002DE9F8431746894606002ED0306800281E
:1051500029D04FEA19284FF0FF3400251BE0E9B2AF
:10516000304617F02EFE6A464946FFF793FE40454B
:1051700002D10098386015E071680A0604D500284D
:1051800002DB0DB9C905F4D5A04202DD0446009842
:1051900038606D1C2DB2307900F03F00A842DEDC93
:1051A000002C02DB0120BDE8F8830020FBE7017939
:1051B000090601D4002070470068006870470000AD
:1051C00070B50E464168044688061CD0002001F0E8
:1051D0003F0116E0226852F82020B2420FD100258C
:1051E000012911D08800001F13F0B8FF05460EF00A
:1051F0001DFE90B1002D06D0002001461EE0401C8F
:10520000C0B28142E6D870BD206813F0FBFF256074
:10521000606820F07F00606070BD2A46002310A007
:105220000EF008FEFEE7226852F82020B24203D0BA
:1052300045F82120491CC9B2401CC0B2227902F0B5
:105240003F028242EFD8206813F0DCFF60684FF025
:105250007C4101EBB0104FEAB060C4E9005070BD72
:105260004F7574206F66206D656D6F727900000058
:1052700070B5040025D02079400609D5204617F0E6
:1052800094FD050004D017F0DEFD284613F0BAFFA8
:105290002079000609D52046FFF789FF050004D0D4
:1052A00017F0D1FD284613F0ADFF2079800602D01B
:1052B000206813F0A7FF0020206060686FF30800EB
:1052C000606070BD70B514460D4609F007FE2246B9
:1052D0002946BDE8704000F001B8000037B582B043
:1052E0000446BDF80C100AF04FF9050011D4014630
:1052F00020460AF085F9BDF80C1000F07F00C1F3DC
:105300000621884205D1AD1C20680222284404A948
:1053100026E0FF20ADF800002046FFF785FD00B92C
:105320000220001D85B2294620461DF05FFF20683F
:105330000EF07CFDC0B1002C14D02068022228445D
:1053400003A9801FFFF77EFA20680222284404A9DF
:10535000001FFFF777FA2068022228446946801E62
:10536000FFF770FA05B030BD002302A022680EF0EE
:1053700061FDFEE74F7574206F66206D656D6F727D
:105380007900000037B582B00446BDF80C100AF071
:10539000FBF8050011D4014620460AF031F9BDF8AA
:1053A0000C1000F07F00C1F30621884205D1AD1C2E
:1053B00020680222284404A926E0FF20ADF800005E
:1053C0002046FFF731FD00B90220001D85B22946B5
:1053D00020461DF00BFF20680EF028FDC0B1002C08
:1053E00014D020680222284403A9801FFFF72AFA5C
:1053F00020680222284404A9001FFFF723FA20682E
:10540000022228446946801EFFF71CFA05B030BD11
:10541000002302A022680EF00DFDFEE74F757420F8
:105420006F66206D656D6F727900000037B582B0D0
:105430000446BDF80C100AF0A7F8050011D4014687
:1054400020460AF0DDF8BDF80C1000F07F00C1F333
:105450000621884205D1AD1C20680122284404A9F8
:1054600026E0FF20ADF800002046FFF7DDFC00B984
:105470000220C01C85B2294620461DF0B7FE2068D8
:105480000EF0D4FCC0B1002C14D0206802222844B5
:1054900003A9401FFFF7D6F920680122284404A978
:1054A000C01EFFF7CFF92068022228446946801EFB
:1054B000FFF7C8F905B030BD002302A022680EF046
:1054C000B9FCFEE74F7574206F66206D656D6F72D5
:1054D0007900000037B582B00446BDF80C100AF020
:1054E00053F8050011D4014620460AF089F8BDF8AA
:1054F0000C1000F07F00C1F30621884205D1AD1CDD
:1055000020680422284404A926E0FF20ADF800000A
:105510002046FFF789FC00B90220801D85B229468C
:1055200020461DF063FE20680EF080FCC0B1002C08
:1055300014D020680222284403A90838FFF782F912
:1055400020680422284404A9801FFFF77BF9206803
:10555000022228446946801EFFF774F905B030BD69
:10556000002302A022680EF065FCFEE74F75742050
:105570006F66206D656D6F727900000010B518219F
:105580000448FEF7F0FE044800210171012101707A
:1055900010BD00006C240010A00500204FF4B47171
:1055A00090FBF1F201FB1200002802DA00F5B47062
:1055B00000B20E495A2802DA31F910007047A0F102
:1055C0005A025A2A03D2C0F1B40000B2F4E7A0F1A3
:1055D000B4025A2A01D210B202E0C0F5B47000B28F
:1055E00031F81000404200B270470000B07D03085F
:1055F0002DE9F04788B01D46109E9246894604006A
:1056000007D0B9F1000F04D016F0120F10D000200F
:1056100004E0002008B0BDE8F087401C215C0A29A6
:1056200004D00D2902D00029F7D1F3E7401CF1E79F
:10563000B00701D547F618454FF000088DF81480E3
:10564000204FCDF8108021E00498CDF8188028B3C1
:10565000002105AB06AACDE90231CDE90062204464
:105660002B465246494618F097F90699691A0DB229
:10567000B0B104990844049021780A290BD00D296F
:1056800009D0205C0A2812D00D2810D00498205C84
:1056900008B1002DD8DC049868B110E00121D8E7EA
:1056A000049860B97A6804A920469047F3E7049803
:1056B000401C0490EFE77A6804A9204690470498BC
:1056C000A8E70000B80500202DE9FF4F83B004468D
:1056D0004FF00000DDF848A0DDF8409020809346B0
:1056E0000F00608047D0BBF1000F44D05FEA8A70A2
:1056F00002D547F6184011900025A846BBF808606F
:1057000023E07819CDE900A05946119B069AFFF7CE
:105710006FFF8044B4F9020006EB09010144B1F5C2
:10572000004F28D2304448446080A8EB0501CDF8F2
:1057300000A05A46069B019800F022F8B4F9001028
:10574000814200DB084620804546785D0028D8D19C
:105750005DB1781910F8010C0A2801D00D2804D188
:10576000618806EB090008446080B4F9020028B1A2
:10577000A0EB0900608007B0BDE8F08F6680FAE713
:105780002DE9FC5F1E46DDF830A091460D4607006E
:1057900009D0B9F1000F06D00020044600908DF822
:1057A00004002DBB2BE00020BDE8FC9FDFF85480F7
:1057B00069463846D8F80420904783460098D8F8C0
:1057C000042038440021904780465FEACA7004D024
:1057D000594601A800F018F850B9424659464846C3
:1057E00010F05AF900B2002802DD2044304404B21F
:1057F0000098A842DAD3002C01DDA01B04B2204699
:10580000D2E70000B805002000230278232902D047
:10581000012A0DD00FE02AB10021012A04D0022A6A
:1058200004D008E0012101E0017004E0017001E012
:10583000202902D00123184670470221F6E7000014
:105840002DE9F0471E4614460D468246DDF82090AD
:1058500015E000BF4FEA540808FB0657394650468A
:105860004A469047002808DD44F30000C0EB54048A
:1058700007EB0605A4F1010401E005DA4446002C1B
:10588000E8D12046BDE8F0873846FBE72DE9F04F28
:1058900089B017468B4606004FF0000405D14FF43F
:1058A0009B72254925A01AF049F83FB940F23712FA
:1058B000214923A01AF042F800E0641C305D202842
:1058C00003D0092801D05C45F7D34FF0FF3984B3EA
:1058D0001D4804F1060ADFF87480056811E006220D
:1058E0001BA12868FAF79EFD50B928682246314668
:1058F000801DFAF797FD18B9296811F80A0028B138
:105900000C35D8F800008542E9D313E0AC6884B1C7
:1059100020216846FAF738FD6A465946304618F0A5
:10592000B3FF30B16946A0473860002009B0BDE838
:10593000F08FFFE74846F9E796420308636D64007D
:105940007265747000000000700400207404002070
:105950005F5F636D645F00002DE9FF4F95B09B466C
:105960008946064600250FE2252877D100242746E0
:10597000F84A0121059400E0044316F8013F203B5A
:1059800001FA03F01042F7D130782A2811D06FF0D5
:105990002F033078A0F13002092A16D8059A44F076
:1059A000020402EB820203EB42021044761C0590D3
:1059B000EFE759F8042B0592002A03DA504244F429
:1059C0000054059044F00204761C30782E2816D13D
:1059D00016F8010F44F004042A280DD06FF02F02AE
:1059E0003078A0F13003092B09D807EB870302EBCD
:1059F0004303C718761CF3E759F8047B761C30780C
:105A00006C280FD006DC4C2817D068280DD06A28E7
:105A100014D104E0742810D07A280FD10DE044F49A
:105A200000140AE044F4801401E044F44014727855
:105A3000824202D104F58014761C761C30786628E8
:105A40000BD013DC582877D009DC002875D0452806
:105A5000F6D04628F4D047281AD19DE118E06328F3
:105A600035D0642879D0652812D195E1702873D09B
:105A700008DC6728F1D069286FD06E280DD06F2818
:105A800006D1B5E073282CD0752875D0782874D04D
:105A90005A46179990476D1C75E1C4F302500228CD
:105AA00009D003280DD0D9F8001004280DD00D60BE
:105AB00009F1040967E1D9F80010EA17C1E90052B9
:105AC000F6E7D9F800100D80F2E70D70F0E719F84D
:105AD000041B8DF8001000208DF80100EA4601201B
